{"contracts/MultiPairFlashArbitrage.sol":{"MultiPairFlashArbitrage":{"abi":[{"inputs":[{"internalType":"address","name":"_addressProvider","type":"address"},{"internalType":"address[]","name":"routerAddresses","type":"address[]"},{"internalType":"uint256","name":"_minProfit","type":"uint256"}],"stateMutability":"nonpayable","type":"constructor"},{"anonymous":false,"inputs":[{"indexed":false,"internalType":"uint256","name":"totalOwed","type":"uint256"},{"indexed":false,"internalType":"uint256","name":"scaledMinProfit","type":"uint256"},{"indexed":false,"internalType":"uint256","name":"finalBalance","type":"uint256"}],"name":"DebugCheck","type":"event"},{"anonymous":false,"inputs":[{"indexed":false,"internalType":"uint256","name":"flashAmount","type":"uint256"},{"indexed":false,"internalType":"uint256","name":"premium","type":"uint256"},{"indexed":false,"internalType":"uint256","name":"token0Before","type":"uint256"},{"indexed":false,"internalType":"uint256","name":"token1AfterSwap1","type":"uint256"},{"indexed":false,"internalType":"uint256","name":"token0AfterSwap2","type":"uint256"}],"name":"DebugLog","type":"event"},{"inputs":[],"name":"POOL","outputs":[{"internalType":"address","name":"","type":"address"}],"stateMutability":"view","type":"function"},{"inputs":[{"internalType":"address","name":"token0","type":"address"},{"internalType":"address","name":"token1","type":"address"},{"internalType":"address","name":"router0","type":"address"},{"internalType":"address","name":"router1","type":"address"}],"name":"executeFlashArbitrage","outputs":[],"stateMutability":"nonpayable","type":"function"},{"inputs":[{"internalType":"address","name":"asset","type":"address"},{"internalType":"uint256","name":"amount","type":"uint256"},{"internalType":"uint256","name":"premium","type":"uint256"},{"internalType":"address","name":"initiator","type":"address"},{"internalType":"bytes","name":"params","type":"bytes"}],"name":"executeOperation","outputs":[{"internalType":"bool","name":"","type":"bool"}],"stateMutability":"nonpayable","type":"function"},{"inputs":[],"name":"minProfit","outputs":[{"internalType":"uint256","name":"","type":"uint256"}],"stateMutability":"view","type":"function"},{"inputs":[],"name":"owner","outputs":[{"internalType":"address","name":"","type":"address"}],"stateMutability":"view","type":"function"},{"inputs":[{"internalType":"address","name":"","type":"address"}],"name":"whitelistedRouters","outputs":[{"internalType":"bool","name":"","type":"bool"}],"stateMutability":"view","type":"function"},{"inputs":[],"name":"withdrawNative","outputs":[],"stateMutability":"nonpayable","type":"function"},{"inputs":[{"internalType":"address","name":"token","type":"address"}],"name":"withdrawToken","outputs":[],"stateMutability":"nonpayable","type":"function"}],"evm":{"bytecode":{"linkReferences":{},"object":"60c06040523480156200001157600080fd5b5060405162002990380380620029908339818101604052810190620000379190620003ef565b8273ffffffffffffffffffffffffffffffffffffffff1663026b1d5f6040518163ffffffff1660e01b8152600401602060405180830381865afa15801562000083573d6000803e3d6000fd5b505050506040513d601f19601f82011682018060405250810190620000a991906200046a565b73ffffffffffffffffffffffffffffffffffffffff1660808173ffffffffffffffffffffffffffffffffffffffff168152505060005b8251811015620001735760016000808584815181106200010457620001036200049c565b5b602002602001015173ffffffffffffffffffffffffffffffffffffffff1673ffffffffffffffffffffffffffffffffffffffff16815260200190815260200160002060006101000a81548160ff02191690831515021790555080806200016a90620004fa565b915050620000df565b508060a0818152505033600160006101000a81548173ffffffffffffffffffffffffffffffffffffffff021916908373ffffffffffffffffffffffffffffffffffffffff16021790555050505062000547565b6000604051905090565b600080fd5b600080fd5b600073ffffffffffffffffffffffffffffffffffffffff82169050919050565b60006200020782620001da565b9050919050565b6200021981620001fa565b81146200022557600080fd5b50565b60008151905062000239816200020e565b92915050565b600080fd5b6000601f19601f8301169050919050565b7f4e487b7100000000000000000000000000000000000000000000000000000000600052604160045260246000fd5b6200028f8262000244565b810181811067ffffffffffffffff82111715620002b157620002b062000255565b5b80604052505050565b6000620002c6620001c6565b9050620002d4828262000284565b919050565b600067ffffffffffffffff821115620002f757620002f662000255565b5b602082029050602081019050919050565b600080fd5b6000620003246200031e84620002d9565b620002ba565b905080838252602082019050602084028301858111156200034a576200034962000308565b5b835b8181101562000377578062000362888262000228565b8452602084019350506020810190506200034c565b5050509392505050565b600082601f8301126200039957620003986200023f565b5b8151620003ab8482602086016200030d565b91505092915050565b6000819050919050565b620003c981620003b4565b8114620003d557600080fd5b50565b600081519050620003e981620003be565b92915050565b6000806000606084860312156200040b576200040a620001d0565b5b60006200041b8682870162000228565b935050602084015167ffffffffffffffff8111156200043f576200043e620001d5565b5b6200044d8682870162000381565b92505060406200046086828701620003d8565b9150509250925092565b600060208284031215620004835762000482620001d0565b5b6000620004938482850162000228565b91505092915050565b7f4e487b7100000000000000000000000000000000000000000000000000000000600052603260045260246000fd5b7f4e487b7100000000000000000000000000000000000000000000000000000000600052601160045260246000fd5b60006200050782620003b4565b91507fffffffffffffffffffffffffffffffffffffffffffffffffffffffffffffffff82036200053c576200053b620004cb565b5b600182019050919050565b60805160a05161240762000589600039600081816107c60152610ad50152600081816101ad0152818161091e01528181610ab101526111df01526124076000f3fe608060405234801561001057600080fd5b50600436106100885760003560e01c806375c81ad01161005b57806375c81ad01461011557806389476069146101335780638da5cb5b1461014f5780639ecb69101461016d57610088565b80630f874a131461008d5780631b11d0ff146100bd57806350431ce4146100ed5780637535d246146100f7575b600080fd5b6100a760048036038101906100a291906112e8565b610189565b6040516100b49190611330565b60405180910390f35b6100d760048036038101906100d291906113e6565b6101a9565b6040516100e49190611330565b60405180910390f35b6100f56109b4565b005b6100ff610aaf565b60405161010c919061148f565b60405180910390f35b61011d610ad3565b60405161012a91906114b9565b60405180910390f35b61014d600480360381019061014891906112e8565b610af7565b005b610157610ced565b604051610164919061148f565b60405180910390f35b610187600480360381019061018291906114d4565b610d13565b005b60006020528060005260406000206000915054906101000a900460ff1681565b60007f000000000000000000000000000000000000000000000000000000000000000073ffffffffffffffffffffffffffffffffffffffff163373ffffffffffffffffffffffffffffffffffffffff1614610239576040517f08c379a000000000000000000000000000000000000000000000000000000000815260040161023090611598565b60405180910390fd5b3073ffffffffffffffffffffffffffffffffffffffff168473ffffffffffffffffffffffffffffffffffffffff16146102a7576040517f08c379a000000000000000000000000000000000000000000000000000000000815260040161029e90611604565b60405180910390fd5b600083838101906102b8919061172d565b9050600080826040015173ffffffffffffffffffffffffffffffffffffffff1673ffffffffffffffffffffffffffffffffffffffff16815260200190815260200160002060009054906101000a900460ff16610349576040517f08c379a0000000000000000000000000000000000000000000000000000000008152600401610340906117a6565b60405180910390fd5b600080826060015173ffffffffffffffffffffffffffffffffffffffff1673ffffffffffffffffffffffffffffffffffffffff16815260200190815260200160002060009054906101000a900460ff166103d8576040517f08c379a00000000000000000000000000000000000000000000000000000000081526004016103cf90611812565b60405180910390fd5b6000816000015173ffffffffffffffffffffffffffffffffffffffff166370a08231306040518263ffffffff1660e01b8152600401610417919061148f565b602060405180830381865afa158015610434573d6000803e3d6000fd5b505050506040513d601f19601f820116820180604052508101906104589190611847565b9050816000015173ffffffffffffffffffffffffffffffffffffffff1663095ea7b383604001518a6040518363ffffffff1660e01b815260040161049d929190611874565b6020604051808303816000875af11580156104bc573d6000803e3d6000fd5b505050506040513d601f19601f820116820180604052508101906104e091906118c9565b506104f982604001518984600001518560200151610fa6565b6000826020015173ffffffffffffffffffffffffffffffffffffffff166370a08231306040518263ffffffff1660e01b8152600401610538919061148f565b602060405180830381865afa158015610555573d6000803e3d6000fd5b505050506040513d601f19601f820116820180604052508101906105799190611847565b9050600081116105be576040517f08c379a00000000000000000000000000000000000000000000000000000000081526004016105b590611942565b60405180910390fd5b826020015173ffffffffffffffffffffffffffffffffffffffff1663095ea7b38460600151836040518363ffffffff1660e01b8152600401610601929190611874565b6020604051808303816000875af1158015610620573d6000803e3d6000fd5b505050506040513d601f19601f8201168201806040525081019061064491906118c9565b5061065d83606001518285602001518660000151610fa6565b6000836000015173ffffffffffffffffffffffffffffffffffffffff166370a08231306040518263ffffffff1660e01b815260040161069c919061148f565b602060405180830381865afa1580156106b9573d6000803e3d6000fd5b505050506040513d601f19601f820116820180604052508101906106dd9190611847565b905060008111610722576040517f08c379a0000000000000000000000000000000000000000000000000000000008152600401610719906119ae565b60405180910390fd5b6000898b61073091906119fd565b90506000856000015173ffffffffffffffffffffffffffffffffffffffff1663313ce5676040518163ffffffff1660e01b8152600401602060405180830381865afa158015610783573d6000803e3d6000fd5b505050506040513d601f19601f820116820180604052508101906107a79190611a6a565b905060008160126107b89190611a97565b600a6107c49190611bff565b7f00000000000000000000000000000000000000000000000000000000000000006107ef9190611c79565b90507fd8dfa1df854fcceb7d93b8d19ac99c35a6d6f85ddb3176be33bb5a312f9e363d8d8d888888604051610828959493929190611caa565b60405180910390a17ff4dbd397aa2b592b3852cd94a99201dbc3622cfc8626dc0b547151722064a11783828660405161086393929190611cfd565b60405180910390a1828410156108ae576040517f08c379a00000000000000000000000000000000000000000000000000000000081526004016108a590611d80565b60405180910390fd5b80836108ba91906119fd565b8410156108fc576040517f08c379a00000000000000000000000000000000000000000000000000000000081526004016108f390611dec565b60405180910390fd5b866000015173ffffffffffffffffffffffffffffffffffffffff1663095ea7b37f0000000000000000000000000000000000000000000000000000000000000000856040518363ffffffff1660e01b815260040161095b929190611874565b6020604051808303816000875af115801561097a573d6000803e3d6000fd5b505050506040513d601f19601f8201168201806040525081019061099e91906118c9565b5060019750505050505050509695505050505050565b600160009054906101000a900473ffffffffffffffffffffffffffffffffffffffff1673ffffffffffffffffffffffffffffffffffffffff163373ffffffffffffffffffffffffffffffffffffffff1614610a44576040517f08c379a0000000000000000000000000000000000000000000000000000000008152600401610a3b90611e58565b60405180910390fd5b600160009054906101000a900473ffffffffffffffffffffffffffffffffffffffff1673ffffffffffffffffffffffffffffffffffffffff166108fc479081150290604051600060405180830381858888f19350505050158015610aac573d6000803e3d6000fd5b50565b7f000000000000000000000000000000000000000000000000000000000000000081565b7f000000000000000000000000000000000000000000000000000000000000000081565b600160009054906101000a900473ffffffffffffffffffffffffffffffffffffffff1673ffffffffffffffffffffffffffffffffffffffff163373ffffffffffffffffffffffffffffffffffffffff1614610b87576040517f08c379a0000000000000000000000000000000000000000000000000000000008152600401610b7e90611e58565b60405180910390fd5b60008173ffffffffffffffffffffffffffffffffffffffff166370a08231306040518263ffffffff1660e01b8152600401610bc2919061148f565b602060405180830381865afa158015610bdf573d6000803e3d6000fd5b505050506040513d601f19601f82011682018060405250810190610c039190611847565b905060008111610c48576040517f08c379a0000000000000000000000000000000000000000000000000000000008152600401610c3f90611ec4565b60405180910390fd5b8173ffffffffffffffffffffffffffffffffffffffff1663a9059cbb600160009054906101000a900473ffffffffffffffffffffffffffffffffffffffff16836040518363ffffffff1660e01b8152600401610ca5929190611874565b6020604051808303816000875af1158015610cc4573d6000803e3d6000fd5b505050506040513d601f19601f82011682018060405250810190610ce891906118c9565b505050565b600160009054906101000a900473ffffffffffffffffffffffffffffffffffffffff1681565b600073ffffffffffffffffffffffffffffffffffffffff168473ffffffffffffffffffffffffffffffffffffffff1614158015610d7d5750600073ffffffffffffffffffffffffffffffffffffffff168373ffffffffffffffffffffffffffffffffffffffff1614155b610dbc576040517f08c379a0000000000000000000000000000000000000000000000000000000008152600401610db390611f30565b60405180910390fd5b600073ffffffffffffffffffffffffffffffffffffffff168273ffffffffffffffffffffffffffffffffffffffff1614158015610e265750600073ffffffffffffffffffffffffffffffffffffffff168173ffffffffffffffffffffffffffffffffffffffff1614155b610e65576040517f08c379a0000000000000000000000000000000000000000000000000000000008152600401610e5c90611f9c565b60405180910390fd5b600060405180608001604052808673ffffffffffffffffffffffffffffffffffffffff1681526020018573ffffffffffffffffffffffffffffffffffffffff1681526020018473ffffffffffffffffffffffffffffffffffffffff1681526020018373ffffffffffffffffffffffffffffffffffffffff168152509050600081604051602001610ef59190612020565b604051602081830303815290604052905060008673ffffffffffffffffffffffffffffffffffffffff1663313ce5676040518163ffffffff1660e01b8152600401602060405180830381865afa158015610f53573d6000803e3d6000fd5b505050506040513d601f19601f82011682018060405250810190610f779190611a6a565b600a610f839190611bff565b6103e8610f90919061203b565b9050610f9d8782846111dd565b50505050505050565b6000600267ffffffffffffffff811115610fc357610fc261163a565b5b604051908082528060200260200182016040528015610ff15781602001602082028036833780820191505090505b50905082816000815181106110095761100861207d565b5b602002602001019073ffffffffffffffffffffffffffffffffffffffff16908173ffffffffffffffffffffffffffffffffffffffff168152505081816001815181106110585761105761207d565b5b602002602001019073ffffffffffffffffffffffffffffffffffffffff16908173ffffffffffffffffffffffffffffffffffffffff168152505060008573ffffffffffffffffffffffffffffffffffffffff168560008430426040516024016110c59594939291906121a0565b6040516020818303038152906040527f38ed1739000000000000000000000000000000000000000000000000000000007bffffffffffffffffffffffffffffffffffffffffffffffffffffffff19166020820180517bffffffffffffffffffffffffffffffffffffffffffffffffffffffff838183161783525050505060405161114f919061226b565b6000604051808303816000865af19150503d806000811461118c576040519150601f19603f3d011682016040523d82523d6000602084013e611191565b606091505b50509050806111d5576040517f08c379a00000000000000000000000000000000000000000000000000000000081526004016111cc906122ce565b60405180910390fd5b505050505050565b7f000000000000000000000000000000000000000000000000000000000000000073ffffffffffffffffffffffffffffffffffffffff166342b0b77c3085858560006040518663ffffffff1660e01b815260040161123f959493929190612377565b600060405180830381600087803b15801561125957600080fd5b505af115801561126d573d6000803e3d6000fd5b50505050505050565b6000604051905090565b600080fd5b600080fd5b600073ffffffffffffffffffffffffffffffffffffffff82169050919050565b60006112b58261128a565b9050919050565b6112c5816112aa565b81146112d057600080fd5b50565b6000813590506112e2816112bc565b92915050565b6000602082840312156112fe576112fd611280565b5b600061130c848285016112d3565b91505092915050565b60008115159050919050565b61132a81611315565b82525050565b60006020820190506113456000830184611321565b92915050565b6000819050919050565b61135e8161134b565b811461136957600080fd5b50565b60008135905061137b81611355565b92915050565b600080fd5b600080fd5b600080fd5b60008083601f8401126113a6576113a5611381565b5b8235905067ffffffffffffffff8111156113c3576113c2611386565b5b6020830191508360018202830111156113df576113de61138b565b5b9250929050565b60008060008060008060a0878903121561140357611402611280565b5b600061141189828a016112d3565b965050602061142289828a0161136c565b955050604061143389828a0161136c565b945050606061144489828a016112d3565b935050608087013567ffffffffffffffff81111561146557611464611285565b5b61147189828a01611390565b92509250509295509295509295565b611489816112aa565b82525050565b60006020820190506114a46000830184611480565b92915050565b6114b38161134b565b82525050565b60006020820190506114ce60008301846114aa565b92915050565b600080600080608085870312156114ee576114ed611280565b5b60006114fc878288016112d3565b945050602061150d878288016112d3565b935050604061151e878288016112d3565b925050606061152f878288016112d3565b91505092959194509250565b600082825260208201905092915050565b7f4f6e6c7920706f6f6c2063616e2063616c6c0000000000000000000000000000600082015250565b600061158260128361153b565b915061158d8261154c565b602082019050919050565b600060208201905081810360008301526115b181611575565b9050919050565b7f4f6e6c792073656c6620696e6974696174656400000000000000000000000000600082015250565b60006115ee60138361153b565b91506115f9826115b8565b602082019050919050565b6000602082019050818103600083015261161d816115e1565b9050919050565b600080fd5b6000601f19601f8301169050919050565b7f4e487b7100000000000000000000000000000000000000000000000000000000600052604160045260246000fd5b61167282611629565b810181811067ffffffffffffffff821117156116915761169061163a565b5b80604052505050565b60006116a4611276565b90506116b08282611669565b919050565b6000608082840312156116cb576116ca611624565b5b6116d5608061169a565b905060006116e5848285016112d3565b60008301525060206116f9848285016112d3565b602083015250604061170d848285016112d3565b6040830152506060611721848285016112d3565b60608301525092915050565b60006080828403121561174357611742611280565b5b6000611751848285016116b5565b91505092915050565b7f526f7574657230206e6f742077686974656c6973746564000000000000000000600082015250565b600061179060178361153b565b915061179b8261175a565b602082019050919050565b600060208201905081810360008301526117bf81611783565b9050919050565b7f526f7574657231206e6f742077686974656c6973746564000000000000000000600082015250565b60006117fc60178361153b565b9150611807826117c6565b602082019050919050565b6000602082019050818103600083015261182b816117ef565b9050919050565b60008151905061184181611355565b92915050565b60006020828403121561185d5761185c611280565b5b600061186b84828501611832565b91505092915050565b60006040820190506118896000830185611480565b61189660208301846114aa565b9392505050565b6118a681611315565b81146118b157600080fd5b50565b6000815190506118c38161189d565b92915050565b6000602082840312156118df576118de611280565b5b60006118ed848285016118b4565b91505092915050565b7f53776170312072657475726e6564203000000000000000000000000000000000600082015250565b600061192c60108361153b565b9150611937826118f6565b602082019050919050565b6000602082019050818103600083015261195b8161191f565b9050919050565b7f53776170322072657475726e6564203000000000000000000000000000000000600082015250565b600061199860108361153b565b91506119a382611962565b602082019050919050565b600060208201905081810360008301526119c78161198b565b9050919050565b7f4e487b7100000000000000000000000000000000000000000000000000000000600052601160045260246000fd5b6000611a088261134b565b9150611a138361134b565b9250828201905080821115611a2b57611a2a6119ce565b5b92915050565b600060ff82169050919050565b611a4781611a31565b8114611a5257600080fd5b50565b600081519050611a6481611a3e565b92915050565b600060208284031215611a8057611a7f611280565b5b6000611a8e84828501611a55565b91505092915050565b6000611aa282611a31565b9150611aad83611a31565b9250828203905060ff811115611ac657611ac56119ce565b5b92915050565b60008160011c9050919050565b6000808291508390505b6001851115611b2357808604811115611aff57611afe6119ce565b5b6001851615611b0e5780820291505b8081029050611b1c85611acc565b9450611ae3565b94509492505050565b600082611b3c5760019050611bf8565b81611b4a5760009050611bf8565b8160018114611b605760028114611b6a57611b99565b6001915050611bf8565b60ff841115611b7c57611b7b6119ce565b5b8360020a915084821115611b9357611b926119ce565b5b50611bf8565b5060208310610133831016604e8410600b8410161715611bce5782820a905083811115611bc957611bc86119ce565b5b611bf8565b611bdb8484846001611ad9565b92509050818404811115611bf257611bf16119ce565b5b81810290505b9392505050565b6000611c0a8261134b565b9150611c1583611a31565b9250611c427fffffffffffffffffffffffffffffffffffffffffffffffffffffffffffffffff8484611b2c565b905092915050565b7f4e487b7100000000000000000000000000000000000000000000000000000000600052601260045260246000fd5b6000611c848261134b565b9150611c8f8361134b565b925082611c9f57611c9e611c4a565b5b828204905092915050565b600060a082019050611cbf60008301886114aa565b611ccc60208301876114aa565b611cd960408301866114aa565b611ce660608301856114aa565b611cf360808301846114aa565b9695505050505050565b6000606082019050611d1260008301866114aa565b611d1f60208301856114aa565b611d2c60408301846114aa565b949350505050565b7f43616e6e6f74207265706179206c6f616e000000000000000000000000000000600082015250565b6000611d6a60118361153b565b9150611d7582611d34565b602082019050919050565b60006020820190508181036000830152611d9981611d5d565b9050919050565b7f4e6f742070726f66697461626c65000000000000000000000000000000000000600082015250565b6000611dd6600e8361153b565b9150611de182611da0565b602082019050919050565b60006020820190508181036000830152611e0581611dc9565b9050919050565b7f4e6f7420746865206f776e657200000000000000000000000000000000000000600082015250565b6000611e42600d8361153b565b9150611e4d82611e0c565b602082019050919050565b60006020820190508181036000830152611e7181611e35565b9050919050565b7f4e6f20746f6b656e2062616c616e636500000000000000000000000000000000600082015250565b6000611eae60108361153b565b9150611eb982611e78565b602082019050919050565b60006020820190508181036000830152611edd81611ea1565b9050919050565b7f496e76616c696420746f6b656e20616464726573736573000000000000000000600082015250565b6000611f1a60178361153b565b9150611f2582611ee4565b602082019050919050565b60006020820190508181036000830152611f4981611f0d565b9050919050565b7f496e76616c696420726f75746572206164647265737365730000000000000000600082015250565b6000611f8660188361153b565b9150611f9182611f50565b602082019050919050565b60006020820190508181036000830152611fb581611f79565b9050919050565b611fc5816112aa565b82525050565b608082016000820151611fe16000850182611fbc565b506020820151611ff46020850182611fbc565b5060408201516120076040850182611fbc565b50606082015161201a6060850182611fbc565b50505050565b60006080820190506120356000830184611fcb565b92915050565b60006120468261134b565b91506120518361134b565b925082820261205f8161134b565b91508282048414831517612076576120756119ce565b5b5092915050565b7f4e487b7100000000000000000000000000000000000000000000000000000000600052603260045260246000fd5b6000819050919050565b6000819050919050565b60006120db6120d66120d1846120ac565b6120b6565b611a31565b9050919050565b6120eb816120c0565b82525050565b600081519050919050565b600082825260208201905092915050565b6000819050602082019050919050565b60006121298383611fbc565b60208301905092915050565b6000602082019050919050565b600061214d826120f1565b61215781856120fc565b93506121628361210d565b8060005b8381101561219357815161217a888261211d565b975061218583612135565b925050600181019050612166565b5085935050505092915050565b600060a0820190506121b560008301886114aa565b6121c260208301876120e2565b81810360408301526121d48186612142565b90506121e36060830185611480565b6121f060808301846114aa565b9695505050505050565b600081519050919050565b600081905092915050565b60005b8381101561222e578082015181840152602081019050612213565b60008484015250505050565b6000612245826121fa565b61224f8185612205565b935061225f818560208601612210565b80840191505092915050565b6000612277828461223a565b915081905092915050565b7f53776170206661696c6564000000000000000000000000000000000000000000600082015250565b60006122b8600b8361153b565b91506122c382612282565b602082019050919050565b600060208201905081810360008301526122e7816122ab565b9050919050565b600082825260208201905092915050565b600061230a826121fa565b61231481856122ee565b9350612324818560208601612210565b61232d81611629565b840191505092915050565b600061ffff82169050919050565b600061236161235c612357846120ac565b6120b6565b612338565b9050919050565b61237181612346565b82525050565b600060a08201905061238c6000830188611480565b6123996020830187611480565b6123a660408301866114aa565b81810360608301526123b881856122ff565b90506123c76080830184612368565b969550505050505056fea26469706673582212204b58c40d928880ce41e35cc5128fb61bcae5e59efbe0a8571287dcd1ae93f70964736f6c63430008140033","opcodes":"PUSH1 0xC0 PUSH1 0x40 MSTORE CALLVALUE DUP1 ISZERO PUSH3 0x11 JUMPI PUSH1 0x0 DUP1 REVERT JUMPDEST POP PUSH1 0x40 MLOAD PUSH3 0x2990 CODESIZE SUB DUP1 PUSH3 0x2990 DUP4 CODECOPY DUP2 DUP2 ADD PUSH1 0x40 MSTORE DUP2 ADD SWAP1 PUSH3 0x37 SWAP2 SWAP1 PUSH3 0x3EF JUMP JUMPDEST DUP3 PUSH20 0xFFFFFFFFFFFFFFFFFFFFFFFFFFFFFFFFFFFFFFFF AND PUSH4 0x26B1D5F PUSH1 0x40 MLOAD DUP2 PUSH4 0xFFFFFFFF AND PUSH1 0xE0 SHL DUP2 MSTORE PUSH1 0x4 ADD PUSH1 0x20 PUSH1 0x40 MLOAD DUP1 DUP4 SUB DUP2 DUP7 GAS STATICCALL ISZERO DUP1 ISZERO PUSH3 0x83 JUMPI RETURNDATASIZE PUSH1 0x0 DUP1 RETURNDATACOPY RETURNDATASIZE PUSH1 0x0 REVERT JUMPDEST POP POP POP POP PUSH1 0x40 MLOAD RETURNDATASIZE PUSH1 0x1F NOT PUSH1 0x1F DUP3 ADD AND DUP3 ADD DUP1 PUSH1 0x40 MSTORE POP DUP2 ADD SWAP1 PUSH3 0xA9 SWAP2 SWAP1 PUSH3 0x46A JUMP JUMPDEST PUSH20 0xFFFFFFFFFFFFFFFFFFFFFFFFFFFFFFFFFFFFFFFF AND PUSH1 0x80 DUP2 PUSH20 0xFFFFFFFFFFFFFFFFFFFFFFFFFFFFFFFFFFFFFFFF AND DUP2 MSTORE POP POP PUSH1 0x0 JUMPDEST DUP3 MLOAD DUP2 LT ISZERO PUSH3 0x173 JUMPI PUSH1 0x1 PUSH1 0x0 DUP1 DUP6 DUP5 DUP2 MLOAD DUP2 LT PUSH3 0x104 JUMPI PUSH3 0x103 PUSH3 0x49C JUMP JUMPDEST JUMPDEST PUSH1 0x20 MUL PUSH1 0x20 ADD ADD MLOAD PUSH20 0xFFFFFFFFFFFFFFFFFFFFFFFFFFFFFFFFFFFFFFFF AND PUSH20 0xFFFFFFFFFFFFFFFFFFFFFFFFFFFFFFFFFFFFFFFF AND DUP2 MSTORE PUSH1 0x20 ADD SWAP1 DUP2 MSTORE PUSH1 0x20 ADD PUSH1 0x0 KECCAK256 PUSH1 0x0 PUSH2 0x100 EXP DUP2 SLOAD DUP2 PUSH1 0xFF MUL NOT AND SWAP1 DUP4 ISZERO ISZERO MUL OR SWAP1 SSTORE POP DUP1 DUP1 PUSH3 0x16A SWAP1 PUSH3 0x4FA JUMP JUMPDEST SWAP2 POP POP PUSH3 0xDF JUMP JUMPDEST POP DUP1 PUSH1 0xA0 DUP2 DUP2 MSTORE POP POP CALLER PUSH1 0x1 PUSH1 0x0 PUSH2 0x100 EXP DUP2 SLOAD DUP2 PUSH20 0xFFFFFFFFFFFFFFFFFFFFFFFFFFFFFFFFFFFFFFFF MUL NOT AND SWAP1 DUP4 PUSH20 0xFFFFFFFFFFFFFFFFFFFFFFFFFFFFFFFFFFFFFFFF AND MUL OR SWAP1 SSTORE POP POP POP POP PUSH3 0x547 JUMP JUMPDEST PUSH1 0x0 PUSH1 0x40 MLOAD SWAP1 POP SWAP1 JUMP JUMPDEST PUSH1 0x0 DUP1 REVERT JUMPDEST PUSH1 0x0 DUP1 REVERT JUMPDEST PUSH1 0x0 PUSH20 0xFFFFFFFFFFFFFFFFFFFFFFFFFFFFFFFFFFFFFFFF DUP3 AND SWAP1 POP SWAP2 SWAP1 POP JUMP JUMPDEST PUSH1 0x0 PUSH3 0x207 DUP3 PUSH3 0x1DA JUMP JUMPDEST SWAP1 POP SWAP2 SWAP1 POP JUMP JUMPDEST PUSH3 0x219 DUP2 PUSH3 0x1FA JUMP JUMPDEST DUP2 EQ PUSH3 0x225 JUMPI PUSH1 0x0 DUP1 REVERT JUMPDEST POP JUMP JUMPDEST PUSH1 0x0 DUP2 MLOAD SWAP1 POP PUSH3 0x239 DUP2 PUSH3 0x20E JUMP JUMPDEST SWAP3 SWAP2 POP POP JUMP JUMPDEST PUSH1 0x0 DUP1 REVERT JUMPDEST PUSH1 0x0 PUSH1 0x1F NOT PUSH1 0x1F DUP4 ADD AND SWAP1 POP SWAP2 SWAP1 POP JUMP JUMPDEST PUSH32 0x4E487B7100000000000000000000000000000000000000000000000000000000 PUSH1 0x0 MSTORE PUSH1 0x41 PUSH1 0x4 MSTORE PUSH1 0x24 PUSH1 0x0 REVERT JUMPDEST PUSH3 0x28F DUP3 PUSH3 0x244 JUMP JUMPDEST DUP2 ADD DUP2 DUP2 LT PUSH8 0xFFFFFFFFFFFFFFFF DUP3 GT OR ISZERO PUSH3 0x2B1 JUMPI PUSH3 0x2B0 PUSH3 0x255 JUMP JUMPDEST JUMPDEST DUP1 PUSH1 0x40 MSTORE POP POP POP JUMP JUMPDEST PUSH1 0x0 PUSH3 0x2C6 PUSH3 0x1C6 JUMP JUMPDEST SWAP1 POP PUSH3 0x2D4 DUP3 DUP3 PUSH3 0x284 JUMP JUMPDEST SWAP2 SWAP1 POP JUMP JUMPDEST PUSH1 0x0 PUSH8 0xFFFFFFFFFFFFFFFF DUP3 GT ISZERO PUSH3 0x2F7 JUMPI PUSH3 0x2F6 PUSH3 0x255 JUMP JUMPDEST JUMPDEST PUSH1 0x20 DUP3 MUL SWAP1 POP PUSH1 0x20 DUP2 ADD SWAP1 POP SWAP2 SWAP1 POP JUMP JUMPDEST PUSH1 0x0 DUP1 REVERT JUMPDEST PUSH1 0x0 PUSH3 0x324 PUSH3 0x31E DUP5 PUSH3 0x2D9 JUMP JUMPDEST PUSH3 0x2BA JUMP JUMPDEST SWAP1 POP DUP1 DUP4 DUP3 MSTORE PUSH1 0x20 DUP3 ADD SWAP1 POP PUSH1 0x20 DUP5 MUL DUP4 ADD DUP6 DUP2 GT ISZERO PUSH3 0x34A JUMPI PUSH3 0x349 PUSH3 0x308 JUMP JUMPDEST JUMPDEST DUP4 JUMPDEST DUP2 DUP2 LT ISZERO PUSH3 0x377 JUMPI DUP1 PUSH3 0x362 DUP9 DUP3 PUSH3 0x228 JUMP JUMPDEST DUP5 MSTORE PUSH1 0x20 DUP5 ADD SWAP4 POP POP PUSH1 0x20 DUP2 ADD SWAP1 POP PUSH3 0x34C JUMP JUMPDEST POP POP POP SWAP4 SWAP3 POP POP POP JUMP JUMPDEST PUSH1 0x0 DUP3 PUSH1 0x1F DUP4 ADD SLT PUSH3 0x399 JUMPI PUSH3 0x398 PUSH3 0x23F JUMP JUMPDEST JUMPDEST DUP2 MLOAD PUSH3 0x3AB DUP5 DUP3 PUSH1 0x20 DUP7 ADD PUSH3 0x30D JUMP JUMPDEST SWAP2 POP POP SWAP3 SWAP2 POP POP JUMP JUMPDEST PUSH1 0x0 DUP2 SWAP1 POP SWAP2 SWAP1 POP JUMP JUMPDEST PUSH3 0x3C9 DUP2 PUSH3 0x3B4 JUMP JUMPDEST DUP2 EQ PUSH3 0x3D5 JUMPI PUSH1 0x0 DUP1 REVERT JUMPDEST POP JUMP JUMPDEST PUSH1 0x0 DUP2 MLOAD SWAP1 POP PUSH3 0x3E9 DUP2 PUSH3 0x3BE JUMP JUMPDEST SWAP3 SWAP2 POP POP JUMP JUMPDEST PUSH1 0x0 DUP1 PUSH1 0x0 PUSH1 0x60 DUP5 DUP7 SUB SLT ISZERO PUSH3 0x40B JUMPI PUSH3 0x40A PUSH3 0x1D0 JUMP JUMPDEST JUMPDEST PUSH1 0x0 PUSH3 0x41B DUP7 DUP3 DUP8 ADD PUSH3 0x228 JUMP JUMPDEST SWAP4 POP POP PUSH1 0x20 DUP5 ADD MLOAD PUSH8 0xFFFFFFFFFFFFFFFF DUP2 GT ISZERO PUSH3 0x43F JUMPI PUSH3 0x43E PUSH3 0x1D5 JUMP JUMPDEST JUMPDEST PUSH3 0x44D DUP7 DUP3 DUP8 ADD PUSH3 0x381 JUMP JUMPDEST SWAP3 POP POP PUSH1 0x40 PUSH3 0x460 DUP7 DUP3 DUP8 ADD PUSH3 0x3D8 JUMP JUMPDEST SWAP2 POP POP SWAP3 POP SWAP3 POP SWAP3 JUMP JUMPDEST PUSH1 0x0 PUSH1 0x20 DUP3 DUP5 SUB SLT ISZERO PUSH3 0x483 JUMPI PUSH3 0x482 PUSH3 0x1D0 JUMP JUMPDEST JUMPDEST PUSH1 0x0 PUSH3 0x493 DUP5 DUP3 DUP6 ADD PUSH3 0x228 JUMP JUMPDEST SWAP2 POP POP SWAP3 SWAP2 POP POP JUMP JUMPDEST PUSH32 0x4E487B7100000000000000000000000000000000000000000000000000000000 PUSH1 0x0 MSTORE PUSH1 0x32 PUSH1 0x4 MSTORE PUSH1 0x24 PUSH1 0x0 REVERT JUMPDEST PUSH32 0x4E487B7100000000000000000000000000000000000000000000000000000000 PUSH1 0x0 MSTORE PUSH1 0x11 PUSH1 0x4 MSTORE PUSH1 0x24 PUSH1 0x0 REVERT JUMPDEST PUSH1 0x0 PUSH3 0x507 DUP3 PUSH3 0x3B4 JUMP JUMPDEST SWAP2 POP PUSH32 0xFFFFFFFFFFFFFFFFFFFFFFFFFFFFFFFFFFFFFFFFFFFFFFFFFFFFFFFFFFFFFFFF DUP3 SUB PUSH3 0x53C JUMPI PUSH3 0x53B PUSH3 0x4CB JUMP JUMPDEST JUMPDEST PUSH1 0x1 DUP3 ADD SWAP1 POP SWAP2 SWAP1 POP JUMP JUMPDEST PUSH1 0x80 MLOAD PUSH1 0xA0 MLOAD PUSH2 0x2407 PUSH3 0x589 PUSH1 0x0 CODECOPY PUSH1 0x0 DUP2 DUP2 PUSH2 0x7C6 ADD MSTORE PUSH2 0xAD5 ADD MSTORE PUSH1 0x0 DUP2 DUP2 PUSH2 0x1AD ADD MSTORE DUP2 DUP2 PUSH2 0x91E ADD MSTORE DUP2 DUP2 PUSH2 0xAB1 ADD MSTORE PUSH2 0x11DF ADD MSTORE PUSH2 0x2407 PUSH1 0x0 RETURN INVALID PUSH1 0x80 PUSH1 0x40 MSTORE CALLVALUE DUP1 ISZERO PUSH2 0x10 JUMPI PUSH1 0x0 DUP1 REVERT JUMPDEST POP PUSH1 0x4 CALLDATASIZE LT PUSH2 0x88 JUMPI PUSH1 0x0 CALLDATALOAD PUSH1 0xE0 SHR DUP1 PUSH4 0x75C81AD0 GT PUSH2 0x5B JUMPI DUP1 PUSH4 0x75C81AD0 EQ PUSH2 0x115 JUMPI DUP1 PUSH4 0x89476069 EQ PUSH2 0x133 JUMPI DUP1 PUSH4 0x8DA5CB5B EQ PUSH2 0x14F JUMPI DUP1 PUSH4 0x9ECB6910 EQ PUSH2 0x16D JUMPI PUSH2 0x88 JUMP JUMPDEST DUP1 PUSH4 0xF874A13 EQ PUSH2 0x8D JUMPI DUP1 PUSH4 0x1B11D0FF EQ PUSH2 0xBD JUMPI DUP1 PUSH4 0x50431CE4 EQ PUSH2 0xED JUMPI DUP1 PUSH4 0x7535D246 EQ PUSH2 0xF7 JUMPI JUMPDEST PUSH1 0x0 DUP1 REVERT JUMPDEST PUSH2 0xA7 PUSH1 0x4 DUP1 CALLDATASIZE SUB DUP2 ADD SWAP1 PUSH2 0xA2 SWAP2 SWAP1 PUSH2 0x12E8 JUMP JUMPDEST PUSH2 0x189 JUMP JUMPDEST PUSH1 0x40 MLOAD PUSH2 0xB4 SWAP2 SWAP1 PUSH2 0x1330 JUMP JUMPDEST PUSH1 0x40 MLOAD DUP1 SWAP2 SUB SWAP1 RETURN JUMPDEST PUSH2 0xD7 PUSH1 0x4 DUP1 CALLDATASIZE SUB DUP2 ADD SWAP1 PUSH2 0xD2 SWAP2 SWAP1 PUSH2 0x13E6 JUMP JUMPDEST PUSH2 0x1A9 JUMP JUMPDEST PUSH1 0x40 MLOAD PUSH2 0xE4 SWAP2 SWAP1 PUSH2 0x1330 JUMP JUMPDEST PUSH1 0x40 MLOAD DUP1 SWAP2 SUB SWAP1 RETURN JUMPDEST PUSH2 0xF5 PUSH2 0x9B4 JUMP JUMPDEST STOP JUMPDEST PUSH2 0xFF PUSH2 0xAAF JUMP JUMPDEST PUSH1 0x40 MLOAD PUSH2 0x10C SWAP2 SWAP1 PUSH2 0x148F JUMP JUMPDEST PUSH1 0x40 MLOAD DUP1 SWAP2 SUB SWAP1 RETURN JUMPDEST PUSH2 0x11D PUSH2 0xAD3 JUMP JUMPDEST PUSH1 0x40 MLOAD PUSH2 0x12A SWAP2 SWAP1 PUSH2 0x14B9 JUMP JUMPDEST PUSH1 0x40 MLOAD DUP1 SWAP2 SUB SWAP1 RETURN JUMPDEST PUSH2 0x14D PUSH1 0x4 DUP1 CALLDATASIZE SUB DUP2 ADD SWAP1 PUSH2 0x148 SWAP2 SWAP1 PUSH2 0x12E8 JUMP JUMPDEST PUSH2 0xAF7 JUMP JUMPDEST STOP JUMPDEST PUSH2 0x157 PUSH2 0xCED JUMP JUMPDEST PUSH1 0x40 MLOAD PUSH2 0x164 SWAP2 SWAP1 PUSH2 0x148F JUMP JUMPDEST PUSH1 0x40 MLOAD DUP1 SWAP2 SUB SWAP1 RETURN JUMPDEST PUSH2 0x187 PUSH1 0x4 DUP1 CALLDATASIZE SUB DUP2 ADD SWAP1 PUSH2 0x182 SWAP2 SWAP1 PUSH2 0x14D4 JUMP JUMPDEST PUSH2 0xD13 JUMP JUMPDEST STOP JUMPDEST PUSH1 0x0 PUSH1 0x20 MSTORE DUP1 PUSH1 0x0 MSTORE PUSH1 0x40 PUSH1 0x0 KECCAK256 PUSH1 0x0 SWAP2 POP SLOAD SWAP1 PUSH2 0x100 EXP SWAP1 DIV PUSH1 0xFF AND DUP2 JUMP JUMPDEST PUSH1 0x0 PUSH32 0x0 PUSH20 0xFFFFFFFFFFFFFFFFFFFFFFFFFFFFFFFFFFFFFFFF AND CALLER PUSH20 0xFFFFFFFFFFFFFFFFFFFFFFFFFFFFFFFFFFFFFFFF AND EQ PUSH2 0x239 JUMPI PUSH1 0x40 MLOAD PUSH32 0x8C379A000000000000000000000000000000000000000000000000000000000 DUP2 MSTORE PUSH1 0x4 ADD PUSH2 0x230 SWAP1 PUSH2 0x1598 JUMP JUMPDEST PUSH1 0x40 MLOAD DUP1 SWAP2 SUB SWAP1 REVERT JUMPDEST ADDRESS PUSH20 0xFFFFFFFFFFFFFFFFFFFFFFFFFFFFFFFFFFFFFFFF AND DUP5 PUSH20 0xFFFFFFFFFFFFFFFFFFFFFFFFFFFFFFFFFFFFFFFF AND EQ PUSH2 0x2A7 JUMPI PUSH1 0x40 MLOAD PUSH32 0x8C379A000000000000000000000000000000000000000000000000000000000 DUP2 MSTORE PUSH1 0x4 ADD PUSH2 0x29E SWAP1 PUSH2 0x1604 JUMP JUMPDEST PUSH1 0x40 MLOAD DUP1 SWAP2 SUB SWAP1 REVERT JUMPDEST PUSH1 0x0 DUP4 DUP4 DUP2 ADD SWAP1 PUSH2 0x2B8 SWAP2 SWAP1 PUSH2 0x172D JUMP JUMPDEST SWAP1 POP PUSH1 0x0 DUP1 DUP3 PUSH1 0x40 ADD MLOAD PUSH20 0xFFFFFFFFFFFFFFFFFFFFFFFFFFFFFFFFFFFFFFFF AND PUSH20 0xFFFFFFFFFFFFFFFFFFFFFFFFFFFFFFFFFFFFFFFF AND DUP2 MSTORE PUSH1 0x20 ADD SWAP1 DUP2 MSTORE PUSH1 0x20 ADD PUSH1 0x0 KECCAK256 PUSH1 0x0 SWAP1 SLOAD SWAP1 PUSH2 0x100 EXP SWAP1 DIV PUSH1 0xFF AND PUSH2 0x349 JUMPI PUSH1 0x40 MLOAD PUSH32 0x8C379A000000000000000000000000000000000000000000000000000000000 DUP2 MSTORE PUSH1 0x4 ADD PUSH2 0x340 SWAP1 PUSH2 0x17A6 JUMP JUMPDEST PUSH1 0x40 MLOAD DUP1 SWAP2 SUB SWAP1 REVERT JUMPDEST PUSH1 0x0 DUP1 DUP3 PUSH1 0x60 ADD MLOAD PUSH20 0xFFFFFFFFFFFFFFFFFFFFFFFFFFFFFFFFFFFFFFFF AND PUSH20 0xFFFFFFFFFFFFFFFFFFFFFFFFFFFFFFFFFFFFFFFF AND DUP2 MSTORE PUSH1 0x20 ADD SWAP1 DUP2 MSTORE PUSH1 0x20 ADD PUSH1 0x0 KECCAK256 PUSH1 0x0 SWAP1 SLOAD SWAP1 PUSH2 0x100 EXP SWAP1 DIV PUSH1 0xFF AND PUSH2 0x3D8 JUMPI PUSH1 0x40 MLOAD PUSH32 0x8C379A000000000000000000000000000000000000000000000000000000000 DUP2 MSTORE PUSH1 0x4 ADD PUSH2 0x3CF SWAP1 PUSH2 0x1812 JUMP JUMPDEST PUSH1 0x40 MLOAD DUP1 SWAP2 SUB SWAP1 REVERT JUMPDEST PUSH1 0x0 DUP2 PUSH1 0x0 ADD MLOAD PUSH20 0xFFFFFFFFFFFFFFFFFFFFFFFFFFFFFFFFFFFFFFFF AND PUSH4 0x70A08231 ADDRESS PUSH1 0x40 MLOAD DUP3 PUSH4 0xFFFFFFFF AND PUSH1 0xE0 SHL DUP2 MSTORE PUSH1 0x4 ADD PUSH2 0x417 SWAP2 SWAP1 PUSH2 0x148F JUMP JUMPDEST PUSH1 0x20 PUSH1 0x40 MLOAD DUP1 DUP4 SUB DUP2 DUP7 GAS STATICCALL ISZERO DUP1 ISZERO PUSH2 0x434 JUMPI RETURNDATASIZE PUSH1 0x0 DUP1 RETURNDATACOPY RETURNDATASIZE PUSH1 0x0 REVERT JUMPDEST POP POP POP POP PUSH1 0x40 MLOAD RETURNDATASIZE PUSH1 0x1F NOT PUSH1 0x1F DUP3 ADD AND DUP3 ADD DUP1 PUSH1 0x40 MSTORE POP DUP2 ADD SWAP1 PUSH2 0x458 SWAP2 SWAP1 PUSH2 0x1847 JUMP JUMPDEST SWAP1 POP DUP2 PUSH1 0x0 ADD MLOAD PUSH20 0xFFFFFFFFFFFFFFFFFFFFFFFFFFFFFFFFFFFFFFFF AND PUSH4 0x95EA7B3 DUP4 PUSH1 0x40 ADD MLOAD DUP11 PUSH1 0x40 MLOAD DUP4 PUSH4 0xFFFFFFFF AND PUSH1 0xE0 SHL DUP2 MSTORE PUSH1 0x4 ADD PUSH2 0x49D SWAP3 SWAP2 SWAP1 PUSH2 0x1874 JUMP JUMPDEST PUSH1 0x20 PUSH1 0x40 MLOAD DUP1 DUP4 SUB DUP2 PUSH1 0x0 DUP8 GAS CALL ISZERO DUP1 ISZERO PUSH2 0x4BC JUMPI RETURNDATASIZE PUSH1 0x0 DUP1 RETURNDATACOPY RETURNDATASIZE PUSH1 0x0 REVERT JUMPDEST POP POP POP POP PUSH1 0x40 MLOAD RETURNDATASIZE PUSH1 0x1F NOT PUSH1 0x1F DUP3 ADD AND DUP3 ADD DUP1 PUSH1 0x40 MSTORE POP DUP2 ADD SWAP1 PUSH2 0x4E0 SWAP2 SWAP1 PUSH2 0x18C9 JUMP JUMPDEST POP PUSH2 0x4F9 DUP3 PUSH1 0x40 ADD MLOAD DUP10 DUP5 PUSH1 0x0 ADD MLOAD DUP6 PUSH1 0x20 ADD MLOAD PUSH2 0xFA6 JUMP JUMPDEST PUSH1 0x0 DUP3 PUSH1 0x20 ADD MLOAD PUSH20 0xFFFFFFFFFFFFFFFFFFFFFFFFFFFFFFFFFFFFFFFF AND PUSH4 0x70A08231 ADDRESS PUSH1 0x40 MLOAD DUP3 PUSH4 0xFFFFFFFF AND PUSH1 0xE0 SHL DUP2 MSTORE PUSH1 0x4 ADD PUSH2 0x538 SWAP2 SWAP1 PUSH2 0x148F JUMP JUMPDEST PUSH1 0x20 PUSH1 0x40 MLOAD DUP1 DUP4 SUB DUP2 DUP7 GAS STATICCALL ISZERO DUP1 ISZERO PUSH2 0x555 JUMPI RETURNDATASIZE PUSH1 0x0 DUP1 RETURNDATACOPY RETURNDATASIZE PUSH1 0x0 REVERT JUMPDEST POP POP POP POP PUSH1 0x40 MLOAD RETURNDATASIZE PUSH1 0x1F NOT PUSH1 0x1F DUP3 ADD AND DUP3 ADD DUP1 PUSH1 0x40 MSTORE POP DUP2 ADD SWAP1 PUSH2 0x579 SWAP2 SWAP1 PUSH2 0x1847 JUMP JUMPDEST SWAP1 POP PUSH1 0x0 DUP2 GT PUSH2 0x5BE JUMPI PUSH1 0x40 MLOAD PUSH32 0x8C379A000000000000000000000000000000000000000000000000000000000 DUP2 MSTORE PUSH1 0x4 ADD PUSH2 0x5B5 SWAP1 PUSH2 0x1942 JUMP JUMPDEST PUSH1 0x40 MLOAD DUP1 SWAP2 SUB SWAP1 REVERT JUMPDEST DUP3 PUSH1 0x20 ADD MLOAD PUSH20 0xFFFFFFFFFFFFFFFFFFFFFFFFFFFFFFFFFFFFFFFF AND PUSH4 0x95EA7B3 DUP5 PUSH1 0x60 ADD MLOAD DUP4 PUSH1 0x40 MLOAD DUP4 PUSH4 0xFFFFFFFF AND PUSH1 0xE0 SHL DUP2 MSTORE PUSH1 0x4 ADD PUSH2 0x601 SWAP3 SWAP2 SWAP1 PUSH2 0x1874 JUMP JUMPDEST PUSH1 0x20 PUSH1 0x40 MLOAD DUP1 DUP4 SUB DUP2 PUSH1 0x0 DUP8 GAS CALL ISZERO DUP1 ISZERO PUSH2 0x620 JUMPI RETURNDATASIZE PUSH1 0x0 DUP1 RETURNDATACOPY RETURNDATASIZE PUSH1 0x0 REVERT JUMPDEST POP POP POP POP PUSH1 0x40 MLOAD RETURNDATASIZE PUSH1 0x1F NOT PUSH1 0x1F DUP3 ADD AND DUP3 ADD DUP1 PUSH1 0x40 MSTORE POP DUP2 ADD SWAP1 PUSH2 0x644 SWAP2 SWAP1 PUSH2 0x18C9 JUMP JUMPDEST POP PUSH2 0x65D DUP4 PUSH1 0x60 ADD MLOAD DUP3 DUP6 PUSH1 0x20 ADD MLOAD DUP7 PUSH1 0x0 ADD MLOAD PUSH2 0xFA6 JUMP JUMPDEST PUSH1 0x0 DUP4 PUSH1 0x0 ADD MLOAD PUSH20 0xFFFFFFFFFFFFFFFFFFFFFFFFFFFFFFFFFFFFFFFF AND PUSH4 0x70A08231 ADDRESS PUSH1 0x40 MLOAD DUP3 PUSH4 0xFFFFFFFF AND PUSH1 0xE0 SHL DUP2 MSTORE PUSH1 0x4 ADD PUSH2 0x69C SWAP2 SWAP1 PUSH2 0x148F JUMP JUMPDEST PUSH1 0x20 PUSH1 0x40 MLOAD DUP1 DUP4 SUB DUP2 DUP7 GAS STATICCALL ISZERO DUP1 ISZERO PUSH2 0x6B9 JUMPI RETURNDATASIZE PUSH1 0x0 DUP1 RETURNDATACOPY RETURNDATASIZE PUSH1 0x0 REVERT JUMPDEST POP POP POP POP PUSH1 0x40 MLOAD RETURNDATASIZE PUSH1 0x1F NOT PUSH1 0x1F DUP3 ADD AND DUP3 ADD DUP1 PUSH1 0x40 MSTORE POP DUP2 ADD SWAP1 PUSH2 0x6DD SWAP2 SWAP1 PUSH2 0x1847 JUMP JUMPDEST SWAP1 POP PUSH1 0x0 DUP2 GT PUSH2 0x722 JUMPI PUSH1 0x40 MLOAD PUSH32 0x8C379A000000000000000000000000000000000000000000000000000000000 DUP2 MSTORE PUSH1 0x4 ADD PUSH2 0x719 SWAP1 PUSH2 0x19AE JUMP JUMPDEST PUSH1 0x40 MLOAD DUP1 SWAP2 SUB SWAP1 REVERT JUMPDEST PUSH1 0x0 DUP10 DUP12 PUSH2 0x730 SWAP2 SWAP1 PUSH2 0x19FD JUMP JUMPDEST SWAP1 POP PUSH1 0x0 DUP6 PUSH1 0x0 ADD MLOAD PUSH20 0xFFFFFFFFFFFFFFFFFFFFFFFFFFFFFFFFFFFFFFFF AND PUSH4 0x313CE567 PUSH1 0x40 MLOAD DUP2 PUSH4 0xFFFFFFFF AND PUSH1 0xE0 SHL DUP2 MSTORE PUSH1 0x4 ADD PUSH1 0x20 PUSH1 0x40 MLOAD DUP1 DUP4 SUB DUP2 DUP7 GAS STATICCALL ISZERO DUP1 ISZERO PUSH2 0x783 JUMPI RETURNDATASIZE PUSH1 0x0 DUP1 RETURNDATACOPY RETURNDATASIZE PUSH1 0x0 REVERT JUMPDEST POP POP POP POP PUSH1 0x40 MLOAD RETURNDATASIZE PUSH1 0x1F NOT PUSH1 0x1F DUP3 ADD AND DUP3 ADD DUP1 PUSH1 0x40 MSTORE POP DUP2 ADD SWAP1 PUSH2 0x7A7 SWAP2 SWAP1 PUSH2 0x1A6A JUMP JUMPDEST SWAP1 POP PUSH1 0x0 DUP2 PUSH1 0x12 PUSH2 0x7B8 SWAP2 SWAP1 PUSH2 0x1A97 JUMP JUMPDEST PUSH1 0xA PUSH2 0x7C4 SWAP2 SWAP1 PUSH2 0x1BFF JUMP JUMPDEST PUSH32 0x0 PUSH2 0x7EF SWAP2 SWAP1 PUSH2 0x1C79 JUMP JUMPDEST SWAP1 POP PUSH32 0xD8DFA1DF854FCCEB7D93B8D19AC99C35A6D6F85DDB3176BE33BB5A312F9E363D DUP14 DUP14 DUP9 DUP9 DUP9 PUSH1 0x40 MLOAD PUSH2 0x828 SWAP6 SWAP5 SWAP4 SWAP3 SWAP2 SWAP1 PUSH2 0x1CAA JUMP JUMPDEST PUSH1 0x40 MLOAD DUP1 SWAP2 SUB SWAP1 LOG1 PUSH32 0xF4DBD397AA2B592B3852CD94A99201DBC3622CFC8626DC0B547151722064A117 DUP4 DUP3 DUP7 PUSH1 0x40 MLOAD PUSH2 0x863 SWAP4 SWAP3 SWAP2 SWAP1 PUSH2 0x1CFD JUMP JUMPDEST PUSH1 0x40 MLOAD DUP1 SWAP2 SUB SWAP1 LOG1 DUP3 DUP5 LT ISZERO PUSH2 0x8AE JUMPI PUSH1 0x40 MLOAD PUSH32 0x8C379A000000000000000000000000000000000000000000000000000000000 DUP2 MSTORE PUSH1 0x4 ADD PUSH2 0x8A5 SWAP1 PUSH2 0x1D80 JUMP JUMPDEST PUSH1 0x40 MLOAD DUP1 SWAP2 SUB SWAP1 REVERT JUMPDEST DUP1 DUP4 PUSH2 0x8BA SWAP2 SWAP1 PUSH2 0x19FD JUMP JUMPDEST DUP5 LT ISZERO PUSH2 0x8FC JUMPI PUSH1 0x40 MLOAD PUSH32 0x8C379A000000000000000000000000000000000000000000000000000000000 DUP2 MSTORE PUSH1 0x4 ADD PUSH2 0x8F3 SWAP1 PUSH2 0x1DEC JUMP JUMPDEST PUSH1 0x40 MLOAD DUP1 SWAP2 SUB SWAP1 REVERT JUMPDEST DUP7 PUSH1 0x0 ADD MLOAD PUSH20 0xFFFFFFFFFFFFFFFFFFFFFFFFFFFFFFFFFFFFFFFF AND PUSH4 0x95EA7B3 PUSH32 0x0 DUP6 PUSH1 0x40 MLOAD DUP4 PUSH4 0xFFFFFFFF AND PUSH1 0xE0 SHL DUP2 MSTORE PUSH1 0x4 ADD PUSH2 0x95B SWAP3 SWAP2 SWAP1 PUSH2 0x1874 JUMP JUMPDEST PUSH1 0x20 PUSH1 0x40 MLOAD DUP1 DUP4 SUB DUP2 PUSH1 0x0 DUP8 GAS CALL ISZERO DUP1 ISZERO PUSH2 0x97A JUMPI RETURNDATASIZE PUSH1 0x0 DUP1 RETURNDATACOPY RETURNDATASIZE PUSH1 0x0 REVERT JUMPDEST POP POP POP POP PUSH1 0x40 MLOAD RETURNDATASIZE PUSH1 0x1F NOT PUSH1 0x1F DUP3 ADD AND DUP3 ADD DUP1 PUSH1 0x40 MSTORE POP DUP2 ADD SWAP1 PUSH2 0x99E SWAP2 SWAP1 PUSH2 0x18C9 JUMP JUMPDEST POP PUSH1 0x1 SWAP8 POP POP POP POP POP POP POP POP SWAP7 SWAP6 POP POP POP POP POP POP JUMP JUMPDEST PUSH1 0x1 PUSH1 0x0 SWAP1 SLOAD SWAP1 PUSH2 0x100 EXP SWAP1 DIV PUSH20 0xFFFFFFFFFFFFFFFFFFFFFFFFFFFFFFFFFFFFFFFF AND PUSH20 0xFFFFFFFFFFFFFFFFFFFFFFFFFFFFFFFFFFFFFFFF AND CALLER PUSH20 0xFFFFFFFFFFFFFFFFFFFFFFFFFFFFFFFFFFFFFFFF AND EQ PUSH2 0xA44 JUMPI PUSH1 0x40 MLOAD PUSH32 0x8C379A000000000000000000000000000000000000000000000000000000000 DUP2 MSTORE PUSH1 0x4 ADD PUSH2 0xA3B SWAP1 PUSH2 0x1E58 JUMP JUMPDEST PUSH1 0x40 MLOAD DUP1 SWAP2 SUB SWAP1 REVERT JUMPDEST PUSH1 0x1 PUSH1 0x0 SWAP1 SLOAD SWAP1 PUSH2 0x100 EXP SWAP1 DIV PUSH20 0xFFFFFFFFFFFFFFFFFFFFFFFFFFFFFFFFFFFFFFFF AND PUSH20 0xFFFFFFFFFFFFFFFFFFFFFFFFFFFFFFFFFFFFFFFF AND PUSH2 0x8FC SELFBALANCE SWAP1 DUP2 ISZERO MUL SWAP1 PUSH1 0x40 MLOAD PUSH1 0x0 PUSH1 0x40 MLOAD DUP1 DUP4 SUB DUP2 DUP6 DUP9 DUP9 CALL SWAP4 POP POP POP POP ISZERO DUP1 ISZERO PUSH2 0xAAC JUMPI RETURNDATASIZE PUSH1 0x0 DUP1 RETURNDATACOPY RETURNDATASIZE PUSH1 0x0 REVERT JUMPDEST POP JUMP JUMPDEST PUSH32 0x0 DUP2 JUMP JUMPDEST PUSH32 0x0 DUP2 JUMP JUMPDEST PUSH1 0x1 PUSH1 0x0 SWAP1 SLOAD SWAP1 PUSH2 0x100 EXP SWAP1 DIV PUSH20 0xFFFFFFFFFFFFFFFFFFFFFFFFFFFFFFFFFFFFFFFF AND PUSH20 0xFFFFFFFFFFFFFFFFFFFFFFFFFFFFFFFFFFFFFFFF AND CALLER PUSH20 0xFFFFFFFFFFFFFFFFFFFFFFFFFFFFFFFFFFFFFFFF AND EQ PUSH2 0xB87 JUMPI PUSH1 0x40 MLOAD PUSH32 0x8C379A000000000000000000000000000000000000000000000000000000000 DUP2 MSTORE PUSH1 0x4 ADD PUSH2 0xB7E SWAP1 PUSH2 0x1E58 JUMP JUMPDEST PUSH1 0x40 MLOAD DUP1 SWAP2 SUB SWAP1 REVERT JUMPDEST PUSH1 0x0 DUP2 PUSH20 0xFFFFFFFFFFFFFFFFFFFFFFFFFFFFFFFFFFFFFFFF AND PUSH4 0x70A08231 ADDRESS PUSH1 0x40 MLOAD DUP3 PUSH4 0xFFFFFFFF AND PUSH1 0xE0 SHL DUP2 MSTORE PUSH1 0x4 ADD PUSH2 0xBC2 SWAP2 SWAP1 PUSH2 0x148F JUMP JUMPDEST PUSH1 0x20 PUSH1 0x40 MLOAD DUP1 DUP4 SUB DUP2 DUP7 GAS STATICCALL ISZERO DUP1 ISZERO PUSH2 0xBDF JUMPI RETURNDATASIZE PUSH1 0x0 DUP1 RETURNDATACOPY RETURNDATASIZE PUSH1 0x0 REVERT JUMPDEST POP POP POP POP PUSH1 0x40 MLOAD RETURNDATASIZE PUSH1 0x1F NOT PUSH1 0x1F DUP3 ADD AND DUP3 ADD DUP1 PUSH1 0x40 MSTORE POP DUP2 ADD SWAP1 PUSH2 0xC03 SWAP2 SWAP1 PUSH2 0x1847 JUMP JUMPDEST SWAP1 POP PUSH1 0x0 DUP2 GT PUSH2 0xC48 JUMPI PUSH1 0x40 MLOAD PUSH32 0x8C379A000000000000000000000000000000000000000000000000000000000 DUP2 MSTORE PUSH1 0x4 ADD PUSH2 0xC3F SWAP1 PUSH2 0x1EC4 JUMP JUMPDEST PUSH1 0x40 MLOAD DUP1 SWAP2 SUB SWAP1 REVERT JUMPDEST DUP2 PUSH20 0xFFFFFFFFFFFFFFFFFFFFFFFFFFFFFFFFFFFFFFFF AND PUSH4 0xA9059CBB PUSH1 0x1 PUSH1 0x0 SWAP1 SLOAD SWAP1 PUSH2 0x100 EXP SWAP1 DIV PUSH20 0xFFFFFFFFFFFFFFFFFFFFFFFFFFFFFFFFFFFFFFFF AND DUP4 PUSH1 0x40 MLOAD DUP4 PUSH4 0xFFFFFFFF AND PUSH1 0xE0 SHL DUP2 MSTORE PUSH1 0x4 ADD PUSH2 0xCA5 SWAP3 SWAP2 SWAP1 PUSH2 0x1874 JUMP JUMPDEST PUSH1 0x20 PUSH1 0x40 MLOAD DUP1 DUP4 SUB DUP2 PUSH1 0x0 DUP8 GAS CALL ISZERO DUP1 ISZERO PUSH2 0xCC4 JUMPI RETURNDATASIZE PUSH1 0x0 DUP1 RETURNDATACOPY RETURNDATASIZE PUSH1 0x0 REVERT JUMPDEST POP POP POP POP PUSH1 0x40 MLOAD RETURNDATASIZE PUSH1 0x1F NOT PUSH1 0x1F DUP3 ADD AND DUP3 ADD DUP1 PUSH1 0x40 MSTORE POP DUP2 ADD SWAP1 PUSH2 0xCE8 SWAP2 SWAP1 PUSH2 0x18C9 JUMP JUMPDEST POP POP POP JUMP JUMPDEST PUSH1 0x1 PUSH1 0x0 SWAP1 SLOAD SWAP1 PUSH2 0x100 EXP SWAP1 DIV PUSH20 0xFFFFFFFFFFFFFFFFFFFFFFFFFFFFFFFFFFFFFFFF AND DUP2 JUMP JUMPDEST PUSH1 0x0 PUSH20 0xFFFFFFFFFFFFFFFFFFFFFFFFFFFFFFFFFFFFFFFF AND DUP5 PUSH20 0xFFFFFFFFFFFFFFFFFFFFFFFFFFFFFFFFFFFFFFFF AND EQ ISZERO DUP1 ISZERO PUSH2 0xD7D JUMPI POP PUSH1 0x0 PUSH20 0xFFFFFFFFFFFFFFFFFFFFFFFFFFFFFFFFFFFFFFFF AND DUP4 PUSH20 0xFFFFFFFFFFFFFFFFFFFFFFFFFFFFFFFFFFFFFFFF AND EQ ISZERO JUMPDEST PUSH2 0xDBC JUMPI PUSH1 0x40 MLOAD PUSH32 0x8C379A000000000000000000000000000000000000000000000000000000000 DUP2 MSTORE PUSH1 0x4 ADD PUSH2 0xDB3 SWAP1 PUSH2 0x1F30 JUMP JUMPDEST PUSH1 0x40 MLOAD DUP1 SWAP2 SUB SWAP1 REVERT JUMPDEST PUSH1 0x0 PUSH20 0xFFFFFFFFFFFFFFFFFFFFFFFFFFFFFFFFFFFFFFFF AND DUP3 PUSH20 0xFFFFFFFFFFFFFFFFFFFFFFFFFFFFFFFFFFFFFFFF AND EQ ISZERO DUP1 ISZERO PUSH2 0xE26 JUMPI POP PUSH1 0x0 PUSH20 0xFFFFFFFFFFFFFFFFFFFFFFFFFFFFFFFFFFFFFFFF AND DUP2 PUSH20 0xFFFFFFFFFFFFFFFFFFFFFFFFFFFFFFFFFFFFFFFF AND EQ ISZERO JUMPDEST PUSH2 0xE65 JUMPI PUSH1 0x40 MLOAD PUSH32 0x8C379A000000000000000000000000000000000000000000000000000000000 DUP2 MSTORE PUSH1 0x4 ADD PUSH2 0xE5C SWAP1 PUSH2 0x1F9C JUMP JUMPDEST PUSH1 0x40 MLOAD DUP1 SWAP2 SUB SWAP1 REVERT JUMPDEST PUSH1 0x0 PUSH1 0x40 MLOAD DUP1 PUSH1 0x80 ADD PUSH1 0x40 MSTORE DUP1 DUP7 PUSH20 0xFFFFFFFFFFFFFFFFFFFFFFFFFFFFFFFFFFFFFFFF AND DUP2 MSTORE PUSH1 0x20 ADD DUP6 PUSH20 0xFFFFFFFFFFFFFFFFFFFFFFFFFFFFFFFFFFFFFFFF AND DUP2 MSTORE PUSH1 0x20 ADD DUP5 PUSH20 0xFFFFFFFFFFFFFFFFFFFFFFFFFFFFFFFFFFFFFFFF AND DUP2 MSTORE PUSH1 0x20 ADD DUP4 PUSH20 0xFFFFFFFFFFFFFFFFFFFFFFFFFFFFFFFFFFFFFFFF AND DUP2 MSTORE POP SWAP1 POP PUSH1 0x0 DUP2 PUSH1 0x40 MLOAD PUSH1 0x20 ADD PUSH2 0xEF5 SWAP2 SWAP1 PUSH2 0x2020 JUMP JUMPDEST PUSH1 0x40 MLOAD PUSH1 0x20 DUP2 DUP4 SUB SUB DUP2 MSTORE SWAP1 PUSH1 0x40 MSTORE SWAP1 POP PUSH1 0x0 DUP7 PUSH20 0xFFFFFFFFFFFFFFFFFFFFFFFFFFFFFFFFFFFFFFFF AND PUSH4 0x313CE567 PUSH1 0x40 MLOAD DUP2 PUSH4 0xFFFFFFFF AND PUSH1 0xE0 SHL DUP2 MSTORE PUSH1 0x4 ADD PUSH1 0x20 PUSH1 0x40 MLOAD DUP1 DUP4 SUB DUP2 DUP7 GAS STATICCALL ISZERO DUP1 ISZERO PUSH2 0xF53 JUMPI RETURNDATASIZE PUSH1 0x0 DUP1 RETURNDATACOPY RETURNDATASIZE PUSH1 0x0 REVERT JUMPDEST POP POP POP POP PUSH1 0x40 MLOAD RETURNDATASIZE PUSH1 0x1F NOT PUSH1 0x1F DUP3 ADD AND DUP3 ADD DUP1 PUSH1 0x40 MSTORE POP DUP2 ADD SWAP1 PUSH2 0xF77 SWAP2 SWAP1 PUSH2 0x1A6A JUMP JUMPDEST PUSH1 0xA PUSH2 0xF83 SWAP2 SWAP1 PUSH2 0x1BFF JUMP JUMPDEST PUSH2 0x3E8 PUSH2 0xF90 SWAP2 SWAP1 PUSH2 0x203B JUMP JUMPDEST SWAP1 POP PUSH2 0xF9D DUP8 DUP3 DUP5 PUSH2 0x11DD JUMP JUMPDEST POP POP POP POP POP POP POP JUMP JUMPDEST PUSH1 0x0 PUSH1 0x2 PUSH8 0xFFFFFFFFFFFFFFFF DUP2 GT ISZERO PUSH2 0xFC3 JUMPI PUSH2 0xFC2 PUSH2 0x163A JUMP JUMPDEST JUMPDEST PUSH1 0x40 MLOAD SWAP1 DUP1 DUP3 MSTORE DUP1 PUSH1 0x20 MUL PUSH1 0x20 ADD DUP3 ADD PUSH1 0x40 MSTORE DUP1 ISZERO PUSH2 0xFF1 JUMPI DUP2 PUSH1 0x20 ADD PUSH1 0x20 DUP3 MUL DUP1 CALLDATASIZE DUP4 CALLDATACOPY DUP1 DUP3 ADD SWAP2 POP POP SWAP1 POP JUMPDEST POP SWAP1 POP DUP3 DUP2 PUSH1 0x0 DUP2 MLOAD DUP2 LT PUSH2 0x1009 JUMPI PUSH2 0x1008 PUSH2 0x207D JUMP JUMPDEST JUMPDEST PUSH1 0x20 MUL PUSH1 0x20 ADD ADD SWAP1 PUSH20 0xFFFFFFFFFFFFFFFFFFFFFFFFFFFFFFFFFFFFFFFF AND SWAP1 DUP2 PUSH20 0xFFFFFFFFFFFFFFFFFFFFFFFFFFFFFFFFFFFFFFFF AND DUP2 MSTORE POP POP DUP2 DUP2 PUSH1 0x1 DUP2 MLOAD DUP2 LT PUSH2 0x1058 JUMPI PUSH2 0x1057 PUSH2 0x207D JUMP JUMPDEST JUMPDEST PUSH1 0x20 MUL PUSH1 0x20 ADD ADD SWAP1 PUSH20 0xFFFFFFFFFFFFFFFFFFFFFFFFFFFFFFFFFFFFFFFF AND SWAP1 DUP2 PUSH20 0xFFFFFFFFFFFFFFFFFFFFFFFFFFFFFFFFFFFFFFFF AND DUP2 MSTORE POP POP PUSH1 0x0 DUP6 PUSH20 0xFFFFFFFFFFFFFFFFFFFFFFFFFFFFFFFFFFFFFFFF AND DUP6 PUSH1 0x0 DUP5 ADDRESS TIMESTAMP PUSH1 0x40 MLOAD PUSH1 0x24 ADD PUSH2 0x10C5 SWAP6 SWAP5 SWAP4 SWAP3 SWAP2 SWAP1 PUSH2 0x21A0 JUMP JUMPDEST PUSH1 0x40 MLOAD PUSH1 0x20 DUP2 DUP4 SUB SUB DUP2 MSTORE SWAP1 PUSH1 0x40 MSTORE PUSH32 0x38ED173900000000000000000000000000000000000000000000000000000000 PUSH28 0xFFFFFFFFFFFFFFFFFFFFFFFFFFFFFFFFFFFFFFFFFFFFFFFFFFFFFFFF NOT AND PUSH1 0x20 DUP3 ADD DUP1 MLOAD PUSH28 0xFFFFFFFFFFFFFFFFFFFFFFFFFFFFFFFFFFFFFFFFFFFFFFFFFFFFFFFF DUP4 DUP2 DUP4 AND OR DUP4 MSTORE POP POP POP POP PUSH1 0x40 MLOAD PUSH2 0x114F SWAP2 SWAP1 PUSH2 0x226B JUMP JUMPDEST PUSH1 0x0 PUSH1 0x40 MLOAD DUP1 DUP4 SUB DUP2 PUSH1 0x0 DUP7 GAS CALL SWAP2 POP POP RETURNDATASIZE DUP1 PUSH1 0x0 DUP2 EQ PUSH2 0x118C JUMPI PUSH1 0x40 MLOAD SWAP2 POP PUSH1 0x1F NOT PUSH1 0x3F RETURNDATASIZE ADD AND DUP3 ADD PUSH1 0x40 MSTORE RETURNDATASIZE DUP3 MSTORE RETURNDATASIZE PUSH1 0x0 PUSH1 0x20 DUP5 ADD RETURNDATACOPY PUSH2 0x1191 JUMP JUMPDEST PUSH1 0x60 SWAP2 POP JUMPDEST POP POP SWAP1 POP DUP1 PUSH2 0x11D5 JUMPI PUSH1 0x40 MLOAD PUSH32 0x8C379A000000000000000000000000000000000000000000000000000000000 DUP2 MSTORE PUSH1 0x4 ADD PUSH2 0x11CC SWAP1 PUSH2 0x22CE JUMP JUMPDEST PUSH1 0x40 MLOAD DUP1 SWAP2 SUB SWAP1 REVERT JUMPDEST POP POP POP POP POP POP JUMP JUMPDEST PUSH32 0x0 PUSH20 0xFFFFFFFFFFFFFFFFFFFFFFFFFFFFFFFFFFFFFFFF AND PUSH4 0x42B0B77C ADDRESS DUP6 DUP6 DUP6 PUSH1 0x0 PUSH1 0x40 MLOAD DUP7 PUSH4 0xFFFFFFFF AND PUSH1 0xE0 SHL DUP2 MSTORE PUSH1 0x4 ADD PUSH2 0x123F SWAP6 SWAP5 SWAP4 SWAP3 SWAP2 SWAP1 PUSH2 0x2377 JUMP JUMPDEST PUSH1 0x0 PUSH1 0x40 MLOAD DUP1 DUP4 SUB DUP2 PUSH1 0x0 DUP8 DUP1 EXTCODESIZE ISZERO DUP1 ISZERO PUSH2 0x1259 JUMPI PUSH1 0x0 DUP1 REVERT JUMPDEST POP GAS CALL ISZERO DUP1 ISZERO PUSH2 0x126D JUMPI RETURNDATASIZE PUSH1 0x0 DUP1 RETURNDATACOPY RETURNDATASIZE PUSH1 0x0 REVERT JUMPDEST POP POP POP POP POP POP POP JUMP JUMPDEST PUSH1 0x0 PUSH1 0x40 MLOAD SWAP1 POP SWAP1 JUMP JUMPDEST PUSH1 0x0 DUP1 REVERT JUMPDEST PUSH1 0x0 DUP1 REVERT JUMPDEST PUSH1 0x0 PUSH20 0xFFFFFFFFFFFFFFFFFFFFFFFFFFFFFFFFFFFFFFFF DUP3 AND SWAP1 POP SWAP2 SWAP1 POP JUMP JUMPDEST PUSH1 0x0 PUSH2 0x12B5 DUP3 PUSH2 0x128A JUMP JUMPDEST SWAP1 POP SWAP2 SWAP1 POP JUMP JUMPDEST PUSH2 0x12C5 DUP2 PUSH2 0x12AA JUMP JUMPDEST DUP2 EQ PUSH2 0x12D0 JUMPI PUSH1 0x0 DUP1 REVERT JUMPDEST POP JUMP JUMPDEST PUSH1 0x0 DUP2 CALLDATALOAD SWAP1 POP PUSH2 0x12E2 DUP2 PUSH2 0x12BC JUMP JUMPDEST SWAP3 SWAP2 POP POP JUMP JUMPDEST PUSH1 0x0 PUSH1 0x20 DUP3 DUP5 SUB SLT ISZERO PUSH2 0x12FE JUMPI PUSH2 0x12FD PUSH2 0x1280 JUMP JUMPDEST JUMPDEST PUSH1 0x0 PUSH2 0x130C DUP5 DUP3 DUP6 ADD PUSH2 0x12D3 JUMP JUMPDEST SWAP2 POP POP SWAP3 SWAP2 POP POP JUMP JUMPDEST PUSH1 0x0 DUP2 ISZERO ISZERO SWAP1 POP SWAP2 SWAP1 POP JUMP JUMPDEST PUSH2 0x132A DUP2 PUSH2 0x1315 JUMP JUMPDEST DUP3 MSTORE POP POP JUMP JUMPDEST PUSH1 0x0 PUSH1 0x20 DUP3 ADD SWAP1 POP PUSH2 0x1345 PUSH1 0x0 DUP4 ADD DUP5 PUSH2 0x1321 JUMP JUMPDEST SWAP3 SWAP2 POP POP JUMP JUMPDEST PUSH1 0x0 DUP2 SWAP1 POP SWAP2 SWAP1 POP JUMP JUMPDEST PUSH2 0x135E DUP2 PUSH2 0x134B JUMP JUMPDEST DUP2 EQ PUSH2 0x1369 JUMPI PUSH1 0x0 DUP1 REVERT JUMPDEST POP JUMP JUMPDEST PUSH1 0x0 DUP2 CALLDATALOAD SWAP1 POP PUSH2 0x137B DUP2 PUSH2 0x1355 JUMP JUMPDEST SWAP3 SWAP2 POP POP JUMP JUMPDEST PUSH1 0x0 DUP1 REVERT JUMPDEST PUSH1 0x0 DUP1 REVERT JUMPDEST PUSH1 0x0 DUP1 REVERT JUMPDEST PUSH1 0x0 DUP1 DUP4 PUSH1 0x1F DUP5 ADD SLT PUSH2 0x13A6 JUMPI PUSH2 0x13A5 PUSH2 0x1381 JUMP JUMPDEST JUMPDEST DUP3 CALLDATALOAD SWAP1 POP PUSH8 0xFFFFFFFFFFFFFFFF DUP2 GT ISZERO PUSH2 0x13C3 JUMPI PUSH2 0x13C2 PUSH2 0x1386 JUMP JUMPDEST JUMPDEST PUSH1 0x20 DUP4 ADD SWAP2 POP DUP4 PUSH1 0x1 DUP3 MUL DUP4 ADD GT ISZERO PUSH2 0x13DF JUMPI PUSH2 0x13DE PUSH2 0x138B JUMP JUMPDEST JUMPDEST SWAP3 POP SWAP3 SWAP1 POP JUMP JUMPDEST PUSH1 0x0 DUP1 PUSH1 0x0 DUP1 PUSH1 0x0 DUP1 PUSH1 0xA0 DUP8 DUP10 SUB SLT ISZERO PUSH2 0x1403 JUMPI PUSH2 0x1402 PUSH2 0x1280 JUMP JUMPDEST JUMPDEST PUSH1 0x0 PUSH2 0x1411 DUP10 DUP3 DUP11 ADD PUSH2 0x12D3 JUMP JUMPDEST SWAP7 POP POP PUSH1 0x20 PUSH2 0x1422 DUP10 DUP3 DUP11 ADD PUSH2 0x136C JUMP JUMPDEST SWAP6 POP POP PUSH1 0x40 PUSH2 0x1433 DUP10 DUP3 DUP11 ADD PUSH2 0x136C JUMP JUMPDEST SWAP5 POP POP PUSH1 0x60 PUSH2 0x1444 DUP10 DUP3 DUP11 ADD PUSH2 0x12D3 JUMP JUMPDEST SWAP4 POP POP PUSH1 0x80 DUP8 ADD CALLDATALOAD PUSH8 0xFFFFFFFFFFFFFFFF DUP2 GT ISZERO PUSH2 0x1465 JUMPI PUSH2 0x1464 PUSH2 0x1285 JUMP JUMPDEST JUMPDEST PUSH2 0x1471 DUP10 DUP3 DUP11 ADD PUSH2 0x1390 JUMP JUMPDEST SWAP3 POP SWAP3 POP POP SWAP3 SWAP6 POP SWAP3 SWAP6 POP SWAP3 SWAP6 JUMP JUMPDEST PUSH2 0x1489 DUP2 PUSH2 0x12AA JUMP JUMPDEST DUP3 MSTORE POP POP JUMP JUMPDEST PUSH1 0x0 PUSH1 0x20 DUP3 ADD SWAP1 POP PUSH2 0x14A4 PUSH1 0x0 DUP4 ADD DUP5 PUSH2 0x1480 JUMP JUMPDEST SWAP3 SWAP2 POP POP JUMP JUMPDEST PUSH2 0x14B3 DUP2 PUSH2 0x134B JUMP JUMPDEST DUP3 MSTORE POP POP JUMP JUMPDEST PUSH1 0x0 PUSH1 0x20 DUP3 ADD SWAP1 POP PUSH2 0x14CE PUSH1 0x0 DUP4 ADD DUP5 PUSH2 0x14AA JUMP JUMPDEST SWAP3 SWAP2 POP POP JUMP JUMPDEST PUSH1 0x0 DUP1 PUSH1 0x0 DUP1 PUSH1 0x80 DUP6 DUP8 SUB SLT ISZERO PUSH2 0x14EE JUMPI PUSH2 0x14ED PUSH2 0x1280 JUMP JUMPDEST JUMPDEST PUSH1 0x0 PUSH2 0x14FC DUP8 DUP3 DUP9 ADD PUSH2 0x12D3 JUMP JUMPDEST SWAP5 POP POP PUSH1 0x20 PUSH2 0x150D DUP8 DUP3 DUP9 ADD PUSH2 0x12D3 JUMP JUMPDEST SWAP4 POP POP PUSH1 0x40 PUSH2 0x151E DUP8 DUP3 DUP9 ADD PUSH2 0x12D3 JUMP JUMPDEST SWAP3 POP POP PUSH1 0x60 PUSH2 0x152F DUP8 DUP3 DUP9 ADD PUSH2 0x12D3 JUMP JUMPDEST SWAP2 POP POP SWAP3 SWAP6 SWAP2 SWAP5 POP SWAP3 POP JUMP JUMPDEST PUSH1 0x0 DUP3 DUP3 MSTORE PUSH1 0x20 DUP3 ADD SWAP1 POP SWAP3 SWAP2 POP POP JUMP JUMPDEST PUSH32 0x4F6E6C7920706F6F6C2063616E2063616C6C0000000000000000000000000000 PUSH1 0x0 DUP3 ADD MSTORE POP JUMP JUMPDEST PUSH1 0x0 PUSH2 0x1582 PUSH1 0x12 DUP4 PUSH2 0x153B JUMP JUMPDEST SWAP2 POP PUSH2 0x158D DUP3 PUSH2 0x154C JUMP JUMPDEST PUSH1 0x20 DUP3 ADD SWAP1 POP SWAP2 SWAP1 POP JUMP JUMPDEST PUSH1 0x0 PUSH1 0x20 DUP3 ADD SWAP1 POP DUP2 DUP2 SUB PUSH1 0x0 DUP4 ADD MSTORE PUSH2 0x15B1 DUP2 PUSH2 0x1575 JUMP JUMPDEST SWAP1 POP SWAP2 SWAP1 POP JUMP JUMPDEST PUSH32 0x4F6E6C792073656C6620696E6974696174656400000000000000000000000000 PUSH1 0x0 DUP3 ADD MSTORE POP JUMP JUMPDEST PUSH1 0x0 PUSH2 0x15EE PUSH1 0x13 DUP4 PUSH2 0x153B JUMP JUMPDEST SWAP2 POP PUSH2 0x15F9 DUP3 PUSH2 0x15B8 JUMP JUMPDEST PUSH1 0x20 DUP3 ADD SWAP1 POP SWAP2 SWAP1 POP JUMP JUMPDEST PUSH1 0x0 PUSH1 0x20 DUP3 ADD SWAP1 POP DUP2 DUP2 SUB PUSH1 0x0 DUP4 ADD MSTORE PUSH2 0x161D DUP2 PUSH2 0x15E1 JUMP JUMPDEST SWAP1 POP SWAP2 SWAP1 POP JUMP JUMPDEST PUSH1 0x0 DUP1 REVERT JUMPDEST PUSH1 0x0 PUSH1 0x1F NOT PUSH1 0x1F DUP4 ADD AND SWAP1 POP SWAP2 SWAP1 POP JUMP JUMPDEST PUSH32 0x4E487B7100000000000000000000000000000000000000000000000000000000 PUSH1 0x0 MSTORE PUSH1 0x41 PUSH1 0x4 MSTORE PUSH1 0x24 PUSH1 0x0 REVERT JUMPDEST PUSH2 0x1672 DUP3 PUSH2 0x1629 JUMP JUMPDEST DUP2 ADD DUP2 DUP2 LT PUSH8 0xFFFFFFFFFFFFFFFF DUP3 GT OR ISZERO PUSH2 0x1691 JUMPI PUSH2 0x1690 PUSH2 0x163A JUMP JUMPDEST JUMPDEST DUP1 PUSH1 0x40 MSTORE POP POP POP JUMP JUMPDEST PUSH1 0x0 PUSH2 0x16A4 PUSH2 0x1276 JUMP JUMPDEST SWAP1 POP PUSH2 0x16B0 DUP3 DUP3 PUSH2 0x1669 JUMP JUMPDEST SWAP2 SWAP1 POP JUMP JUMPDEST PUSH1 0x0 PUSH1 0x80 DUP3 DUP5 SUB SLT ISZERO PUSH2 0x16CB JUMPI PUSH2 0x16CA PUSH2 0x1624 JUMP JUMPDEST JUMPDEST PUSH2 0x16D5 PUSH1 0x80 PUSH2 0x169A JUMP JUMPDEST SWAP1 POP PUSH1 0x0 PUSH2 0x16E5 DUP5 DUP3 DUP6 ADD PUSH2 0x12D3 JUMP JUMPDEST PUSH1 0x0 DUP4 ADD MSTORE POP PUSH1 0x20 PUSH2 0x16F9 DUP5 DUP3 DUP6 ADD PUSH2 0x12D3 JUMP JUMPDEST PUSH1 0x20 DUP4 ADD MSTORE POP PUSH1 0x40 PUSH2 0x170D DUP5 DUP3 DUP6 ADD PUSH2 0x12D3 JUMP JUMPDEST PUSH1 0x40 DUP4 ADD MSTORE POP PUSH1 0x60 PUSH2 0x1721 DUP5 DUP3 DUP6 ADD PUSH2 0x12D3 JUMP JUMPDEST PUSH1 0x60 DUP4 ADD MSTORE POP SWAP3 SWAP2 POP POP JUMP JUMPDEST PUSH1 0x0 PUSH1 0x80 DUP3 DUP5 SUB SLT ISZERO PUSH2 0x1743 JUMPI PUSH2 0x1742 PUSH2 0x1280 JUMP JUMPDEST JUMPDEST PUSH1 0x0 PUSH2 0x1751 DUP5 DUP3 DUP6 ADD PUSH2 0x16B5 JUMP JUMPDEST SWAP2 POP POP SWAP3 SWAP2 POP POP JUMP JUMPDEST PUSH32 0x526F7574657230206E6F742077686974656C6973746564000000000000000000 PUSH1 0x0 DUP3 ADD MSTORE POP JUMP JUMPDEST PUSH1 0x0 PUSH2 0x1790 PUSH1 0x17 DUP4 PUSH2 0x153B JUMP JUMPDEST SWAP2 POP PUSH2 0x179B DUP3 PUSH2 0x175A JUMP JUMPDEST PUSH1 0x20 DUP3 ADD SWAP1 POP SWAP2 SWAP1 POP JUMP JUMPDEST PUSH1 0x0 PUSH1 0x20 DUP3 ADD SWAP1 POP DUP2 DUP2 SUB PUSH1 0x0 DUP4 ADD MSTORE PUSH2 0x17BF DUP2 PUSH2 0x1783 JUMP JUMPDEST SWAP1 POP SWAP2 SWAP1 POP JUMP JUMPDEST PUSH32 0x526F7574657231206E6F742077686974656C6973746564000000000000000000 PUSH1 0x0 DUP3 ADD MSTORE POP JUMP JUMPDEST PUSH1 0x0 PUSH2 0x17FC PUSH1 0x17 DUP4 PUSH2 0x153B JUMP JUMPDEST SWAP2 POP PUSH2 0x1807 DUP3 PUSH2 0x17C6 JUMP JUMPDEST PUSH1 0x20 DUP3 ADD SWAP1 POP SWAP2 SWAP1 POP JUMP JUMPDEST PUSH1 0x0 PUSH1 0x20 DUP3 ADD SWAP1 POP DUP2 DUP2 SUB PUSH1 0x0 DUP4 ADD MSTORE PUSH2 0x182B DUP2 PUSH2 0x17EF JUMP JUMPDEST SWAP1 POP SWAP2 SWAP1 POP JUMP JUMPDEST PUSH1 0x0 DUP2 MLOAD SWAP1 POP PUSH2 0x1841 DUP2 PUSH2 0x1355 JUMP JUMPDEST SWAP3 SWAP2 POP POP JUMP JUMPDEST PUSH1 0x0 PUSH1 0x20 DUP3 DUP5 SUB SLT ISZERO PUSH2 0x185D JUMPI PUSH2 0x185C PUSH2 0x1280 JUMP JUMPDEST JUMPDEST PUSH1 0x0 PUSH2 0x186B DUP5 DUP3 DUP6 ADD PUSH2 0x1832 JUMP JUMPDEST SWAP2 POP POP SWAP3 SWAP2 POP POP JUMP JUMPDEST PUSH1 0x0 PUSH1 0x40 DUP3 ADD SWAP1 POP PUSH2 0x1889 PUSH1 0x0 DUP4 ADD DUP6 PUSH2 0x1480 JUMP JUMPDEST PUSH2 0x1896 PUSH1 0x20 DUP4 ADD DUP5 PUSH2 0x14AA JUMP JUMPDEST SWAP4 SWAP3 POP POP POP JUMP JUMPDEST PUSH2 0x18A6 DUP2 PUSH2 0x1315 JUMP JUMPDEST DUP2 EQ PUSH2 0x18B1 JUMPI PUSH1 0x0 DUP1 REVERT JUMPDEST POP JUMP JUMPDEST PUSH1 0x0 DUP2 MLOAD SWAP1 POP PUSH2 0x18C3 DUP2 PUSH2 0x189D JUMP JUMPDEST SWAP3 SWAP2 POP POP JUMP JUMPDEST PUSH1 0x0 PUSH1 0x20 DUP3 DUP5 SUB SLT ISZERO PUSH2 0x18DF JUMPI PUSH2 0x18DE PUSH2 0x1280 JUMP JUMPDEST JUMPDEST PUSH1 0x0 PUSH2 0x18ED DUP5 DUP3 DUP6 ADD PUSH2 0x18B4 JUMP JUMPDEST SWAP2 POP POP SWAP3 SWAP2 POP POP JUMP JUMPDEST PUSH32 0x53776170312072657475726E6564203000000000000000000000000000000000 PUSH1 0x0 DUP3 ADD MSTORE POP JUMP JUMPDEST PUSH1 0x0 PUSH2 0x192C PUSH1 0x10 DUP4 PUSH2 0x153B JUMP JUMPDEST SWAP2 POP PUSH2 0x1937 DUP3 PUSH2 0x18F6 JUMP JUMPDEST PUSH1 0x20 DUP3 ADD SWAP1 POP SWAP2 SWAP1 POP JUMP JUMPDEST PUSH1 0x0 PUSH1 0x20 DUP3 ADD SWAP1 POP DUP2 DUP2 SUB PUSH1 0x0 DUP4 ADD MSTORE PUSH2 0x195B DUP2 PUSH2 0x191F JUMP JUMPDEST SWAP1 POP SWAP2 SWAP1 POP JUMP JUMPDEST PUSH32 0x53776170322072657475726E6564203000000000000000000000000000000000 PUSH1 0x0 DUP3 ADD MSTORE POP JUMP JUMPDEST PUSH1 0x0 PUSH2 0x1998 PUSH1 0x10 DUP4 PUSH2 0x153B JUMP JUMPDEST SWAP2 POP PUSH2 0x19A3 DUP3 PUSH2 0x1962 JUMP JUMPDEST PUSH1 0x20 DUP3 ADD SWAP1 POP SWAP2 SWAP1 POP JUMP JUMPDEST PUSH1 0x0 PUSH1 0x20 DUP3 ADD SWAP1 POP DUP2 DUP2 SUB PUSH1 0x0 DUP4 ADD MSTORE PUSH2 0x19C7 DUP2 PUSH2 0x198B JUMP JUMPDEST SWAP1 POP SWAP2 SWAP1 POP JUMP JUMPDEST PUSH32 0x4E487B7100000000000000000000000000000000000000000000000000000000 PUSH1 0x0 MSTORE PUSH1 0x11 PUSH1 0x4 MSTORE PUSH1 0x24 PUSH1 0x0 REVERT JUMPDEST PUSH1 0x0 PUSH2 0x1A08 DUP3 PUSH2 0x134B JUMP JUMPDEST SWAP2 POP PUSH2 0x1A13 DUP4 PUSH2 0x134B JUMP JUMPDEST SWAP3 POP DUP3 DUP3 ADD SWAP1 POP DUP1 DUP3 GT ISZERO PUSH2 0x1A2B JUMPI PUSH2 0x1A2A PUSH2 0x19CE JUMP JUMPDEST JUMPDEST SWAP3 SWAP2 POP POP JUMP JUMPDEST PUSH1 0x0 PUSH1 0xFF DUP3 AND SWAP1 POP SWAP2 SWAP1 POP JUMP JUMPDEST PUSH2 0x1A47 DUP2 PUSH2 0x1A31 JUMP JUMPDEST DUP2 EQ PUSH2 0x1A52 JUMPI PUSH1 0x0 DUP1 REVERT JUMPDEST POP JUMP JUMPDEST PUSH1 0x0 DUP2 MLOAD SWAP1 POP PUSH2 0x1A64 DUP2 PUSH2 0x1A3E JUMP JUMPDEST SWAP3 SWAP2 POP POP JUMP JUMPDEST PUSH1 0x0 PUSH1 0x20 DUP3 DUP5 SUB SLT ISZERO PUSH2 0x1A80 JUMPI PUSH2 0x1A7F PUSH2 0x1280 JUMP JUMPDEST JUMPDEST PUSH1 0x0 PUSH2 0x1A8E DUP5 DUP3 DUP6 ADD PUSH2 0x1A55 JUMP JUMPDEST SWAP2 POP POP SWAP3 SWAP2 POP POP JUMP JUMPDEST PUSH1 0x0 PUSH2 0x1AA2 DUP3 PUSH2 0x1A31 JUMP JUMPDEST SWAP2 POP PUSH2 0x1AAD DUP4 PUSH2 0x1A31 JUMP JUMPDEST SWAP3 POP DUP3 DUP3 SUB SWAP1 POP PUSH1 0xFF DUP2 GT ISZERO PUSH2 0x1AC6 JUMPI PUSH2 0x1AC5 PUSH2 0x19CE JUMP JUMPDEST JUMPDEST SWAP3 SWAP2 POP POP JUMP JUMPDEST PUSH1 0x0 DUP2 PUSH1 0x1 SHR SWAP1 POP SWAP2 SWAP1 POP JUMP JUMPDEST PUSH1 0x0 DUP1 DUP3 SWAP2 POP DUP4 SWAP1 POP JUMPDEST PUSH1 0x1 DUP6 GT ISZERO PUSH2 0x1B23 JUMPI DUP1 DUP7 DIV DUP2 GT ISZERO PUSH2 0x1AFF JUMPI PUSH2 0x1AFE PUSH2 0x19CE JUMP JUMPDEST JUMPDEST PUSH1 0x1 DUP6 AND ISZERO PUSH2 0x1B0E JUMPI DUP1 DUP3 MUL SWAP2 POP JUMPDEST DUP1 DUP2 MUL SWAP1 POP PUSH2 0x1B1C DUP6 PUSH2 0x1ACC JUMP JUMPDEST SWAP5 POP PUSH2 0x1AE3 JUMP JUMPDEST SWAP5 POP SWAP5 SWAP3 POP POP POP JUMP JUMPDEST PUSH1 0x0 DUP3 PUSH2 0x1B3C JUMPI PUSH1 0x1 SWAP1 POP PUSH2 0x1BF8 JUMP JUMPDEST DUP2 PUSH2 0x1B4A JUMPI PUSH1 0x0 SWAP1 POP PUSH2 0x1BF8 JUMP JUMPDEST DUP2 PUSH1 0x1 DUP2 EQ PUSH2 0x1B60 JUMPI PUSH1 0x2 DUP2 EQ PUSH2 0x1B6A JUMPI PUSH2 0x1B99 JUMP JUMPDEST PUSH1 0x1 SWAP2 POP POP PUSH2 0x1BF8 JUMP JUMPDEST PUSH1 0xFF DUP5 GT ISZERO PUSH2 0x1B7C JUMPI PUSH2 0x1B7B PUSH2 0x19CE JUMP JUMPDEST JUMPDEST DUP4 PUSH1 0x2 EXP SWAP2 POP DUP5 DUP3 GT ISZERO PUSH2 0x1B93 JUMPI PUSH2 0x1B92 PUSH2 0x19CE JUMP JUMPDEST JUMPDEST POP PUSH2 0x1BF8 JUMP JUMPDEST POP PUSH1 0x20 DUP4 LT PUSH2 0x133 DUP4 LT AND PUSH1 0x4E DUP5 LT PUSH1 0xB DUP5 LT AND OR ISZERO PUSH2 0x1BCE JUMPI DUP3 DUP3 EXP SWAP1 POP DUP4 DUP2 GT ISZERO PUSH2 0x1BC9 JUMPI PUSH2 0x1BC8 PUSH2 0x19CE JUMP JUMPDEST JUMPDEST PUSH2 0x1BF8 JUMP JUMPDEST PUSH2 0x1BDB DUP5 DUP5 DUP5 PUSH1 0x1 PUSH2 0x1AD9 JUMP JUMPDEST SWAP3 POP SWAP1 POP DUP2 DUP5 DIV DUP2 GT ISZERO PUSH2 0x1BF2 JUMPI PUSH2 0x1BF1 PUSH2 0x19CE JUMP JUMPDEST JUMPDEST DUP2 DUP2 MUL SWAP1 POP JUMPDEST SWAP4 SWAP3 POP POP POP JUMP JUMPDEST PUSH1 0x0 PUSH2 0x1C0A DUP3 PUSH2 0x134B JUMP JUMPDEST SWAP2 POP PUSH2 0x1C15 DUP4 PUSH2 0x1A31 JUMP JUMPDEST SWAP3 POP PUSH2 0x1C42 PUSH32 0xFFFFFFFFFFFFFFFFFFFFFFFFFFFFFFFFFFFFFFFFFFFFFFFFFFFFFFFFFFFFFFFF DUP5 DUP5 PUSH2 0x1B2C JUMP JUMPDEST SWAP1 POP SWAP3 SWAP2 POP POP JUMP JUMPDEST PUSH32 0x4E487B7100000000000000000000000000000000000000000000000000000000 PUSH1 0x0 MSTORE PUSH1 0x12 PUSH1 0x4 MSTORE PUSH1 0x24 PUSH1 0x0 REVERT JUMPDEST PUSH1 0x0 PUSH2 0x1C84 DUP3 PUSH2 0x134B JUMP JUMPDEST SWAP2 POP PUSH2 0x1C8F DUP4 PUSH2 0x134B JUMP JUMPDEST SWAP3 POP DUP3 PUSH2 0x1C9F JUMPI PUSH2 0x1C9E PUSH2 0x1C4A JUMP JUMPDEST JUMPDEST DUP3 DUP3 DIV SWAP1 POP SWAP3 SWAP2 POP POP JUMP JUMPDEST PUSH1 0x0 PUSH1 0xA0 DUP3 ADD SWAP1 POP PUSH2 0x1CBF PUSH1 0x0 DUP4 ADD DUP9 PUSH2 0x14AA JUMP JUMPDEST PUSH2 0x1CCC PUSH1 0x20 DUP4 ADD DUP8 PUSH2 0x14AA JUMP JUMPDEST PUSH2 0x1CD9 PUSH1 0x40 DUP4 ADD DUP7 PUSH2 0x14AA JUMP JUMPDEST PUSH2 0x1CE6 PUSH1 0x60 DUP4 ADD DUP6 PUSH2 0x14AA JUMP JUMPDEST PUSH2 0x1CF3 PUSH1 0x80 DUP4 ADD DUP5 PUSH2 0x14AA JUMP JUMPDEST SWAP7 SWAP6 POP POP POP POP POP POP JUMP JUMPDEST PUSH1 0x0 PUSH1 0x60 DUP3 ADD SWAP1 POP PUSH2 0x1D12 PUSH1 0x0 DUP4 ADD DUP7 PUSH2 0x14AA JUMP JUMPDEST PUSH2 0x1D1F PUSH1 0x20 DUP4 ADD DUP6 PUSH2 0x14AA JUMP JUMPDEST PUSH2 0x1D2C PUSH1 0x40 DUP4 ADD DUP5 PUSH2 0x14AA JUMP JUMPDEST SWAP5 SWAP4 POP POP POP POP JUMP JUMPDEST PUSH32 0x43616E6E6F74207265706179206C6F616E000000000000000000000000000000 PUSH1 0x0 DUP3 ADD MSTORE POP JUMP JUMPDEST PUSH1 0x0 PUSH2 0x1D6A PUSH1 0x11 DUP4 PUSH2 0x153B JUMP JUMPDEST SWAP2 POP PUSH2 0x1D75 DUP3 PUSH2 0x1D34 JUMP JUMPDEST PUSH1 0x20 DUP3 ADD SWAP1 POP SWAP2 SWAP1 POP JUMP JUMPDEST PUSH1 0x0 PUSH1 0x20 DUP3 ADD SWAP1 POP DUP2 DUP2 SUB PUSH1 0x0 DUP4 ADD MSTORE PUSH2 0x1D99 DUP2 PUSH2 0x1D5D JUMP JUMPDEST SWAP1 POP SWAP2 SWAP1 POP JUMP JUMPDEST PUSH32 0x4E6F742070726F66697461626C65000000000000000000000000000000000000 PUSH1 0x0 DUP3 ADD MSTORE POP JUMP JUMPDEST PUSH1 0x0 PUSH2 0x1DD6 PUSH1 0xE DUP4 PUSH2 0x153B JUMP JUMPDEST SWAP2 POP PUSH2 0x1DE1 DUP3 PUSH2 0x1DA0 JUMP JUMPDEST PUSH1 0x20 DUP3 ADD SWAP1 POP SWAP2 SWAP1 POP JUMP JUMPDEST PUSH1 0x0 PUSH1 0x20 DUP3 ADD SWAP1 POP DUP2 DUP2 SUB PUSH1 0x0 DUP4 ADD MSTORE PUSH2 0x1E05 DUP2 PUSH2 0x1DC9 JUMP JUMPDEST SWAP1 POP SWAP2 SWAP1 POP JUMP JUMPDEST PUSH32 0x4E6F7420746865206F776E657200000000000000000000000000000000000000 PUSH1 0x0 DUP3 ADD MSTORE POP JUMP JUMPDEST PUSH1 0x0 PUSH2 0x1E42 PUSH1 0xD DUP4 PUSH2 0x153B JUMP JUMPDEST SWAP2 POP PUSH2 0x1E4D DUP3 PUSH2 0x1E0C JUMP JUMPDEST PUSH1 0x20 DUP3 ADD SWAP1 POP SWAP2 SWAP1 POP JUMP JUMPDEST PUSH1 0x0 PUSH1 0x20 DUP3 ADD SWAP1 POP DUP2 DUP2 SUB PUSH1 0x0 DUP4 ADD MSTORE PUSH2 0x1E71 DUP2 PUSH2 0x1E35 JUMP JUMPDEST SWAP1 POP SWAP2 SWAP1 POP JUMP JUMPDEST PUSH32 0x4E6F20746F6B656E2062616C616E636500000000000000000000000000000000 PUSH1 0x0 DUP3 ADD MSTORE POP JUMP JUMPDEST PUSH1 0x0 PUSH2 0x1EAE PUSH1 0x10 DUP4 PUSH2 0x153B JUMP JUMPDEST SWAP2 POP PUSH2 0x1EB9 DUP3 PUSH2 0x1E78 JUMP JUMPDEST PUSH1 0x20 DUP3 ADD SWAP1 POP SWAP2 SWAP1 POP JUMP JUMPDEST PUSH1 0x0 PUSH1 0x20 DUP3 ADD SWAP1 POP DUP2 DUP2 SUB PUSH1 0x0 DUP4 ADD MSTORE PUSH2 0x1EDD DUP2 PUSH2 0x1EA1 JUMP JUMPDEST SWAP1 POP SWAP2 SWAP1 POP JUMP JUMPDEST PUSH32 0x496E76616C696420746F6B656E20616464726573736573000000000000000000 PUSH1 0x0 DUP3 ADD MSTORE POP JUMP JUMPDEST PUSH1 0x0 PUSH2 0x1F1A PUSH1 0x17 DUP4 PUSH2 0x153B JUMP JUMPDEST SWAP2 POP PUSH2 0x1F25 DUP3 PUSH2 0x1EE4 JUMP JUMPDEST PUSH1 0x20 DUP3 ADD SWAP1 POP SWAP2 SWAP1 POP JUMP JUMPDEST PUSH1 0x0 PUSH1 0x20 DUP3 ADD SWAP1 POP DUP2 DUP2 SUB PUSH1 0x0 DUP4 ADD MSTORE PUSH2 0x1F49 DUP2 PUSH2 0x1F0D JUMP JUMPDEST SWAP1 POP SWAP2 SWAP1 POP JUMP JUMPDEST PUSH32 0x496E76616C696420726F75746572206164647265737365730000000000000000 PUSH1 0x0 DUP3 ADD MSTORE POP JUMP JUMPDEST PUSH1 0x0 PUSH2 0x1F86 PUSH1 0x18 DUP4 PUSH2 0x153B JUMP JUMPDEST SWAP2 POP PUSH2 0x1F91 DUP3 PUSH2 0x1F50 JUMP JUMPDEST PUSH1 0x20 DUP3 ADD SWAP1 POP SWAP2 SWAP1 POP JUMP JUMPDEST PUSH1 0x0 PUSH1 0x20 DUP3 ADD SWAP1 POP DUP2 DUP2 SUB PUSH1 0x0 DUP4 ADD MSTORE PUSH2 0x1FB5 DUP2 PUSH2 0x1F79 JUMP JUMPDEST SWAP1 POP SWAP2 SWAP1 POP JUMP JUMPDEST PUSH2 0x1FC5 DUP2 PUSH2 0x12AA JUMP JUMPDEST DUP3 MSTORE POP POP JUMP JUMPDEST PUSH1 0x80 DUP3 ADD PUSH1 0x0 DUP3 ADD MLOAD PUSH2 0x1FE1 PUSH1 0x0 DUP6 ADD DUP3 PUSH2 0x1FBC JUMP JUMPDEST POP PUSH1 0x20 DUP3 ADD MLOAD PUSH2 0x1FF4 PUSH1 0x20 DUP6 ADD DUP3 PUSH2 0x1FBC JUMP JUMPDEST POP PUSH1 0x40 DUP3 ADD MLOAD PUSH2 0x2007 PUSH1 0x40 DUP6 ADD DUP3 PUSH2 0x1FBC JUMP JUMPDEST POP PUSH1 0x60 DUP3 ADD MLOAD PUSH2 0x201A PUSH1 0x60 DUP6 ADD DUP3 PUSH2 0x1FBC JUMP JUMPDEST POP POP POP POP JUMP JUMPDEST PUSH1 0x0 PUSH1 0x80 DUP3 ADD SWAP1 POP PUSH2 0x2035 PUSH1 0x0 DUP4 ADD DUP5 PUSH2 0x1FCB JUMP JUMPDEST SWAP3 SWAP2 POP POP JUMP JUMPDEST PUSH1 0x0 PUSH2 0x2046 DUP3 PUSH2 0x134B JUMP JUMPDEST SWAP2 POP PUSH2 0x2051 DUP4 PUSH2 0x134B JUMP JUMPDEST SWAP3 POP DUP3 DUP3 MUL PUSH2 0x205F DUP2 PUSH2 0x134B JUMP JUMPDEST SWAP2 POP DUP3 DUP3 DIV DUP5 EQ DUP4 ISZERO OR PUSH2 0x2076 JUMPI PUSH2 0x2075 PUSH2 0x19CE JUMP JUMPDEST JUMPDEST POP SWAP3 SWAP2 POP POP JUMP JUMPDEST PUSH32 0x4E487B7100000000000000000000000000000000000000000000000000000000 PUSH1 0x0 MSTORE PUSH1 0x32 PUSH1 0x4 MSTORE PUSH1 0x24 PUSH1 0x0 REVERT JUMPDEST PUSH1 0x0 DUP2 SWAP1 POP SWAP2 SWAP1 POP JUMP JUMPDEST PUSH1 0x0 DUP2 SWAP1 POP SWAP2 SWAP1 POP JUMP JUMPDEST PUSH1 0x0 PUSH2 0x20DB PUSH2 0x20D6 PUSH2 0x20D1 DUP5 PUSH2 0x20AC JUMP JUMPDEST PUSH2 0x20B6 JUMP JUMPDEST PUSH2 0x1A31 JUMP JUMPDEST SWAP1 POP SWAP2 SWAP1 POP JUMP JUMPDEST PUSH2 0x20EB DUP2 PUSH2 0x20C0 JUMP JUMPDEST DUP3 MSTORE POP POP JUMP JUMPDEST PUSH1 0x0 DUP2 MLOAD SWAP1 POP SWAP2 SWAP1 POP JUMP JUMPDEST PUSH1 0x0 DUP3 DUP3 MSTORE PUSH1 0x20 DUP3 ADD SWAP1 POP SWAP3 SWAP2 POP POP JUMP JUMPDEST PUSH1 0x0 DUP2 SWAP1 POP PUSH1 0x20 DUP3 ADD SWAP1 POP SWAP2 SWAP1 POP JUMP JUMPDEST PUSH1 0x0 PUSH2 0x2129 DUP4 DUP4 PUSH2 0x1FBC JUMP JUMPDEST PUSH1 0x20 DUP4 ADD SWAP1 POP SWAP3 SWAP2 POP POP JUMP JUMPDEST PUSH1 0x0 PUSH1 0x20 DUP3 ADD SWAP1 POP SWAP2 SWAP1 POP JUMP JUMPDEST PUSH1 0x0 PUSH2 0x214D DUP3 PUSH2 0x20F1 JUMP JUMPDEST PUSH2 0x2157 DUP2 DUP6 PUSH2 0x20FC JUMP JUMPDEST SWAP4 POP PUSH2 0x2162 DUP4 PUSH2 0x210D JUMP JUMPDEST DUP1 PUSH1 0x0 JUMPDEST DUP4 DUP2 LT ISZERO PUSH2 0x2193 JUMPI DUP2 MLOAD PUSH2 0x217A DUP9 DUP3 PUSH2 0x211D JUMP JUMPDEST SWAP8 POP PUSH2 0x2185 DUP4 PUSH2 0x2135 JUMP JUMPDEST SWAP3 POP POP PUSH1 0x1 DUP2 ADD SWAP1 POP PUSH2 0x2166 JUMP JUMPDEST POP DUP6 SWAP4 POP POP POP POP SWAP3 SWAP2 POP POP JUMP JUMPDEST PUSH1 0x0 PUSH1 0xA0 DUP3 ADD SWAP1 POP PUSH2 0x21B5 PUSH1 0x0 DUP4 ADD DUP9 PUSH2 0x14AA JUMP JUMPDEST PUSH2 0x21C2 PUSH1 0x20 DUP4 ADD DUP8 PUSH2 0x20E2 JUMP JUMPDEST DUP2 DUP2 SUB PUSH1 0x40 DUP4 ADD MSTORE PUSH2 0x21D4 DUP2 DUP7 PUSH2 0x2142 JUMP JUMPDEST SWAP1 POP PUSH2 0x21E3 PUSH1 0x60 DUP4 ADD DUP6 PUSH2 0x1480 JUMP JUMPDEST PUSH2 0x21F0 PUSH1 0x80 DUP4 ADD DUP5 PUSH2 0x14AA JUMP JUMPDEST SWAP7 SWAP6 POP POP POP POP POP POP JUMP JUMPDEST PUSH1 0x0 DUP2 MLOAD SWAP1 POP SWAP2 SWAP1 POP JUMP JUMPDEST PUSH1 0x0 DUP2 SWAP1 POP SWAP3 SWAP2 POP POP JUMP JUMPDEST PUSH1 0x0 JUMPDEST DUP4 DUP2 LT ISZERO PUSH2 0x222E JUMPI DUP1 DUP3 ADD MLOAD DUP2 DUP5 ADD MSTORE PUSH1 0x20 DUP2 ADD SWAP1 POP PUSH2 0x2213 JUMP JUMPDEST PUSH1 0x0 DUP5 DUP5 ADD MSTORE POP POP POP POP JUMP JUMPDEST PUSH1 0x0 PUSH2 0x2245 DUP3 PUSH2 0x21FA JUMP JUMPDEST PUSH2 0x224F DUP2 DUP6 PUSH2 0x2205 JUMP JUMPDEST SWAP4 POP PUSH2 0x225F DUP2 DUP6 PUSH1 0x20 DUP7 ADD PUSH2 0x2210 JUMP JUMPDEST DUP1 DUP5 ADD SWAP2 POP POP SWAP3 SWAP2 POP POP JUMP JUMPDEST PUSH1 0x0 PUSH2 0x2277 DUP3 DUP5 PUSH2 0x223A JUMP JUMPDEST SWAP2 POP DUP2 SWAP1 POP SWAP3 SWAP2 POP POP JUMP JUMPDEST PUSH32 0x53776170206661696C6564000000000000000000000000000000000000000000 PUSH1 0x0 DUP3 ADD MSTORE POP JUMP JUMPDEST PUSH1 0x0 PUSH2 0x22B8 PUSH1 0xB DUP4 PUSH2 0x153B JUMP JUMPDEST SWAP2 POP PUSH2 0x22C3 DUP3 PUSH2 0x2282 JUMP JUMPDEST PUSH1 0x20 DUP3 ADD SWAP1 POP SWAP2 SWAP1 POP JUMP JUMPDEST PUSH1 0x0 PUSH1 0x20 DUP3 ADD SWAP1 POP DUP2 DUP2 SUB PUSH1 0x0 DUP4 ADD MSTORE PUSH2 0x22E7 DUP2 PUSH2 0x22AB JUMP JUMPDEST SWAP1 POP SWAP2 SWAP1 POP JUMP JUMPDEST PUSH1 0x0 DUP3 DUP3 MSTORE PUSH1 0x20 DUP3 ADD SWAP1 POP SWAP3 SWAP2 POP POP JUMP JUMPDEST PUSH1 0x0 PUSH2 0x230A DUP3 PUSH2 0x21FA JUMP JUMPDEST PUSH2 0x2314 DUP2 DUP6 PUSH2 0x22EE JUMP JUMPDEST SWAP4 POP PUSH2 0x2324 DUP2 DUP6 PUSH1 0x20 DUP7 ADD PUSH2 0x2210 JUMP JUMPDEST PUSH2 0x232D DUP2 PUSH2 0x1629 JUMP JUMPDEST DUP5 ADD SWAP2 POP POP SWAP3 SWAP2 POP POP JUMP JUMPDEST PUSH1 0x0 PUSH2 0xFFFF DUP3 AND SWAP1 POP SWAP2 SWAP1 POP JUMP JUMPDEST PUSH1 0x0 PUSH2 0x2361 PUSH2 0x235C PUSH2 0x2357 DUP5 PUSH2 0x20AC JUMP JUMPDEST PUSH2 0x20B6 JUMP JUMPDEST PUSH2 0x2338 JUMP JUMPDEST SWAP1 POP SWAP2 SWAP1 POP JUMP JUMPDEST PUSH2 0x2371 DUP2 PUSH2 0x2346 JUMP JUMPDEST DUP3 MSTORE POP POP JUMP JUMPDEST PUSH1 0x0 PUSH1 0xA0 DUP3 ADD SWAP1 POP PUSH2 0x238C PUSH1 0x0 DUP4 ADD DUP9 PUSH2 0x1480 JUMP JUMPDEST PUSH2 0x2399 PUSH1 0x20 DUP4 ADD DUP8 PUSH2 0x1480 JUMP JUMPDEST PUSH2 0x23A6 PUSH1 0x40 DUP4 ADD DUP7 PUSH2 0x14AA JUMP JUMPDEST DUP2 DUP2 SUB PUSH1 0x60 DUP4 ADD MSTORE PUSH2 0x23B8 DUP2 DUP6 PUSH2 0x22FF JUMP JUMPDEST SWAP1 POP PUSH2 0x23C7 PUSH1 0x80 DUP4 ADD DUP5 PUSH2 0x2368 JUMP JUMPDEST SWAP7 SWAP6 POP POP POP POP POP POP JUMP INVALID LOG2 PUSH5 0x6970667358 0x22 SLT KECCAK256 0x4B PC 0xC4 0xD SWAP3 DUP9 DUP1 0xCE COINBASE 0xE3 0x5C 0xC5 SLT DUP16 0xB6 SHL 0xCA 0xE5 0xE5 SWAP15 0xFB 0xE0 0xA8 JUMPI SLT DUP8 0xDC 0xD1 0xAE SWAP4 0xF7 MULMOD PUSH5 0x736F6C6343 STOP ADDMOD EQ STOP CALLER "},"methodIdentifiers":{"POOL()":"7535d246","executeFlashArbitrage(address,address,address,address)":"9ecb6910","executeOperation(address,uint256,uint256,address,bytes)":"1b11d0ff","minProfit()":"75c81ad0","owner()":"8da5cb5b","whitelistedRouters(address)":"0f874a13","withdrawNative()":"50431ce4","withdrawToken(address)":"89476069"}}}}}