{"contracts/MultiPairFlashArbitrage.sol":{"MultiPairFlashArbitrage":{"abi":[{"inputs":[{"internalType":"address","name":"addressProvider_","type":"address"},{"internalType":"address[]","name":"_routers","type":"address[]"},{"internalType":"uint256","name":"_minProfit","type":"uint256"}],"stateMutability":"nonpayable","type":"constructor"},{"anonymous":false,"inputs":[{"indexed":false,"internalType":"uint256","name":"profit","type":"uint256"},{"indexed":false,"internalType":"address","name":"token","type":"address"},{"indexed":false,"internalType":"address","name":"router1","type":"address"},{"indexed":false,"internalType":"address","name":"router2","type":"address"}],"name":"ExecutedTrade","type":"event"},{"anonymous":false,"inputs":[{"indexed":true,"internalType":"address","name":"previousOwner","type":"address"},{"indexed":true,"internalType":"address","name":"newOwner","type":"address"}],"name":"OwnershipTransferred","type":"event"},{"inputs":[],"name":"ADDRESSES_PROVIDER","outputs":[{"internalType":"contract IPoolAddressesProvider","name":"","type":"address"}],"stateMutability":"view","type":"function"},{"inputs":[],"name":"POOL","outputs":[{"internalType":"contract IPool","name":"","type":"address"}],"stateMutability":"view","type":"function"},{"inputs":[{"internalType":"address","name":"asset","type":"address"},{"internalType":"uint256","name":"amount","type":"uint256"},{"internalType":"uint256","name":"premium","type":"uint256"},{"internalType":"address","name":"initiator","type":"address"},{"internalType":"bytes","name":"params","type":"bytes"}],"name":"executeOperation","outputs":[{"internalType":"bool","name":"","type":"bool"}],"stateMutability":"nonpayable","type":"function"},{"inputs":[],"name":"getRouters","outputs":[{"internalType":"address[]","name":"","type":"address[]"}],"stateMutability":"view","type":"function"},{"inputs":[],"name":"minProfit","outputs":[{"internalType":"uint256","name":"","type":"uint256"}],"stateMutability":"view","type":"function"},{"inputs":[],"name":"owner","outputs":[{"internalType":"address","name":"","type":"address"}],"stateMutability":"view","type":"function"},{"inputs":[],"name":"renounceOwnership","outputs":[],"stateMutability":"nonpayable","type":"function"},{"inputs":[{"internalType":"uint256","name":"","type":"uint256"}],"name":"routers","outputs":[{"internalType":"address","name":"","type":"address"}],"stateMutability":"view","type":"function"},{"inputs":[{"internalType":"uint256","name":"_minProfit","type":"uint256"}],"name":"setMinProfit","outputs":[],"stateMutability":"nonpayable","type":"function"},{"inputs":[{"internalType":"address[]","name":"_routers","type":"address[]"}],"name":"setRouters","outputs":[],"stateMutability":"nonpayable","type":"function"},{"inputs":[{"internalType":"address","name":"newOwner","type":"address"}],"name":"transferOwnership","outputs":[],"stateMutability":"nonpayable","type":"function"},{"inputs":[{"internalType":"address","name":"token","type":"address"}],"name":"withdrawTokens","outputs":[],"stateMutability":"nonpayable","type":"function"}],"evm":{"bytecode":{"linkReferences":{},"object":"60c06040523480156200001157600080fd5b5060405162001e8338038062001e838339818101604052810190620000379190620004fc565b620000576200004b6200015960201b60201c565b6200016160201b60201c565b8273ffffffffffffffffffffffffffffffffffffffff1660808173ffffffffffffffffffffffffffffffffffffffff16815250508273ffffffffffffffffffffffffffffffffffffffff1663026b1d5f6040518163ffffffff1660e01b8152600401602060405180830381865afa158015620000d7573d6000803e3d6000fd5b505050506040513d601f19601f82011682018060405250810190620000fd919062000577565b73ffffffffffffffffffffffffffffffffffffffff1660a08173ffffffffffffffffffffffffffffffffffffffff168152505081600190805190602001906200014892919062000225565b5080600281905550505050620005a9565b600033905090565b60008060009054906101000a900473ffffffffffffffffffffffffffffffffffffffff169050816000806101000a81548173ffffffffffffffffffffffffffffffffffffffff021916908373ffffffffffffffffffffffffffffffffffffffff1602179055508173ffffffffffffffffffffffffffffffffffffffff168173ffffffffffffffffffffffffffffffffffffffff167f8be0079c531659141344cd1fd0a4f28419497f9722a3daafe3b4186f6b6457e060405160405180910390a35050565b828054828255906000526020600020908101928215620002a1579160200282015b82811115620002a05782518260006101000a81548173ffffffffffffffffffffffffffffffffffffffff021916908373ffffffffffffffffffffffffffffffffffffffff1602179055509160200191906001019062000246565b5b509050620002b09190620002b4565b5090565b5b80821115620002cf576000816000905550600101620002b5565b5090565b6000604051905090565b600080fd5b600080fd5b600073ffffffffffffffffffffffffffffffffffffffff82169050919050565b60006200031482620002e7565b9050919050565b620003268162000307565b81146200033257600080fd5b50565b60008151905062000346816200031b565b92915050565b600080fd5b6000601f19601f8301169050919050565b7f4e487b7100000000000000000000000000000000000000000000000000000000600052604160045260246000fd5b6200039c8262000351565b810181811067ffffffffffffffff82111715620003be57620003bd62000362565b5b80604052505050565b6000620003d3620002d3565b9050620003e1828262000391565b919050565b600067ffffffffffffffff82111562000404576200040362000362565b5b602082029050602081019050919050565b600080fd5b6000620004316200042b84620003e6565b620003c7565b9050808382526020820190506020840283018581111562000457576200045662000415565b5b835b818110156200048457806200046f888262000335565b84526020840193505060208101905062000459565b5050509392505050565b600082601f830112620004a657620004a56200034c565b5b8151620004b88482602086016200041a565b91505092915050565b6000819050919050565b620004d681620004c1565b8114620004e257600080fd5b50565b600081519050620004f681620004cb565b92915050565b600080600060608486031215620005185762000517620002dd565b5b6000620005288682870162000335565b935050602084015167ffffffffffffffff8111156200054c576200054b620002e2565b5b6200055a868287016200048e565b92505060406200056d86828701620004e5565b9150509250925092565b60006020828403121562000590576200058f620002dd565b5b6000620005a08482850162000335565b91505092915050565b60805160a0516118a6620005dd6000396000818161026e0152818161054501526107810152600061024801526118a66000f3fe608060405234801561001057600080fd5b50600436106100b35760003560e01c80637535d246116100715780637535d2461461017857806375c81ad01461019657806378400f17146101b45780638da5cb5b146101d0578063f2fde38b146101ee578063f88c31ce1461020a576100b3565b8062b439f9146100b85780630542975c146100d45780631b11d0ff146100f257806349df728c146101225780634e9c11181461013e578063715018a61461016e575b600080fd5b6100d260048036038101906100cd9190610c36565b610228565b005b6100dc610246565b6040516100e99190610d02565b60405180910390f35b61010c60048036038101906101079190610de7565b61026a565b6040516101199190610e9c565b60405180910390f35b61013c60048036038101906101379190610eb7565b610623565b005b61015860048036038101906101539190610ee4565b61072c565b6040516101659190610f20565b60405180910390f35b61017661076b565b005b61018061077f565b60405161018d9190610f5c565b60405180910390f35b61019e6107a3565b6040516101ab9190610f86565b60405180910390f35b6101ce60048036038101906101c99190610ee4565b6107a9565b005b6101d86107bb565b6040516101e59190610f20565b60405180910390f35b61020860048036038101906102039190610eb7565b6107e4565b005b610212610867565b60405161021f919061105f565b60405180910390f35b6102306108f5565b818160019190610241929190610b00565b505050565b7f000000000000000000000000000000000000000000000000000000000000000081565b60007f000000000000000000000000000000000000000000000000000000000000000073ffffffffffffffffffffffffffffffffffffffff163373ffffffffffffffffffffffffffffffffffffffff16146102fa576040517f08c379a00000000000000000000000000000000000000000000000000000000081526004016102f1906110de565b60405180910390fd5b3073ffffffffffffffffffffffffffffffffffffffff168473ffffffffffffffffffffffffffffffffffffffff1614610368576040517f08c379a000000000000000000000000000000000000000000000000000000000815260040161035f9061114a565b60405180910390fd5b600080600080868681019061037d91906112f7565b93509350935093508a73ffffffffffffffffffffffffffffffffffffffff1663095ea7b3838c6040518363ffffffff1660e01b81526004016103c0929190611396565b6020604051808303816000875af11580156103df573d6000803e3d6000fd5b505050506040513d601f19601f8201168201806040525081019061040391906113eb565b506000610411838c87610973565b905084600186516104229190611447565b815181106104335761043261147b565b5b602002602001015173ffffffffffffffffffffffffffffffffffffffff1663095ea7b383836040518363ffffffff1660e01b8152600401610475929190611396565b6020604051808303816000875af1158015610494573d6000803e3d6000fd5b505050506040513d601f19601f820116820180604052508101906104b891906113eb565b5060006104c6838387610973565b905060008b8d6104d691906114aa565b9050600254816104e691906114aa565b8211610527576040517f08c379a000000000000000000000000000000000000000000000000000000000815260040161051e9061152a565b60405180910390fd5b8d73ffffffffffffffffffffffffffffffffffffffff1663095ea7b37f0000000000000000000000000000000000000000000000000000000000000000836040518363ffffffff1660e01b8152600401610582929190611396565b6020604051808303816000875af11580156105a1573d6000803e3d6000fd5b505050506040513d601f19601f820116820180604052508101906105c591906113eb565b507f896b2f4c91aa65817aa85c55f73599987752f3a98969eb49eadb2deb4fbfcb7581836105f39190611447565b8f8787604051610606949392919061154a565b60405180910390a160019750505050505050509695505050505050565b61062b6108f5565b60008173ffffffffffffffffffffffffffffffffffffffff166370a08231306040518263ffffffff1660e01b81526004016106669190610f20565b602060405180830381865afa158015610683573d6000803e3d6000fd5b505050506040513d601f19601f820116820180604052508101906106a791906115a4565b90508173ffffffffffffffffffffffffffffffffffffffff1663a9059cbb33836040518363ffffffff1660e01b81526004016106e4929190611396565b6020604051808303816000875af1158015610703573d6000803e3d6000fd5b505050506040513d601f19601f8201168201806040525081019061072791906113eb565b505050565b6001818154811061073c57600080fd5b906000526020600020016000915054906101000a900473ffffffffffffffffffffffffffffffffffffffff1681565b6107736108f5565b61077d6000610a34565b565b7f000000000000000000000000000000000000000000000000000000000000000081565b60025481565b6107b16108f5565b8060028190555050565b60008060009054906101000a900473ffffffffffffffffffffffffffffffffffffffff16905090565b6107ec6108f5565b600073ffffffffffffffffffffffffffffffffffffffff168173ffffffffffffffffffffffffffffffffffffffff160361085b576040517f08c379a000000000000000000000000000000000000000000000000000000000815260040161085290611643565b60405180910390fd5b61086481610a34565b50565b606060018054806020026020016040519081016040528092919081815260200182805480156108eb57602002820191906000526020600020905b8160009054906101000a900473ffffffffffffffffffffffffffffffffffffffff1673ffffffffffffffffffffffffffffffffffffffff16815260200190600101908083116108a1575b5050505050905090565b6108fd610af8565b73ffffffffffffffffffffffffffffffffffffffff1661091b6107bb565b73ffffffffffffffffffffffffffffffffffffffff1614610971576040517f08c379a0000000000000000000000000000000000000000000000000000000008152600401610968906116af565b60405180910390fd5b565b6000808473ffffffffffffffffffffffffffffffffffffffff166338ed17398560018630426040518663ffffffff1660e01b81526004016109b895949392919061170a565b6000604051808303816000875af11580156109d7573d6000803e3d6000fd5b505050506040513d6000823e3d601f19601f82011682018060405250810190610a009190611827565b90508060018251610a119190611447565b81518110610a2257610a2161147b565b5b60200260200101519150509392505050565b60008060009054906101000a900473ffffffffffffffffffffffffffffffffffffffff169050816000806101000a81548173ffffffffffffffffffffffffffffffffffffffff021916908373ffffffffffffffffffffffffffffffffffffffff1602179055508173ffffffffffffffffffffffffffffffffffffffff168173ffffffffffffffffffffffffffffffffffffffff167f8be0079c531659141344cd1fd0a4f28419497f9722a3daafe3b4186f6b6457e060405160405180910390a35050565b600033905090565b828054828255906000526020600020908101928215610b8f579160200282015b82811115610b8e57823573ffffffffffffffffffffffffffffffffffffffff168260006101000a81548173ffffffffffffffffffffffffffffffffffffffff021916908373ffffffffffffffffffffffffffffffffffffffff16021790555091602001919060010190610b20565b5b509050610b9c9190610ba0565b5090565b5b80821115610bb9576000816000905550600101610ba1565b5090565b6000604051905090565b600080fd5b600080fd5b600080fd5b600080fd5b600080fd5b60008083601f840112610bf657610bf5610bd1565b5b8235905067ffffffffffffffff811115610c1357610c12610bd6565b5b602083019150836020820283011115610c2f57610c2e610bdb565b5b9250929050565b60008060208385031215610c4d57610c4c610bc7565b5b600083013567ffffffffffffffff811115610c6b57610c6a610bcc565b5b610c7785828601610be0565b92509250509250929050565b600073ffffffffffffffffffffffffffffffffffffffff82169050919050565b6000819050919050565b6000610cc8610cc3610cbe84610c83565b610ca3565b610c83565b9050919050565b6000610cda82610cad565b9050919050565b6000610cec82610ccf565b9050919050565b610cfc81610ce1565b82525050565b6000602082019050610d176000830184610cf3565b92915050565b6000610d2882610c83565b9050919050565b610d3881610d1d565b8114610d4357600080fd5b50565b600081359050610d5581610d2f565b92915050565b6000819050919050565b610d6e81610d5b565b8114610d7957600080fd5b50565b600081359050610d8b81610d65565b92915050565b60008083601f840112610da757610da6610bd1565b5b8235905067ffffffffffffffff811115610dc457610dc3610bd6565b5b602083019150836001820283011115610de057610ddf610bdb565b5b9250929050565b60008060008060008060a08789031215610e0457610e03610bc7565b5b6000610e1289828a01610d46565b9650506020610e2389828a01610d7c565b9550506040610e3489828a01610d7c565b9450506060610e4589828a01610d46565b935050608087013567ffffffffffffffff811115610e6657610e65610bcc565b5b610e7289828a01610d91565b92509250509295509295509295565b60008115159050919050565b610e9681610e81565b82525050565b6000602082019050610eb16000830184610e8d565b92915050565b600060208284031215610ecd57610ecc610bc7565b5b6000610edb84828501610d46565b91505092915050565b600060208284031215610efa57610ef9610bc7565b5b6000610f0884828501610d7c565b91505092915050565b610f1a81610d1d565b82525050565b6000602082019050610f356000830184610f11565b92915050565b6000610f4682610ccf565b9050919050565b610f5681610f3b565b82525050565b6000602082019050610f716000830184610f4d565b92915050565b610f8081610d5b565b82525050565b6000602082019050610f9b6000830184610f77565b92915050565b600081519050919050565b600082825260208201905092915050565b6000819050602082019050919050565b610fd681610d1d565b82525050565b6000610fe88383610fcd565b60208301905092915050565b6000602082019050919050565b600061100c82610fa1565b6110168185610fac565b935061102183610fbd565b8060005b838110156110525781516110398882610fdc565b975061104483610ff4565b925050600181019050611025565b5085935050505092915050565b600060208201905081810360008301526110798184611001565b905092915050565b600082825260208201905092915050565b7f43616c6c6572206d75737420626520504f4f4c00000000000000000000000000600082015250565b60006110c8601383611081565b91506110d382611092565b602082019050919050565b600060208201905081810360008301526110f7816110bb565b9050919050565b7f4f6e6c7920636f6e74726163742063616e20696e697469617465000000000000600082015250565b6000611134601a83611081565b915061113f826110fe565b602082019050919050565b6000602082019050818103600083015261116381611127565b9050919050565b6000601f19601f8301169050919050565b7f4e487b7100000000000000000000000000000000000000000000000000000000600052604160045260246000fd5b6111b38261116a565b810181811067ffffffffffffffff821117156111d2576111d161117b565b5b80604052505050565b60006111e5610bbd565b90506111f182826111aa565b919050565b600067ffffffffffffffff8211156112115761121061117b565b5b602082029050602081019050919050565b6000611235611230846111f6565b6111db565b9050808382526020820190506020840283018581111561125857611257610bdb565b5b835b81811015611281578061126d8882610d46565b84526020840193505060208101905061125a565b5050509392505050565b600082601f8301126112a05761129f610bd1565b5b81356112b0848260208601611222565b91505092915050565b60006112c482610c83565b9050919050565b6112d4816112b9565b81146112df57600080fd5b50565b6000813590506112f1816112cb565b92915050565b6000806000806080858703121561131157611310610bc7565b5b600085013567ffffffffffffffff81111561132f5761132e610bcc565b5b61133b8782880161128b565b945050602085013567ffffffffffffffff81111561135c5761135b610bcc565b5b6113688782880161128b565b9350506040611379878288016112e2565b925050606061138a878288016112e2565b91505092959194509250565b60006040820190506113ab6000830185610f11565b6113b86020830184610f77565b9392505050565b6113c881610e81565b81146113d357600080fd5b50565b6000815190506113e5816113bf565b92915050565b60006020828403121561140157611400610bc7565b5b600061140f848285016113d6565b91505092915050565b7f4e487b7100000000000000000000000000000000000000000000000000000000600052601160045260246000fd5b600061145282610d5b565b915061145d83610d5b565b925082820390508181111561147557611474611418565b5b92915050565b7f4e487b7100000000000000000000000000000000000000000000000000000000600052603260045260246000fd5b60006114b582610d5b565b91506114c083610d5b565b92508282019050808211156114d8576114d7611418565b5b92915050565b7f4e6f742070726f66697461626c65000000000000000000000000000000000000600082015250565b6000611514600e83611081565b915061151f826114de565b602082019050919050565b6000602082019050818103600083015261154381611507565b9050919050565b600060808201905061155f6000830187610f77565b61156c6020830186610f11565b6115796040830185610f11565b6115866060830184610f11565b95945050505050565b60008151905061159e81610d65565b92915050565b6000602082840312156115ba576115b9610bc7565b5b60006115c88482850161158f565b91505092915050565b7f4f776e61626c653a206e6577206f776e657220697320746865207a65726f206160008201527f6464726573730000000000000000000000000000000000000000000000000000602082015250565b600061162d602683611081565b9150611638826115d1565b604082019050919050565b6000602082019050818103600083015261165c81611620565b9050919050565b7f4f776e61626c653a2063616c6c6572206973206e6f7420746865206f776e6572600082015250565b6000611699602083611081565b91506116a482611663565b602082019050919050565b600060208201905081810360008301526116c88161168c565b9050919050565b6000819050919050565b60006116f46116ef6116ea846116cf565b610ca3565b610d5b565b9050919050565b611704816116d9565b82525050565b600060a08201905061171f6000830188610f77565b61172c60208301876116fb565b818103604083015261173e8186611001565b905061174d6060830185610f11565b61175a6080830184610f77565b9695505050505050565b600067ffffffffffffffff82111561177f5761177e61117b565b5b602082029050602081019050919050565b60006117a361179e84611764565b6111db565b905080838252602082019050602084028301858111156117c6576117c5610bdb565b5b835b818110156117ef57806117db888261158f565b8452602084019350506020810190506117c8565b5050509392505050565b600082601f83011261180e5761180d610bd1565b5b815161181e848260208601611790565b91505092915050565b60006020828403121561183d5761183c610bc7565b5b600082015167ffffffffffffffff81111561185b5761185a610bcc565b5b611867848285016117f9565b9150509291505056fea2646970667358221220ceb5a71e4935d0ff132e186c72145468eb4259cf3f1a967fa8d3874751fb1d2d64736f6c63430008140033","opcodes":"PUSH1 0xC0 PUSH1 0x40 MSTORE CALLVALUE DUP1 ISZERO PUSH3 0x11 JUMPI PUSH1 0x0 DUP1 REVERT JUMPDEST POP PUSH1 0x40 MLOAD PUSH3 0x1E83 CODESIZE SUB DUP1 PUSH3 0x1E83 DUP4 CODECOPY DUP2 DUP2 ADD PUSH1 0x40 MSTORE DUP2 ADD SWAP1 PUSH3 0x37 SWAP2 SWAP1 PUSH3 0x4FC JUMP JUMPDEST PUSH3 0x57 PUSH3 0x4B PUSH3 0x159 PUSH1 0x20 SHL PUSH1 0x20 SHR JUMP JUMPDEST PUSH3 0x161 PUSH1 0x20 SHL PUSH1 0x20 SHR JUMP JUMPDEST DUP3 PUSH20 0xFFFFFFFFFFFFFFFFFFFFFFFFFFFFFFFFFFFFFFFF AND PUSH1 0x80 DUP2 PUSH20 0xFFFFFFFFFFFFFFFFFFFFFFFFFFFFFFFFFFFFFFFF AND DUP2 MSTORE POP POP DUP3 PUSH20 0xFFFFFFFFFFFFFFFFFFFFFFFFFFFFFFFFFFFFFFFF AND PUSH4 0x26B1D5F PUSH1 0x40 MLOAD DUP2 PUSH4 0xFFFFFFFF AND PUSH1 0xE0 SHL DUP2 MSTORE PUSH1 0x4 ADD PUSH1 0x20 PUSH1 0x40 MLOAD DUP1 DUP4 SUB DUP2 DUP7 GAS STATICCALL ISZERO DUP1 ISZERO PUSH3 0xD7 JUMPI RETURNDATASIZE PUSH1 0x0 DUP1 RETURNDATACOPY RETURNDATASIZE PUSH1 0x0 REVERT JUMPDEST POP POP POP POP PUSH1 0x40 MLOAD RETURNDATASIZE PUSH1 0x1F NOT PUSH1 0x1F DUP3 ADD AND DUP3 ADD DUP1 PUSH1 0x40 MSTORE POP DUP2 ADD SWAP1 PUSH3 0xFD SWAP2 SWAP1 PUSH3 0x577 JUMP JUMPDEST PUSH20 0xFFFFFFFFFFFFFFFFFFFFFFFFFFFFFFFFFFFFFFFF AND PUSH1 0xA0 DUP2 PUSH20 0xFFFFFFFFFFFFFFFFFFFFFFFFFFFFFFFFFFFFFFFF AND DUP2 MSTORE POP POP DUP2 PUSH1 0x1 SWAP1 DUP1 MLOAD SWAP1 PUSH1 0x20 ADD SWAP1 PUSH3 0x148 SWAP3 SWAP2 SWAP1 PUSH3 0x225 JUMP JUMPDEST POP DUP1 PUSH1 0x2 DUP2 SWAP1 SSTORE POP POP POP POP PUSH3 0x5A9 JUMP JUMPDEST PUSH1 0x0 CALLER SWAP1 POP SWAP1 JUMP JUMPDEST PUSH1 0x0 DUP1 PUSH1 0x0 SWAP1 SLOAD SWAP1 PUSH2 0x100 EXP SWAP1 DIV PUSH20 0xFFFFFFFFFFFFFFFFFFFFFFFFFFFFFFFFFFFFFFFF AND SWAP1 POP DUP2 PUSH1 0x0 DUP1 PUSH2 0x100 EXP DUP2 SLOAD DUP2 PUSH20 0xFFFFFFFFFFFFFFFFFFFFFFFFFFFFFFFFFFFFFFFF MUL NOT AND SWAP1 DUP4 PUSH20 0xFFFFFFFFFFFFFFFFFFFFFFFFFFFFFFFFFFFFFFFF AND MUL OR SWAP1 SSTORE POP DUP2 PUSH20 0xFFFFFFFFFFFFFFFFFFFFFFFFFFFFFFFFFFFFFFFF AND DUP2 PUSH20 0xFFFFFFFFFFFFFFFFFFFFFFFFFFFFFFFFFFFFFFFF AND PUSH32 0x8BE0079C531659141344CD1FD0A4F28419497F9722A3DAAFE3B4186F6B6457E0 PUSH1 0x40 MLOAD PUSH1 0x40 MLOAD DUP1 SWAP2 SUB SWAP1 LOG3 POP POP JUMP JUMPDEST DUP3 DUP1 SLOAD DUP3 DUP3 SSTORE SWAP1 PUSH1 0x0 MSTORE PUSH1 0x20 PUSH1 0x0 KECCAK256 SWAP1 DUP2 ADD SWAP3 DUP3 ISZERO PUSH3 0x2A1 JUMPI SWAP2 PUSH1 0x20 MUL DUP3 ADD JUMPDEST DUP3 DUP2 GT ISZERO PUSH3 0x2A0 JUMPI DUP3 MLOAD DUP3 PUSH1 0x0 PUSH2 0x100 EXP DUP2 SLOAD DUP2 PUSH20 0xFFFFFFFFFFFFFFFFFFFFFFFFFFFFFFFFFFFFFFFF MUL NOT AND SWAP1 DUP4 PUSH20 0xFFFFFFFFFFFFFFFFFFFFFFFFFFFFFFFFFFFFFFFF AND MUL OR SWAP1 SSTORE POP SWAP2 PUSH1 0x20 ADD SWAP2 SWAP1 PUSH1 0x1 ADD SWAP1 PUSH3 0x246 JUMP JUMPDEST JUMPDEST POP SWAP1 POP PUSH3 0x2B0 SWAP2 SWAP1 PUSH3 0x2B4 JUMP JUMPDEST POP SWAP1 JUMP JUMPDEST JUMPDEST DUP1 DUP3 GT ISZERO PUSH3 0x2CF JUMPI PUSH1 0x0 DUP2 PUSH1 0x0 SWAP1 SSTORE POP PUSH1 0x1 ADD PUSH3 0x2B5 JUMP JUMPDEST POP SWAP1 JUMP JUMPDEST PUSH1 0x0 PUSH1 0x40 MLOAD SWAP1 POP SWAP1 JUMP JUMPDEST PUSH1 0x0 DUP1 REVERT JUMPDEST PUSH1 0x0 DUP1 REVERT JUMPDEST PUSH1 0x0 PUSH20 0xFFFFFFFFFFFFFFFFFFFFFFFFFFFFFFFFFFFFFFFF DUP3 AND SWAP1 POP SWAP2 SWAP1 POP JUMP JUMPDEST PUSH1 0x0 PUSH3 0x314 DUP3 PUSH3 0x2E7 JUMP JUMPDEST SWAP1 POP SWAP2 SWAP1 POP JUMP JUMPDEST PUSH3 0x326 DUP2 PUSH3 0x307 JUMP JUMPDEST DUP2 EQ PUSH3 0x332 JUMPI PUSH1 0x0 DUP1 REVERT JUMPDEST POP JUMP JUMPDEST PUSH1 0x0 DUP2 MLOAD SWAP1 POP PUSH3 0x346 DUP2 PUSH3 0x31B JUMP JUMPDEST SWAP3 SWAP2 POP POP JUMP JUMPDEST PUSH1 0x0 DUP1 REVERT JUMPDEST PUSH1 0x0 PUSH1 0x1F NOT PUSH1 0x1F DUP4 ADD AND SWAP1 POP SWAP2 SWAP1 POP JUMP JUMPDEST PUSH32 0x4E487B7100000000000000000000000000000000000000000000000000000000 PUSH1 0x0 MSTORE PUSH1 0x41 PUSH1 0x4 MSTORE PUSH1 0x24 PUSH1 0x0 REVERT JUMPDEST PUSH3 0x39C DUP3 PUSH3 0x351 JUMP JUMPDEST DUP2 ADD DUP2 DUP2 LT PUSH8 0xFFFFFFFFFFFFFFFF DUP3 GT OR ISZERO PUSH3 0x3BE JUMPI PUSH3 0x3BD PUSH3 0x362 JUMP JUMPDEST JUMPDEST DUP1 PUSH1 0x40 MSTORE POP POP POP JUMP JUMPDEST PUSH1 0x0 PUSH3 0x3D3 PUSH3 0x2D3 JUMP JUMPDEST SWAP1 POP PUSH3 0x3E1 DUP3 DUP3 PUSH3 0x391 JUMP JUMPDEST SWAP2 SWAP1 POP JUMP JUMPDEST PUSH1 0x0 PUSH8 0xFFFFFFFFFFFFFFFF DUP3 GT ISZERO PUSH3 0x404 JUMPI PUSH3 0x403 PUSH3 0x362 JUMP JUMPDEST JUMPDEST PUSH1 0x20 DUP3 MUL SWAP1 POP PUSH1 0x20 DUP2 ADD SWAP1 POP SWAP2 SWAP1 POP JUMP JUMPDEST PUSH1 0x0 DUP1 REVERT JUMPDEST PUSH1 0x0 PUSH3 0x431 PUSH3 0x42B DUP5 PUSH3 0x3E6 JUMP JUMPDEST PUSH3 0x3C7 JUMP JUMPDEST SWAP1 POP DUP1 DUP4 DUP3 MSTORE PUSH1 0x20 DUP3 ADD SWAP1 POP PUSH1 0x20 DUP5 MUL DUP4 ADD DUP6 DUP2 GT ISZERO PUSH3 0x457 JUMPI PUSH3 0x456 PUSH3 0x415 JUMP JUMPDEST JUMPDEST DUP4 JUMPDEST DUP2 DUP2 LT ISZERO PUSH3 0x484 JUMPI DUP1 PUSH3 0x46F DUP9 DUP3 PUSH3 0x335 JUMP JUMPDEST DUP5 MSTORE PUSH1 0x20 DUP5 ADD SWAP4 POP POP PUSH1 0x20 DUP2 ADD SWAP1 POP PUSH3 0x459 JUMP JUMPDEST POP POP POP SWAP4 SWAP3 POP POP POP JUMP JUMPDEST PUSH1 0x0 DUP3 PUSH1 0x1F DUP4 ADD SLT PUSH3 0x4A6 JUMPI PUSH3 0x4A5 PUSH3 0x34C JUMP JUMPDEST JUMPDEST DUP2 MLOAD PUSH3 0x4B8 DUP5 DUP3 PUSH1 0x20 DUP7 ADD PUSH3 0x41A JUMP JUMPDEST SWAP2 POP POP SWAP3 SWAP2 POP POP JUMP JUMPDEST PUSH1 0x0 DUP2 SWAP1 POP SWAP2 SWAP1 POP JUMP JUMPDEST PUSH3 0x4D6 DUP2 PUSH3 0x4C1 JUMP JUMPDEST DUP2 EQ PUSH3 0x4E2 JUMPI PUSH1 0x0 DUP1 REVERT JUMPDEST POP JUMP JUMPDEST PUSH1 0x0 DUP2 MLOAD SWAP1 POP PUSH3 0x4F6 DUP2 PUSH3 0x4CB JUMP JUMPDEST SWAP3 SWAP2 POP POP JUMP JUMPDEST PUSH1 0x0 DUP1 PUSH1 0x0 PUSH1 0x60 DUP5 DUP7 SUB SLT ISZERO PUSH3 0x518 JUMPI PUSH3 0x517 PUSH3 0x2DD JUMP JUMPDEST JUMPDEST PUSH1 0x0 PUSH3 0x528 DUP7 DUP3 DUP8 ADD PUSH3 0x335 JUMP JUMPDEST SWAP4 POP POP PUSH1 0x20 DUP5 ADD MLOAD PUSH8 0xFFFFFFFFFFFFFFFF DUP2 GT ISZERO PUSH3 0x54C JUMPI PUSH3 0x54B PUSH3 0x2E2 JUMP JUMPDEST JUMPDEST PUSH3 0x55A DUP7 DUP3 DUP8 ADD PUSH3 0x48E JUMP JUMPDEST SWAP3 POP POP PUSH1 0x40 PUSH3 0x56D DUP7 DUP3 DUP8 ADD PUSH3 0x4E5 JUMP JUMPDEST SWAP2 POP POP SWAP3 POP SWAP3 POP SWAP3 JUMP JUMPDEST PUSH1 0x0 PUSH1 0x20 DUP3 DUP5 SUB SLT ISZERO PUSH3 0x590 JUMPI PUSH3 0x58F PUSH3 0x2DD JUMP JUMPDEST JUMPDEST PUSH1 0x0 PUSH3 0x5A0 DUP5 DUP3 DUP6 ADD PUSH3 0x335 JUMP JUMPDEST SWAP2 POP POP SWAP3 SWAP2 POP POP JUMP JUMPDEST PUSH1 0x80 MLOAD PUSH1 0xA0 MLOAD PUSH2 0x18A6 PUSH3 0x5DD PUSH1 0x0 CODECOPY PUSH1 0x0 DUP2 DUP2 PUSH2 0x26E ADD MSTORE DUP2 DUP2 PUSH2 0x545 ADD MSTORE PUSH2 0x781 ADD MSTORE PUSH1 0x0 PUSH2 0x248 ADD MSTORE PUSH2 0x18A6 PUSH1 0x0 RETURN INVALID PUSH1 0x80 PUSH1 0x40 MSTORE CALLVALUE DUP1 ISZERO PUSH2 0x10 JUMPI PUSH1 0x0 DUP1 REVERT JUMPDEST POP PUSH1 0x4 CALLDATASIZE LT PUSH2 0xB3 JUMPI PUSH1 0x0 CALLDATALOAD PUSH1 0xE0 SHR DUP1 PUSH4 0x7535D246 GT PUSH2 0x71 JUMPI DUP1 PUSH4 0x7535D246 EQ PUSH2 0x178 JUMPI DUP1 PUSH4 0x75C81AD0 EQ PUSH2 0x196 JUMPI DUP1 PUSH4 0x78400F17 EQ PUSH2 0x1B4 JUMPI DUP1 PUSH4 0x8DA5CB5B EQ PUSH2 0x1D0 JUMPI DUP1 PUSH4 0xF2FDE38B EQ PUSH2 0x1EE JUMPI DUP1 PUSH4 0xF88C31CE EQ PUSH2 0x20A JUMPI PUSH2 0xB3 JUMP JUMPDEST DUP1 PUSH3 0xB439F9 EQ PUSH2 0xB8 JUMPI DUP1 PUSH4 0x542975C EQ PUSH2 0xD4 JUMPI DUP1 PUSH4 0x1B11D0FF EQ PUSH2 0xF2 JUMPI DUP1 PUSH4 0x49DF728C EQ PUSH2 0x122 JUMPI DUP1 PUSH4 0x4E9C1118 EQ PUSH2 0x13E JUMPI DUP1 PUSH4 0x715018A6 EQ PUSH2 0x16E JUMPI JUMPDEST PUSH1 0x0 DUP1 REVERT JUMPDEST PUSH2 0xD2 PUSH1 0x4 DUP1 CALLDATASIZE SUB DUP2 ADD SWAP1 PUSH2 0xCD SWAP2 SWAP1 PUSH2 0xC36 JUMP JUMPDEST PUSH2 0x228 JUMP JUMPDEST STOP JUMPDEST PUSH2 0xDC PUSH2 0x246 JUMP JUMPDEST PUSH1 0x40 MLOAD PUSH2 0xE9 SWAP2 SWAP1 PUSH2 0xD02 JUMP JUMPDEST PUSH1 0x40 MLOAD DUP1 SWAP2 SUB SWAP1 RETURN JUMPDEST PUSH2 0x10C PUSH1 0x4 DUP1 CALLDATASIZE SUB DUP2 ADD SWAP1 PUSH2 0x107 SWAP2 SWAP1 PUSH2 0xDE7 JUMP JUMPDEST PUSH2 0x26A JUMP JUMPDEST PUSH1 0x40 MLOAD PUSH2 0x119 SWAP2 SWAP1 PUSH2 0xE9C JUMP JUMPDEST PUSH1 0x40 MLOAD DUP1 SWAP2 SUB SWAP1 RETURN JUMPDEST PUSH2 0x13C PUSH1 0x4 DUP1 CALLDATASIZE SUB DUP2 ADD SWAP1 PUSH2 0x137 SWAP2 SWAP1 PUSH2 0xEB7 JUMP JUMPDEST PUSH2 0x623 JUMP JUMPDEST STOP JUMPDEST PUSH2 0x158 PUSH1 0x4 DUP1 CALLDATASIZE SUB DUP2 ADD SWAP1 PUSH2 0x153 SWAP2 SWAP1 PUSH2 0xEE4 JUMP JUMPDEST PUSH2 0x72C JUMP JUMPDEST PUSH1 0x40 MLOAD PUSH2 0x165 SWAP2 SWAP1 PUSH2 0xF20 JUMP JUMPDEST PUSH1 0x40 MLOAD DUP1 SWAP2 SUB SWAP1 RETURN JUMPDEST PUSH2 0x176 PUSH2 0x76B JUMP JUMPDEST STOP JUMPDEST PUSH2 0x180 PUSH2 0x77F JUMP JUMPDEST PUSH1 0x40 MLOAD PUSH2 0x18D SWAP2 SWAP1 PUSH2 0xF5C JUMP JUMPDEST PUSH1 0x40 MLOAD DUP1 SWAP2 SUB SWAP1 RETURN JUMPDEST PUSH2 0x19E PUSH2 0x7A3 JUMP JUMPDEST PUSH1 0x40 MLOAD PUSH2 0x1AB SWAP2 SWAP1 PUSH2 0xF86 JUMP JUMPDEST PUSH1 0x40 MLOAD DUP1 SWAP2 SUB SWAP1 RETURN JUMPDEST PUSH2 0x1CE PUSH1 0x4 DUP1 CALLDATASIZE SUB DUP2 ADD SWAP1 PUSH2 0x1C9 SWAP2 SWAP1 PUSH2 0xEE4 JUMP JUMPDEST PUSH2 0x7A9 JUMP JUMPDEST STOP JUMPDEST PUSH2 0x1D8 PUSH2 0x7BB JUMP JUMPDEST PUSH1 0x40 MLOAD PUSH2 0x1E5 SWAP2 SWAP1 PUSH2 0xF20 JUMP JUMPDEST PUSH1 0x40 MLOAD DUP1 SWAP2 SUB SWAP1 RETURN JUMPDEST PUSH2 0x208 PUSH1 0x4 DUP1 CALLDATASIZE SUB DUP2 ADD SWAP1 PUSH2 0x203 SWAP2 SWAP1 PUSH2 0xEB7 JUMP JUMPDEST PUSH2 0x7E4 JUMP JUMPDEST STOP JUMPDEST PUSH2 0x212 PUSH2 0x867 JUMP JUMPDEST PUSH1 0x40 MLOAD PUSH2 0x21F SWAP2 SWAP1 PUSH2 0x105F JUMP JUMPDEST PUSH1 0x40 MLOAD DUP1 SWAP2 SUB SWAP1 RETURN JUMPDEST PUSH2 0x230 PUSH2 0x8F5 JUMP JUMPDEST DUP2 DUP2 PUSH1 0x1 SWAP2 SWAP1 PUSH2 0x241 SWAP3 SWAP2 SWAP1 PUSH2 0xB00 JUMP JUMPDEST POP POP POP JUMP JUMPDEST PUSH32 0x0 DUP2 JUMP JUMPDEST PUSH1 0x0 PUSH32 0x0 PUSH20 0xFFFFFFFFFFFFFFFFFFFFFFFFFFFFFFFFFFFFFFFF AND CALLER PUSH20 0xFFFFFFFFFFFFFFFFFFFFFFFFFFFFFFFFFFFFFFFF AND EQ PUSH2 0x2FA JUMPI PUSH1 0x40 MLOAD PUSH32 0x8C379A000000000000000000000000000000000000000000000000000000000 DUP2 MSTORE PUSH1 0x4 ADD PUSH2 0x2F1 SWAP1 PUSH2 0x10DE JUMP JUMPDEST PUSH1 0x40 MLOAD DUP1 SWAP2 SUB SWAP1 REVERT JUMPDEST ADDRESS PUSH20 0xFFFFFFFFFFFFFFFFFFFFFFFFFFFFFFFFFFFFFFFF AND DUP5 PUSH20 0xFFFFFFFFFFFFFFFFFFFFFFFFFFFFFFFFFFFFFFFF AND EQ PUSH2 0x368 JUMPI PUSH1 0x40 MLOAD PUSH32 0x8C379A000000000000000000000000000000000000000000000000000000000 DUP2 MSTORE PUSH1 0x4 ADD PUSH2 0x35F SWAP1 PUSH2 0x114A JUMP JUMPDEST PUSH1 0x40 MLOAD DUP1 SWAP2 SUB SWAP1 REVERT JUMPDEST PUSH1 0x0 DUP1 PUSH1 0x0 DUP1 DUP7 DUP7 DUP2 ADD SWAP1 PUSH2 0x37D SWAP2 SWAP1 PUSH2 0x12F7 JUMP JUMPDEST SWAP4 POP SWAP4 POP SWAP4 POP SWAP4 POP DUP11 PUSH20 0xFFFFFFFFFFFFFFFFFFFFFFFFFFFFFFFFFFFFFFFF AND PUSH4 0x95EA7B3 DUP4 DUP13 PUSH1 0x40 MLOAD DUP4 PUSH4 0xFFFFFFFF AND PUSH1 0xE0 SHL DUP2 MSTORE PUSH1 0x4 ADD PUSH2 0x3C0 SWAP3 SWAP2 SWAP1 PUSH2 0x1396 JUMP JUMPDEST PUSH1 0x20 PUSH1 0x40 MLOAD DUP1 DUP4 SUB DUP2 PUSH1 0x0 DUP8 GAS CALL ISZERO DUP1 ISZERO PUSH2 0x3DF JUMPI RETURNDATASIZE PUSH1 0x0 DUP1 RETURNDATACOPY RETURNDATASIZE PUSH1 0x0 REVERT JUMPDEST POP POP POP POP PUSH1 0x40 MLOAD RETURNDATASIZE PUSH1 0x1F NOT PUSH1 0x1F DUP3 ADD AND DUP3 ADD DUP1 PUSH1 0x40 MSTORE POP DUP2 ADD SWAP1 PUSH2 0x403 SWAP2 SWAP1 PUSH2 0x13EB JUMP JUMPDEST POP PUSH1 0x0 PUSH2 0x411 DUP4 DUP13 DUP8 PUSH2 0x973 JUMP JUMPDEST SWAP1 POP DUP5 PUSH1 0x1 DUP7 MLOAD PUSH2 0x422 SWAP2 SWAP1 PUSH2 0x1447 JUMP JUMPDEST DUP2 MLOAD DUP2 LT PUSH2 0x433 JUMPI PUSH2 0x432 PUSH2 0x147B JUMP JUMPDEST JUMPDEST PUSH1 0x20 MUL PUSH1 0x20 ADD ADD MLOAD PUSH20 0xFFFFFFFFFFFFFFFFFFFFFFFFFFFFFFFFFFFFFFFF AND PUSH4 0x95EA7B3 DUP4 DUP4 PUSH1 0x40 MLOAD DUP4 PUSH4 0xFFFFFFFF AND PUSH1 0xE0 SHL DUP2 MSTORE PUSH1 0x4 ADD PUSH2 0x475 SWAP3 SWAP2 SWAP1 PUSH2 0x1396 JUMP JUMPDEST PUSH1 0x20 PUSH1 0x40 MLOAD DUP1 DUP4 SUB DUP2 PUSH1 0x0 DUP8 GAS CALL ISZERO DUP1 ISZERO PUSH2 0x494 JUMPI RETURNDATASIZE PUSH1 0x0 DUP1 RETURNDATACOPY RETURNDATASIZE PUSH1 0x0 REVERT JUMPDEST POP POP POP POP PUSH1 0x40 MLOAD RETURNDATASIZE PUSH1 0x1F NOT PUSH1 0x1F DUP3 ADD AND DUP3 ADD DUP1 PUSH1 0x40 MSTORE POP DUP2 ADD SWAP1 PUSH2 0x4B8 SWAP2 SWAP1 PUSH2 0x13EB JUMP JUMPDEST POP PUSH1 0x0 PUSH2 0x4C6 DUP4 DUP4 DUP8 PUSH2 0x973 JUMP JUMPDEST SWAP1 POP PUSH1 0x0 DUP12 DUP14 PUSH2 0x4D6 SWAP2 SWAP1 PUSH2 0x14AA JUMP JUMPDEST SWAP1 POP PUSH1 0x2 SLOAD DUP2 PUSH2 0x4E6 SWAP2 SWAP1 PUSH2 0x14AA JUMP JUMPDEST DUP3 GT PUSH2 0x527 JUMPI PUSH1 0x40 MLOAD PUSH32 0x8C379A000000000000000000000000000000000000000000000000000000000 DUP2 MSTORE PUSH1 0x4 ADD PUSH2 0x51E SWAP1 PUSH2 0x152A JUMP JUMPDEST PUSH1 0x40 MLOAD DUP1 SWAP2 SUB SWAP1 REVERT JUMPDEST DUP14 PUSH20 0xFFFFFFFFFFFFFFFFFFFFFFFFFFFFFFFFFFFFFFFF AND PUSH4 0x95EA7B3 PUSH32 0x0 DUP4 PUSH1 0x40 MLOAD DUP4 PUSH4 0xFFFFFFFF AND PUSH1 0xE0 SHL DUP2 MSTORE PUSH1 0x4 ADD PUSH2 0x582 SWAP3 SWAP2 SWAP1 PUSH2 0x1396 JUMP JUMPDEST PUSH1 0x20 PUSH1 0x40 MLOAD DUP1 DUP4 SUB DUP2 PUSH1 0x0 DUP8 GAS CALL ISZERO DUP1 ISZERO PUSH2 0x5A1 JUMPI RETURNDATASIZE PUSH1 0x0 DUP1 RETURNDATACOPY RETURNDATASIZE PUSH1 0x0 REVERT JUMPDEST POP POP POP POP PUSH1 0x40 MLOAD RETURNDATASIZE PUSH1 0x1F NOT PUSH1 0x1F DUP3 ADD AND DUP3 ADD DUP1 PUSH1 0x40 MSTORE POP DUP2 ADD SWAP1 PUSH2 0x5C5 SWAP2 SWAP1 PUSH2 0x13EB JUMP JUMPDEST POP PUSH32 0x896B2F4C91AA65817AA85C55F73599987752F3A98969EB49EADB2DEB4FBFCB75 DUP2 DUP4 PUSH2 0x5F3 SWAP2 SWAP1 PUSH2 0x1447 JUMP JUMPDEST DUP16 DUP8 DUP8 PUSH1 0x40 MLOAD PUSH2 0x606 SWAP5 SWAP4 SWAP3 SWAP2 SWAP1 PUSH2 0x154A JUMP JUMPDEST PUSH1 0x40 MLOAD DUP1 SWAP2 SUB SWAP1 LOG1 PUSH1 0x1 SWAP8 POP POP POP POP POP POP POP POP SWAP7 SWAP6 POP POP POP POP POP POP JUMP JUMPDEST PUSH2 0x62B PUSH2 0x8F5 JUMP JUMPDEST PUSH1 0x0 DUP2 PUSH20 0xFFFFFFFFFFFFFFFFFFFFFFFFFFFFFFFFFFFFFFFF AND PUSH4 0x70A08231 ADDRESS PUSH1 0x40 MLOAD DUP3 PUSH4 0xFFFFFFFF AND PUSH1 0xE0 SHL DUP2 MSTORE PUSH1 0x4 ADD PUSH2 0x666 SWAP2 SWAP1 PUSH2 0xF20 JUMP JUMPDEST PUSH1 0x20 PUSH1 0x40 MLOAD DUP1 DUP4 SUB DUP2 DUP7 GAS STATICCALL ISZERO DUP1 ISZERO PUSH2 0x683 JUMPI RETURNDATASIZE PUSH1 0x0 DUP1 RETURNDATACOPY RETURNDATASIZE PUSH1 0x0 REVERT JUMPDEST POP POP POP POP PUSH1 0x40 MLOAD RETURNDATASIZE PUSH1 0x1F NOT PUSH1 0x1F DUP3 ADD AND DUP3 ADD DUP1 PUSH1 0x40 MSTORE POP DUP2 ADD SWAP1 PUSH2 0x6A7 SWAP2 SWAP1 PUSH2 0x15A4 JUMP JUMPDEST SWAP1 POP DUP2 PUSH20 0xFFFFFFFFFFFFFFFFFFFFFFFFFFFFFFFFFFFFFFFF AND PUSH4 0xA9059CBB CALLER DUP4 PUSH1 0x40 MLOAD DUP4 PUSH4 0xFFFFFFFF AND PUSH1 0xE0 SHL DUP2 MSTORE PUSH1 0x4 ADD PUSH2 0x6E4 SWAP3 SWAP2 SWAP1 PUSH2 0x1396 JUMP JUMPDEST PUSH1 0x20 PUSH1 0x40 MLOAD DUP1 DUP4 SUB DUP2 PUSH1 0x0 DUP8 GAS CALL ISZERO DUP1 ISZERO PUSH2 0x703 JUMPI RETURNDATASIZE PUSH1 0x0 DUP1 RETURNDATACOPY RETURNDATASIZE PUSH1 0x0 REVERT JUMPDEST POP POP POP POP PUSH1 0x40 MLOAD RETURNDATASIZE PUSH1 0x1F NOT PUSH1 0x1F DUP3 ADD AND DUP3 ADD DUP1 PUSH1 0x40 MSTORE POP DUP2 ADD SWAP1 PUSH2 0x727 SWAP2 SWAP1 PUSH2 0x13EB JUMP JUMPDEST POP POP POP JUMP JUMPDEST PUSH1 0x1 DUP2 DUP2 SLOAD DUP2 LT PUSH2 0x73C JUMPI PUSH1 0x0 DUP1 REVERT JUMPDEST SWAP1 PUSH1 0x0 MSTORE PUSH1 0x20 PUSH1 0x0 KECCAK256 ADD PUSH1 0x0 SWAP2 POP SLOAD SWAP1 PUSH2 0x100 EXP SWAP1 DIV PUSH20 0xFFFFFFFFFFFFFFFFFFFFFFFFFFFFFFFFFFFFFFFF AND DUP2 JUMP JUMPDEST PUSH2 0x773 PUSH2 0x8F5 JUMP JUMPDEST PUSH2 0x77D PUSH1 0x0 PUSH2 0xA34 JUMP JUMPDEST JUMP JUMPDEST PUSH32 0x0 DUP2 JUMP JUMPDEST PUSH1 0x2 SLOAD DUP2 JUMP JUMPDEST PUSH2 0x7B1 PUSH2 0x8F5 JUMP JUMPDEST DUP1 PUSH1 0x2 DUP2 SWAP1 SSTORE POP POP JUMP JUMPDEST PUSH1 0x0 DUP1 PUSH1 0x0 SWAP1 SLOAD SWAP1 PUSH2 0x100 EXP SWAP1 DIV PUSH20 0xFFFFFFFFFFFFFFFFFFFFFFFFFFFFFFFFFFFFFFFF AND SWAP1 POP SWAP1 JUMP JUMPDEST PUSH2 0x7EC PUSH2 0x8F5 JUMP JUMPDEST PUSH1 0x0 PUSH20 0xFFFFFFFFFFFFFFFFFFFFFFFFFFFFFFFFFFFFFFFF AND DUP2 PUSH20 0xFFFFFFFFFFFFFFFFFFFFFFFFFFFFFFFFFFFFFFFF AND SUB PUSH2 0x85B JUMPI PUSH1 0x40 MLOAD PUSH32 0x8C379A000000000000000000000000000000000000000000000000000000000 DUP2 MSTORE PUSH1 0x4 ADD PUSH2 0x852 SWAP1 PUSH2 0x1643 JUMP JUMPDEST PUSH1 0x40 MLOAD DUP1 SWAP2 SUB SWAP1 REVERT JUMPDEST PUSH2 0x864 DUP2 PUSH2 0xA34 JUMP JUMPDEST POP JUMP JUMPDEST PUSH1 0x60 PUSH1 0x1 DUP1 SLOAD DUP1 PUSH1 0x20 MUL PUSH1 0x20 ADD PUSH1 0x40 MLOAD SWAP1 DUP2 ADD PUSH1 0x40 MSTORE DUP1 SWAP3 SWAP2 SWAP1 DUP2 DUP2 MSTORE PUSH1 0x20 ADD DUP3 DUP1 SLOAD DUP1 ISZERO PUSH2 0x8EB JUMPI PUSH1 0x20 MUL DUP3 ADD SWAP2 SWAP1 PUSH1 0x0 MSTORE PUSH1 0x20 PUSH1 0x0 KECCAK256 SWAP1 JUMPDEST DUP2 PUSH1 0x0 SWAP1 SLOAD SWAP1 PUSH2 0x100 EXP SWAP1 DIV PUSH20 0xFFFFFFFFFFFFFFFFFFFFFFFFFFFFFFFFFFFFFFFF AND PUSH20 0xFFFFFFFFFFFFFFFFFFFFFFFFFFFFFFFFFFFFFFFF AND DUP2 MSTORE PUSH1 0x20 ADD SWAP1 PUSH1 0x1 ADD SWAP1 DUP1 DUP4 GT PUSH2 0x8A1 JUMPI JUMPDEST POP POP POP POP POP SWAP1 POP SWAP1 JUMP JUMPDEST PUSH2 0x8FD PUSH2 0xAF8 JUMP JUMPDEST PUSH20 0xFFFFFFFFFFFFFFFFFFFFFFFFFFFFFFFFFFFFFFFF AND PUSH2 0x91B PUSH2 0x7BB JUMP JUMPDEST PUSH20 0xFFFFFFFFFFFFFFFFFFFFFFFFFFFFFFFFFFFFFFFF AND EQ PUSH2 0x971 JUMPI PUSH1 0x40 MLOAD PUSH32 0x8C379A000000000000000000000000000000000000000000000000000000000 DUP2 MSTORE PUSH1 0x4 ADD PUSH2 0x968 SWAP1 PUSH2 0x16AF JUMP JUMPDEST PUSH1 0x40 MLOAD DUP1 SWAP2 SUB SWAP1 REVERT JUMPDEST JUMP JUMPDEST PUSH1 0x0 DUP1 DUP5 PUSH20 0xFFFFFFFFFFFFFFFFFFFFFFFFFFFFFFFFFFFFFFFF AND PUSH4 0x38ED1739 DUP6 PUSH1 0x1 DUP7 ADDRESS TIMESTAMP PUSH1 0x40 MLOAD DUP7 PUSH4 0xFFFFFFFF AND PUSH1 0xE0 SHL DUP2 MSTORE PUSH1 0x4 ADD PUSH2 0x9B8 SWAP6 SWAP5 SWAP4 SWAP3 SWAP2 SWAP1 PUSH2 0x170A JUMP JUMPDEST PUSH1 0x0 PUSH1 0x40 MLOAD DUP1 DUP4 SUB DUP2 PUSH1 0x0 DUP8 GAS CALL ISZERO DUP1 ISZERO PUSH2 0x9D7 JUMPI RETURNDATASIZE PUSH1 0x0 DUP1 RETURNDATACOPY RETURNDATASIZE PUSH1 0x0 REVERT JUMPDEST POP POP POP POP PUSH1 0x40 MLOAD RETURNDATASIZE PUSH1 0x0 DUP3 RETURNDATACOPY RETURNDATASIZE PUSH1 0x1F NOT PUSH1 0x1F DUP3 ADD AND DUP3 ADD DUP1 PUSH1 0x40 MSTORE POP DUP2 ADD SWAP1 PUSH2 0xA00 SWAP2 SWAP1 PUSH2 0x1827 JUMP JUMPDEST SWAP1 POP DUP1 PUSH1 0x1 DUP3 MLOAD PUSH2 0xA11 SWAP2 SWAP1 PUSH2 0x1447 JUMP JUMPDEST DUP2 MLOAD DUP2 LT PUSH2 0xA22 JUMPI PUSH2 0xA21 PUSH2 0x147B JUMP JUMPDEST JUMPDEST PUSH1 0x20 MUL PUSH1 0x20 ADD ADD MLOAD SWAP2 POP POP SWAP4 SWAP3 POP POP POP JUMP JUMPDEST PUSH1 0x0 DUP1 PUSH1 0x0 SWAP1 SLOAD SWAP1 PUSH2 0x100 EXP SWAP1 DIV PUSH20 0xFFFFFFFFFFFFFFFFFFFFFFFFFFFFFFFFFFFFFFFF AND SWAP1 POP DUP2 PUSH1 0x0 DUP1 PUSH2 0x100 EXP DUP2 SLOAD DUP2 PUSH20 0xFFFFFFFFFFFFFFFFFFFFFFFFFFFFFFFFFFFFFFFF MUL NOT AND SWAP1 DUP4 PUSH20 0xFFFFFFFFFFFFFFFFFFFFFFFFFFFFFFFFFFFFFFFF AND MUL OR SWAP1 SSTORE POP DUP2 PUSH20 0xFFFFFFFFFFFFFFFFFFFFFFFFFFFFFFFFFFFFFFFF AND DUP2 PUSH20 0xFFFFFFFFFFFFFFFFFFFFFFFFFFFFFFFFFFFFFFFF AND PUSH32 0x8BE0079C531659141344CD1FD0A4F28419497F9722A3DAAFE3B4186F6B6457E0 PUSH1 0x40 MLOAD PUSH1 0x40 MLOAD DUP1 SWAP2 SUB SWAP1 LOG3 POP POP JUMP JUMPDEST PUSH1 0x0 CALLER SWAP1 POP SWAP1 JUMP JUMPDEST DUP3 DUP1 SLOAD DUP3 DUP3 SSTORE SWAP1 PUSH1 0x0 MSTORE PUSH1 0x20 PUSH1 0x0 KECCAK256 SWAP1 DUP2 ADD SWAP3 DUP3 ISZERO PUSH2 0xB8F JUMPI SWAP2 PUSH1 0x20 MUL DUP3 ADD JUMPDEST DUP3 DUP2 GT ISZERO PUSH2 0xB8E JUMPI DUP3 CALLDATALOAD PUSH20 0xFFFFFFFFFFFFFFFFFFFFFFFFFFFFFFFFFFFFFFFF AND DUP3 PUSH1 0x0 PUSH2 0x100 EXP DUP2 SLOAD DUP2 PUSH20 0xFFFFFFFFFFFFFFFFFFFFFFFFFFFFFFFFFFFFFFFF MUL NOT AND SWAP1 DUP4 PUSH20 0xFFFFFFFFFFFFFFFFFFFFFFFFFFFFFFFFFFFFFFFF AND MUL OR SWAP1 SSTORE POP SWAP2 PUSH1 0x20 ADD SWAP2 SWAP1 PUSH1 0x1 ADD SWAP1 PUSH2 0xB20 JUMP JUMPDEST JUMPDEST POP SWAP1 POP PUSH2 0xB9C SWAP2 SWAP1 PUSH2 0xBA0 JUMP JUMPDEST POP SWAP1 JUMP JUMPDEST JUMPDEST DUP1 DUP3 GT ISZERO PUSH2 0xBB9 JUMPI PUSH1 0x0 DUP2 PUSH1 0x0 SWAP1 SSTORE POP PUSH1 0x1 ADD PUSH2 0xBA1 JUMP JUMPDEST POP SWAP1 JUMP JUMPDEST PUSH1 0x0 PUSH1 0x40 MLOAD SWAP1 POP SWAP1 JUMP JUMPDEST PUSH1 0x0 DUP1 REVERT JUMPDEST PUSH1 0x0 DUP1 REVERT JUMPDEST PUSH1 0x0 DUP1 REVERT JUMPDEST PUSH1 0x0 DUP1 REVERT JUMPDEST PUSH1 0x0 DUP1 REVERT JUMPDEST PUSH1 0x0 DUP1 DUP4 PUSH1 0x1F DUP5 ADD SLT PUSH2 0xBF6 JUMPI PUSH2 0xBF5 PUSH2 0xBD1 JUMP JUMPDEST JUMPDEST DUP3 CALLDATALOAD SWAP1 POP PUSH8 0xFFFFFFFFFFFFFFFF DUP2 GT ISZERO PUSH2 0xC13 JUMPI PUSH2 0xC12 PUSH2 0xBD6 JUMP JUMPDEST JUMPDEST PUSH1 0x20 DUP4 ADD SWAP2 POP DUP4 PUSH1 0x20 DUP3 MUL DUP4 ADD GT ISZERO PUSH2 0xC2F JUMPI PUSH2 0xC2E PUSH2 0xBDB JUMP JUMPDEST JUMPDEST SWAP3 POP SWAP3 SWAP1 POP JUMP JUMPDEST PUSH1 0x0 DUP1 PUSH1 0x20 DUP4 DUP6 SUB SLT ISZERO PUSH2 0xC4D JUMPI PUSH2 0xC4C PUSH2 0xBC7 JUMP JUMPDEST JUMPDEST PUSH1 0x0 DUP4 ADD CALLDATALOAD PUSH8 0xFFFFFFFFFFFFFFFF DUP2 GT ISZERO PUSH2 0xC6B JUMPI PUSH2 0xC6A PUSH2 0xBCC JUMP JUMPDEST JUMPDEST PUSH2 0xC77 DUP6 DUP3 DUP7 ADD PUSH2 0xBE0 JUMP JUMPDEST SWAP3 POP SWAP3 POP POP SWAP3 POP SWAP3 SWAP1 POP JUMP JUMPDEST PUSH1 0x0 PUSH20 0xFFFFFFFFFFFFFFFFFFFFFFFFFFFFFFFFFFFFFFFF DUP3 AND SWAP1 POP SWAP2 SWAP1 POP JUMP JUMPDEST PUSH1 0x0 DUP2 SWAP1 POP SWAP2 SWAP1 POP JUMP JUMPDEST PUSH1 0x0 PUSH2 0xCC8 PUSH2 0xCC3 PUSH2 0xCBE DUP5 PUSH2 0xC83 JUMP JUMPDEST PUSH2 0xCA3 JUMP JUMPDEST PUSH2 0xC83 JUMP JUMPDEST SWAP1 POP SWAP2 SWAP1 POP JUMP JUMPDEST PUSH1 0x0 PUSH2 0xCDA DUP3 PUSH2 0xCAD JUMP JUMPDEST SWAP1 POP SWAP2 SWAP1 POP JUMP JUMPDEST PUSH1 0x0 PUSH2 0xCEC DUP3 PUSH2 0xCCF JUMP JUMPDEST SWAP1 POP SWAP2 SWAP1 POP JUMP JUMPDEST PUSH2 0xCFC DUP2 PUSH2 0xCE1 JUMP JUMPDEST DUP3 MSTORE POP POP JUMP JUMPDEST PUSH1 0x0 PUSH1 0x20 DUP3 ADD SWAP1 POP PUSH2 0xD17 PUSH1 0x0 DUP4 ADD DUP5 PUSH2 0xCF3 JUMP JUMPDEST SWAP3 SWAP2 POP POP JUMP JUMPDEST PUSH1 0x0 PUSH2 0xD28 DUP3 PUSH2 0xC83 JUMP JUMPDEST SWAP1 POP SWAP2 SWAP1 POP JUMP JUMPDEST PUSH2 0xD38 DUP2 PUSH2 0xD1D JUMP JUMPDEST DUP2 EQ PUSH2 0xD43 JUMPI PUSH1 0x0 DUP1 REVERT JUMPDEST POP JUMP JUMPDEST PUSH1 0x0 DUP2 CALLDATALOAD SWAP1 POP PUSH2 0xD55 DUP2 PUSH2 0xD2F JUMP JUMPDEST SWAP3 SWAP2 POP POP JUMP JUMPDEST PUSH1 0x0 DUP2 SWAP1 POP SWAP2 SWAP1 POP JUMP JUMPDEST PUSH2 0xD6E DUP2 PUSH2 0xD5B JUMP JUMPDEST DUP2 EQ PUSH2 0xD79 JUMPI PUSH1 0x0 DUP1 REVERT JUMPDEST POP JUMP JUMPDEST PUSH1 0x0 DUP2 CALLDATALOAD SWAP1 POP PUSH2 0xD8B DUP2 PUSH2 0xD65 JUMP JUMPDEST SWAP3 SWAP2 POP POP JUMP JUMPDEST PUSH1 0x0 DUP1 DUP4 PUSH1 0x1F DUP5 ADD SLT PUSH2 0xDA7 JUMPI PUSH2 0xDA6 PUSH2 0xBD1 JUMP JUMPDEST JUMPDEST DUP3 CALLDATALOAD SWAP1 POP PUSH8 0xFFFFFFFFFFFFFFFF DUP2 GT ISZERO PUSH2 0xDC4 JUMPI PUSH2 0xDC3 PUSH2 0xBD6 JUMP JUMPDEST JUMPDEST PUSH1 0x20 DUP4 ADD SWAP2 POP DUP4 PUSH1 0x1 DUP3 MUL DUP4 ADD GT ISZERO PUSH2 0xDE0 JUMPI PUSH2 0xDDF PUSH2 0xBDB JUMP JUMPDEST JUMPDEST SWAP3 POP SWAP3 SWAP1 POP JUMP JUMPDEST PUSH1 0x0 DUP1 PUSH1 0x0 DUP1 PUSH1 0x0 DUP1 PUSH1 0xA0 DUP8 DUP10 SUB SLT ISZERO PUSH2 0xE04 JUMPI PUSH2 0xE03 PUSH2 0xBC7 JUMP JUMPDEST JUMPDEST PUSH1 0x0 PUSH2 0xE12 DUP10 DUP3 DUP11 ADD PUSH2 0xD46 JUMP JUMPDEST SWAP7 POP POP PUSH1 0x20 PUSH2 0xE23 DUP10 DUP3 DUP11 ADD PUSH2 0xD7C JUMP JUMPDEST SWAP6 POP POP PUSH1 0x40 PUSH2 0xE34 DUP10 DUP3 DUP11 ADD PUSH2 0xD7C JUMP JUMPDEST SWAP5 POP POP PUSH1 0x60 PUSH2 0xE45 DUP10 DUP3 DUP11 ADD PUSH2 0xD46 JUMP JUMPDEST SWAP4 POP POP PUSH1 0x80 DUP8 ADD CALLDATALOAD PUSH8 0xFFFFFFFFFFFFFFFF DUP2 GT ISZERO PUSH2 0xE66 JUMPI PUSH2 0xE65 PUSH2 0xBCC JUMP JUMPDEST JUMPDEST PUSH2 0xE72 DUP10 DUP3 DUP11 ADD PUSH2 0xD91 JUMP JUMPDEST SWAP3 POP SWAP3 POP POP SWAP3 SWAP6 POP SWAP3 SWAP6 POP SWAP3 SWAP6 JUMP JUMPDEST PUSH1 0x0 DUP2 ISZERO ISZERO SWAP1 POP SWAP2 SWAP1 POP JUMP JUMPDEST PUSH2 0xE96 DUP2 PUSH2 0xE81 JUMP JUMPDEST DUP3 MSTORE POP POP JUMP JUMPDEST PUSH1 0x0 PUSH1 0x20 DUP3 ADD SWAP1 POP PUSH2 0xEB1 PUSH1 0x0 DUP4 ADD DUP5 PUSH2 0xE8D JUMP JUMPDEST SWAP3 SWAP2 POP POP JUMP JUMPDEST PUSH1 0x0 PUSH1 0x20 DUP3 DUP5 SUB SLT ISZERO PUSH2 0xECD JUMPI PUSH2 0xECC PUSH2 0xBC7 JUMP JUMPDEST JUMPDEST PUSH1 0x0 PUSH2 0xEDB DUP5 DUP3 DUP6 ADD PUSH2 0xD46 JUMP JUMPDEST SWAP2 POP POP SWAP3 SWAP2 POP POP JUMP JUMPDEST PUSH1 0x0 PUSH1 0x20 DUP3 DUP5 SUB SLT ISZERO PUSH2 0xEFA JUMPI PUSH2 0xEF9 PUSH2 0xBC7 JUMP JUMPDEST JUMPDEST PUSH1 0x0 PUSH2 0xF08 DUP5 DUP3 DUP6 ADD PUSH2 0xD7C JUMP JUMPDEST SWAP2 POP POP SWAP3 SWAP2 POP POP JUMP JUMPDEST PUSH2 0xF1A DUP2 PUSH2 0xD1D JUMP JUMPDEST DUP3 MSTORE POP POP JUMP JUMPDEST PUSH1 0x0 PUSH1 0x20 DUP3 ADD SWAP1 POP PUSH2 0xF35 PUSH1 0x0 DUP4 ADD DUP5 PUSH2 0xF11 JUMP JUMPDEST SWAP3 SWAP2 POP POP JUMP JUMPDEST PUSH1 0x0 PUSH2 0xF46 DUP3 PUSH2 0xCCF JUMP JUMPDEST SWAP1 POP SWAP2 SWAP1 POP JUMP JUMPDEST PUSH2 0xF56 DUP2 PUSH2 0xF3B JUMP JUMPDEST DUP3 MSTORE POP POP JUMP JUMPDEST PUSH1 0x0 PUSH1 0x20 DUP3 ADD SWAP1 POP PUSH2 0xF71 PUSH1 0x0 DUP4 ADD DUP5 PUSH2 0xF4D JUMP JUMPDEST SWAP3 SWAP2 POP POP JUMP JUMPDEST PUSH2 0xF80 DUP2 PUSH2 0xD5B JUMP JUMPDEST DUP3 MSTORE POP POP JUMP JUMPDEST PUSH1 0x0 PUSH1 0x20 DUP3 ADD SWAP1 POP PUSH2 0xF9B PUSH1 0x0 DUP4 ADD DUP5 PUSH2 0xF77 JUMP JUMPDEST SWAP3 SWAP2 POP POP JUMP JUMPDEST PUSH1 0x0 DUP2 MLOAD SWAP1 POP SWAP2 SWAP1 POP JUMP JUMPDEST PUSH1 0x0 DUP3 DUP3 MSTORE PUSH1 0x20 DUP3 ADD SWAP1 POP SWAP3 SWAP2 POP POP JUMP JUMPDEST PUSH1 0x0 DUP2 SWAP1 POP PUSH1 0x20 DUP3 ADD SWAP1 POP SWAP2 SWAP1 POP JUMP JUMPDEST PUSH2 0xFD6 DUP2 PUSH2 0xD1D JUMP JUMPDEST DUP3 MSTORE POP POP JUMP JUMPDEST PUSH1 0x0 PUSH2 0xFE8 DUP4 DUP4 PUSH2 0xFCD JUMP JUMPDEST PUSH1 0x20 DUP4 ADD SWAP1 POP SWAP3 SWAP2 POP POP JUMP JUMPDEST PUSH1 0x0 PUSH1 0x20 DUP3 ADD SWAP1 POP SWAP2 SWAP1 POP JUMP JUMPDEST PUSH1 0x0 PUSH2 0x100C DUP3 PUSH2 0xFA1 JUMP JUMPDEST PUSH2 0x1016 DUP2 DUP6 PUSH2 0xFAC JUMP JUMPDEST SWAP4 POP PUSH2 0x1021 DUP4 PUSH2 0xFBD JUMP JUMPDEST DUP1 PUSH1 0x0 JUMPDEST DUP4 DUP2 LT ISZERO PUSH2 0x1052 JUMPI DUP2 MLOAD PUSH2 0x1039 DUP9 DUP3 PUSH2 0xFDC JUMP JUMPDEST SWAP8 POP PUSH2 0x1044 DUP4 PUSH2 0xFF4 JUMP JUMPDEST SWAP3 POP POP PUSH1 0x1 DUP2 ADD SWAP1 POP PUSH2 0x1025 JUMP JUMPDEST POP DUP6 SWAP4 POP POP POP POP SWAP3 SWAP2 POP POP JUMP JUMPDEST PUSH1 0x0 PUSH1 0x20 DUP3 ADD SWAP1 POP DUP2 DUP2 SUB PUSH1 0x0 DUP4 ADD MSTORE PUSH2 0x1079 DUP2 DUP5 PUSH2 0x1001 JUMP JUMPDEST SWAP1 POP SWAP3 SWAP2 POP POP JUMP JUMPDEST PUSH1 0x0 DUP3 DUP3 MSTORE PUSH1 0x20 DUP3 ADD SWAP1 POP SWAP3 SWAP2 POP POP JUMP JUMPDEST PUSH32 0x43616C6C6572206D75737420626520504F4F4C00000000000000000000000000 PUSH1 0x0 DUP3 ADD MSTORE POP JUMP JUMPDEST PUSH1 0x0 PUSH2 0x10C8 PUSH1 0x13 DUP4 PUSH2 0x1081 JUMP JUMPDEST SWAP2 POP PUSH2 0x10D3 DUP3 PUSH2 0x1092 JUMP JUMPDEST PUSH1 0x20 DUP3 ADD SWAP1 POP SWAP2 SWAP1 POP JUMP JUMPDEST PUSH1 0x0 PUSH1 0x20 DUP3 ADD SWAP1 POP DUP2 DUP2 SUB PUSH1 0x0 DUP4 ADD MSTORE PUSH2 0x10F7 DUP2 PUSH2 0x10BB JUMP JUMPDEST SWAP1 POP SWAP2 SWAP1 POP JUMP JUMPDEST PUSH32 0x4F6E6C7920636F6E74726163742063616E20696E697469617465000000000000 PUSH1 0x0 DUP3 ADD MSTORE POP JUMP JUMPDEST PUSH1 0x0 PUSH2 0x1134 PUSH1 0x1A DUP4 PUSH2 0x1081 JUMP JUMPDEST SWAP2 POP PUSH2 0x113F DUP3 PUSH2 0x10FE JUMP JUMPDEST PUSH1 0x20 DUP3 ADD SWAP1 POP SWAP2 SWAP1 POP JUMP JUMPDEST PUSH1 0x0 PUSH1 0x20 DUP3 ADD SWAP1 POP DUP2 DUP2 SUB PUSH1 0x0 DUP4 ADD MSTORE PUSH2 0x1163 DUP2 PUSH2 0x1127 JUMP JUMPDEST SWAP1 POP SWAP2 SWAP1 POP JUMP JUMPDEST PUSH1 0x0 PUSH1 0x1F NOT PUSH1 0x1F DUP4 ADD AND SWAP1 POP SWAP2 SWAP1 POP JUMP JUMPDEST PUSH32 0x4E487B7100000000000000000000000000000000000000000000000000000000 PUSH1 0x0 MSTORE PUSH1 0x41 PUSH1 0x4 MSTORE PUSH1 0x24 PUSH1 0x0 REVERT JUMPDEST PUSH2 0x11B3 DUP3 PUSH2 0x116A JUMP JUMPDEST DUP2 ADD DUP2 DUP2 LT PUSH8 0xFFFFFFFFFFFFFFFF DUP3 GT OR ISZERO PUSH2 0x11D2 JUMPI PUSH2 0x11D1 PUSH2 0x117B JUMP JUMPDEST JUMPDEST DUP1 PUSH1 0x40 MSTORE POP POP POP JUMP JUMPDEST PUSH1 0x0 PUSH2 0x11E5 PUSH2 0xBBD JUMP JUMPDEST SWAP1 POP PUSH2 0x11F1 DUP3 DUP3 PUSH2 0x11AA JUMP JUMPDEST SWAP2 SWAP1 POP JUMP JUMPDEST PUSH1 0x0 PUSH8 0xFFFFFFFFFFFFFFFF DUP3 GT ISZERO PUSH2 0x1211 JUMPI PUSH2 0x1210 PUSH2 0x117B JUMP JUMPDEST JUMPDEST PUSH1 0x20 DUP3 MUL SWAP1 POP PUSH1 0x20 DUP2 ADD SWAP1 POP SWAP2 SWAP1 POP JUMP JUMPDEST PUSH1 0x0 PUSH2 0x1235 PUSH2 0x1230 DUP5 PUSH2 0x11F6 JUMP JUMPDEST PUSH2 0x11DB JUMP JUMPDEST SWAP1 POP DUP1 DUP4 DUP3 MSTORE PUSH1 0x20 DUP3 ADD SWAP1 POP PUSH1 0x20 DUP5 MUL DUP4 ADD DUP6 DUP2 GT ISZERO PUSH2 0x1258 JUMPI PUSH2 0x1257 PUSH2 0xBDB JUMP JUMPDEST JUMPDEST DUP4 JUMPDEST DUP2 DUP2 LT ISZERO PUSH2 0x1281 JUMPI DUP1 PUSH2 0x126D DUP9 DUP3 PUSH2 0xD46 JUMP JUMPDEST DUP5 MSTORE PUSH1 0x20 DUP5 ADD SWAP4 POP POP PUSH1 0x20 DUP2 ADD SWAP1 POP PUSH2 0x125A JUMP JUMPDEST POP POP POP SWAP4 SWAP3 POP POP POP JUMP JUMPDEST PUSH1 0x0 DUP3 PUSH1 0x1F DUP4 ADD SLT PUSH2 0x12A0 JUMPI PUSH2 0x129F PUSH2 0xBD1 JUMP JUMPDEST JUMPDEST DUP2 CALLDATALOAD PUSH2 0x12B0 DUP5 DUP3 PUSH1 0x20 DUP7 ADD PUSH2 0x1222 JUMP JUMPDEST SWAP2 POP POP SWAP3 SWAP2 POP POP JUMP JUMPDEST PUSH1 0x0 PUSH2 0x12C4 DUP3 PUSH2 0xC83 JUMP JUMPDEST SWAP1 POP SWAP2 SWAP1 POP JUMP JUMPDEST PUSH2 0x12D4 DUP2 PUSH2 0x12B9 JUMP JUMPDEST DUP2 EQ PUSH2 0x12DF JUMPI PUSH1 0x0 DUP1 REVERT JUMPDEST POP JUMP JUMPDEST PUSH1 0x0 DUP2 CALLDATALOAD SWAP1 POP PUSH2 0x12F1 DUP2 PUSH2 0x12CB JUMP JUMPDEST SWAP3 SWAP2 POP POP JUMP JUMPDEST PUSH1 0x0 DUP1 PUSH1 0x0 DUP1 PUSH1 0x80 DUP6 DUP8 SUB SLT ISZERO PUSH2 0x1311 JUMPI PUSH2 0x1310 PUSH2 0xBC7 JUMP JUMPDEST JUMPDEST PUSH1 0x0 DUP6 ADD CALLDATALOAD PUSH8 0xFFFFFFFFFFFFFFFF DUP2 GT ISZERO PUSH2 0x132F JUMPI PUSH2 0x132E PUSH2 0xBCC JUMP JUMPDEST JUMPDEST PUSH2 0x133B DUP8 DUP3 DUP9 ADD PUSH2 0x128B JUMP JUMPDEST SWAP5 POP POP PUSH1 0x20 DUP6 ADD CALLDATALOAD PUSH8 0xFFFFFFFFFFFFFFFF DUP2 GT ISZERO PUSH2 0x135C JUMPI PUSH2 0x135B PUSH2 0xBCC JUMP JUMPDEST JUMPDEST PUSH2 0x1368 DUP8 DUP3 DUP9 ADD PUSH2 0x128B JUMP JUMPDEST SWAP4 POP POP PUSH1 0x40 PUSH2 0x1379 DUP8 DUP3 DUP9 ADD PUSH2 0x12E2 JUMP JUMPDEST SWAP3 POP POP PUSH1 0x60 PUSH2 0x138A DUP8 DUP3 DUP9 ADD PUSH2 0x12E2 JUMP JUMPDEST SWAP2 POP POP SWAP3 SWAP6 SWAP2 SWAP5 POP SWAP3 POP JUMP JUMPDEST PUSH1 0x0 PUSH1 0x40 DUP3 ADD SWAP1 POP PUSH2 0x13AB PUSH1 0x0 DUP4 ADD DUP6 PUSH2 0xF11 JUMP JUMPDEST PUSH2 0x13B8 PUSH1 0x20 DUP4 ADD DUP5 PUSH2 0xF77 JUMP JUMPDEST SWAP4 SWAP3 POP POP POP JUMP JUMPDEST PUSH2 0x13C8 DUP2 PUSH2 0xE81 JUMP JUMPDEST DUP2 EQ PUSH2 0x13D3 JUMPI PUSH1 0x0 DUP1 REVERT JUMPDEST POP JUMP JUMPDEST PUSH1 0x0 DUP2 MLOAD SWAP1 POP PUSH2 0x13E5 DUP2 PUSH2 0x13BF JUMP JUMPDEST SWAP3 SWAP2 POP POP JUMP JUMPDEST PUSH1 0x0 PUSH1 0x20 DUP3 DUP5 SUB SLT ISZERO PUSH2 0x1401 JUMPI PUSH2 0x1400 PUSH2 0xBC7 JUMP JUMPDEST JUMPDEST PUSH1 0x0 PUSH2 0x140F DUP5 DUP3 DUP6 ADD PUSH2 0x13D6 JUMP JUMPDEST SWAP2 POP POP SWAP3 SWAP2 POP POP JUMP JUMPDEST PUSH32 0x4E487B7100000000000000000000000000000000000000000000000000000000 PUSH1 0x0 MSTORE PUSH1 0x11 PUSH1 0x4 MSTORE PUSH1 0x24 PUSH1 0x0 REVERT JUMPDEST PUSH1 0x0 PUSH2 0x1452 DUP3 PUSH2 0xD5B JUMP JUMPDEST SWAP2 POP PUSH2 0x145D DUP4 PUSH2 0xD5B JUMP JUMPDEST SWAP3 POP DUP3 DUP3 SUB SWAP1 POP DUP2 DUP2 GT ISZERO PUSH2 0x1475 JUMPI PUSH2 0x1474 PUSH2 0x1418 JUMP JUMPDEST JUMPDEST SWAP3 SWAP2 POP POP JUMP JUMPDEST PUSH32 0x4E487B7100000000000000000000000000000000000000000000000000000000 PUSH1 0x0 MSTORE PUSH1 0x32 PUSH1 0x4 MSTORE PUSH1 0x24 PUSH1 0x0 REVERT JUMPDEST PUSH1 0x0 PUSH2 0x14B5 DUP3 PUSH2 0xD5B JUMP JUMPDEST SWAP2 POP PUSH2 0x14C0 DUP4 PUSH2 0xD5B JUMP JUMPDEST SWAP3 POP DUP3 DUP3 ADD SWAP1 POP DUP1 DUP3 GT ISZERO PUSH2 0x14D8 JUMPI PUSH2 0x14D7 PUSH2 0x1418 JUMP JUMPDEST JUMPDEST SWAP3 SWAP2 POP POP JUMP JUMPDEST PUSH32 0x4E6F742070726F66697461626C65000000000000000000000000000000000000 PUSH1 0x0 DUP3 ADD MSTORE POP JUMP JUMPDEST PUSH1 0x0 PUSH2 0x1514 PUSH1 0xE DUP4 PUSH2 0x1081 JUMP JUMPDEST SWAP2 POP PUSH2 0x151F DUP3 PUSH2 0x14DE JUMP JUMPDEST PUSH1 0x20 DUP3 ADD SWAP1 POP SWAP2 SWAP1 POP JUMP JUMPDEST PUSH1 0x0 PUSH1 0x20 DUP3 ADD SWAP1 POP DUP2 DUP2 SUB PUSH1 0x0 DUP4 ADD MSTORE PUSH2 0x1543 DUP2 PUSH2 0x1507 JUMP JUMPDEST SWAP1 POP SWAP2 SWAP1 POP JUMP JUMPDEST PUSH1 0x0 PUSH1 0x80 DUP3 ADD SWAP1 POP PUSH2 0x155F PUSH1 0x0 DUP4 ADD DUP8 PUSH2 0xF77 JUMP JUMPDEST PUSH2 0x156C PUSH1 0x20 DUP4 ADD DUP7 PUSH2 0xF11 JUMP JUMPDEST PUSH2 0x1579 PUSH1 0x40 DUP4 ADD DUP6 PUSH2 0xF11 JUMP JUMPDEST PUSH2 0x1586 PUSH1 0x60 DUP4 ADD DUP5 PUSH2 0xF11 JUMP JUMPDEST SWAP6 SWAP5 POP POP POP POP POP JUMP JUMPDEST PUSH1 0x0 DUP2 MLOAD SWAP1 POP PUSH2 0x159E DUP2 PUSH2 0xD65 JUMP JUMPDEST SWAP3 SWAP2 POP POP JUMP JUMPDEST PUSH1 0x0 PUSH1 0x20 DUP3 DUP5 SUB SLT ISZERO PUSH2 0x15BA JUMPI PUSH2 0x15B9 PUSH2 0xBC7 JUMP JUMPDEST JUMPDEST PUSH1 0x0 PUSH2 0x15C8 DUP5 DUP3 DUP6 ADD PUSH2 0x158F JUMP JUMPDEST SWAP2 POP POP SWAP3 SWAP2 POP POP JUMP JUMPDEST PUSH32 0x4F776E61626C653A206E6577206F776E657220697320746865207A65726F2061 PUSH1 0x0 DUP3 ADD MSTORE PUSH32 0x6464726573730000000000000000000000000000000000000000000000000000 PUSH1 0x20 DUP3 ADD MSTORE POP JUMP JUMPDEST PUSH1 0x0 PUSH2 0x162D PUSH1 0x26 DUP4 PUSH2 0x1081 JUMP JUMPDEST SWAP2 POP PUSH2 0x1638 DUP3 PUSH2 0x15D1 JUMP JUMPDEST PUSH1 0x40 DUP3 ADD SWAP1 POP SWAP2 SWAP1 POP JUMP JUMPDEST PUSH1 0x0 PUSH1 0x20 DUP3 ADD SWAP1 POP DUP2 DUP2 SUB PUSH1 0x0 DUP4 ADD MSTORE PUSH2 0x165C DUP2 PUSH2 0x1620 JUMP JUMPDEST SWAP1 POP SWAP2 SWAP1 POP JUMP JUMPDEST PUSH32 0x4F776E61626C653A2063616C6C6572206973206E6F7420746865206F776E6572 PUSH1 0x0 DUP3 ADD MSTORE POP JUMP JUMPDEST PUSH1 0x0 PUSH2 0x1699 PUSH1 0x20 DUP4 PUSH2 0x1081 JUMP JUMPDEST SWAP2 POP PUSH2 0x16A4 DUP3 PUSH2 0x1663 JUMP JUMPDEST PUSH1 0x20 DUP3 ADD SWAP1 POP SWAP2 SWAP1 POP JUMP JUMPDEST PUSH1 0x0 PUSH1 0x20 DUP3 ADD SWAP1 POP DUP2 DUP2 SUB PUSH1 0x0 DUP4 ADD MSTORE PUSH2 0x16C8 DUP2 PUSH2 0x168C JUMP JUMPDEST SWAP1 POP SWAP2 SWAP1 POP JUMP JUMPDEST PUSH1 0x0 DUP2 SWAP1 POP SWAP2 SWAP1 POP JUMP JUMPDEST PUSH1 0x0 PUSH2 0x16F4 PUSH2 0x16EF PUSH2 0x16EA DUP5 PUSH2 0x16CF JUMP JUMPDEST PUSH2 0xCA3 JUMP JUMPDEST PUSH2 0xD5B JUMP JUMPDEST SWAP1 POP SWAP2 SWAP1 POP JUMP JUMPDEST PUSH2 0x1704 DUP2 PUSH2 0x16D9 JUMP JUMPDEST DUP3 MSTORE POP POP JUMP JUMPDEST PUSH1 0x0 PUSH1 0xA0 DUP3 ADD SWAP1 POP PUSH2 0x171F PUSH1 0x0 DUP4 ADD DUP9 PUSH2 0xF77 JUMP JUMPDEST PUSH2 0x172C PUSH1 0x20 DUP4 ADD DUP8 PUSH2 0x16FB JUMP JUMPDEST DUP2 DUP2 SUB PUSH1 0x40 DUP4 ADD MSTORE PUSH2 0x173E DUP2 DUP7 PUSH2 0x1001 JUMP JUMPDEST SWAP1 POP PUSH2 0x174D PUSH1 0x60 DUP4 ADD DUP6 PUSH2 0xF11 JUMP JUMPDEST PUSH2 0x175A PUSH1 0x80 DUP4 ADD DUP5 PUSH2 0xF77 JUMP JUMPDEST SWAP7 SWAP6 POP POP POP POP POP POP JUMP JUMPDEST PUSH1 0x0 PUSH8 0xFFFFFFFFFFFFFFFF DUP3 GT ISZERO PUSH2 0x177F JUMPI PUSH2 0x177E PUSH2 0x117B JUMP JUMPDEST JUMPDEST PUSH1 0x20 DUP3 MUL SWAP1 POP PUSH1 0x20 DUP2 ADD SWAP1 POP SWAP2 SWAP1 POP JUMP JUMPDEST PUSH1 0x0 PUSH2 0x17A3 PUSH2 0x179E DUP5 PUSH2 0x1764 JUMP JUMPDEST PUSH2 0x11DB JUMP JUMPDEST SWAP1 POP DUP1 DUP4 DUP3 MSTORE PUSH1 0x20 DUP3 ADD SWAP1 POP PUSH1 0x20 DUP5 MUL DUP4 ADD DUP6 DUP2 GT ISZERO PUSH2 0x17C6 JUMPI PUSH2 0x17C5 PUSH2 0xBDB JUMP JUMPDEST JUMPDEST DUP4 JUMPDEST DUP2 DUP2 LT ISZERO PUSH2 0x17EF JUMPI DUP1 PUSH2 0x17DB DUP9 DUP3 PUSH2 0x158F JUMP JUMPDEST DUP5 MSTORE PUSH1 0x20 DUP5 ADD SWAP4 POP POP PUSH1 0x20 DUP2 ADD SWAP1 POP PUSH2 0x17C8 JUMP JUMPDEST POP POP POP SWAP4 SWAP3 POP POP POP JUMP JUMPDEST PUSH1 0x0 DUP3 PUSH1 0x1F DUP4 ADD SLT PUSH2 0x180E JUMPI PUSH2 0x180D PUSH2 0xBD1 JUMP JUMPDEST JUMPDEST DUP2 MLOAD PUSH2 0x181E DUP5 DUP3 PUSH1 0x20 DUP7 ADD PUSH2 0x1790 JUMP JUMPDEST SWAP2 POP POP SWAP3 SWAP2 POP POP JUMP JUMPDEST PUSH1 0x0 PUSH1 0x20 DUP3 DUP5 SUB SLT ISZERO PUSH2 0x183D JUMPI PUSH2 0x183C PUSH2 0xBC7 JUMP JUMPDEST JUMPDEST PUSH1 0x0 DUP3 ADD MLOAD PUSH8 0xFFFFFFFFFFFFFFFF DUP2 GT ISZERO PUSH2 0x185B JUMPI PUSH2 0x185A PUSH2 0xBCC JUMP JUMPDEST JUMPDEST PUSH2 0x1867 DUP5 DUP3 DUP6 ADD PUSH2 0x17F9 JUMP JUMPDEST SWAP2 POP POP SWAP3 SWAP2 POP POP JUMP INVALID LOG2 PUSH5 0x6970667358 0x22 SLT KECCAK256 0xCE 0xB5 0xA7 0x1E 0x49 CALLDATALOAD 0xD0 SELFDESTRUCT SGT 0x2E XOR PUSH13 0x72145468EB4259CF3F1A967FA8 0xD3 DUP8 SELFBALANCE MLOAD 0xFB SAR 0x2D PUSH5 0x736F6C6343 STOP ADDMOD EQ STOP CALLER "},"methodIdentifiers":{"ADDRESSES_PROVIDER()":"0542975c","POOL()":"7535d246","executeOperation(address,uint256,uint256,address,bytes)":"1b11d0ff","getRouters()":"f88c31ce","minProfit()":"75c81ad0","owner()":"8da5cb5b","renounceOwnership()":"715018a6","routers(uint256)":"4e9c1118","setMinProfit(uint256)":"78400f17","setRouters(address[])":"00b439f9","transferOwnership(address)":"f2fde38b","withdrawTokens(address)":"49df728c"}}}}}