{"contracts/MultiPairFlashArbitrage.sol":{"MultiPairFlashArbitrage":{"abi":[{"inputs":[{"internalType":"address","name":"_addressProvider","type":"address"},{"internalType":"address[]","name":"routerAddresses","type":"address[]"},{"internalType":"uint256","name":"_minProfit","type":"uint256"}],"stateMutability":"nonpayable","type":"constructor"},{"inputs":[],"name":"POOL","outputs":[{"internalType":"address","name":"","type":"address"}],"stateMutability":"view","type":"function"},{"inputs":[{"internalType":"address","name":"token0","type":"address"},{"internalType":"address","name":"token1","type":"address"},{"internalType":"address","name":"router0","type":"address"},{"internalType":"address","name":"router1","type":"address"}],"name":"executeFlashArbitrage","outputs":[],"stateMutability":"nonpayable","type":"function"},{"inputs":[{"internalType":"address","name":"asset","type":"address"},{"internalType":"uint256","name":"amount","type":"uint256"},{"internalType":"uint256","name":"premium","type":"uint256"},{"internalType":"address","name":"initiator","type":"address"},{"internalType":"bytes","name":"params","type":"bytes"}],"name":"executeOperation","outputs":[{"internalType":"bool","name":"","type":"bool"}],"stateMutability":"nonpayable","type":"function"},{"inputs":[],"name":"minProfit","outputs":[{"internalType":"uint256","name":"","type":"uint256"}],"stateMutability":"view","type":"function"},{"inputs":[{"internalType":"address","name":"","type":"address"}],"name":"whitelistedRouters","outputs":[{"internalType":"bool","name":"","type":"bool"}],"stateMutability":"view","type":"function"}],"evm":{"bytecode":{"linkReferences":{},"object":"60c06040523480156200001157600080fd5b50604051620020a4380380620020a48339818101604052810190620000379190620003ae565b8273ffffffffffffffffffffffffffffffffffffffff1663026b1d5f6040518163ffffffff1660e01b8152600401602060405180830381865afa15801562000083573d6000803e3d6000fd5b505050506040513d601f19601f82011682018060405250810190620000a9919062000429565b73ffffffffffffffffffffffffffffffffffffffff1660808173ffffffffffffffffffffffffffffffffffffffff168152505060005b8251811015620001735760016000808584815181106200010457620001036200045b565b5b602002602001015173ffffffffffffffffffffffffffffffffffffffff1673ffffffffffffffffffffffffffffffffffffffff16815260200190815260200160002060006101000a81548160ff02191690831515021790555080806200016a90620004b9565b915050620000df565b508060a0818152505050505062000506565b6000604051905090565b600080fd5b600080fd5b600073ffffffffffffffffffffffffffffffffffffffff82169050919050565b6000620001c68262000199565b9050919050565b620001d881620001b9565b8114620001e457600080fd5b50565b600081519050620001f881620001cd565b92915050565b600080fd5b6000601f19601f8301169050919050565b7f4e487b7100000000000000000000000000000000000000000000000000000000600052604160045260246000fd5b6200024e8262000203565b810181811067ffffffffffffffff8211171562000270576200026f62000214565b5b80604052505050565b60006200028562000185565b905062000293828262000243565b919050565b600067ffffffffffffffff821115620002b657620002b562000214565b5b602082029050602081019050919050565b600080fd5b6000620002e3620002dd8462000298565b62000279565b90508083825260208201905060208402830185811115620003095762000308620002c7565b5b835b81811015620003365780620003218882620001e7565b8452602084019350506020810190506200030b565b5050509392505050565b600082601f830112620003585762000357620001fe565b5b81516200036a848260208601620002cc565b91505092915050565b6000819050919050565b620003888162000373565b81146200039457600080fd5b50565b600081519050620003a8816200037d565b92915050565b600080600060608486031215620003ca57620003c96200018f565b5b6000620003da86828701620001e7565b935050602084015167ffffffffffffffff811115620003fe57620003fd62000194565b5b6200040c8682870162000340565b92505060406200041f8682870162000397565b9150509250925092565b6000602082840312156200044257620004416200018f565b5b60006200045284828501620001e7565b91505092915050565b7f4e487b7100000000000000000000000000000000000000000000000000000000600052603260045260246000fd5b7f4e487b7100000000000000000000000000000000000000000000000000000000600052601160045260246000fd5b6000620004c68262000373565b91507fffffffffffffffffffffffffffffffffffffffffffffffffffffffffffffffff8203620004fb57620004fa6200048a565b5b600182019050919050565b60805160a051611b5c62000548600039600081816106390152610781015260008181610138015281816106c70152818161075d0152610c6f0152611b5c6000f3fe608060405234801561001057600080fd5b50600436106100575760003560e01c80630f874a131461005c5780631b11d0ff1461008c5780637535d246146100bc57806375c81ad0146100da5780639ecb6910146100f8575b600080fd5b61007660048036038101906100719190610d78565b610114565b6040516100839190610dc0565b60405180910390f35b6100a660048036038101906100a19190610e76565b610134565b6040516100b39190610dc0565b60405180910390f35b6100c461075b565b6040516100d19190610f1f565b60405180910390f35b6100e261077f565b6040516100ef9190610f49565b60405180910390f35b610112600480360381019061010d9190610f64565b6107a3565b005b60006020528060005260406000206000915054906101000a900460ff1681565b60007f000000000000000000000000000000000000000000000000000000000000000073ffffffffffffffffffffffffffffffffffffffff163373ffffffffffffffffffffffffffffffffffffffff16146101c4576040517f08c379a00000000000000000000000000000000000000000000000000000000081526004016101bb90611028565b60405180910390fd5b3073ffffffffffffffffffffffffffffffffffffffff168473ffffffffffffffffffffffffffffffffffffffff1614610232576040517f08c379a000000000000000000000000000000000000000000000000000000000815260040161022990611094565b60405180910390fd5b6000838381019061024391906111bd565b9050600080826040015173ffffffffffffffffffffffffffffffffffffffff1673ffffffffffffffffffffffffffffffffffffffff16815260200190815260200160002060009054906101000a900460ff166102d4576040517f08c379a00000000000000000000000000000000000000000000000000000000081526004016102cb90611236565b60405180910390fd5b600080826060015173ffffffffffffffffffffffffffffffffffffffff1673ffffffffffffffffffffffffffffffffffffffff16815260200190815260200160002060009054906101000a900460ff16610363576040517f08c379a000000000000000000000000000000000000000000000000000000000815260040161035a906112a2565b60405180910390fd5b6000816000015173ffffffffffffffffffffffffffffffffffffffff166370a08231306040518263ffffffff1660e01b81526004016103a29190610f1f565b602060405180830381865afa1580156103bf573d6000803e3d6000fd5b505050506040513d601f19601f820116820180604052508101906103e391906112d7565b9050816000015173ffffffffffffffffffffffffffffffffffffffff1663095ea7b383604001518a6040518363ffffffff1660e01b8152600401610428929190611304565b6020604051808303816000875af1158015610447573d6000803e3d6000fd5b505050506040513d601f19601f8201168201806040525081019061046b9190611359565b5061048482604001518984600001518560200151610a36565b6000826020015173ffffffffffffffffffffffffffffffffffffffff166370a08231306040518263ffffffff1660e01b81526004016104c39190610f1f565b602060405180830381865afa1580156104e0573d6000803e3d6000fd5b505050506040513d601f19601f8201168201806040525081019061050491906112d7565b9050826020015173ffffffffffffffffffffffffffffffffffffffff1663095ea7b38460600151836040518363ffffffff1660e01b8152600401610549929190611304565b6020604051808303816000875af1158015610568573d6000803e3d6000fd5b505050506040513d601f19601f8201168201806040525081019061058c9190611359565b506105a583606001518285602001518660000151610a36565b6000836000015173ffffffffffffffffffffffffffffffffffffffff166370a08231306040518263ffffffff1660e01b81526004016105e49190610f1f565b602060405180830381865afa158015610601573d6000803e3d6000fd5b505050506040513d601f19601f8201168201806040525081019061062591906112d7565b90506000898b61063591906113b5565b90507f00000000000000000000000000000000000000000000000000000000000000008161066391906113b5565b8210156106a5576040517f08c379a000000000000000000000000000000000000000000000000000000000815260040161069c90611435565b60405180910390fd5b846000015173ffffffffffffffffffffffffffffffffffffffff1663095ea7b37f0000000000000000000000000000000000000000000000000000000000000000836040518363ffffffff1660e01b8152600401610704929190611304565b6020604051808303816000875af1158015610723573d6000803e3d6000fd5b505050506040513d601f19601f820116820180604052508101906107479190611359565b506001955050505050509695505050505050565b7f000000000000000000000000000000000000000000000000000000000000000081565b7f000000000000000000000000000000000000000000000000000000000000000081565b600073ffffffffffffffffffffffffffffffffffffffff168473ffffffffffffffffffffffffffffffffffffffff161415801561080d5750600073ffffffffffffffffffffffffffffffffffffffff168373ffffffffffffffffffffffffffffffffffffffff1614155b61084c576040517f08c379a0000000000000000000000000000000000000000000000000000000008152600401610843906114a1565b60405180910390fd5b600073ffffffffffffffffffffffffffffffffffffffff168273ffffffffffffffffffffffffffffffffffffffff16141580156108b65750600073ffffffffffffffffffffffffffffffffffffffff168173ffffffffffffffffffffffffffffffffffffffff1614155b6108f5576040517f08c379a00000000000000000000000000000000000000000000000000000000081526004016108ec9061150d565b60405180910390fd5b600060405180608001604052808673ffffffffffffffffffffffffffffffffffffffff1681526020018573ffffffffffffffffffffffffffffffffffffffff1681526020018473ffffffffffffffffffffffffffffffffffffffff1681526020018373ffffffffffffffffffffffffffffffffffffffff1681525090506000816040516020016109859190611591565b604051602081830303815290604052905060008673ffffffffffffffffffffffffffffffffffffffff1663313ce5676040518163ffffffff1660e01b8152600401602060405180830381865afa1580156109e3573d6000803e3d6000fd5b505050506040513d601f19601f82011682018060405250810190610a0791906115e5565b600a610a139190611745565b6103e8610a209190611790565b9050610a2d878284610c6d565b50505050505050565b6000600267ffffffffffffffff811115610a5357610a526110ca565b5b604051908082528060200260200182016040528015610a815781602001602082028036833780820191505090505b5090508281600081518110610a9957610a986117d2565b5b602002602001019073ffffffffffffffffffffffffffffffffffffffff16908173ffffffffffffffffffffffffffffffffffffffff16815250508181600181518110610ae857610ae76117d2565b5b602002602001019073ffffffffffffffffffffffffffffffffffffffff16908173ffffffffffffffffffffffffffffffffffffffff168152505060008573ffffffffffffffffffffffffffffffffffffffff16856000843042604051602401610b559594939291906118f5565b6040516020818303038152906040527f38ed1739000000000000000000000000000000000000000000000000000000007bffffffffffffffffffffffffffffffffffffffffffffffffffffffff19166020820180517bffffffffffffffffffffffffffffffffffffffffffffffffffffffff8381831617835250505050604051610bdf91906119c0565b6000604051808303816000865af19150503d8060008114610c1c576040519150601f19603f3d011682016040523d82523d6000602084013e610c21565b606091505b5050905080610c65576040517f08c379a0000000000000000000000000000000000000000000000000000000008152600401610c5c90611a23565b60405180910390fd5b505050505050565b7f000000000000000000000000000000000000000000000000000000000000000073ffffffffffffffffffffffffffffffffffffffff166342b0b77c3085858560006040518663ffffffff1660e01b8152600401610ccf959493929190611acc565b600060405180830381600087803b158015610ce957600080fd5b505af1158015610cfd573d6000803e3d6000fd5b50505050505050565b6000604051905090565b600080fd5b600080fd5b600073ffffffffffffffffffffffffffffffffffffffff82169050919050565b6000610d4582610d1a565b9050919050565b610d5581610d3a565b8114610d6057600080fd5b50565b600081359050610d7281610d4c565b92915050565b600060208284031215610d8e57610d8d610d10565b5b6000610d9c84828501610d63565b91505092915050565b60008115159050919050565b610dba81610da5565b82525050565b6000602082019050610dd56000830184610db1565b92915050565b6000819050919050565b610dee81610ddb565b8114610df957600080fd5b50565b600081359050610e0b81610de5565b92915050565b600080fd5b600080fd5b600080fd5b60008083601f840112610e3657610e35610e11565b5b8235905067ffffffffffffffff811115610e5357610e52610e16565b5b602083019150836001820283011115610e6f57610e6e610e1b565b5b9250929050565b60008060008060008060a08789031215610e9357610e92610d10565b5b6000610ea189828a01610d63565b9650506020610eb289828a01610dfc565b9550506040610ec389828a01610dfc565b9450506060610ed489828a01610d63565b935050608087013567ffffffffffffffff811115610ef557610ef4610d15565b5b610f0189828a01610e20565b92509250509295509295509295565b610f1981610d3a565b82525050565b6000602082019050610f346000830184610f10565b92915050565b610f4381610ddb565b82525050565b6000602082019050610f5e6000830184610f3a565b92915050565b60008060008060808587031215610f7e57610f7d610d10565b5b6000610f8c87828801610d63565b9450506020610f9d87828801610d63565b9350506040610fae87828801610d63565b9250506060610fbf87828801610d63565b91505092959194509250565b600082825260208201905092915050565b7f4f6e6c7920706f6f6c2063616e2063616c6c0000000000000000000000000000600082015250565b6000611012601283610fcb565b915061101d82610fdc565b602082019050919050565b6000602082019050818103600083015261104181611005565b9050919050565b7f4f6e6c792073656c6620696e6974696174656400000000000000000000000000600082015250565b600061107e601383610fcb565b915061108982611048565b602082019050919050565b600060208201905081810360008301526110ad81611071565b9050919050565b600080fd5b6000601f19601f8301169050919050565b7f4e487b7100000000000000000000000000000000000000000000000000000000600052604160045260246000fd5b611102826110b9565b810181811067ffffffffffffffff82111715611121576111206110ca565b5b80604052505050565b6000611134610d06565b905061114082826110f9565b919050565b60006080828403121561115b5761115a6110b4565b5b611165608061112a565b9050600061117584828501610d63565b600083015250602061118984828501610d63565b602083015250604061119d84828501610d63565b60408301525060606111b184828501610d63565b60608301525092915050565b6000608082840312156111d3576111d2610d10565b5b60006111e184828501611145565b91505092915050565b7f526f7574657230206e6f742077686974656c6973746564000000000000000000600082015250565b6000611220601783610fcb565b915061122b826111ea565b602082019050919050565b6000602082019050818103600083015261124f81611213565b9050919050565b7f526f7574657231206e6f742077686974656c6973746564000000000000000000600082015250565b600061128c601783610fcb565b915061129782611256565b602082019050919050565b600060208201905081810360008301526112bb8161127f565b9050919050565b6000815190506112d181610de5565b92915050565b6000602082840312156112ed576112ec610d10565b5b60006112fb848285016112c2565b91505092915050565b60006040820190506113196000830185610f10565b6113266020830184610f3a565b9392505050565b61133681610da5565b811461134157600080fd5b50565b6000815190506113538161132d565b92915050565b60006020828403121561136f5761136e610d10565b5b600061137d84828501611344565b91505092915050565b7f4e487b7100000000000000000000000000000000000000000000000000000000600052601160045260246000fd5b60006113c082610ddb565b91506113cb83610ddb565b92508282019050808211156113e3576113e2611386565b5b92915050565b7f4e6f742070726f66697461626c65000000000000000000000000000000000000600082015250565b600061141f600e83610fcb565b915061142a826113e9565b602082019050919050565b6000602082019050818103600083015261144e81611412565b9050919050565b7f496e76616c696420746f6b656e20616464726573736573000000000000000000600082015250565b600061148b601783610fcb565b915061149682611455565b602082019050919050565b600060208201905081810360008301526114ba8161147e565b9050919050565b7f496e76616c696420726f75746572206164647265737365730000000000000000600082015250565b60006114f7601883610fcb565b9150611502826114c1565b602082019050919050565b60006020820190508181036000830152611526816114ea565b9050919050565b61153681610d3a565b82525050565b608082016000820151611552600085018261152d565b506020820151611565602085018261152d565b506040820151611578604085018261152d565b50606082015161158b606085018261152d565b50505050565b60006080820190506115a6600083018461153c565b92915050565b600060ff82169050919050565b6115c2816115ac565b81146115cd57600080fd5b50565b6000815190506115df816115b9565b92915050565b6000602082840312156115fb576115fa610d10565b5b6000611609848285016115d0565b91505092915050565b60008160011c9050919050565b6000808291508390505b60018511156116695780860481111561164557611644611386565b5b60018516156116545780820291505b808102905061166285611612565b9450611629565b94509492505050565b600082611682576001905061173e565b81611690576000905061173e565b81600181146116a657600281146116b0576116df565b600191505061173e565b60ff8411156116c2576116c1611386565b5b8360020a9150848211156116d9576116d8611386565b5b5061173e565b5060208310610133831016604e8410600b84101617156117145782820a90508381111561170f5761170e611386565b5b61173e565b611721848484600161161f565b9250905081840481111561173857611737611386565b5b81810290505b9392505050565b600061175082610ddb565b915061175b836115ac565b92506117887fffffffffffffffffffffffffffffffffffffffffffffffffffffffffffffffff8484611672565b905092915050565b600061179b82610ddb565b91506117a683610ddb565b92508282026117b481610ddb565b915082820484148315176117cb576117ca611386565b5b5092915050565b7f4e487b7100000000000000000000000000000000000000000000000000000000600052603260045260246000fd5b6000819050919050565b6000819050919050565b600061183061182b61182684611801565b61180b565b6115ac565b9050919050565b61184081611815565b82525050565b600081519050919050565b600082825260208201905092915050565b6000819050602082019050919050565b600061187e838361152d565b60208301905092915050565b6000602082019050919050565b60006118a282611846565b6118ac8185611851565b93506118b783611862565b8060005b838110156118e85781516118cf8882611872565b97506118da8361188a565b9250506001810190506118bb565b5085935050505092915050565b600060a08201905061190a6000830188610f3a565b6119176020830187611837565b81810360408301526119298186611897565b90506119386060830185610f10565b6119456080830184610f3a565b9695505050505050565b600081519050919050565b600081905092915050565b60005b83811015611983578082015181840152602081019050611968565b60008484015250505050565b600061199a8261194f565b6119a4818561195a565b93506119b4818560208601611965565b80840191505092915050565b60006119cc828461198f565b915081905092915050565b7f53776170206661696c6564000000000000000000000000000000000000000000600082015250565b6000611a0d600b83610fcb565b9150611a18826119d7565b602082019050919050565b60006020820190508181036000830152611a3c81611a00565b9050919050565b600082825260208201905092915050565b6000611a5f8261194f565b611a698185611a43565b9350611a79818560208601611965565b611a82816110b9565b840191505092915050565b600061ffff82169050919050565b6000611ab6611ab1611aac84611801565b61180b565b611a8d565b9050919050565b611ac681611a9b565b82525050565b600060a082019050611ae16000830188610f10565b611aee6020830187610f10565b611afb6040830186610f3a565b8181036060830152611b0d8185611a54565b9050611b1c6080830184611abd565b969550505050505056fea2646970667358221220428375962b3e76f2701be6fba52d06be947a3694ce2b130fec17105d8b9fdaf464736f6c63430008140033","opcodes":"PUSH1 0xC0 PUSH1 0x40 MSTORE CALLVALUE DUP1 ISZERO PUSH3 0x11 JUMPI PUSH1 0x0 DUP1 REVERT JUMPDEST POP PUSH1 0x40 MLOAD PUSH3 0x20A4 CODESIZE SUB DUP1 PUSH3 0x20A4 DUP4 CODECOPY DUP2 DUP2 ADD PUSH1 0x40 MSTORE DUP2 ADD SWAP1 PUSH3 0x37 SWAP2 SWAP1 PUSH3 0x3AE JUMP JUMPDEST DUP3 PUSH20 0xFFFFFFFFFFFFFFFFFFFFFFFFFFFFFFFFFFFFFFFF AND PUSH4 0x26B1D5F PUSH1 0x40 MLOAD DUP2 PUSH4 0xFFFFFFFF AND PUSH1 0xE0 SHL DUP2 MSTORE PUSH1 0x4 ADD PUSH1 0x20 PUSH1 0x40 MLOAD DUP1 DUP4 SUB DUP2 DUP7 GAS STATICCALL ISZERO DUP1 ISZERO PUSH3 0x83 JUMPI RETURNDATASIZE PUSH1 0x0 DUP1 RETURNDATACOPY RETURNDATASIZE PUSH1 0x0 REVERT JUMPDEST POP POP POP POP PUSH1 0x40 MLOAD RETURNDATASIZE PUSH1 0x1F NOT PUSH1 0x1F DUP3 ADD AND DUP3 ADD DUP1 PUSH1 0x40 MSTORE POP DUP2 ADD SWAP1 PUSH3 0xA9 SWAP2 SWAP1 PUSH3 0x429 JUMP JUMPDEST PUSH20 0xFFFFFFFFFFFFFFFFFFFFFFFFFFFFFFFFFFFFFFFF AND PUSH1 0x80 DUP2 PUSH20 0xFFFFFFFFFFFFFFFFFFFFFFFFFFFFFFFFFFFFFFFF AND DUP2 MSTORE POP POP PUSH1 0x0 JUMPDEST DUP3 MLOAD DUP2 LT ISZERO PUSH3 0x173 JUMPI PUSH1 0x1 PUSH1 0x0 DUP1 DUP6 DUP5 DUP2 MLOAD DUP2 LT PUSH3 0x104 JUMPI PUSH3 0x103 PUSH3 0x45B JUMP JUMPDEST JUMPDEST PUSH1 0x20 MUL PUSH1 0x20 ADD ADD MLOAD PUSH20 0xFFFFFFFFFFFFFFFFFFFFFFFFFFFFFFFFFFFFFFFF AND PUSH20 0xFFFFFFFFFFFFFFFFFFFFFFFFFFFFFFFFFFFFFFFF AND DUP2 MSTORE PUSH1 0x20 ADD SWAP1 DUP2 MSTORE PUSH1 0x20 ADD PUSH1 0x0 KECCAK256 PUSH1 0x0 PUSH2 0x100 EXP DUP2 SLOAD DUP2 PUSH1 0xFF MUL NOT AND SWAP1 DUP4 ISZERO ISZERO MUL OR SWAP1 SSTORE POP DUP1 DUP1 PUSH3 0x16A SWAP1 PUSH3 0x4B9 JUMP JUMPDEST SWAP2 POP POP PUSH3 0xDF JUMP JUMPDEST POP DUP1 PUSH1 0xA0 DUP2 DUP2 MSTORE POP POP POP POP POP PUSH3 0x506 JUMP JUMPDEST PUSH1 0x0 PUSH1 0x40 MLOAD SWAP1 POP SWAP1 JUMP JUMPDEST PUSH1 0x0 DUP1 REVERT JUMPDEST PUSH1 0x0 DUP1 REVERT JUMPDEST PUSH1 0x0 PUSH20 0xFFFFFFFFFFFFFFFFFFFFFFFFFFFFFFFFFFFFFFFF DUP3 AND SWAP1 POP SWAP2 SWAP1 POP JUMP JUMPDEST PUSH1 0x0 PUSH3 0x1C6 DUP3 PUSH3 0x199 JUMP JUMPDEST SWAP1 POP SWAP2 SWAP1 POP JUMP JUMPDEST PUSH3 0x1D8 DUP2 PUSH3 0x1B9 JUMP JUMPDEST DUP2 EQ PUSH3 0x1E4 JUMPI PUSH1 0x0 DUP1 REVERT JUMPDEST POP JUMP JUMPDEST PUSH1 0x0 DUP2 MLOAD SWAP1 POP PUSH3 0x1F8 DUP2 PUSH3 0x1CD JUMP JUMPDEST SWAP3 SWAP2 POP POP JUMP JUMPDEST PUSH1 0x0 DUP1 REVERT JUMPDEST PUSH1 0x0 PUSH1 0x1F NOT PUSH1 0x1F DUP4 ADD AND SWAP1 POP SWAP2 SWAP1 POP JUMP JUMPDEST PUSH32 0x4E487B7100000000000000000000000000000000000000000000000000000000 PUSH1 0x0 MSTORE PUSH1 0x41 PUSH1 0x4 MSTORE PUSH1 0x24 PUSH1 0x0 REVERT JUMPDEST PUSH3 0x24E DUP3 PUSH3 0x203 JUMP JUMPDEST DUP2 ADD DUP2 DUP2 LT PUSH8 0xFFFFFFFFFFFFFFFF DUP3 GT OR ISZERO PUSH3 0x270 JUMPI PUSH3 0x26F PUSH3 0x214 JUMP JUMPDEST JUMPDEST DUP1 PUSH1 0x40 MSTORE POP POP POP JUMP JUMPDEST PUSH1 0x0 PUSH3 0x285 PUSH3 0x185 JUMP JUMPDEST SWAP1 POP PUSH3 0x293 DUP3 DUP3 PUSH3 0x243 JUMP JUMPDEST SWAP2 SWAP1 POP JUMP JUMPDEST PUSH1 0x0 PUSH8 0xFFFFFFFFFFFFFFFF DUP3 GT ISZERO PUSH3 0x2B6 JUMPI PUSH3 0x2B5 PUSH3 0x214 JUMP JUMPDEST JUMPDEST PUSH1 0x20 DUP3 MUL SWAP1 POP PUSH1 0x20 DUP2 ADD SWAP1 POP SWAP2 SWAP1 POP JUMP JUMPDEST PUSH1 0x0 DUP1 REVERT JUMPDEST PUSH1 0x0 PUSH3 0x2E3 PUSH3 0x2DD DUP5 PUSH3 0x298 JUMP JUMPDEST PUSH3 0x279 JUMP JUMPDEST SWAP1 POP DUP1 DUP4 DUP3 MSTORE PUSH1 0x20 DUP3 ADD SWAP1 POP PUSH1 0x20 DUP5 MUL DUP4 ADD DUP6 DUP2 GT ISZERO PUSH3 0x309 JUMPI PUSH3 0x308 PUSH3 0x2C7 JUMP JUMPDEST JUMPDEST DUP4 JUMPDEST DUP2 DUP2 LT ISZERO PUSH3 0x336 JUMPI DUP1 PUSH3 0x321 DUP9 DUP3 PUSH3 0x1E7 JUMP JUMPDEST DUP5 MSTORE PUSH1 0x20 DUP5 ADD SWAP4 POP POP PUSH1 0x20 DUP2 ADD SWAP1 POP PUSH3 0x30B JUMP JUMPDEST POP POP POP SWAP4 SWAP3 POP POP POP JUMP JUMPDEST PUSH1 0x0 DUP3 PUSH1 0x1F DUP4 ADD SLT PUSH3 0x358 JUMPI PUSH3 0x357 PUSH3 0x1FE JUMP JUMPDEST JUMPDEST DUP2 MLOAD PUSH3 0x36A DUP5 DUP3 PUSH1 0x20 DUP7 ADD PUSH3 0x2CC JUMP JUMPDEST SWAP2 POP POP SWAP3 SWAP2 POP POP JUMP JUMPDEST PUSH1 0x0 DUP2 SWAP1 POP SWAP2 SWAP1 POP JUMP JUMPDEST PUSH3 0x388 DUP2 PUSH3 0x373 JUMP JUMPDEST DUP2 EQ PUSH3 0x394 JUMPI PUSH1 0x0 DUP1 REVERT JUMPDEST POP JUMP JUMPDEST PUSH1 0x0 DUP2 MLOAD SWAP1 POP PUSH3 0x3A8 DUP2 PUSH3 0x37D JUMP JUMPDEST SWAP3 SWAP2 POP POP JUMP JUMPDEST PUSH1 0x0 DUP1 PUSH1 0x0 PUSH1 0x60 DUP5 DUP7 SUB SLT ISZERO PUSH3 0x3CA JUMPI PUSH3 0x3C9 PUSH3 0x18F JUMP JUMPDEST JUMPDEST PUSH1 0x0 PUSH3 0x3DA DUP7 DUP3 DUP8 ADD PUSH3 0x1E7 JUMP JUMPDEST SWAP4 POP POP PUSH1 0x20 DUP5 ADD MLOAD PUSH8 0xFFFFFFFFFFFFFFFF DUP2 GT ISZERO PUSH3 0x3FE JUMPI PUSH3 0x3FD PUSH3 0x194 JUMP JUMPDEST JUMPDEST PUSH3 0x40C DUP7 DUP3 DUP8 ADD PUSH3 0x340 JUMP JUMPDEST SWAP3 POP POP PUSH1 0x40 PUSH3 0x41F DUP7 DUP3 DUP8 ADD PUSH3 0x397 JUMP JUMPDEST SWAP2 POP POP SWAP3 POP SWAP3 POP SWAP3 JUMP JUMPDEST PUSH1 0x0 PUSH1 0x20 DUP3 DUP5 SUB SLT ISZERO PUSH3 0x442 JUMPI PUSH3 0x441 PUSH3 0x18F JUMP JUMPDEST JUMPDEST PUSH1 0x0 PUSH3 0x452 DUP5 DUP3 DUP6 ADD PUSH3 0x1E7 JUMP JUMPDEST SWAP2 POP POP SWAP3 SWAP2 POP POP JUMP JUMPDEST PUSH32 0x4E487B7100000000000000000000000000000000000000000000000000000000 PUSH1 0x0 MSTORE PUSH1 0x32 PUSH1 0x4 MSTORE PUSH1 0x24 PUSH1 0x0 REVERT JUMPDEST PUSH32 0x4E487B7100000000000000000000000000000000000000000000000000000000 PUSH1 0x0 MSTORE PUSH1 0x11 PUSH1 0x4 MSTORE PUSH1 0x24 PUSH1 0x0 REVERT JUMPDEST PUSH1 0x0 PUSH3 0x4C6 DUP3 PUSH3 0x373 JUMP JUMPDEST SWAP2 POP PUSH32 0xFFFFFFFFFFFFFFFFFFFFFFFFFFFFFFFFFFFFFFFFFFFFFFFFFFFFFFFFFFFFFFFF DUP3 SUB PUSH3 0x4FB JUMPI PUSH3 0x4FA PUSH3 0x48A JUMP JUMPDEST JUMPDEST PUSH1 0x1 DUP3 ADD SWAP1 POP SWAP2 SWAP1 POP JUMP JUMPDEST PUSH1 0x80 MLOAD PUSH1 0xA0 MLOAD PUSH2 0x1B5C PUSH3 0x548 PUSH1 0x0 CODECOPY PUSH1 0x0 DUP2 DUP2 PUSH2 0x639 ADD MSTORE PUSH2 0x781 ADD MSTORE PUSH1 0x0 DUP2 DUP2 PUSH2 0x138 ADD MSTORE DUP2 DUP2 PUSH2 0x6C7 ADD MSTORE DUP2 DUP2 PUSH2 0x75D ADD MSTORE PUSH2 0xC6F ADD MSTORE PUSH2 0x1B5C PUSH1 0x0 RETURN INVALID PUSH1 0x80 PUSH1 0x40 MSTORE CALLVALUE DUP1 ISZERO PUSH2 0x10 JUMPI PUSH1 0x0 DUP1 REVERT JUMPDEST POP PUSH1 0x4 CALLDATASIZE LT PUSH2 0x57 JUMPI PUSH1 0x0 CALLDATALOAD PUSH1 0xE0 SHR DUP1 PUSH4 0xF874A13 EQ PUSH2 0x5C JUMPI DUP1 PUSH4 0x1B11D0FF EQ PUSH2 0x8C JUMPI DUP1 PUSH4 0x7535D246 EQ PUSH2 0xBC JUMPI DUP1 PUSH4 0x75C81AD0 EQ PUSH2 0xDA JUMPI DUP1 PUSH4 0x9ECB6910 EQ PUSH2 0xF8 JUMPI JUMPDEST PUSH1 0x0 DUP1 REVERT JUMPDEST PUSH2 0x76 PUSH1 0x4 DUP1 CALLDATASIZE SUB DUP2 ADD SWAP1 PUSH2 0x71 SWAP2 SWAP1 PUSH2 0xD78 JUMP JUMPDEST PUSH2 0x114 JUMP JUMPDEST PUSH1 0x40 MLOAD PUSH2 0x83 SWAP2 SWAP1 PUSH2 0xDC0 JUMP JUMPDEST PUSH1 0x40 MLOAD DUP1 SWAP2 SUB SWAP1 RETURN JUMPDEST PUSH2 0xA6 PUSH1 0x4 DUP1 CALLDATASIZE SUB DUP2 ADD SWAP1 PUSH2 0xA1 SWAP2 SWAP1 PUSH2 0xE76 JUMP JUMPDEST PUSH2 0x134 JUMP JUMPDEST PUSH1 0x40 MLOAD PUSH2 0xB3 SWAP2 SWAP1 PUSH2 0xDC0 JUMP JUMPDEST PUSH1 0x40 MLOAD DUP1 SWAP2 SUB SWAP1 RETURN JUMPDEST PUSH2 0xC4 PUSH2 0x75B JUMP JUMPDEST PUSH1 0x40 MLOAD PUSH2 0xD1 SWAP2 SWAP1 PUSH2 0xF1F JUMP JUMPDEST PUSH1 0x40 MLOAD DUP1 SWAP2 SUB SWAP1 RETURN JUMPDEST PUSH2 0xE2 PUSH2 0x77F JUMP JUMPDEST PUSH1 0x40 MLOAD PUSH2 0xEF SWAP2 SWAP1 PUSH2 0xF49 JUMP JUMPDEST PUSH1 0x40 MLOAD DUP1 SWAP2 SUB SWAP1 RETURN JUMPDEST PUSH2 0x112 PUSH1 0x4 DUP1 CALLDATASIZE SUB DUP2 ADD SWAP1 PUSH2 0x10D SWAP2 SWAP1 PUSH2 0xF64 JUMP JUMPDEST PUSH2 0x7A3 JUMP JUMPDEST STOP JUMPDEST PUSH1 0x0 PUSH1 0x20 MSTORE DUP1 PUSH1 0x0 MSTORE PUSH1 0x40 PUSH1 0x0 KECCAK256 PUSH1 0x0 SWAP2 POP SLOAD SWAP1 PUSH2 0x100 EXP SWAP1 DIV PUSH1 0xFF AND DUP2 JUMP JUMPDEST PUSH1 0x0 PUSH32 0x0 PUSH20 0xFFFFFFFFFFFFFFFFFFFFFFFFFFFFFFFFFFFFFFFF AND CALLER PUSH20 0xFFFFFFFFFFFFFFFFFFFFFFFFFFFFFFFFFFFFFFFF AND EQ PUSH2 0x1C4 JUMPI PUSH1 0x40 MLOAD PUSH32 0x8C379A000000000000000000000000000000000000000000000000000000000 DUP2 MSTORE PUSH1 0x4 ADD PUSH2 0x1BB SWAP1 PUSH2 0x1028 JUMP JUMPDEST PUSH1 0x40 MLOAD DUP1 SWAP2 SUB SWAP1 REVERT JUMPDEST ADDRESS PUSH20 0xFFFFFFFFFFFFFFFFFFFFFFFFFFFFFFFFFFFFFFFF AND DUP5 PUSH20 0xFFFFFFFFFFFFFFFFFFFFFFFFFFFFFFFFFFFFFFFF AND EQ PUSH2 0x232 JUMPI PUSH1 0x40 MLOAD PUSH32 0x8C379A000000000000000000000000000000000000000000000000000000000 DUP2 MSTORE PUSH1 0x4 ADD PUSH2 0x229 SWAP1 PUSH2 0x1094 JUMP JUMPDEST PUSH1 0x40 MLOAD DUP1 SWAP2 SUB SWAP1 REVERT JUMPDEST PUSH1 0x0 DUP4 DUP4 DUP2 ADD SWAP1 PUSH2 0x243 SWAP2 SWAP1 PUSH2 0x11BD JUMP JUMPDEST SWAP1 POP PUSH1 0x0 DUP1 DUP3 PUSH1 0x40 ADD MLOAD PUSH20 0xFFFFFFFFFFFFFFFFFFFFFFFFFFFFFFFFFFFFFFFF AND PUSH20 0xFFFFFFFFFFFFFFFFFFFFFFFFFFFFFFFFFFFFFFFF AND DUP2 MSTORE PUSH1 0x20 ADD SWAP1 DUP2 MSTORE PUSH1 0x20 ADD PUSH1 0x0 KECCAK256 PUSH1 0x0 SWAP1 SLOAD SWAP1 PUSH2 0x100 EXP SWAP1 DIV PUSH1 0xFF AND PUSH2 0x2D4 JUMPI PUSH1 0x40 MLOAD PUSH32 0x8C379A000000000000000000000000000000000000000000000000000000000 DUP2 MSTORE PUSH1 0x4 ADD PUSH2 0x2CB SWAP1 PUSH2 0x1236 JUMP JUMPDEST PUSH1 0x40 MLOAD DUP1 SWAP2 SUB SWAP1 REVERT JUMPDEST PUSH1 0x0 DUP1 DUP3 PUSH1 0x60 ADD MLOAD PUSH20 0xFFFFFFFFFFFFFFFFFFFFFFFFFFFFFFFFFFFFFFFF AND PUSH20 0xFFFFFFFFFFFFFFFFFFFFFFFFFFFFFFFFFFFFFFFF AND DUP2 MSTORE PUSH1 0x20 ADD SWAP1 DUP2 MSTORE PUSH1 0x20 ADD PUSH1 0x0 KECCAK256 PUSH1 0x0 SWAP1 SLOAD SWAP1 PUSH2 0x100 EXP SWAP1 DIV PUSH1 0xFF AND PUSH2 0x363 JUMPI PUSH1 0x40 MLOAD PUSH32 0x8C379A000000000000000000000000000000000000000000000000000000000 DUP2 MSTORE PUSH1 0x4 ADD PUSH2 0x35A SWAP1 PUSH2 0x12A2 JUMP JUMPDEST PUSH1 0x40 MLOAD DUP1 SWAP2 SUB SWAP1 REVERT JUMPDEST PUSH1 0x0 DUP2 PUSH1 0x0 ADD MLOAD PUSH20 0xFFFFFFFFFFFFFFFFFFFFFFFFFFFFFFFFFFFFFFFF AND PUSH4 0x70A08231 ADDRESS PUSH1 0x40 MLOAD DUP3 PUSH4 0xFFFFFFFF AND PUSH1 0xE0 SHL DUP2 MSTORE PUSH1 0x4 ADD PUSH2 0x3A2 SWAP2 SWAP1 PUSH2 0xF1F JUMP JUMPDEST PUSH1 0x20 PUSH1 0x40 MLOAD DUP1 DUP4 SUB DUP2 DUP7 GAS STATICCALL ISZERO DUP1 ISZERO PUSH2 0x3BF JUMPI RETURNDATASIZE PUSH1 0x0 DUP1 RETURNDATACOPY RETURNDATASIZE PUSH1 0x0 REVERT JUMPDEST POP POP POP POP PUSH1 0x40 MLOAD RETURNDATASIZE PUSH1 0x1F NOT PUSH1 0x1F DUP3 ADD AND DUP3 ADD DUP1 PUSH1 0x40 MSTORE POP DUP2 ADD SWAP1 PUSH2 0x3E3 SWAP2 SWAP1 PUSH2 0x12D7 JUMP JUMPDEST SWAP1 POP DUP2 PUSH1 0x0 ADD MLOAD PUSH20 0xFFFFFFFFFFFFFFFFFFFFFFFFFFFFFFFFFFFFFFFF AND PUSH4 0x95EA7B3 DUP4 PUSH1 0x40 ADD MLOAD DUP11 PUSH1 0x40 MLOAD DUP4 PUSH4 0xFFFFFFFF AND PUSH1 0xE0 SHL DUP2 MSTORE PUSH1 0x4 ADD PUSH2 0x428 SWAP3 SWAP2 SWAP1 PUSH2 0x1304 JUMP JUMPDEST PUSH1 0x20 PUSH1 0x40 MLOAD DUP1 DUP4 SUB DUP2 PUSH1 0x0 DUP8 GAS CALL ISZERO DUP1 ISZERO PUSH2 0x447 JUMPI RETURNDATASIZE PUSH1 0x0 DUP1 RETURNDATACOPY RETURNDATASIZE PUSH1 0x0 REVERT JUMPDEST POP POP POP POP PUSH1 0x40 MLOAD RETURNDATASIZE PUSH1 0x1F NOT PUSH1 0x1F DUP3 ADD AND DUP3 ADD DUP1 PUSH1 0x40 MSTORE POP DUP2 ADD SWAP1 PUSH2 0x46B SWAP2 SWAP1 PUSH2 0x1359 JUMP JUMPDEST POP PUSH2 0x484 DUP3 PUSH1 0x40 ADD MLOAD DUP10 DUP5 PUSH1 0x0 ADD MLOAD DUP6 PUSH1 0x20 ADD MLOAD PUSH2 0xA36 JUMP JUMPDEST PUSH1 0x0 DUP3 PUSH1 0x20 ADD MLOAD PUSH20 0xFFFFFFFFFFFFFFFFFFFFFFFFFFFFFFFFFFFFFFFF AND PUSH4 0x70A08231 ADDRESS PUSH1 0x40 MLOAD DUP3 PUSH4 0xFFFFFFFF AND PUSH1 0xE0 SHL DUP2 MSTORE PUSH1 0x4 ADD PUSH2 0x4C3 SWAP2 SWAP1 PUSH2 0xF1F JUMP JUMPDEST PUSH1 0x20 PUSH1 0x40 MLOAD DUP1 DUP4 SUB DUP2 DUP7 GAS STATICCALL ISZERO DUP1 ISZERO PUSH2 0x4E0 JUMPI RETURNDATASIZE PUSH1 0x0 DUP1 RETURNDATACOPY RETURNDATASIZE PUSH1 0x0 REVERT JUMPDEST POP POP POP POP PUSH1 0x40 MLOAD RETURNDATASIZE PUSH1 0x1F NOT PUSH1 0x1F DUP3 ADD AND DUP3 ADD DUP1 PUSH1 0x40 MSTORE POP DUP2 ADD SWAP1 PUSH2 0x504 SWAP2 SWAP1 PUSH2 0x12D7 JUMP JUMPDEST SWAP1 POP DUP3 PUSH1 0x20 ADD MLOAD PUSH20 0xFFFFFFFFFFFFFFFFFFFFFFFFFFFFFFFFFFFFFFFF AND PUSH4 0x95EA7B3 DUP5 PUSH1 0x60 ADD MLOAD DUP4 PUSH1 0x40 MLOAD DUP4 PUSH4 0xFFFFFFFF AND PUSH1 0xE0 SHL DUP2 MSTORE PUSH1 0x4 ADD PUSH2 0x549 SWAP3 SWAP2 SWAP1 PUSH2 0x1304 JUMP JUMPDEST PUSH1 0x20 PUSH1 0x40 MLOAD DUP1 DUP4 SUB DUP2 PUSH1 0x0 DUP8 GAS CALL ISZERO DUP1 ISZERO PUSH2 0x568 JUMPI RETURNDATASIZE PUSH1 0x0 DUP1 RETURNDATACOPY RETURNDATASIZE PUSH1 0x0 REVERT JUMPDEST POP POP POP POP PUSH1 0x40 MLOAD RETURNDATASIZE PUSH1 0x1F NOT PUSH1 0x1F DUP3 ADD AND DUP3 ADD DUP1 PUSH1 0x40 MSTORE POP DUP2 ADD SWAP1 PUSH2 0x58C SWAP2 SWAP1 PUSH2 0x1359 JUMP JUMPDEST POP PUSH2 0x5A5 DUP4 PUSH1 0x60 ADD MLOAD DUP3 DUP6 PUSH1 0x20 ADD MLOAD DUP7 PUSH1 0x0 ADD MLOAD PUSH2 0xA36 JUMP JUMPDEST PUSH1 0x0 DUP4 PUSH1 0x0 ADD MLOAD PUSH20 0xFFFFFFFFFFFFFFFFFFFFFFFFFFFFFFFFFFFFFFFF AND PUSH4 0x70A08231 ADDRESS PUSH1 0x40 MLOAD DUP3 PUSH4 0xFFFFFFFF AND PUSH1 0xE0 SHL DUP2 MSTORE PUSH1 0x4 ADD PUSH2 0x5E4 SWAP2 SWAP1 PUSH2 0xF1F JUMP JUMPDEST PUSH1 0x20 PUSH1 0x40 MLOAD DUP1 DUP4 SUB DUP2 DUP7 GAS STATICCALL ISZERO DUP1 ISZERO PUSH2 0x601 JUMPI RETURNDATASIZE PUSH1 0x0 DUP1 RETURNDATACOPY RETURNDATASIZE PUSH1 0x0 REVERT JUMPDEST POP POP POP POP PUSH1 0x40 MLOAD RETURNDATASIZE PUSH1 0x1F NOT PUSH1 0x1F DUP3 ADD AND DUP3 ADD DUP1 PUSH1 0x40 MSTORE POP DUP2 ADD SWAP1 PUSH2 0x625 SWAP2 SWAP1 PUSH2 0x12D7 JUMP JUMPDEST SWAP1 POP PUSH1 0x0 DUP10 DUP12 PUSH2 0x635 SWAP2 SWAP1 PUSH2 0x13B5 JUMP JUMPDEST SWAP1 POP PUSH32 0x0 DUP2 PUSH2 0x663 SWAP2 SWAP1 PUSH2 0x13B5 JUMP JUMPDEST DUP3 LT ISZERO PUSH2 0x6A5 JUMPI PUSH1 0x40 MLOAD PUSH32 0x8C379A000000000000000000000000000000000000000000000000000000000 DUP2 MSTORE PUSH1 0x4 ADD PUSH2 0x69C SWAP1 PUSH2 0x1435 JUMP JUMPDEST PUSH1 0x40 MLOAD DUP1 SWAP2 SUB SWAP1 REVERT JUMPDEST DUP5 PUSH1 0x0 ADD MLOAD PUSH20 0xFFFFFFFFFFFFFFFFFFFFFFFFFFFFFFFFFFFFFFFF AND PUSH4 0x95EA7B3 PUSH32 0x0 DUP4 PUSH1 0x40 MLOAD DUP4 PUSH4 0xFFFFFFFF AND PUSH1 0xE0 SHL DUP2 MSTORE PUSH1 0x4 ADD PUSH2 0x704 SWAP3 SWAP2 SWAP1 PUSH2 0x1304 JUMP JUMPDEST PUSH1 0x20 PUSH1 0x40 MLOAD DUP1 DUP4 SUB DUP2 PUSH1 0x0 DUP8 GAS CALL ISZERO DUP1 ISZERO PUSH2 0x723 JUMPI RETURNDATASIZE PUSH1 0x0 DUP1 RETURNDATACOPY RETURNDATASIZE PUSH1 0x0 REVERT JUMPDEST POP POP POP POP PUSH1 0x40 MLOAD RETURNDATASIZE PUSH1 0x1F NOT PUSH1 0x1F DUP3 ADD AND DUP3 ADD DUP1 PUSH1 0x40 MSTORE POP DUP2 ADD SWAP1 PUSH2 0x747 SWAP2 SWAP1 PUSH2 0x1359 JUMP JUMPDEST POP PUSH1 0x1 SWAP6 POP POP POP POP POP POP SWAP7 SWAP6 POP POP POP POP POP POP JUMP JUMPDEST PUSH32 0x0 DUP2 JUMP JUMPDEST PUSH32 0x0 DUP2 JUMP JUMPDEST PUSH1 0x0 PUSH20 0xFFFFFFFFFFFFFFFFFFFFFFFFFFFFFFFFFFFFFFFF AND DUP5 PUSH20 0xFFFFFFFFFFFFFFFFFFFFFFFFFFFFFFFFFFFFFFFF AND EQ ISZERO DUP1 ISZERO PUSH2 0x80D JUMPI POP PUSH1 0x0 PUSH20 0xFFFFFFFFFFFFFFFFFFFFFFFFFFFFFFFFFFFFFFFF AND DUP4 PUSH20 0xFFFFFFFFFFFFFFFFFFFFFFFFFFFFFFFFFFFFFFFF AND EQ ISZERO JUMPDEST PUSH2 0x84C JUMPI PUSH1 0x40 MLOAD PUSH32 0x8C379A000000000000000000000000000000000000000000000000000000000 DUP2 MSTORE PUSH1 0x4 ADD PUSH2 0x843 SWAP1 PUSH2 0x14A1 JUMP JUMPDEST PUSH1 0x40 MLOAD DUP1 SWAP2 SUB SWAP1 REVERT JUMPDEST PUSH1 0x0 PUSH20 0xFFFFFFFFFFFFFFFFFFFFFFFFFFFFFFFFFFFFFFFF AND DUP3 PUSH20 0xFFFFFFFFFFFFFFFFFFFFFFFFFFFFFFFFFFFFFFFF AND EQ ISZERO DUP1 ISZERO PUSH2 0x8B6 JUMPI POP PUSH1 0x0 PUSH20 0xFFFFFFFFFFFFFFFFFFFFFFFFFFFFFFFFFFFFFFFF AND DUP2 PUSH20 0xFFFFFFFFFFFFFFFFFFFFFFFFFFFFFFFFFFFFFFFF AND EQ ISZERO JUMPDEST PUSH2 0x8F5 JUMPI PUSH1 0x40 MLOAD PUSH32 0x8C379A000000000000000000000000000000000000000000000000000000000 DUP2 MSTORE PUSH1 0x4 ADD PUSH2 0x8EC SWAP1 PUSH2 0x150D JUMP JUMPDEST PUSH1 0x40 MLOAD DUP1 SWAP2 SUB SWAP1 REVERT JUMPDEST PUSH1 0x0 PUSH1 0x40 MLOAD DUP1 PUSH1 0x80 ADD PUSH1 0x40 MSTORE DUP1 DUP7 PUSH20 0xFFFFFFFFFFFFFFFFFFFFFFFFFFFFFFFFFFFFFFFF AND DUP2 MSTORE PUSH1 0x20 ADD DUP6 PUSH20 0xFFFFFFFFFFFFFFFFFFFFFFFFFFFFFFFFFFFFFFFF AND DUP2 MSTORE PUSH1 0x20 ADD DUP5 PUSH20 0xFFFFFFFFFFFFFFFFFFFFFFFFFFFFFFFFFFFFFFFF AND DUP2 MSTORE PUSH1 0x20 ADD DUP4 PUSH20 0xFFFFFFFFFFFFFFFFFFFFFFFFFFFFFFFFFFFFFFFF AND DUP2 MSTORE POP SWAP1 POP PUSH1 0x0 DUP2 PUSH1 0x40 MLOAD PUSH1 0x20 ADD PUSH2 0x985 SWAP2 SWAP1 PUSH2 0x1591 JUMP JUMPDEST PUSH1 0x40 MLOAD PUSH1 0x20 DUP2 DUP4 SUB SUB DUP2 MSTORE SWAP1 PUSH1 0x40 MSTORE SWAP1 POP PUSH1 0x0 DUP7 PUSH20 0xFFFFFFFFFFFFFFFFFFFFFFFFFFFFFFFFFFFFFFFF AND PUSH4 0x313CE567 PUSH1 0x40 MLOAD DUP2 PUSH4 0xFFFFFFFF AND PUSH1 0xE0 SHL DUP2 MSTORE PUSH1 0x4 ADD PUSH1 0x20 PUSH1 0x40 MLOAD DUP1 DUP4 SUB DUP2 DUP7 GAS STATICCALL ISZERO DUP1 ISZERO PUSH2 0x9E3 JUMPI RETURNDATASIZE PUSH1 0x0 DUP1 RETURNDATACOPY RETURNDATASIZE PUSH1 0x0 REVERT JUMPDEST POP POP POP POP PUSH1 0x40 MLOAD RETURNDATASIZE PUSH1 0x1F NOT PUSH1 0x1F DUP3 ADD AND DUP3 ADD DUP1 PUSH1 0x40 MSTORE POP DUP2 ADD SWAP1 PUSH2 0xA07 SWAP2 SWAP1 PUSH2 0x15E5 JUMP JUMPDEST PUSH1 0xA PUSH2 0xA13 SWAP2 SWAP1 PUSH2 0x1745 JUMP JUMPDEST PUSH2 0x3E8 PUSH2 0xA20 SWAP2 SWAP1 PUSH2 0x1790 JUMP JUMPDEST SWAP1 POP PUSH2 0xA2D DUP8 DUP3 DUP5 PUSH2 0xC6D JUMP JUMPDEST POP POP POP POP POP POP POP JUMP JUMPDEST PUSH1 0x0 PUSH1 0x2 PUSH8 0xFFFFFFFFFFFFFFFF DUP2 GT ISZERO PUSH2 0xA53 JUMPI PUSH2 0xA52 PUSH2 0x10CA JUMP JUMPDEST JUMPDEST PUSH1 0x40 MLOAD SWAP1 DUP1 DUP3 MSTORE DUP1 PUSH1 0x20 MUL PUSH1 0x20 ADD DUP3 ADD PUSH1 0x40 MSTORE DUP1 ISZERO PUSH2 0xA81 JUMPI DUP2 PUSH1 0x20 ADD PUSH1 0x20 DUP3 MUL DUP1 CALLDATASIZE DUP4 CALLDATACOPY DUP1 DUP3 ADD SWAP2 POP POP SWAP1 POP JUMPDEST POP SWAP1 POP DUP3 DUP2 PUSH1 0x0 DUP2 MLOAD DUP2 LT PUSH2 0xA99 JUMPI PUSH2 0xA98 PUSH2 0x17D2 JUMP JUMPDEST JUMPDEST PUSH1 0x20 MUL PUSH1 0x20 ADD ADD SWAP1 PUSH20 0xFFFFFFFFFFFFFFFFFFFFFFFFFFFFFFFFFFFFFFFF AND SWAP1 DUP2 PUSH20 0xFFFFFFFFFFFFFFFFFFFFFFFFFFFFFFFFFFFFFFFF AND DUP2 MSTORE POP POP DUP2 DUP2 PUSH1 0x1 DUP2 MLOAD DUP2 LT PUSH2 0xAE8 JUMPI PUSH2 0xAE7 PUSH2 0x17D2 JUMP JUMPDEST JUMPDEST PUSH1 0x20 MUL PUSH1 0x20 ADD ADD SWAP1 PUSH20 0xFFFFFFFFFFFFFFFFFFFFFFFFFFFFFFFFFFFFFFFF AND SWAP1 DUP2 PUSH20 0xFFFFFFFFFFFFFFFFFFFFFFFFFFFFFFFFFFFFFFFF AND DUP2 MSTORE POP POP PUSH1 0x0 DUP6 PUSH20 0xFFFFFFFFFFFFFFFFFFFFFFFFFFFFFFFFFFFFFFFF AND DUP6 PUSH1 0x0 DUP5 ADDRESS TIMESTAMP PUSH1 0x40 MLOAD PUSH1 0x24 ADD PUSH2 0xB55 SWAP6 SWAP5 SWAP4 SWAP3 SWAP2 SWAP1 PUSH2 0x18F5 JUMP JUMPDEST PUSH1 0x40 MLOAD PUSH1 0x20 DUP2 DUP4 SUB SUB DUP2 MSTORE SWAP1 PUSH1 0x40 MSTORE PUSH32 0x38ED173900000000000000000000000000000000000000000000000000000000 PUSH28 0xFFFFFFFFFFFFFFFFFFFFFFFFFFFFFFFFFFFFFFFFFFFFFFFFFFFFFFFF NOT AND PUSH1 0x20 DUP3 ADD DUP1 MLOAD PUSH28 0xFFFFFFFFFFFFFFFFFFFFFFFFFFFFFFFFFFFFFFFFFFFFFFFFFFFFFFFF DUP4 DUP2 DUP4 AND OR DUP4 MSTORE POP POP POP POP PUSH1 0x40 MLOAD PUSH2 0xBDF SWAP2 SWAP1 PUSH2 0x19C0 JUMP JUMPDEST PUSH1 0x0 PUSH1 0x40 MLOAD DUP1 DUP4 SUB DUP2 PUSH1 0x0 DUP7 GAS CALL SWAP2 POP POP RETURNDATASIZE DUP1 PUSH1 0x0 DUP2 EQ PUSH2 0xC1C JUMPI PUSH1 0x40 MLOAD SWAP2 POP PUSH1 0x1F NOT PUSH1 0x3F RETURNDATASIZE ADD AND DUP3 ADD PUSH1 0x40 MSTORE RETURNDATASIZE DUP3 MSTORE RETURNDATASIZE PUSH1 0x0 PUSH1 0x20 DUP5 ADD RETURNDATACOPY PUSH2 0xC21 JUMP JUMPDEST PUSH1 0x60 SWAP2 POP JUMPDEST POP POP SWAP1 POP DUP1 PUSH2 0xC65 JUMPI PUSH1 0x40 MLOAD PUSH32 0x8C379A000000000000000000000000000000000000000000000000000000000 DUP2 MSTORE PUSH1 0x4 ADD PUSH2 0xC5C SWAP1 PUSH2 0x1A23 JUMP JUMPDEST PUSH1 0x40 MLOAD DUP1 SWAP2 SUB SWAP1 REVERT JUMPDEST POP POP POP POP POP POP JUMP JUMPDEST PUSH32 0x0 PUSH20 0xFFFFFFFFFFFFFFFFFFFFFFFFFFFFFFFFFFFFFFFF AND PUSH4 0x42B0B77C ADDRESS DUP6 DUP6 DUP6 PUSH1 0x0 PUSH1 0x40 MLOAD DUP7 PUSH4 0xFFFFFFFF AND PUSH1 0xE0 SHL DUP2 MSTORE PUSH1 0x4 ADD PUSH2 0xCCF SWAP6 SWAP5 SWAP4 SWAP3 SWAP2 SWAP1 PUSH2 0x1ACC JUMP JUMPDEST PUSH1 0x0 PUSH1 0x40 MLOAD DUP1 DUP4 SUB DUP2 PUSH1 0x0 DUP8 DUP1 EXTCODESIZE ISZERO DUP1 ISZERO PUSH2 0xCE9 JUMPI PUSH1 0x0 DUP1 REVERT JUMPDEST POP GAS CALL ISZERO DUP1 ISZERO PUSH2 0xCFD JUMPI RETURNDATASIZE PUSH1 0x0 DUP1 RETURNDATACOPY RETURNDATASIZE PUSH1 0x0 REVERT JUMPDEST POP POP POP POP POP POP POP JUMP JUMPDEST PUSH1 0x0 PUSH1 0x40 MLOAD SWAP1 POP SWAP1 JUMP JUMPDEST PUSH1 0x0 DUP1 REVERT JUMPDEST PUSH1 0x0 DUP1 REVERT JUMPDEST PUSH1 0x0 PUSH20 0xFFFFFFFFFFFFFFFFFFFFFFFFFFFFFFFFFFFFFFFF DUP3 AND SWAP1 POP SWAP2 SWAP1 POP JUMP JUMPDEST PUSH1 0x0 PUSH2 0xD45 DUP3 PUSH2 0xD1A JUMP JUMPDEST SWAP1 POP SWAP2 SWAP1 POP JUMP JUMPDEST PUSH2 0xD55 DUP2 PUSH2 0xD3A JUMP JUMPDEST DUP2 EQ PUSH2 0xD60 JUMPI PUSH1 0x0 DUP1 REVERT JUMPDEST POP JUMP JUMPDEST PUSH1 0x0 DUP2 CALLDATALOAD SWAP1 POP PUSH2 0xD72 DUP2 PUSH2 0xD4C JUMP JUMPDEST SWAP3 SWAP2 POP POP JUMP JUMPDEST PUSH1 0x0 PUSH1 0x20 DUP3 DUP5 SUB SLT ISZERO PUSH2 0xD8E JUMPI PUSH2 0xD8D PUSH2 0xD10 JUMP JUMPDEST JUMPDEST PUSH1 0x0 PUSH2 0xD9C DUP5 DUP3 DUP6 ADD PUSH2 0xD63 JUMP JUMPDEST SWAP2 POP POP SWAP3 SWAP2 POP POP JUMP JUMPDEST PUSH1 0x0 DUP2 ISZERO ISZERO SWAP1 POP SWAP2 SWAP1 POP JUMP JUMPDEST PUSH2 0xDBA DUP2 PUSH2 0xDA5 JUMP JUMPDEST DUP3 MSTORE POP POP JUMP JUMPDEST PUSH1 0x0 PUSH1 0x20 DUP3 ADD SWAP1 POP PUSH2 0xDD5 PUSH1 0x0 DUP4 ADD DUP5 PUSH2 0xDB1 JUMP JUMPDEST SWAP3 SWAP2 POP POP JUMP JUMPDEST PUSH1 0x0 DUP2 SWAP1 POP SWAP2 SWAP1 POP JUMP JUMPDEST PUSH2 0xDEE DUP2 PUSH2 0xDDB JUMP JUMPDEST DUP2 EQ PUSH2 0xDF9 JUMPI PUSH1 0x0 DUP1 REVERT JUMPDEST POP JUMP JUMPDEST PUSH1 0x0 DUP2 CALLDATALOAD SWAP1 POP PUSH2 0xE0B DUP2 PUSH2 0xDE5 JUMP JUMPDEST SWAP3 SWAP2 POP POP JUMP JUMPDEST PUSH1 0x0 DUP1 REVERT JUMPDEST PUSH1 0x0 DUP1 REVERT JUMPDEST PUSH1 0x0 DUP1 REVERT JUMPDEST PUSH1 0x0 DUP1 DUP4 PUSH1 0x1F DUP5 ADD SLT PUSH2 0xE36 JUMPI PUSH2 0xE35 PUSH2 0xE11 JUMP JUMPDEST JUMPDEST DUP3 CALLDATALOAD SWAP1 POP PUSH8 0xFFFFFFFFFFFFFFFF DUP2 GT ISZERO PUSH2 0xE53 JUMPI PUSH2 0xE52 PUSH2 0xE16 JUMP JUMPDEST JUMPDEST PUSH1 0x20 DUP4 ADD SWAP2 POP DUP4 PUSH1 0x1 DUP3 MUL DUP4 ADD GT ISZERO PUSH2 0xE6F JUMPI PUSH2 0xE6E PUSH2 0xE1B JUMP JUMPDEST JUMPDEST SWAP3 POP SWAP3 SWAP1 POP JUMP JUMPDEST PUSH1 0x0 DUP1 PUSH1 0x0 DUP1 PUSH1 0x0 DUP1 PUSH1 0xA0 DUP8 DUP10 SUB SLT ISZERO PUSH2 0xE93 JUMPI PUSH2 0xE92 PUSH2 0xD10 JUMP JUMPDEST JUMPDEST PUSH1 0x0 PUSH2 0xEA1 DUP10 DUP3 DUP11 ADD PUSH2 0xD63 JUMP JUMPDEST SWAP7 POP POP PUSH1 0x20 PUSH2 0xEB2 DUP10 DUP3 DUP11 ADD PUSH2 0xDFC JUMP JUMPDEST SWAP6 POP POP PUSH1 0x40 PUSH2 0xEC3 DUP10 DUP3 DUP11 ADD PUSH2 0xDFC JUMP JUMPDEST SWAP5 POP POP PUSH1 0x60 PUSH2 0xED4 DUP10 DUP3 DUP11 ADD PUSH2 0xD63 JUMP JUMPDEST SWAP4 POP POP PUSH1 0x80 DUP8 ADD CALLDATALOAD PUSH8 0xFFFFFFFFFFFFFFFF DUP2 GT ISZERO PUSH2 0xEF5 JUMPI PUSH2 0xEF4 PUSH2 0xD15 JUMP JUMPDEST JUMPDEST PUSH2 0xF01 DUP10 DUP3 DUP11 ADD PUSH2 0xE20 JUMP JUMPDEST SWAP3 POP SWAP3 POP POP SWAP3 SWAP6 POP SWAP3 SWAP6 POP SWAP3 SWAP6 JUMP JUMPDEST PUSH2 0xF19 DUP2 PUSH2 0xD3A JUMP JUMPDEST DUP3 MSTORE POP POP JUMP JUMPDEST PUSH1 0x0 PUSH1 0x20 DUP3 ADD SWAP1 POP PUSH2 0xF34 PUSH1 0x0 DUP4 ADD DUP5 PUSH2 0xF10 JUMP JUMPDEST SWAP3 SWAP2 POP POP JUMP JUMPDEST PUSH2 0xF43 DUP2 PUSH2 0xDDB JUMP JUMPDEST DUP3 MSTORE POP POP JUMP JUMPDEST PUSH1 0x0 PUSH1 0x20 DUP3 ADD SWAP1 POP PUSH2 0xF5E PUSH1 0x0 DUP4 ADD DUP5 PUSH2 0xF3A JUMP JUMPDEST SWAP3 SWAP2 POP POP JUMP JUMPDEST PUSH1 0x0 DUP1 PUSH1 0x0 DUP1 PUSH1 0x80 DUP6 DUP8 SUB SLT ISZERO PUSH2 0xF7E JUMPI PUSH2 0xF7D PUSH2 0xD10 JUMP JUMPDEST JUMPDEST PUSH1 0x0 PUSH2 0xF8C DUP8 DUP3 DUP9 ADD PUSH2 0xD63 JUMP JUMPDEST SWAP5 POP POP PUSH1 0x20 PUSH2 0xF9D DUP8 DUP3 DUP9 ADD PUSH2 0xD63 JUMP JUMPDEST SWAP4 POP POP PUSH1 0x40 PUSH2 0xFAE DUP8 DUP3 DUP9 ADD PUSH2 0xD63 JUMP JUMPDEST SWAP3 POP POP PUSH1 0x60 PUSH2 0xFBF DUP8 DUP3 DUP9 ADD PUSH2 0xD63 JUMP JUMPDEST SWAP2 POP POP SWAP3 SWAP6 SWAP2 SWAP5 POP SWAP3 POP JUMP JUMPDEST PUSH1 0x0 DUP3 DUP3 MSTORE PUSH1 0x20 DUP3 ADD SWAP1 POP SWAP3 SWAP2 POP POP JUMP JUMPDEST PUSH32 0x4F6E6C7920706F6F6C2063616E2063616C6C0000000000000000000000000000 PUSH1 0x0 DUP3 ADD MSTORE POP JUMP JUMPDEST PUSH1 0x0 PUSH2 0x1012 PUSH1 0x12 DUP4 PUSH2 0xFCB JUMP JUMPDEST SWAP2 POP PUSH2 0x101D DUP3 PUSH2 0xFDC JUMP JUMPDEST PUSH1 0x20 DUP3 ADD SWAP1 POP SWAP2 SWAP1 POP JUMP JUMPDEST PUSH1 0x0 PUSH1 0x20 DUP3 ADD SWAP1 POP DUP2 DUP2 SUB PUSH1 0x0 DUP4 ADD MSTORE PUSH2 0x1041 DUP2 PUSH2 0x1005 JUMP JUMPDEST SWAP1 POP SWAP2 SWAP1 POP JUMP JUMPDEST PUSH32 0x4F6E6C792073656C6620696E6974696174656400000000000000000000000000 PUSH1 0x0 DUP3 ADD MSTORE POP JUMP JUMPDEST PUSH1 0x0 PUSH2 0x107E PUSH1 0x13 DUP4 PUSH2 0xFCB JUMP JUMPDEST SWAP2 POP PUSH2 0x1089 DUP3 PUSH2 0x1048 JUMP JUMPDEST PUSH1 0x20 DUP3 ADD SWAP1 POP SWAP2 SWAP1 POP JUMP JUMPDEST PUSH1 0x0 PUSH1 0x20 DUP3 ADD SWAP1 POP DUP2 DUP2 SUB PUSH1 0x0 DUP4 ADD MSTORE PUSH2 0x10AD DUP2 PUSH2 0x1071 JUMP JUMPDEST SWAP1 POP SWAP2 SWAP1 POP JUMP JUMPDEST PUSH1 0x0 DUP1 REVERT JUMPDEST PUSH1 0x0 PUSH1 0x1F NOT PUSH1 0x1F DUP4 ADD AND SWAP1 POP SWAP2 SWAP1 POP JUMP JUMPDEST PUSH32 0x4E487B7100000000000000000000000000000000000000000000000000000000 PUSH1 0x0 MSTORE PUSH1 0x41 PUSH1 0x4 MSTORE PUSH1 0x24 PUSH1 0x0 REVERT JUMPDEST PUSH2 0x1102 DUP3 PUSH2 0x10B9 JUMP JUMPDEST DUP2 ADD DUP2 DUP2 LT PUSH8 0xFFFFFFFFFFFFFFFF DUP3 GT OR ISZERO PUSH2 0x1121 JUMPI PUSH2 0x1120 PUSH2 0x10CA JUMP JUMPDEST JUMPDEST DUP1 PUSH1 0x40 MSTORE POP POP POP JUMP JUMPDEST PUSH1 0x0 PUSH2 0x1134 PUSH2 0xD06 JUMP JUMPDEST SWAP1 POP PUSH2 0x1140 DUP3 DUP3 PUSH2 0x10F9 JUMP JUMPDEST SWAP2 SWAP1 POP JUMP JUMPDEST PUSH1 0x0 PUSH1 0x80 DUP3 DUP5 SUB SLT ISZERO PUSH2 0x115B JUMPI PUSH2 0x115A PUSH2 0x10B4 JUMP JUMPDEST JUMPDEST PUSH2 0x1165 PUSH1 0x80 PUSH2 0x112A JUMP JUMPDEST SWAP1 POP PUSH1 0x0 PUSH2 0x1175 DUP5 DUP3 DUP6 ADD PUSH2 0xD63 JUMP JUMPDEST PUSH1 0x0 DUP4 ADD MSTORE POP PUSH1 0x20 PUSH2 0x1189 DUP5 DUP3 DUP6 ADD PUSH2 0xD63 JUMP JUMPDEST PUSH1 0x20 DUP4 ADD MSTORE POP PUSH1 0x40 PUSH2 0x119D DUP5 DUP3 DUP6 ADD PUSH2 0xD63 JUMP JUMPDEST PUSH1 0x40 DUP4 ADD MSTORE POP PUSH1 0x60 PUSH2 0x11B1 DUP5 DUP3 DUP6 ADD PUSH2 0xD63 JUMP JUMPDEST PUSH1 0x60 DUP4 ADD MSTORE POP SWAP3 SWAP2 POP POP JUMP JUMPDEST PUSH1 0x0 PUSH1 0x80 DUP3 DUP5 SUB SLT ISZERO PUSH2 0x11D3 JUMPI PUSH2 0x11D2 PUSH2 0xD10 JUMP JUMPDEST JUMPDEST PUSH1 0x0 PUSH2 0x11E1 DUP5 DUP3 DUP6 ADD PUSH2 0x1145 JUMP JUMPDEST SWAP2 POP POP SWAP3 SWAP2 POP POP JUMP JUMPDEST PUSH32 0x526F7574657230206E6F742077686974656C6973746564000000000000000000 PUSH1 0x0 DUP3 ADD MSTORE POP JUMP JUMPDEST PUSH1 0x0 PUSH2 0x1220 PUSH1 0x17 DUP4 PUSH2 0xFCB JUMP JUMPDEST SWAP2 POP PUSH2 0x122B DUP3 PUSH2 0x11EA JUMP JUMPDEST PUSH1 0x20 DUP3 ADD SWAP1 POP SWAP2 SWAP1 POP JUMP JUMPDEST PUSH1 0x0 PUSH1 0x20 DUP3 ADD SWAP1 POP DUP2 DUP2 SUB PUSH1 0x0 DUP4 ADD MSTORE PUSH2 0x124F DUP2 PUSH2 0x1213 JUMP JUMPDEST SWAP1 POP SWAP2 SWAP1 POP JUMP JUMPDEST PUSH32 0x526F7574657231206E6F742077686974656C6973746564000000000000000000 PUSH1 0x0 DUP3 ADD MSTORE POP JUMP JUMPDEST PUSH1 0x0 PUSH2 0x128C PUSH1 0x17 DUP4 PUSH2 0xFCB JUMP JUMPDEST SWAP2 POP PUSH2 0x1297 DUP3 PUSH2 0x1256 JUMP JUMPDEST PUSH1 0x20 DUP3 ADD SWAP1 POP SWAP2 SWAP1 POP JUMP JUMPDEST PUSH1 0x0 PUSH1 0x20 DUP3 ADD SWAP1 POP DUP2 DUP2 SUB PUSH1 0x0 DUP4 ADD MSTORE PUSH2 0x12BB DUP2 PUSH2 0x127F JUMP JUMPDEST SWAP1 POP SWAP2 SWAP1 POP JUMP JUMPDEST PUSH1 0x0 DUP2 MLOAD SWAP1 POP PUSH2 0x12D1 DUP2 PUSH2 0xDE5 JUMP JUMPDEST SWAP3 SWAP2 POP POP JUMP JUMPDEST PUSH1 0x0 PUSH1 0x20 DUP3 DUP5 SUB SLT ISZERO PUSH2 0x12ED JUMPI PUSH2 0x12EC PUSH2 0xD10 JUMP JUMPDEST JUMPDEST PUSH1 0x0 PUSH2 0x12FB DUP5 DUP3 DUP6 ADD PUSH2 0x12C2 JUMP JUMPDEST SWAP2 POP POP SWAP3 SWAP2 POP POP JUMP JUMPDEST PUSH1 0x0 PUSH1 0x40 DUP3 ADD SWAP1 POP PUSH2 0x1319 PUSH1 0x0 DUP4 ADD DUP6 PUSH2 0xF10 JUMP JUMPDEST PUSH2 0x1326 PUSH1 0x20 DUP4 ADD DUP5 PUSH2 0xF3A JUMP JUMPDEST SWAP4 SWAP3 POP POP POP JUMP JUMPDEST PUSH2 0x1336 DUP2 PUSH2 0xDA5 JUMP JUMPDEST DUP2 EQ PUSH2 0x1341 JUMPI PUSH1 0x0 DUP1 REVERT JUMPDEST POP JUMP JUMPDEST PUSH1 0x0 DUP2 MLOAD SWAP1 POP PUSH2 0x1353 DUP2 PUSH2 0x132D JUMP JUMPDEST SWAP3 SWAP2 POP POP JUMP JUMPDEST PUSH1 0x0 PUSH1 0x20 DUP3 DUP5 SUB SLT ISZERO PUSH2 0x136F JUMPI PUSH2 0x136E PUSH2 0xD10 JUMP JUMPDEST JUMPDEST PUSH1 0x0 PUSH2 0x137D DUP5 DUP3 DUP6 ADD PUSH2 0x1344 JUMP JUMPDEST SWAP2 POP POP SWAP3 SWAP2 POP POP JUMP JUMPDEST PUSH32 0x4E487B7100000000000000000000000000000000000000000000000000000000 PUSH1 0x0 MSTORE PUSH1 0x11 PUSH1 0x4 MSTORE PUSH1 0x24 PUSH1 0x0 REVERT JUMPDEST PUSH1 0x0 PUSH2 0x13C0 DUP3 PUSH2 0xDDB JUMP JUMPDEST SWAP2 POP PUSH2 0x13CB DUP4 PUSH2 0xDDB JUMP JUMPDEST SWAP3 POP DUP3 DUP3 ADD SWAP1 POP DUP1 DUP3 GT ISZERO PUSH2 0x13E3 JUMPI PUSH2 0x13E2 PUSH2 0x1386 JUMP JUMPDEST JUMPDEST SWAP3 SWAP2 POP POP JUMP JUMPDEST PUSH32 0x4E6F742070726F66697461626C65000000000000000000000000000000000000 PUSH1 0x0 DUP3 ADD MSTORE POP JUMP JUMPDEST PUSH1 0x0 PUSH2 0x141F PUSH1 0xE DUP4 PUSH2 0xFCB JUMP JUMPDEST SWAP2 POP PUSH2 0x142A DUP3 PUSH2 0x13E9 JUMP JUMPDEST PUSH1 0x20 DUP3 ADD SWAP1 POP SWAP2 SWAP1 POP JUMP JUMPDEST PUSH1 0x0 PUSH1 0x20 DUP3 ADD SWAP1 POP DUP2 DUP2 SUB PUSH1 0x0 DUP4 ADD MSTORE PUSH2 0x144E DUP2 PUSH2 0x1412 JUMP JUMPDEST SWAP1 POP SWAP2 SWAP1 POP JUMP JUMPDEST PUSH32 0x496E76616C696420746F6B656E20616464726573736573000000000000000000 PUSH1 0x0 DUP3 ADD MSTORE POP JUMP JUMPDEST PUSH1 0x0 PUSH2 0x148B PUSH1 0x17 DUP4 PUSH2 0xFCB JUMP JUMPDEST SWAP2 POP PUSH2 0x1496 DUP3 PUSH2 0x1455 JUMP JUMPDEST PUSH1 0x20 DUP3 ADD SWAP1 POP SWAP2 SWAP1 POP JUMP JUMPDEST PUSH1 0x0 PUSH1 0x20 DUP3 ADD SWAP1 POP DUP2 DUP2 SUB PUSH1 0x0 DUP4 ADD MSTORE PUSH2 0x14BA DUP2 PUSH2 0x147E JUMP JUMPDEST SWAP1 POP SWAP2 SWAP1 POP JUMP JUMPDEST PUSH32 0x496E76616C696420726F75746572206164647265737365730000000000000000 PUSH1 0x0 DUP3 ADD MSTORE POP JUMP JUMPDEST PUSH1 0x0 PUSH2 0x14F7 PUSH1 0x18 DUP4 PUSH2 0xFCB JUMP JUMPDEST SWAP2 POP PUSH2 0x1502 DUP3 PUSH2 0x14C1 JUMP JUMPDEST PUSH1 0x20 DUP3 ADD SWAP1 POP SWAP2 SWAP1 POP JUMP JUMPDEST PUSH1 0x0 PUSH1 0x20 DUP3 ADD SWAP1 POP DUP2 DUP2 SUB PUSH1 0x0 DUP4 ADD MSTORE PUSH2 0x1526 DUP2 PUSH2 0x14EA JUMP JUMPDEST SWAP1 POP SWAP2 SWAP1 POP JUMP JUMPDEST PUSH2 0x1536 DUP2 PUSH2 0xD3A JUMP JUMPDEST DUP3 MSTORE POP POP JUMP JUMPDEST PUSH1 0x80 DUP3 ADD PUSH1 0x0 DUP3 ADD MLOAD PUSH2 0x1552 PUSH1 0x0 DUP6 ADD DUP3 PUSH2 0x152D JUMP JUMPDEST POP PUSH1 0x20 DUP3 ADD MLOAD PUSH2 0x1565 PUSH1 0x20 DUP6 ADD DUP3 PUSH2 0x152D JUMP JUMPDEST POP PUSH1 0x40 DUP3 ADD MLOAD PUSH2 0x1578 PUSH1 0x40 DUP6 ADD DUP3 PUSH2 0x152D JUMP JUMPDEST POP PUSH1 0x60 DUP3 ADD MLOAD PUSH2 0x158B PUSH1 0x60 DUP6 ADD DUP3 PUSH2 0x152D JUMP JUMPDEST POP POP POP POP JUMP JUMPDEST PUSH1 0x0 PUSH1 0x80 DUP3 ADD SWAP1 POP PUSH2 0x15A6 PUSH1 0x0 DUP4 ADD DUP5 PUSH2 0x153C JUMP JUMPDEST SWAP3 SWAP2 POP POP JUMP JUMPDEST PUSH1 0x0 PUSH1 0xFF DUP3 AND SWAP1 POP SWAP2 SWAP1 POP JUMP JUMPDEST PUSH2 0x15C2 DUP2 PUSH2 0x15AC JUMP JUMPDEST DUP2 EQ PUSH2 0x15CD JUMPI PUSH1 0x0 DUP1 REVERT JUMPDEST POP JUMP JUMPDEST PUSH1 0x0 DUP2 MLOAD SWAP1 POP PUSH2 0x15DF DUP2 PUSH2 0x15B9 JUMP JUMPDEST SWAP3 SWAP2 POP POP JUMP JUMPDEST PUSH1 0x0 PUSH1 0x20 DUP3 DUP5 SUB SLT ISZERO PUSH2 0x15FB JUMPI PUSH2 0x15FA PUSH2 0xD10 JUMP JUMPDEST JUMPDEST PUSH1 0x0 PUSH2 0x1609 DUP5 DUP3 DUP6 ADD PUSH2 0x15D0 JUMP JUMPDEST SWAP2 POP POP SWAP3 SWAP2 POP POP JUMP JUMPDEST PUSH1 0x0 DUP2 PUSH1 0x1 SHR SWAP1 POP SWAP2 SWAP1 POP JUMP JUMPDEST PUSH1 0x0 DUP1 DUP3 SWAP2 POP DUP4 SWAP1 POP JUMPDEST PUSH1 0x1 DUP6 GT ISZERO PUSH2 0x1669 JUMPI DUP1 DUP7 DIV DUP2 GT ISZERO PUSH2 0x1645 JUMPI PUSH2 0x1644 PUSH2 0x1386 JUMP JUMPDEST JUMPDEST PUSH1 0x1 DUP6 AND ISZERO PUSH2 0x1654 JUMPI DUP1 DUP3 MUL SWAP2 POP JUMPDEST DUP1 DUP2 MUL SWAP1 POP PUSH2 0x1662 DUP6 PUSH2 0x1612 JUMP JUMPDEST SWAP5 POP PUSH2 0x1629 JUMP JUMPDEST SWAP5 POP SWAP5 SWAP3 POP POP POP JUMP JUMPDEST PUSH1 0x0 DUP3 PUSH2 0x1682 JUMPI PUSH1 0x1 SWAP1 POP PUSH2 0x173E JUMP JUMPDEST DUP2 PUSH2 0x1690 JUMPI PUSH1 0x0 SWAP1 POP PUSH2 0x173E JUMP JUMPDEST DUP2 PUSH1 0x1 DUP2 EQ PUSH2 0x16A6 JUMPI PUSH1 0x2 DUP2 EQ PUSH2 0x16B0 JUMPI PUSH2 0x16DF JUMP JUMPDEST PUSH1 0x1 SWAP2 POP POP PUSH2 0x173E JUMP JUMPDEST PUSH1 0xFF DUP5 GT ISZERO PUSH2 0x16C2 JUMPI PUSH2 0x16C1 PUSH2 0x1386 JUMP JUMPDEST JUMPDEST DUP4 PUSH1 0x2 EXP SWAP2 POP DUP5 DUP3 GT ISZERO PUSH2 0x16D9 JUMPI PUSH2 0x16D8 PUSH2 0x1386 JUMP JUMPDEST JUMPDEST POP PUSH2 0x173E JUMP JUMPDEST POP PUSH1 0x20 DUP4 LT PUSH2 0x133 DUP4 LT AND PUSH1 0x4E DUP5 LT PUSH1 0xB DUP5 LT AND OR ISZERO PUSH2 0x1714 JUMPI DUP3 DUP3 EXP SWAP1 POP DUP4 DUP2 GT ISZERO PUSH2 0x170F JUMPI PUSH2 0x170E PUSH2 0x1386 JUMP JUMPDEST JUMPDEST PUSH2 0x173E JUMP JUMPDEST PUSH2 0x1721 DUP5 DUP5 DUP5 PUSH1 0x1 PUSH2 0x161F JUMP JUMPDEST SWAP3 POP SWAP1 POP DUP2 DUP5 DIV DUP2 GT ISZERO PUSH2 0x1738 JUMPI PUSH2 0x1737 PUSH2 0x1386 JUMP JUMPDEST JUMPDEST DUP2 DUP2 MUL SWAP1 POP JUMPDEST SWAP4 SWAP3 POP POP POP JUMP JUMPDEST PUSH1 0x0 PUSH2 0x1750 DUP3 PUSH2 0xDDB JUMP JUMPDEST SWAP2 POP PUSH2 0x175B DUP4 PUSH2 0x15AC JUMP JUMPDEST SWAP3 POP PUSH2 0x1788 PUSH32 0xFFFFFFFFFFFFFFFFFFFFFFFFFFFFFFFFFFFFFFFFFFFFFFFFFFFFFFFFFFFFFFFF DUP5 DUP5 PUSH2 0x1672 JUMP JUMPDEST SWAP1 POP SWAP3 SWAP2 POP POP JUMP JUMPDEST PUSH1 0x0 PUSH2 0x179B DUP3 PUSH2 0xDDB JUMP JUMPDEST SWAP2 POP PUSH2 0x17A6 DUP4 PUSH2 0xDDB JUMP JUMPDEST SWAP3 POP DUP3 DUP3 MUL PUSH2 0x17B4 DUP2 PUSH2 0xDDB JUMP JUMPDEST SWAP2 POP DUP3 DUP3 DIV DUP5 EQ DUP4 ISZERO OR PUSH2 0x17CB JUMPI PUSH2 0x17CA PUSH2 0x1386 JUMP JUMPDEST JUMPDEST POP SWAP3 SWAP2 POP POP JUMP JUMPDEST PUSH32 0x4E487B7100000000000000000000000000000000000000000000000000000000 PUSH1 0x0 MSTORE PUSH1 0x32 PUSH1 0x4 MSTORE PUSH1 0x24 PUSH1 0x0 REVERT JUMPDEST PUSH1 0x0 DUP2 SWAP1 POP SWAP2 SWAP1 POP JUMP JUMPDEST PUSH1 0x0 DUP2 SWAP1 POP SWAP2 SWAP1 POP JUMP JUMPDEST PUSH1 0x0 PUSH2 0x1830 PUSH2 0x182B PUSH2 0x1826 DUP5 PUSH2 0x1801 JUMP JUMPDEST PUSH2 0x180B JUMP JUMPDEST PUSH2 0x15AC JUMP JUMPDEST SWAP1 POP SWAP2 SWAP1 POP JUMP JUMPDEST PUSH2 0x1840 DUP2 PUSH2 0x1815 JUMP JUMPDEST DUP3 MSTORE POP POP JUMP JUMPDEST PUSH1 0x0 DUP2 MLOAD SWAP1 POP SWAP2 SWAP1 POP JUMP JUMPDEST PUSH1 0x0 DUP3 DUP3 MSTORE PUSH1 0x20 DUP3 ADD SWAP1 POP SWAP3 SWAP2 POP POP JUMP JUMPDEST PUSH1 0x0 DUP2 SWAP1 POP PUSH1 0x20 DUP3 ADD SWAP1 POP SWAP2 SWAP1 POP JUMP JUMPDEST PUSH1 0x0 PUSH2 0x187E DUP4 DUP4 PUSH2 0x152D JUMP JUMPDEST PUSH1 0x20 DUP4 ADD SWAP1 POP SWAP3 SWAP2 POP POP JUMP JUMPDEST PUSH1 0x0 PUSH1 0x20 DUP3 ADD SWAP1 POP SWAP2 SWAP1 POP JUMP JUMPDEST PUSH1 0x0 PUSH2 0x18A2 DUP3 PUSH2 0x1846 JUMP JUMPDEST PUSH2 0x18AC DUP2 DUP6 PUSH2 0x1851 JUMP JUMPDEST SWAP4 POP PUSH2 0x18B7 DUP4 PUSH2 0x1862 JUMP JUMPDEST DUP1 PUSH1 0x0 JUMPDEST DUP4 DUP2 LT ISZERO PUSH2 0x18E8 JUMPI DUP2 MLOAD PUSH2 0x18CF DUP9 DUP3 PUSH2 0x1872 JUMP JUMPDEST SWAP8 POP PUSH2 0x18DA DUP4 PUSH2 0x188A JUMP JUMPDEST SWAP3 POP POP PUSH1 0x1 DUP2 ADD SWAP1 POP PUSH2 0x18BB JUMP JUMPDEST POP DUP6 SWAP4 POP POP POP POP SWAP3 SWAP2 POP POP JUMP JUMPDEST PUSH1 0x0 PUSH1 0xA0 DUP3 ADD SWAP1 POP PUSH2 0x190A PUSH1 0x0 DUP4 ADD DUP9 PUSH2 0xF3A JUMP JUMPDEST PUSH2 0x1917 PUSH1 0x20 DUP4 ADD DUP8 PUSH2 0x1837 JUMP JUMPDEST DUP2 DUP2 SUB PUSH1 0x40 DUP4 ADD MSTORE PUSH2 0x1929 DUP2 DUP7 PUSH2 0x1897 JUMP JUMPDEST SWAP1 POP PUSH2 0x1938 PUSH1 0x60 DUP4 ADD DUP6 PUSH2 0xF10 JUMP JUMPDEST PUSH2 0x1945 PUSH1 0x80 DUP4 ADD DUP5 PUSH2 0xF3A JUMP JUMPDEST SWAP7 SWAP6 POP POP POP POP POP POP JUMP JUMPDEST PUSH1 0x0 DUP2 MLOAD SWAP1 POP SWAP2 SWAP1 POP JUMP JUMPDEST PUSH1 0x0 DUP2 SWAP1 POP SWAP3 SWAP2 POP POP JUMP JUMPDEST PUSH1 0x0 JUMPDEST DUP4 DUP2 LT ISZERO PUSH2 0x1983 JUMPI DUP1 DUP3 ADD MLOAD DUP2 DUP5 ADD MSTORE PUSH1 0x20 DUP2 ADD SWAP1 POP PUSH2 0x1968 JUMP JUMPDEST PUSH1 0x0 DUP5 DUP5 ADD MSTORE POP POP POP POP JUMP JUMPDEST PUSH1 0x0 PUSH2 0x199A DUP3 PUSH2 0x194F JUMP JUMPDEST PUSH2 0x19A4 DUP2 DUP6 PUSH2 0x195A JUMP JUMPDEST SWAP4 POP PUSH2 0x19B4 DUP2 DUP6 PUSH1 0x20 DUP7 ADD PUSH2 0x1965 JUMP JUMPDEST DUP1 DUP5 ADD SWAP2 POP POP SWAP3 SWAP2 POP POP JUMP JUMPDEST PUSH1 0x0 PUSH2 0x19CC DUP3 DUP5 PUSH2 0x198F JUMP JUMPDEST SWAP2 POP DUP2 SWAP1 POP SWAP3 SWAP2 POP POP JUMP JUMPDEST PUSH32 0x53776170206661696C6564000000000000000000000000000000000000000000 PUSH1 0x0 DUP3 ADD MSTORE POP JUMP JUMPDEST PUSH1 0x0 PUSH2 0x1A0D PUSH1 0xB DUP4 PUSH2 0xFCB JUMP JUMPDEST SWAP2 POP PUSH2 0x1A18 DUP3 PUSH2 0x19D7 JUMP JUMPDEST PUSH1 0x20 DUP3 ADD SWAP1 POP SWAP2 SWAP1 POP JUMP JUMPDEST PUSH1 0x0 PUSH1 0x20 DUP3 ADD SWAP1 POP DUP2 DUP2 SUB PUSH1 0x0 DUP4 ADD MSTORE PUSH2 0x1A3C DUP2 PUSH2 0x1A00 JUMP JUMPDEST SWAP1 POP SWAP2 SWAP1 POP JUMP JUMPDEST PUSH1 0x0 DUP3 DUP3 MSTORE PUSH1 0x20 DUP3 ADD SWAP1 POP SWAP3 SWAP2 POP POP JUMP JUMPDEST PUSH1 0x0 PUSH2 0x1A5F DUP3 PUSH2 0x194F JUMP JUMPDEST PUSH2 0x1A69 DUP2 DUP6 PUSH2 0x1A43 JUMP JUMPDEST SWAP4 POP PUSH2 0x1A79 DUP2 DUP6 PUSH1 0x20 DUP7 ADD PUSH2 0x1965 JUMP JUMPDEST PUSH2 0x1A82 DUP2 PUSH2 0x10B9 JUMP JUMPDEST DUP5 ADD SWAP2 POP POP SWAP3 SWAP2 POP POP JUMP JUMPDEST PUSH1 0x0 PUSH2 0xFFFF DUP3 AND SWAP1 POP SWAP2 SWAP1 POP JUMP JUMPDEST PUSH1 0x0 PUSH2 0x1AB6 PUSH2 0x1AB1 PUSH2 0x1AAC DUP5 PUSH2 0x1801 JUMP JUMPDEST PUSH2 0x180B JUMP JUMPDEST PUSH2 0x1A8D JUMP JUMPDEST SWAP1 POP SWAP2 SWAP1 POP JUMP JUMPDEST PUSH2 0x1AC6 DUP2 PUSH2 0x1A9B JUMP JUMPDEST DUP3 MSTORE POP POP JUMP JUMPDEST PUSH1 0x0 PUSH1 0xA0 DUP3 ADD SWAP1 POP PUSH2 0x1AE1 PUSH1 0x0 DUP4 ADD DUP9 PUSH2 0xF10 JUMP JUMPDEST PUSH2 0x1AEE PUSH1 0x20 DUP4 ADD DUP8 PUSH2 0xF10 JUMP JUMPDEST PUSH2 0x1AFB PUSH1 0x40 DUP4 ADD DUP7 PUSH2 0xF3A JUMP JUMPDEST DUP2 DUP2 SUB PUSH1 0x60 DUP4 ADD MSTORE PUSH2 0x1B0D DUP2 DUP6 PUSH2 0x1A54 JUMP JUMPDEST SWAP1 POP PUSH2 0x1B1C PUSH1 0x80 DUP4 ADD DUP5 PUSH2 0x1ABD JUMP JUMPDEST SWAP7 SWAP6 POP POP POP POP POP POP JUMP INVALID LOG2 PUSH5 0x6970667358 0x22 SLT KECCAK256 TIMESTAMP DUP4 PUSH22 0x962B3E76F2701BE6FBA52D06BE947A3694CE2B130FEC OR LT 0x5D DUP12 SWAP16 0xDA DELEGATECALL PUSH5 0x736F6C6343 STOP ADDMOD EQ STOP CALLER "},"methodIdentifiers":{"POOL()":"7535d246","executeFlashArbitrage(address,address,address,address)":"9ecb6910","executeOperation(address,uint256,uint256,address,bytes)":"1b11d0ff","minProfit()":"75c81ad0","whitelistedRouters(address)":"0f874a13"}}}}}