{"contracts/MultiPairFlashArbitrage.sol":{"MultiPairFlashArbitrage":{"abi":[{"inputs":[{"internalType":"address","name":"_addressProvider","type":"address"},{"internalType":"address[]","name":"routerAddresses","type":"address[]"},{"internalType":"uint256","name":"_minProfit","type":"uint256"}],"stateMutability":"nonpayable","type":"constructor"},{"anonymous":false,"inputs":[{"indexed":false,"internalType":"uint256","name":"totalOwed","type":"uint256"},{"indexed":false,"internalType":"uint256","name":"scaledMinProfit","type":"uint256"},{"indexed":false,"internalType":"uint256","name":"finalBalance","type":"uint256"}],"name":"DebugCheck","type":"event"},{"anonymous":false,"inputs":[{"indexed":false,"internalType":"uint256","name":"flashAmount","type":"uint256"},{"indexed":false,"internalType":"uint256","name":"premium","type":"uint256"},{"indexed":false,"internalType":"uint256","name":"token0Before","type":"uint256"},{"indexed":false,"internalType":"uint256","name":"token1AfterSwap1","type":"uint256"},{"indexed":false,"internalType":"uint256","name":"token0AfterSwap2","type":"uint256"}],"name":"DebugLog","type":"event"},{"inputs":[],"name":"POOL","outputs":[{"internalType":"address","name":"","type":"address"}],"stateMutability":"view","type":"function"},{"inputs":[{"internalType":"address","name":"token0","type":"address"},{"internalType":"address","name":"token1","type":"address"},{"internalType":"address","name":"router0","type":"address"},{"internalType":"address","name":"router1","type":"address"}],"name":"executeFlashArbitrage","outputs":[],"stateMutability":"nonpayable","type":"function"},{"inputs":[{"internalType":"address","name":"asset","type":"address"},{"internalType":"uint256","name":"amount","type":"uint256"},{"internalType":"uint256","name":"premium","type":"uint256"},{"internalType":"address","name":"initiator","type":"address"},{"internalType":"bytes","name":"params","type":"bytes"}],"name":"executeOperation","outputs":[{"internalType":"bool","name":"","type":"bool"}],"stateMutability":"nonpayable","type":"function"},{"inputs":[{"internalType":"address","name":"token0","type":"address"},{"internalType":"address","name":"token1","type":"address"},{"internalType":"address","name":"token2","type":"address"},{"internalType":"address","name":"router0","type":"address"},{"internalType":"address","name":"router1","type":"address"},{"internalType":"address","name":"router2","type":"address"}],"name":"executeTriangleArbitrage","outputs":[],"stateMutability":"nonpayable","type":"function"},{"inputs":[],"name":"minProfit","outputs":[{"internalType":"uint256","name":"","type":"uint256"}],"stateMutability":"view","type":"function"},{"inputs":[],"name":"owner","outputs":[{"internalType":"address","name":"","type":"address"}],"stateMutability":"view","type":"function"},{"inputs":[{"internalType":"address","name":"","type":"address"}],"name":"whitelistedRouters","outputs":[{"internalType":"bool","name":"","type":"bool"}],"stateMutability":"view","type":"function"},{"inputs":[],"name":"withdrawNative","outputs":[],"stateMutability":"nonpayable","type":"function"},{"inputs":[{"internalType":"address","name":"token","type":"address"}],"name":"withdrawToken","outputs":[],"stateMutability":"nonpayable","type":"function"}],"evm":{"bytecode":{"linkReferences":{},"object":"60c06040523480156200001157600080fd5b5060405162002c7738038062002c778339818101604052810190620000379190620003ef565b8273ffffffffffffffffffffffffffffffffffffffff1663026b1d5f6040518163ffffffff1660e01b8152600401602060405180830381865afa15801562000083573d6000803e3d6000fd5b505050506040513d601f19601f82011682018060405250810190620000a991906200046a565b73ffffffffffffffffffffffffffffffffffffffff1660808173ffffffffffffffffffffffffffffffffffffffff168152505060005b8251811015620001735760016000808584815181106200010457620001036200049c565b5b602002602001015173ffffffffffffffffffffffffffffffffffffffff1673ffffffffffffffffffffffffffffffffffffffff16815260200190815260200160002060006101000a81548160ff02191690831515021790555080806200016a90620004fa565b915050620000df565b508060a0818152505033600160006101000a81548173ffffffffffffffffffffffffffffffffffffffff021916908373ffffffffffffffffffffffffffffffffffffffff16021790555050505062000547565b6000604051905090565b600080fd5b600080fd5b600073ffffffffffffffffffffffffffffffffffffffff82169050919050565b60006200020782620001da565b9050919050565b6200021981620001fa565b81146200022557600080fd5b50565b60008151905062000239816200020e565b92915050565b600080fd5b6000601f19601f8301169050919050565b7f4e487b7100000000000000000000000000000000000000000000000000000000600052604160045260246000fd5b6200028f8262000244565b810181811067ffffffffffffffff82111715620002b157620002b062000255565b5b80604052505050565b6000620002c6620001c6565b9050620002d4828262000284565b919050565b600067ffffffffffffffff821115620002f757620002f662000255565b5b602082029050602081019050919050565b600080fd5b6000620003246200031e84620002d9565b620002ba565b905080838252602082019050602084028301858111156200034a576200034962000308565b5b835b8181101562000377578062000362888262000228565b8452602084019350506020810190506200034c565b5050509392505050565b600082601f8301126200039957620003986200023f565b5b8151620003ab8482602086016200030d565b91505092915050565b6000819050919050565b620003c981620003b4565b8114620003d557600080fd5b50565b600081519050620003e981620003be565b92915050565b6000806000606084860312156200040b576200040a620001d0565b5b60006200041b8682870162000228565b935050602084015167ffffffffffffffff8111156200043f576200043e620001d5565b5b6200044d8682870162000381565b92505060406200046086828701620003d8565b9150509250925092565b600060208284031215620004835762000482620001d0565b5b6000620004938482850162000228565b91505092915050565b7f4e487b7100000000000000000000000000000000000000000000000000000000600052603260045260246000fd5b7f4e487b7100000000000000000000000000000000000000000000000000000000600052601160045260246000fd5b60006200050782620003b4565b91507fffffffffffffffffffffffffffffffffffffffffffffffffffffffffffffffff82036200053c576200053b620004cb565b5b600182019050919050565b60805160a0516126ee62000589600039600081816107ed0152610afc0152600081816101d40152818161094501528181610ad8015261143901526126ee6000f3fe608060405234801561001057600080fd5b50600436106100935760003560e01c806375c81ad01161006657806375c81ad014610120578063894760691461013e5780638da5cb5b1461015a5780639ecb691014610178578063cf2f84771461019457610093565b80630f874a13146100985780631b11d0ff146100c857806350431ce4146100f85780637535d24614610102575b600080fd5b6100b260048036038101906100ad9190611542565b6101b0565b6040516100bf919061158a565b60405180910390f35b6100e260048036038101906100dd9190611640565b6101d0565b6040516100ef919061158a565b60405180910390f35b6101006109db565b005b61010a610ad6565b60405161011791906116e9565b60405180910390f35b610128610afa565b6040516101359190611713565b60405180910390f35b61015860048036038101906101539190611542565b610b1e565b005b610162610d14565b60405161016f91906116e9565b60405180910390f35b610192600480360381019061018d919061172e565b610d3a565b005b6101ae60048036038101906101a99190611795565b610fcd565b005b60006020528060005260406000206000915054906101000a900460ff1681565b60007f000000000000000000000000000000000000000000000000000000000000000073ffffffffffffffffffffffffffffffffffffffff163373ffffffffffffffffffffffffffffffffffffffff1614610260576040517f08c379a00000000000000000000000000000000000000000000000000000000081526004016102579061187f565b60405180910390fd5b3073ffffffffffffffffffffffffffffffffffffffff168473ffffffffffffffffffffffffffffffffffffffff16146102ce576040517f08c379a00000000000000000000000000000000000000000000000000000000081526004016102c5906118eb565b60405180910390fd5b600083838101906102df9190611a14565b9050600080826040015173ffffffffffffffffffffffffffffffffffffffff1673ffffffffffffffffffffffffffffffffffffffff16815260200190815260200160002060009054906101000a900460ff16610370576040517f08c379a000000000000000000000000000000000000000000000000000000000815260040161036790611a8d565b60405180910390fd5b600080826060015173ffffffffffffffffffffffffffffffffffffffff1673ffffffffffffffffffffffffffffffffffffffff16815260200190815260200160002060009054906101000a900460ff166103ff576040517f08c379a00000000000000000000000000000000000000000000000000000000081526004016103f690611af9565b60405180910390fd5b6000816000015173ffffffffffffffffffffffffffffffffffffffff166370a08231306040518263ffffffff1660e01b815260040161043e91906116e9565b602060405180830381865afa15801561045b573d6000803e3d6000fd5b505050506040513d601f19601f8201168201806040525081019061047f9190611b2e565b9050816000015173ffffffffffffffffffffffffffffffffffffffff1663095ea7b383604001518a6040518363ffffffff1660e01b81526004016104c4929190611b5b565b6020604051808303816000875af11580156104e3573d6000803e3d6000fd5b505050506040513d601f19601f820116820180604052508101906105079190611bb0565b5061052082604001518984600001518560200151611200565b6000826020015173ffffffffffffffffffffffffffffffffffffffff166370a08231306040518263ffffffff1660e01b815260040161055f91906116e9565b602060405180830381865afa15801561057c573d6000803e3d6000fd5b505050506040513d601f19601f820116820180604052508101906105a09190611b2e565b9050600081116105e5576040517f08c379a00000000000000000000000000000000000000000000000000000000081526004016105dc90611c29565b60405180910390fd5b826020015173ffffffffffffffffffffffffffffffffffffffff1663095ea7b38460600151836040518363ffffffff1660e01b8152600401610628929190611b5b565b6020604051808303816000875af1158015610647573d6000803e3d6000fd5b505050506040513d601f19601f8201168201806040525081019061066b9190611bb0565b5061068483606001518285602001518660000151611200565b6000836000015173ffffffffffffffffffffffffffffffffffffffff166370a08231306040518263ffffffff1660e01b81526004016106c391906116e9565b602060405180830381865afa1580156106e0573d6000803e3d6000fd5b505050506040513d601f19601f820116820180604052508101906107049190611b2e565b905060008111610749576040517f08c379a000000000000000000000000000000000000000000000000000000000815260040161074090611c95565b60405180910390fd5b6000898b6107579190611ce4565b90506000856000015173ffffffffffffffffffffffffffffffffffffffff1663313ce5676040518163ffffffff1660e01b8152600401602060405180830381865afa1580156107aa573d6000803e3d6000fd5b505050506040513d601f19601f820116820180604052508101906107ce9190611d51565b905060008160126107df9190611d7e565b600a6107eb9190611ee6565b7f00000000000000000000000000000000000000000000000000000000000000006108169190611f60565b90507fd8dfa1df854fcceb7d93b8d19ac99c35a6d6f85ddb3176be33bb5a312f9e363d8d8d88888860405161084f959493929190611f91565b60405180910390a17ff4dbd397aa2b592b3852cd94a99201dbc3622cfc8626dc0b547151722064a11783828660405161088a93929190611fe4565b60405180910390a1828410156108d5576040517f08c379a00000000000000000000000000000000000000000000000000000000081526004016108cc90612067565b60405180910390fd5b80836108e19190611ce4565b841015610923576040517f08c379a000000000000000000000000000000000000000000000000000000000815260040161091a906120d3565b60405180910390fd5b866000015173ffffffffffffffffffffffffffffffffffffffff1663095ea7b37f0000000000000000000000000000000000000000000000000000000000000000856040518363ffffffff1660e01b8152600401610982929190611b5b565b6020604051808303816000875af11580156109a1573d6000803e3d6000fd5b505050506040513d601f19601f820116820180604052508101906109c59190611bb0565b5060019750505050505050509695505050505050565b600160009054906101000a900473ffffffffffffffffffffffffffffffffffffffff1673ffffffffffffffffffffffffffffffffffffffff163373ffffffffffffffffffffffffffffffffffffffff1614610a6b576040517f08c379a0000000000000000000000000000000000000000000000000000000008152600401610a629061213f565b60405180910390fd5b600160009054906101000a900473ffffffffffffffffffffffffffffffffffffffff1673ffffffffffffffffffffffffffffffffffffffff166108fc479081150290604051600060405180830381858888f19350505050158015610ad3573d6000803e3d6000fd5b50565b7f000000000000000000000000000000000000000000000000000000000000000081565b7f000000000000000000000000000000000000000000000000000000000000000081565b600160009054906101000a900473ffffffffffffffffffffffffffffffffffffffff1673ffffffffffffffffffffffffffffffffffffffff163373ffffffffffffffffffffffffffffffffffffffff1614610bae576040517f08c379a0000000000000000000000000000000000000000000000000000000008152600401610ba59061213f565b60405180910390fd5b60008173ffffffffffffffffffffffffffffffffffffffff166370a08231306040518263ffffffff1660e01b8152600401610be991906116e9565b602060405180830381865afa158015610c06573d6000803e3d6000fd5b505050506040513d601f19601f82011682018060405250810190610c2a9190611b2e565b905060008111610c6f576040517f08c379a0000000000000000000000000000000000000000000000000000000008152600401610c66906121ab565b60405180910390fd5b8173ffffffffffffffffffffffffffffffffffffffff1663a9059cbb600160009054906101000a900473ffffffffffffffffffffffffffffffffffffffff16836040518363ffffffff1660e01b8152600401610ccc929190611b5b565b6020604051808303816000875af1158015610ceb573d6000803e3d6000fd5b505050506040513d601f19601f82011682018060405250810190610d0f9190611bb0565b505050565b600160009054906101000a900473ffffffffffffffffffffffffffffffffffffffff1681565b600073ffffffffffffffffffffffffffffffffffffffff168473ffffffffffffffffffffffffffffffffffffffff1614158015610da45750600073ffffffffffffffffffffffffffffffffffffffff168373ffffffffffffffffffffffffffffffffffffffff1614155b610de3576040517f08c379a0000000000000000000000000000000000000000000000000000000008152600401610dda90612217565b60405180910390fd5b600073ffffffffffffffffffffffffffffffffffffffff168273ffffffffffffffffffffffffffffffffffffffff1614158015610e4d5750600073ffffffffffffffffffffffffffffffffffffffff168173ffffffffffffffffffffffffffffffffffffffff1614155b610e8c576040517f08c379a0000000000000000000000000000000000000000000000000000000008152600401610e8390612283565b60405180910390fd5b600060405180608001604052808673ffffffffffffffffffffffffffffffffffffffff1681526020018573ffffffffffffffffffffffffffffffffffffffff1681526020018473ffffffffffffffffffffffffffffffffffffffff1681526020018373ffffffffffffffffffffffffffffffffffffffff168152509050600081604051602001610f1c9190612307565b604051602081830303815290604052905060008673ffffffffffffffffffffffffffffffffffffffff1663313ce5676040518163ffffffff1660e01b8152600401602060405180830381865afa158015610f7a573d6000803e3d6000fd5b505050506040513d601f19601f82011682018060405250810190610f9e9190611d51565b600a610faa9190611ee6565b6103e8610fb79190612322565b9050610fc4878284611437565b50505050505050565b600160009054906101000a900473ffffffffffffffffffffffffffffffffffffffff1673ffffffffffffffffffffffffffffffffffffffff163373ffffffffffffffffffffffffffffffffffffffff161461105d576040517f08c379a00000000000000000000000000000000000000000000000000000000081526004016110549061213f565b60405180910390fd5b60008673ffffffffffffffffffffffffffffffffffffffff166370a08231306040518263ffffffff1660e01b815260040161109891906116e9565b602060405180830381865afa1580156110b5573d6000803e3d6000fd5b505050506040513d601f19601f820116820180604052508101906110d99190611b2e565b90506110e784828989611200565b8573ffffffffffffffffffffffffffffffffffffffff166370a08231306040518263ffffffff1660e01b815260040161112091906116e9565b602060405180830381865afa15801561113d573d6000803e3d6000fd5b505050506040513d601f19601f820116820180604052508101906111619190611b2e565b905061116f83828888611200565b8473ffffffffffffffffffffffffffffffffffffffff166370a08231306040518263ffffffff1660e01b81526004016111a891906116e9565b602060405180830381865afa1580156111c5573d6000803e3d6000fd5b505050506040513d601f19601f820116820180604052508101906111e99190611b2e565b90506111f78282878a611200565b50505050505050565b6000600267ffffffffffffffff81111561121d5761121c611921565b5b60405190808252806020026020018201604052801561124b5781602001602082028036833780820191505090505b509050828160008151811061126357611262612364565b5b602002602001019073ffffffffffffffffffffffffffffffffffffffff16908173ffffffffffffffffffffffffffffffffffffffff168152505081816001815181106112b2576112b1612364565b5b602002602001019073ffffffffffffffffffffffffffffffffffffffff16908173ffffffffffffffffffffffffffffffffffffffff168152505060008573ffffffffffffffffffffffffffffffffffffffff1685600084304260405160240161131f959493929190612487565b6040516020818303038152906040527f38ed1739000000000000000000000000000000000000000000000000000000007bffffffffffffffffffffffffffffffffffffffffffffffffffffffff19166020820180517bffffffffffffffffffffffffffffffffffffffffffffffffffffffff83818316178352505050506040516113a99190612552565b6000604051808303816000865af19150503d80600081146113e6576040519150601f19603f3d011682016040523d82523d6000602084013e6113eb565b606091505b505090508061142f576040517f08c379a0000000000000000000000000000000000000000000000000000000008152600401611426906125b5565b60405180910390fd5b505050505050565b7f000000000000000000000000000000000000000000000000000000000000000073ffffffffffffffffffffffffffffffffffffffff166342b0b77c3085858560006040518663ffffffff1660e01b815260040161149995949392919061265e565b600060405180830381600087803b1580156114b357600080fd5b505af11580156114c7573d6000803e3d6000fd5b50505050505050565b6000604051905090565b600080fd5b600080fd5b600073ffffffffffffffffffffffffffffffffffffffff82169050919050565b600061150f826114e4565b9050919050565b61151f81611504565b811461152a57600080fd5b50565b60008135905061153c81611516565b92915050565b600060208284031215611558576115576114da565b5b60006115668482850161152d565b91505092915050565b60008115159050919050565b6115848161156f565b82525050565b600060208201905061159f600083018461157b565b92915050565b6000819050919050565b6115b8816115a5565b81146115c357600080fd5b50565b6000813590506115d5816115af565b92915050565b600080fd5b600080fd5b600080fd5b60008083601f840112611600576115ff6115db565b5b8235905067ffffffffffffffff81111561161d5761161c6115e0565b5b602083019150836001820283011115611639576116386115e5565b5b9250929050565b60008060008060008060a0878903121561165d5761165c6114da565b5b600061166b89828a0161152d565b965050602061167c89828a016115c6565b955050604061168d89828a016115c6565b945050606061169e89828a0161152d565b935050608087013567ffffffffffffffff8111156116bf576116be6114df565b5b6116cb89828a016115ea565b92509250509295509295509295565b6116e381611504565b82525050565b60006020820190506116fe60008301846116da565b92915050565b61170d816115a5565b82525050565b60006020820190506117286000830184611704565b92915050565b60008060008060808587031215611748576117476114da565b5b60006117568782880161152d565b94505060206117678782880161152d565b93505060406117788782880161152d565b92505060606117898782880161152d565b91505092959194509250565b60008060008060008060c087890312156117b2576117b16114da565b5b60006117c089828a0161152d565b96505060206117d189828a0161152d565b95505060406117e289828a0161152d565b94505060606117f389828a0161152d565b935050608061180489828a0161152d565b92505060a061181589828a0161152d565b9150509295509295509295565b600082825260208201905092915050565b7f4f6e6c7920706f6f6c2063616e2063616c6c0000000000000000000000000000600082015250565b6000611869601283611822565b915061187482611833565b602082019050919050565b600060208201905081810360008301526118988161185c565b9050919050565b7f4f6e6c792073656c6620696e6974696174656400000000000000000000000000600082015250565b60006118d5601383611822565b91506118e08261189f565b602082019050919050565b60006020820190508181036000830152611904816118c8565b9050919050565b600080fd5b6000601f19601f8301169050919050565b7f4e487b7100000000000000000000000000000000000000000000000000000000600052604160045260246000fd5b61195982611910565b810181811067ffffffffffffffff8211171561197857611977611921565b5b80604052505050565b600061198b6114d0565b90506119978282611950565b919050565b6000608082840312156119b2576119b161190b565b5b6119bc6080611981565b905060006119cc8482850161152d565b60008301525060206119e08482850161152d565b60208301525060406119f48482850161152d565b6040830152506060611a088482850161152d565b60608301525092915050565b600060808284031215611a2a57611a296114da565b5b6000611a388482850161199c565b91505092915050565b7f526f7574657230206e6f742077686974656c6973746564000000000000000000600082015250565b6000611a77601783611822565b9150611a8282611a41565b602082019050919050565b60006020820190508181036000830152611aa681611a6a565b9050919050565b7f526f7574657231206e6f742077686974656c6973746564000000000000000000600082015250565b6000611ae3601783611822565b9150611aee82611aad565b602082019050919050565b60006020820190508181036000830152611b1281611ad6565b9050919050565b600081519050611b28816115af565b92915050565b600060208284031215611b4457611b436114da565b5b6000611b5284828501611b19565b91505092915050565b6000604082019050611b7060008301856116da565b611b7d6020830184611704565b9392505050565b611b8d8161156f565b8114611b9857600080fd5b50565b600081519050611baa81611b84565b92915050565b600060208284031215611bc657611bc56114da565b5b6000611bd484828501611b9b565b91505092915050565b7f53776170312072657475726e6564203000000000000000000000000000000000600082015250565b6000611c13601083611822565b9150611c1e82611bdd565b602082019050919050565b60006020820190508181036000830152611c4281611c06565b9050919050565b7f53776170322072657475726e6564203000000000000000000000000000000000600082015250565b6000611c7f601083611822565b9150611c8a82611c49565b602082019050919050565b60006020820190508181036000830152611cae81611c72565b9050919050565b7f4e487b7100000000000000000000000000000000000000000000000000000000600052601160045260246000fd5b6000611cef826115a5565b9150611cfa836115a5565b9250828201905080821115611d1257611d11611cb5565b5b92915050565b600060ff82169050919050565b611d2e81611d18565b8114611d3957600080fd5b50565b600081519050611d4b81611d25565b92915050565b600060208284031215611d6757611d666114da565b5b6000611d7584828501611d3c565b91505092915050565b6000611d8982611d18565b9150611d9483611d18565b9250828203905060ff811115611dad57611dac611cb5565b5b92915050565b60008160011c9050919050565b6000808291508390505b6001851115611e0a57808604811115611de657611de5611cb5565b5b6001851615611df55780820291505b8081029050611e0385611db3565b9450611dca565b94509492505050565b600082611e235760019050611edf565b81611e315760009050611edf565b8160018114611e475760028114611e5157611e80565b6001915050611edf565b60ff841115611e6357611e62611cb5565b5b8360020a915084821115611e7a57611e79611cb5565b5b50611edf565b5060208310610133831016604e8410600b8410161715611eb55782820a905083811115611eb057611eaf611cb5565b5b611edf565b611ec28484846001611dc0565b92509050818404811115611ed957611ed8611cb5565b5b81810290505b9392505050565b6000611ef1826115a5565b9150611efc83611d18565b9250611f297fffffffffffffffffffffffffffffffffffffffffffffffffffffffffffffffff8484611e13565b905092915050565b7f4e487b7100000000000000000000000000000000000000000000000000000000600052601260045260246000fd5b6000611f6b826115a5565b9150611f76836115a5565b925082611f8657611f85611f31565b5b828204905092915050565b600060a082019050611fa66000830188611704565b611fb36020830187611704565b611fc06040830186611704565b611fcd6060830185611704565b611fda6080830184611704565b9695505050505050565b6000606082019050611ff96000830186611704565b6120066020830185611704565b6120136040830184611704565b949350505050565b7f43616e6e6f74207265706179206c6f616e000000000000000000000000000000600082015250565b6000612051601183611822565b915061205c8261201b565b602082019050919050565b6000602082019050818103600083015261208081612044565b9050919050565b7f4e6f742070726f66697461626c65000000000000000000000000000000000000600082015250565b60006120bd600e83611822565b91506120c882612087565b602082019050919050565b600060208201905081810360008301526120ec816120b0565b9050919050565b7f4e6f7420746865206f776e657200000000000000000000000000000000000000600082015250565b6000612129600d83611822565b9150612134826120f3565b602082019050919050565b600060208201905081810360008301526121588161211c565b9050919050565b7f4e6f20746f6b656e2062616c616e636500000000000000000000000000000000600082015250565b6000612195601083611822565b91506121a08261215f565b602082019050919050565b600060208201905081810360008301526121c481612188565b9050919050565b7f496e76616c696420746f6b656e20616464726573736573000000000000000000600082015250565b6000612201601783611822565b915061220c826121cb565b602082019050919050565b60006020820190508181036000830152612230816121f4565b9050919050565b7f496e76616c696420726f75746572206164647265737365730000000000000000600082015250565b600061226d601883611822565b915061227882612237565b602082019050919050565b6000602082019050818103600083015261229c81612260565b9050919050565b6122ac81611504565b82525050565b6080820160008201516122c860008501826122a3565b5060208201516122db60208501826122a3565b5060408201516122ee60408501826122a3565b50606082015161230160608501826122a3565b50505050565b600060808201905061231c60008301846122b2565b92915050565b600061232d826115a5565b9150612338836115a5565b9250828202612346816115a5565b9150828204841483151761235d5761235c611cb5565b5b5092915050565b7f4e487b7100000000000000000000000000000000000000000000000000000000600052603260045260246000fd5b6000819050919050565b6000819050919050565b60006123c26123bd6123b884612393565b61239d565b611d18565b9050919050565b6123d2816123a7565b82525050565b600081519050919050565b600082825260208201905092915050565b6000819050602082019050919050565b600061241083836122a3565b60208301905092915050565b6000602082019050919050565b6000612434826123d8565b61243e81856123e3565b9350612449836123f4565b8060005b8381101561247a5781516124618882612404565b975061246c8361241c565b92505060018101905061244d565b5085935050505092915050565b600060a08201905061249c6000830188611704565b6124a960208301876123c9565b81810360408301526124bb8186612429565b90506124ca60608301856116da565b6124d76080830184611704565b9695505050505050565b600081519050919050565b600081905092915050565b60005b838110156125155780820151818401526020810190506124fa565b60008484015250505050565b600061252c826124e1565b61253681856124ec565b93506125468185602086016124f7565b80840191505092915050565b600061255e8284612521565b915081905092915050565b7f53776170206661696c6564000000000000000000000000000000000000000000600082015250565b600061259f600b83611822565b91506125aa82612569565b602082019050919050565b600060208201905081810360008301526125ce81612592565b9050919050565b600082825260208201905092915050565b60006125f1826124e1565b6125fb81856125d5565b935061260b8185602086016124f7565b61261481611910565b840191505092915050565b600061ffff82169050919050565b600061264861264361263e84612393565b61239d565b61261f565b9050919050565b6126588161262d565b82525050565b600060a08201905061267360008301886116da565b61268060208301876116da565b61268d6040830186611704565b818103606083015261269f81856125e6565b90506126ae608083018461264f565b969550505050505056fea264697066735822122073ed0c59b60a6a6fa97c5072c068d9d5c63e319289a091a80a4f4bd7bf8d50d064736f6c63430008140033","opcodes":"PUSH1 0xC0 PUSH1 0x40 MSTORE CALLVALUE DUP1 ISZERO PUSH3 0x11 JUMPI PUSH1 0x0 DUP1 REVERT JUMPDEST POP PUSH1 0x40 MLOAD PUSH3 0x2C77 CODESIZE SUB DUP1 PUSH3 0x2C77 DUP4 CODECOPY DUP2 DUP2 ADD PUSH1 0x40 MSTORE DUP2 ADD SWAP1 PUSH3 0x37 SWAP2 SWAP1 PUSH3 0x3EF JUMP JUMPDEST DUP3 PUSH20 0xFFFFFFFFFFFFFFFFFFFFFFFFFFFFFFFFFFFFFFFF AND PUSH4 0x26B1D5F PUSH1 0x40 MLOAD DUP2 PUSH4 0xFFFFFFFF AND PUSH1 0xE0 SHL DUP2 MSTORE PUSH1 0x4 ADD PUSH1 0x20 PUSH1 0x40 MLOAD DUP1 DUP4 SUB DUP2 DUP7 GAS STATICCALL ISZERO DUP1 ISZERO PUSH3 0x83 JUMPI RETURNDATASIZE PUSH1 0x0 DUP1 RETURNDATACOPY RETURNDATASIZE PUSH1 0x0 REVERT JUMPDEST POP POP POP POP PUSH1 0x40 MLOAD RETURNDATASIZE PUSH1 0x1F NOT PUSH1 0x1F DUP3 ADD AND DUP3 ADD DUP1 PUSH1 0x40 MSTORE POP DUP2 ADD SWAP1 PUSH3 0xA9 SWAP2 SWAP1 PUSH3 0x46A JUMP JUMPDEST PUSH20 0xFFFFFFFFFFFFFFFFFFFFFFFFFFFFFFFFFFFFFFFF AND PUSH1 0x80 DUP2 PUSH20 0xFFFFFFFFFFFFFFFFFFFFFFFFFFFFFFFFFFFFFFFF AND DUP2 MSTORE POP POP PUSH1 0x0 JUMPDEST DUP3 MLOAD DUP2 LT ISZERO PUSH3 0x173 JUMPI PUSH1 0x1 PUSH1 0x0 DUP1 DUP6 DUP5 DUP2 MLOAD DUP2 LT PUSH3 0x104 JUMPI PUSH3 0x103 PUSH3 0x49C JUMP JUMPDEST JUMPDEST PUSH1 0x20 MUL PUSH1 0x20 ADD ADD MLOAD PUSH20 0xFFFFFFFFFFFFFFFFFFFFFFFFFFFFFFFFFFFFFFFF AND PUSH20 0xFFFFFFFFFFFFFFFFFFFFFFFFFFFFFFFFFFFFFFFF AND DUP2 MSTORE PUSH1 0x20 ADD SWAP1 DUP2 MSTORE PUSH1 0x20 ADD PUSH1 0x0 KECCAK256 PUSH1 0x0 PUSH2 0x100 EXP DUP2 SLOAD DUP2 PUSH1 0xFF MUL NOT AND SWAP1 DUP4 ISZERO ISZERO MUL OR SWAP1 SSTORE POP DUP1 DUP1 PUSH3 0x16A SWAP1 PUSH3 0x4FA JUMP JUMPDEST SWAP2 POP POP PUSH3 0xDF JUMP JUMPDEST POP DUP1 PUSH1 0xA0 DUP2 DUP2 MSTORE POP POP CALLER PUSH1 0x1 PUSH1 0x0 PUSH2 0x100 EXP DUP2 SLOAD DUP2 PUSH20 0xFFFFFFFFFFFFFFFFFFFFFFFFFFFFFFFFFFFFFFFF MUL NOT AND SWAP1 DUP4 PUSH20 0xFFFFFFFFFFFFFFFFFFFFFFFFFFFFFFFFFFFFFFFF AND MUL OR SWAP1 SSTORE POP POP POP POP PUSH3 0x547 JUMP JUMPDEST PUSH1 0x0 PUSH1 0x40 MLOAD SWAP1 POP SWAP1 JUMP JUMPDEST PUSH1 0x0 DUP1 REVERT JUMPDEST PUSH1 0x0 DUP1 REVERT JUMPDEST PUSH1 0x0 PUSH20 0xFFFFFFFFFFFFFFFFFFFFFFFFFFFFFFFFFFFFFFFF DUP3 AND SWAP1 POP SWAP2 SWAP1 POP JUMP JUMPDEST PUSH1 0x0 PUSH3 0x207 DUP3 PUSH3 0x1DA JUMP JUMPDEST SWAP1 POP SWAP2 SWAP1 POP JUMP JUMPDEST PUSH3 0x219 DUP2 PUSH3 0x1FA JUMP JUMPDEST DUP2 EQ PUSH3 0x225 JUMPI PUSH1 0x0 DUP1 REVERT JUMPDEST POP JUMP JUMPDEST PUSH1 0x0 DUP2 MLOAD SWAP1 POP PUSH3 0x239 DUP2 PUSH3 0x20E JUMP JUMPDEST SWAP3 SWAP2 POP POP JUMP JUMPDEST PUSH1 0x0 DUP1 REVERT JUMPDEST PUSH1 0x0 PUSH1 0x1F NOT PUSH1 0x1F DUP4 ADD AND SWAP1 POP SWAP2 SWAP1 POP JUMP JUMPDEST PUSH32 0x4E487B7100000000000000000000000000000000000000000000000000000000 PUSH1 0x0 MSTORE PUSH1 0x41 PUSH1 0x4 MSTORE PUSH1 0x24 PUSH1 0x0 REVERT JUMPDEST PUSH3 0x28F DUP3 PUSH3 0x244 JUMP JUMPDEST DUP2 ADD DUP2 DUP2 LT PUSH8 0xFFFFFFFFFFFFFFFF DUP3 GT OR ISZERO PUSH3 0x2B1 JUMPI PUSH3 0x2B0 PUSH3 0x255 JUMP JUMPDEST JUMPDEST DUP1 PUSH1 0x40 MSTORE POP POP POP JUMP JUMPDEST PUSH1 0x0 PUSH3 0x2C6 PUSH3 0x1C6 JUMP JUMPDEST SWAP1 POP PUSH3 0x2D4 DUP3 DUP3 PUSH3 0x284 JUMP JUMPDEST SWAP2 SWAP1 POP JUMP JUMPDEST PUSH1 0x0 PUSH8 0xFFFFFFFFFFFFFFFF DUP3 GT ISZERO PUSH3 0x2F7 JUMPI PUSH3 0x2F6 PUSH3 0x255 JUMP JUMPDEST JUMPDEST PUSH1 0x20 DUP3 MUL SWAP1 POP PUSH1 0x20 DUP2 ADD SWAP1 POP SWAP2 SWAP1 POP JUMP JUMPDEST PUSH1 0x0 DUP1 REVERT JUMPDEST PUSH1 0x0 PUSH3 0x324 PUSH3 0x31E DUP5 PUSH3 0x2D9 JUMP JUMPDEST PUSH3 0x2BA JUMP JUMPDEST SWAP1 POP DUP1 DUP4 DUP3 MSTORE PUSH1 0x20 DUP3 ADD SWAP1 POP PUSH1 0x20 DUP5 MUL DUP4 ADD DUP6 DUP2 GT ISZERO PUSH3 0x34A JUMPI PUSH3 0x349 PUSH3 0x308 JUMP JUMPDEST JUMPDEST DUP4 JUMPDEST DUP2 DUP2 LT ISZERO PUSH3 0x377 JUMPI DUP1 PUSH3 0x362 DUP9 DUP3 PUSH3 0x228 JUMP JUMPDEST DUP5 MSTORE PUSH1 0x20 DUP5 ADD SWAP4 POP POP PUSH1 0x20 DUP2 ADD SWAP1 POP PUSH3 0x34C JUMP JUMPDEST POP POP POP SWAP4 SWAP3 POP POP POP JUMP JUMPDEST PUSH1 0x0 DUP3 PUSH1 0x1F DUP4 ADD SLT PUSH3 0x399 JUMPI PUSH3 0x398 PUSH3 0x23F JUMP JUMPDEST JUMPDEST DUP2 MLOAD PUSH3 0x3AB DUP5 DUP3 PUSH1 0x20 DUP7 ADD PUSH3 0x30D JUMP JUMPDEST SWAP2 POP POP SWAP3 SWAP2 POP POP JUMP JUMPDEST PUSH1 0x0 DUP2 SWAP1 POP SWAP2 SWAP1 POP JUMP JUMPDEST PUSH3 0x3C9 DUP2 PUSH3 0x3B4 JUMP JUMPDEST DUP2 EQ PUSH3 0x3D5 JUMPI PUSH1 0x0 DUP1 REVERT JUMPDEST POP JUMP JUMPDEST PUSH1 0x0 DUP2 MLOAD SWAP1 POP PUSH3 0x3E9 DUP2 PUSH3 0x3BE JUMP JUMPDEST SWAP3 SWAP2 POP POP JUMP JUMPDEST PUSH1 0x0 DUP1 PUSH1 0x0 PUSH1 0x60 DUP5 DUP7 SUB SLT ISZERO PUSH3 0x40B JUMPI PUSH3 0x40A PUSH3 0x1D0 JUMP JUMPDEST JUMPDEST PUSH1 0x0 PUSH3 0x41B DUP7 DUP3 DUP8 ADD PUSH3 0x228 JUMP JUMPDEST SWAP4 POP POP PUSH1 0x20 DUP5 ADD MLOAD PUSH8 0xFFFFFFFFFFFFFFFF DUP2 GT ISZERO PUSH3 0x43F JUMPI PUSH3 0x43E PUSH3 0x1D5 JUMP JUMPDEST JUMPDEST PUSH3 0x44D DUP7 DUP3 DUP8 ADD PUSH3 0x381 JUMP JUMPDEST SWAP3 POP POP PUSH1 0x40 PUSH3 0x460 DUP7 DUP3 DUP8 ADD PUSH3 0x3D8 JUMP JUMPDEST SWAP2 POP POP SWAP3 POP SWAP3 POP SWAP3 JUMP JUMPDEST PUSH1 0x0 PUSH1 0x20 DUP3 DUP5 SUB SLT ISZERO PUSH3 0x483 JUMPI PUSH3 0x482 PUSH3 0x1D0 JUMP JUMPDEST JUMPDEST PUSH1 0x0 PUSH3 0x493 DUP5 DUP3 DUP6 ADD PUSH3 0x228 JUMP JUMPDEST SWAP2 POP POP SWAP3 SWAP2 POP POP JUMP JUMPDEST PUSH32 0x4E487B7100000000000000000000000000000000000000000000000000000000 PUSH1 0x0 MSTORE PUSH1 0x32 PUSH1 0x4 MSTORE PUSH1 0x24 PUSH1 0x0 REVERT JUMPDEST PUSH32 0x4E487B7100000000000000000000000000000000000000000000000000000000 PUSH1 0x0 MSTORE PUSH1 0x11 PUSH1 0x4 MSTORE PUSH1 0x24 PUSH1 0x0 REVERT JUMPDEST PUSH1 0x0 PUSH3 0x507 DUP3 PUSH3 0x3B4 JUMP JUMPDEST SWAP2 POP PUSH32 0xFFFFFFFFFFFFFFFFFFFFFFFFFFFFFFFFFFFFFFFFFFFFFFFFFFFFFFFFFFFFFFFF DUP3 SUB PUSH3 0x53C JUMPI PUSH3 0x53B PUSH3 0x4CB JUMP JUMPDEST JUMPDEST PUSH1 0x1 DUP3 ADD SWAP1 POP SWAP2 SWAP1 POP JUMP JUMPDEST PUSH1 0x80 MLOAD PUSH1 0xA0 MLOAD PUSH2 0x26EE PUSH3 0x589 PUSH1 0x0 CODECOPY PUSH1 0x0 DUP2 DUP2 PUSH2 0x7ED ADD MSTORE PUSH2 0xAFC ADD MSTORE PUSH1 0x0 DUP2 DUP2 PUSH2 0x1D4 ADD MSTORE DUP2 DUP2 PUSH2 0x945 ADD MSTORE DUP2 DUP2 PUSH2 0xAD8 ADD MSTORE PUSH2 0x1439 ADD MSTORE PUSH2 0x26EE PUSH1 0x0 RETURN INVALID PUSH1 0x80 PUSH1 0x40 MSTORE CALLVALUE DUP1 ISZERO PUSH2 0x10 JUMPI PUSH1 0x0 DUP1 REVERT JUMPDEST POP PUSH1 0x4 CALLDATASIZE LT PUSH2 0x93 JUMPI PUSH1 0x0 CALLDATALOAD PUSH1 0xE0 SHR DUP1 PUSH4 0x75C81AD0 GT PUSH2 0x66 JUMPI DUP1 PUSH4 0x75C81AD0 EQ PUSH2 0x120 JUMPI DUP1 PUSH4 0x89476069 EQ PUSH2 0x13E JUMPI DUP1 PUSH4 0x8DA5CB5B EQ PUSH2 0x15A JUMPI DUP1 PUSH4 0x9ECB6910 EQ PUSH2 0x178 JUMPI DUP1 PUSH4 0xCF2F8477 EQ PUSH2 0x194 JUMPI PUSH2 0x93 JUMP JUMPDEST DUP1 PUSH4 0xF874A13 EQ PUSH2 0x98 JUMPI DUP1 PUSH4 0x1B11D0FF EQ PUSH2 0xC8 JUMPI DUP1 PUSH4 0x50431CE4 EQ PUSH2 0xF8 JUMPI DUP1 PUSH4 0x7535D246 EQ PUSH2 0x102 JUMPI JUMPDEST PUSH1 0x0 DUP1 REVERT JUMPDEST PUSH2 0xB2 PUSH1 0x4 DUP1 CALLDATASIZE SUB DUP2 ADD SWAP1 PUSH2 0xAD SWAP2 SWAP1 PUSH2 0x1542 JUMP JUMPDEST PUSH2 0x1B0 JUMP JUMPDEST PUSH1 0x40 MLOAD PUSH2 0xBF SWAP2 SWAP1 PUSH2 0x158A JUMP JUMPDEST PUSH1 0x40 MLOAD DUP1 SWAP2 SUB SWAP1 RETURN JUMPDEST PUSH2 0xE2 PUSH1 0x4 DUP1 CALLDATASIZE SUB DUP2 ADD SWAP1 PUSH2 0xDD SWAP2 SWAP1 PUSH2 0x1640 JUMP JUMPDEST PUSH2 0x1D0 JUMP JUMPDEST PUSH1 0x40 MLOAD PUSH2 0xEF SWAP2 SWAP1 PUSH2 0x158A JUMP JUMPDEST PUSH1 0x40 MLOAD DUP1 SWAP2 SUB SWAP1 RETURN JUMPDEST PUSH2 0x100 PUSH2 0x9DB JUMP JUMPDEST STOP JUMPDEST PUSH2 0x10A PUSH2 0xAD6 JUMP JUMPDEST PUSH1 0x40 MLOAD PUSH2 0x117 SWAP2 SWAP1 PUSH2 0x16E9 JUMP JUMPDEST PUSH1 0x40 MLOAD DUP1 SWAP2 SUB SWAP1 RETURN JUMPDEST PUSH2 0x128 PUSH2 0xAFA JUMP JUMPDEST PUSH1 0x40 MLOAD PUSH2 0x135 SWAP2 SWAP1 PUSH2 0x1713 JUMP JUMPDEST PUSH1 0x40 MLOAD DUP1 SWAP2 SUB SWAP1 RETURN JUMPDEST PUSH2 0x158 PUSH1 0x4 DUP1 CALLDATASIZE SUB DUP2 ADD SWAP1 PUSH2 0x153 SWAP2 SWAP1 PUSH2 0x1542 JUMP JUMPDEST PUSH2 0xB1E JUMP JUMPDEST STOP JUMPDEST PUSH2 0x162 PUSH2 0xD14 JUMP JUMPDEST PUSH1 0x40 MLOAD PUSH2 0x16F SWAP2 SWAP1 PUSH2 0x16E9 JUMP JUMPDEST PUSH1 0x40 MLOAD DUP1 SWAP2 SUB SWAP1 RETURN JUMPDEST PUSH2 0x192 PUSH1 0x4 DUP1 CALLDATASIZE SUB DUP2 ADD SWAP1 PUSH2 0x18D SWAP2 SWAP1 PUSH2 0x172E JUMP JUMPDEST PUSH2 0xD3A JUMP JUMPDEST STOP JUMPDEST PUSH2 0x1AE PUSH1 0x4 DUP1 CALLDATASIZE SUB DUP2 ADD SWAP1 PUSH2 0x1A9 SWAP2 SWAP1 PUSH2 0x1795 JUMP JUMPDEST PUSH2 0xFCD JUMP JUMPDEST STOP JUMPDEST PUSH1 0x0 PUSH1 0x20 MSTORE DUP1 PUSH1 0x0 MSTORE PUSH1 0x40 PUSH1 0x0 KECCAK256 PUSH1 0x0 SWAP2 POP SLOAD SWAP1 PUSH2 0x100 EXP SWAP1 DIV PUSH1 0xFF AND DUP2 JUMP JUMPDEST PUSH1 0x0 PUSH32 0x0 PUSH20 0xFFFFFFFFFFFFFFFFFFFFFFFFFFFFFFFFFFFFFFFF AND CALLER PUSH20 0xFFFFFFFFFFFFFFFFFFFFFFFFFFFFFFFFFFFFFFFF AND EQ PUSH2 0x260 JUMPI PUSH1 0x40 MLOAD PUSH32 0x8C379A000000000000000000000000000000000000000000000000000000000 DUP2 MSTORE PUSH1 0x4 ADD PUSH2 0x257 SWAP1 PUSH2 0x187F JUMP JUMPDEST PUSH1 0x40 MLOAD DUP1 SWAP2 SUB SWAP1 REVERT JUMPDEST ADDRESS PUSH20 0xFFFFFFFFFFFFFFFFFFFFFFFFFFFFFFFFFFFFFFFF AND DUP5 PUSH20 0xFFFFFFFFFFFFFFFFFFFFFFFFFFFFFFFFFFFFFFFF AND EQ PUSH2 0x2CE JUMPI PUSH1 0x40 MLOAD PUSH32 0x8C379A000000000000000000000000000000000000000000000000000000000 DUP2 MSTORE PUSH1 0x4 ADD PUSH2 0x2C5 SWAP1 PUSH2 0x18EB JUMP JUMPDEST PUSH1 0x40 MLOAD DUP1 SWAP2 SUB SWAP1 REVERT JUMPDEST PUSH1 0x0 DUP4 DUP4 DUP2 ADD SWAP1 PUSH2 0x2DF SWAP2 SWAP1 PUSH2 0x1A14 JUMP JUMPDEST SWAP1 POP PUSH1 0x0 DUP1 DUP3 PUSH1 0x40 ADD MLOAD PUSH20 0xFFFFFFFFFFFFFFFFFFFFFFFFFFFFFFFFFFFFFFFF AND PUSH20 0xFFFFFFFFFFFFFFFFFFFFFFFFFFFFFFFFFFFFFFFF AND DUP2 MSTORE PUSH1 0x20 ADD SWAP1 DUP2 MSTORE PUSH1 0x20 ADD PUSH1 0x0 KECCAK256 PUSH1 0x0 SWAP1 SLOAD SWAP1 PUSH2 0x100 EXP SWAP1 DIV PUSH1 0xFF AND PUSH2 0x370 JUMPI PUSH1 0x40 MLOAD PUSH32 0x8C379A000000000000000000000000000000000000000000000000000000000 DUP2 MSTORE PUSH1 0x4 ADD PUSH2 0x367 SWAP1 PUSH2 0x1A8D JUMP JUMPDEST PUSH1 0x40 MLOAD DUP1 SWAP2 SUB SWAP1 REVERT JUMPDEST PUSH1 0x0 DUP1 DUP3 PUSH1 0x60 ADD MLOAD PUSH20 0xFFFFFFFFFFFFFFFFFFFFFFFFFFFFFFFFFFFFFFFF AND PUSH20 0xFFFFFFFFFFFFFFFFFFFFFFFFFFFFFFFFFFFFFFFF AND DUP2 MSTORE PUSH1 0x20 ADD SWAP1 DUP2 MSTORE PUSH1 0x20 ADD PUSH1 0x0 KECCAK256 PUSH1 0x0 SWAP1 SLOAD SWAP1 PUSH2 0x100 EXP SWAP1 DIV PUSH1 0xFF AND PUSH2 0x3FF JUMPI PUSH1 0x40 MLOAD PUSH32 0x8C379A000000000000000000000000000000000000000000000000000000000 DUP2 MSTORE PUSH1 0x4 ADD PUSH2 0x3F6 SWAP1 PUSH2 0x1AF9 JUMP JUMPDEST PUSH1 0x40 MLOAD DUP1 SWAP2 SUB SWAP1 REVERT JUMPDEST PUSH1 0x0 DUP2 PUSH1 0x0 ADD MLOAD PUSH20 0xFFFFFFFFFFFFFFFFFFFFFFFFFFFFFFFFFFFFFFFF AND PUSH4 0x70A08231 ADDRESS PUSH1 0x40 MLOAD DUP3 PUSH4 0xFFFFFFFF AND PUSH1 0xE0 SHL DUP2 MSTORE PUSH1 0x4 ADD PUSH2 0x43E SWAP2 SWAP1 PUSH2 0x16E9 JUMP JUMPDEST PUSH1 0x20 PUSH1 0x40 MLOAD DUP1 DUP4 SUB DUP2 DUP7 GAS STATICCALL ISZERO DUP1 ISZERO PUSH2 0x45B JUMPI RETURNDATASIZE PUSH1 0x0 DUP1 RETURNDATACOPY RETURNDATASIZE PUSH1 0x0 REVERT JUMPDEST POP POP POP POP PUSH1 0x40 MLOAD RETURNDATASIZE PUSH1 0x1F NOT PUSH1 0x1F DUP3 ADD AND DUP3 ADD DUP1 PUSH1 0x40 MSTORE POP DUP2 ADD SWAP1 PUSH2 0x47F SWAP2 SWAP1 PUSH2 0x1B2E JUMP JUMPDEST SWAP1 POP DUP2 PUSH1 0x0 ADD MLOAD PUSH20 0xFFFFFFFFFFFFFFFFFFFFFFFFFFFFFFFFFFFFFFFF AND PUSH4 0x95EA7B3 DUP4 PUSH1 0x40 ADD MLOAD DUP11 PUSH1 0x40 MLOAD DUP4 PUSH4 0xFFFFFFFF AND PUSH1 0xE0 SHL DUP2 MSTORE PUSH1 0x4 ADD PUSH2 0x4C4 SWAP3 SWAP2 SWAP1 PUSH2 0x1B5B JUMP JUMPDEST PUSH1 0x20 PUSH1 0x40 MLOAD DUP1 DUP4 SUB DUP2 PUSH1 0x0 DUP8 GAS CALL ISZERO DUP1 ISZERO PUSH2 0x4E3 JUMPI RETURNDATASIZE PUSH1 0x0 DUP1 RETURNDATACOPY RETURNDATASIZE PUSH1 0x0 REVERT JUMPDEST POP POP POP POP PUSH1 0x40 MLOAD RETURNDATASIZE PUSH1 0x1F NOT PUSH1 0x1F DUP3 ADD AND DUP3 ADD DUP1 PUSH1 0x40 MSTORE POP DUP2 ADD SWAP1 PUSH2 0x507 SWAP2 SWAP1 PUSH2 0x1BB0 JUMP JUMPDEST POP PUSH2 0x520 DUP3 PUSH1 0x40 ADD MLOAD DUP10 DUP5 PUSH1 0x0 ADD MLOAD DUP6 PUSH1 0x20 ADD MLOAD PUSH2 0x1200 JUMP JUMPDEST PUSH1 0x0 DUP3 PUSH1 0x20 ADD MLOAD PUSH20 0xFFFFFFFFFFFFFFFFFFFFFFFFFFFFFFFFFFFFFFFF AND PUSH4 0x70A08231 ADDRESS PUSH1 0x40 MLOAD DUP3 PUSH4 0xFFFFFFFF AND PUSH1 0xE0 SHL DUP2 MSTORE PUSH1 0x4 ADD PUSH2 0x55F SWAP2 SWAP1 PUSH2 0x16E9 JUMP JUMPDEST PUSH1 0x20 PUSH1 0x40 MLOAD DUP1 DUP4 SUB DUP2 DUP7 GAS STATICCALL ISZERO DUP1 ISZERO PUSH2 0x57C JUMPI RETURNDATASIZE PUSH1 0x0 DUP1 RETURNDATACOPY RETURNDATASIZE PUSH1 0x0 REVERT JUMPDEST POP POP POP POP PUSH1 0x40 MLOAD RETURNDATASIZE PUSH1 0x1F NOT PUSH1 0x1F DUP3 ADD AND DUP3 ADD DUP1 PUSH1 0x40 MSTORE POP DUP2 ADD SWAP1 PUSH2 0x5A0 SWAP2 SWAP1 PUSH2 0x1B2E JUMP JUMPDEST SWAP1 POP PUSH1 0x0 DUP2 GT PUSH2 0x5E5 JUMPI PUSH1 0x40 MLOAD PUSH32 0x8C379A000000000000000000000000000000000000000000000000000000000 DUP2 MSTORE PUSH1 0x4 ADD PUSH2 0x5DC SWAP1 PUSH2 0x1C29 JUMP JUMPDEST PUSH1 0x40 MLOAD DUP1 SWAP2 SUB SWAP1 REVERT JUMPDEST DUP3 PUSH1 0x20 ADD MLOAD PUSH20 0xFFFFFFFFFFFFFFFFFFFFFFFFFFFFFFFFFFFFFFFF AND PUSH4 0x95EA7B3 DUP5 PUSH1 0x60 ADD MLOAD DUP4 PUSH1 0x40 MLOAD DUP4 PUSH4 0xFFFFFFFF AND PUSH1 0xE0 SHL DUP2 MSTORE PUSH1 0x4 ADD PUSH2 0x628 SWAP3 SWAP2 SWAP1 PUSH2 0x1B5B JUMP JUMPDEST PUSH1 0x20 PUSH1 0x40 MLOAD DUP1 DUP4 SUB DUP2 PUSH1 0x0 DUP8 GAS CALL ISZERO DUP1 ISZERO PUSH2 0x647 JUMPI RETURNDATASIZE PUSH1 0x0 DUP1 RETURNDATACOPY RETURNDATASIZE PUSH1 0x0 REVERT JUMPDEST POP POP POP POP PUSH1 0x40 MLOAD RETURNDATASIZE PUSH1 0x1F NOT PUSH1 0x1F DUP3 ADD AND DUP3 ADD DUP1 PUSH1 0x40 MSTORE POP DUP2 ADD SWAP1 PUSH2 0x66B SWAP2 SWAP1 PUSH2 0x1BB0 JUMP JUMPDEST POP PUSH2 0x684 DUP4 PUSH1 0x60 ADD MLOAD DUP3 DUP6 PUSH1 0x20 ADD MLOAD DUP7 PUSH1 0x0 ADD MLOAD PUSH2 0x1200 JUMP JUMPDEST PUSH1 0x0 DUP4 PUSH1 0x0 ADD MLOAD PUSH20 0xFFFFFFFFFFFFFFFFFFFFFFFFFFFFFFFFFFFFFFFF AND PUSH4 0x70A08231 ADDRESS PUSH1 0x40 MLOAD DUP3 PUSH4 0xFFFFFFFF AND PUSH1 0xE0 SHL DUP2 MSTORE PUSH1 0x4 ADD PUSH2 0x6C3 SWAP2 SWAP1 PUSH2 0x16E9 JUMP JUMPDEST PUSH1 0x20 PUSH1 0x40 MLOAD DUP1 DUP4 SUB DUP2 DUP7 GAS STATICCALL ISZERO DUP1 ISZERO PUSH2 0x6E0 JUMPI RETURNDATASIZE PUSH1 0x0 DUP1 RETURNDATACOPY RETURNDATASIZE PUSH1 0x0 REVERT JUMPDEST POP POP POP POP PUSH1 0x40 MLOAD RETURNDATASIZE PUSH1 0x1F NOT PUSH1 0x1F DUP3 ADD AND DUP3 ADD DUP1 PUSH1 0x40 MSTORE POP DUP2 ADD SWAP1 PUSH2 0x704 SWAP2 SWAP1 PUSH2 0x1B2E JUMP JUMPDEST SWAP1 POP PUSH1 0x0 DUP2 GT PUSH2 0x749 JUMPI PUSH1 0x40 MLOAD PUSH32 0x8C379A000000000000000000000000000000000000000000000000000000000 DUP2 MSTORE PUSH1 0x4 ADD PUSH2 0x740 SWAP1 PUSH2 0x1C95 JUMP JUMPDEST PUSH1 0x40 MLOAD DUP1 SWAP2 SUB SWAP1 REVERT JUMPDEST PUSH1 0x0 DUP10 DUP12 PUSH2 0x757 SWAP2 SWAP1 PUSH2 0x1CE4 JUMP JUMPDEST SWAP1 POP PUSH1 0x0 DUP6 PUSH1 0x0 ADD MLOAD PUSH20 0xFFFFFFFFFFFFFFFFFFFFFFFFFFFFFFFFFFFFFFFF AND PUSH4 0x313CE567 PUSH1 0x40 MLOAD DUP2 PUSH4 0xFFFFFFFF AND PUSH1 0xE0 SHL DUP2 MSTORE PUSH1 0x4 ADD PUSH1 0x20 PUSH1 0x40 MLOAD DUP1 DUP4 SUB DUP2 DUP7 GAS STATICCALL ISZERO DUP1 ISZERO PUSH2 0x7AA JUMPI RETURNDATASIZE PUSH1 0x0 DUP1 RETURNDATACOPY RETURNDATASIZE PUSH1 0x0 REVERT JUMPDEST POP POP POP POP PUSH1 0x40 MLOAD RETURNDATASIZE PUSH1 0x1F NOT PUSH1 0x1F DUP3 ADD AND DUP3 ADD DUP1 PUSH1 0x40 MSTORE POP DUP2 ADD SWAP1 PUSH2 0x7CE SWAP2 SWAP1 PUSH2 0x1D51 JUMP JUMPDEST SWAP1 POP PUSH1 0x0 DUP2 PUSH1 0x12 PUSH2 0x7DF SWAP2 SWAP1 PUSH2 0x1D7E JUMP JUMPDEST PUSH1 0xA PUSH2 0x7EB SWAP2 SWAP1 PUSH2 0x1EE6 JUMP JUMPDEST PUSH32 0x0 PUSH2 0x816 SWAP2 SWAP1 PUSH2 0x1F60 JUMP JUMPDEST SWAP1 POP PUSH32 0xD8DFA1DF854FCCEB7D93B8D19AC99C35A6D6F85DDB3176BE33BB5A312F9E363D DUP14 DUP14 DUP9 DUP9 DUP9 PUSH1 0x40 MLOAD PUSH2 0x84F SWAP6 SWAP5 SWAP4 SWAP3 SWAP2 SWAP1 PUSH2 0x1F91 JUMP JUMPDEST PUSH1 0x40 MLOAD DUP1 SWAP2 SUB SWAP1 LOG1 PUSH32 0xF4DBD397AA2B592B3852CD94A99201DBC3622CFC8626DC0B547151722064A117 DUP4 DUP3 DUP7 PUSH1 0x40 MLOAD PUSH2 0x88A SWAP4 SWAP3 SWAP2 SWAP1 PUSH2 0x1FE4 JUMP JUMPDEST PUSH1 0x40 MLOAD DUP1 SWAP2 SUB SWAP1 LOG1 DUP3 DUP5 LT ISZERO PUSH2 0x8D5 JUMPI PUSH1 0x40 MLOAD PUSH32 0x8C379A000000000000000000000000000000000000000000000000000000000 DUP2 MSTORE PUSH1 0x4 ADD PUSH2 0x8CC SWAP1 PUSH2 0x2067 JUMP JUMPDEST PUSH1 0x40 MLOAD DUP1 SWAP2 SUB SWAP1 REVERT JUMPDEST DUP1 DUP4 PUSH2 0x8E1 SWAP2 SWAP1 PUSH2 0x1CE4 JUMP JUMPDEST DUP5 LT ISZERO PUSH2 0x923 JUMPI PUSH1 0x40 MLOAD PUSH32 0x8C379A000000000000000000000000000000000000000000000000000000000 DUP2 MSTORE PUSH1 0x4 ADD PUSH2 0x91A SWAP1 PUSH2 0x20D3 JUMP JUMPDEST PUSH1 0x40 MLOAD DUP1 SWAP2 SUB SWAP1 REVERT JUMPDEST DUP7 PUSH1 0x0 ADD MLOAD PUSH20 0xFFFFFFFFFFFFFFFFFFFFFFFFFFFFFFFFFFFFFFFF AND PUSH4 0x95EA7B3 PUSH32 0x0 DUP6 PUSH1 0x40 MLOAD DUP4 PUSH4 0xFFFFFFFF AND PUSH1 0xE0 SHL DUP2 MSTORE PUSH1 0x4 ADD PUSH2 0x982 SWAP3 SWAP2 SWAP1 PUSH2 0x1B5B JUMP JUMPDEST PUSH1 0x20 PUSH1 0x40 MLOAD DUP1 DUP4 SUB DUP2 PUSH1 0x0 DUP8 GAS CALL ISZERO DUP1 ISZERO PUSH2 0x9A1 JUMPI RETURNDATASIZE PUSH1 0x0 DUP1 RETURNDATACOPY RETURNDATASIZE PUSH1 0x0 REVERT JUMPDEST POP POP POP POP PUSH1 0x40 MLOAD RETURNDATASIZE PUSH1 0x1F NOT PUSH1 0x1F DUP3 ADD AND DUP3 ADD DUP1 PUSH1 0x40 MSTORE POP DUP2 ADD SWAP1 PUSH2 0x9C5 SWAP2 SWAP1 PUSH2 0x1BB0 JUMP JUMPDEST POP PUSH1 0x1 SWAP8 POP POP POP POP POP POP POP POP SWAP7 SWAP6 POP POP POP POP POP POP JUMP JUMPDEST PUSH1 0x1 PUSH1 0x0 SWAP1 SLOAD SWAP1 PUSH2 0x100 EXP SWAP1 DIV PUSH20 0xFFFFFFFFFFFFFFFFFFFFFFFFFFFFFFFFFFFFFFFF AND PUSH20 0xFFFFFFFFFFFFFFFFFFFFFFFFFFFFFFFFFFFFFFFF AND CALLER PUSH20 0xFFFFFFFFFFFFFFFFFFFFFFFFFFFFFFFFFFFFFFFF AND EQ PUSH2 0xA6B JUMPI PUSH1 0x40 MLOAD PUSH32 0x8C379A000000000000000000000000000000000000000000000000000000000 DUP2 MSTORE PUSH1 0x4 ADD PUSH2 0xA62 SWAP1 PUSH2 0x213F JUMP JUMPDEST PUSH1 0x40 MLOAD DUP1 SWAP2 SUB SWAP1 REVERT JUMPDEST PUSH1 0x1 PUSH1 0x0 SWAP1 SLOAD SWAP1 PUSH2 0x100 EXP SWAP1 DIV PUSH20 0xFFFFFFFFFFFFFFFFFFFFFFFFFFFFFFFFFFFFFFFF AND PUSH20 0xFFFFFFFFFFFFFFFFFFFFFFFFFFFFFFFFFFFFFFFF AND PUSH2 0x8FC SELFBALANCE SWAP1 DUP2 ISZERO MUL SWAP1 PUSH1 0x40 MLOAD PUSH1 0x0 PUSH1 0x40 MLOAD DUP1 DUP4 SUB DUP2 DUP6 DUP9 DUP9 CALL SWAP4 POP POP POP POP ISZERO DUP1 ISZERO PUSH2 0xAD3 JUMPI RETURNDATASIZE PUSH1 0x0 DUP1 RETURNDATACOPY RETURNDATASIZE PUSH1 0x0 REVERT JUMPDEST POP JUMP JUMPDEST PUSH32 0x0 DUP2 JUMP JUMPDEST PUSH32 0x0 DUP2 JUMP JUMPDEST PUSH1 0x1 PUSH1 0x0 SWAP1 SLOAD SWAP1 PUSH2 0x100 EXP SWAP1 DIV PUSH20 0xFFFFFFFFFFFFFFFFFFFFFFFFFFFFFFFFFFFFFFFF AND PUSH20 0xFFFFFFFFFFFFFFFFFFFFFFFFFFFFFFFFFFFFFFFF AND CALLER PUSH20 0xFFFFFFFFFFFFFFFFFFFFFFFFFFFFFFFFFFFFFFFF AND EQ PUSH2 0xBAE JUMPI PUSH1 0x40 MLOAD PUSH32 0x8C379A000000000000000000000000000000000000000000000000000000000 DUP2 MSTORE PUSH1 0x4 ADD PUSH2 0xBA5 SWAP1 PUSH2 0x213F JUMP JUMPDEST PUSH1 0x40 MLOAD DUP1 SWAP2 SUB SWAP1 REVERT JUMPDEST PUSH1 0x0 DUP2 PUSH20 0xFFFFFFFFFFFFFFFFFFFFFFFFFFFFFFFFFFFFFFFF AND PUSH4 0x70A08231 ADDRESS PUSH1 0x40 MLOAD DUP3 PUSH4 0xFFFFFFFF AND PUSH1 0xE0 SHL DUP2 MSTORE PUSH1 0x4 ADD PUSH2 0xBE9 SWAP2 SWAP1 PUSH2 0x16E9 JUMP JUMPDEST PUSH1 0x20 PUSH1 0x40 MLOAD DUP1 DUP4 SUB DUP2 DUP7 GAS STATICCALL ISZERO DUP1 ISZERO PUSH2 0xC06 JUMPI RETURNDATASIZE PUSH1 0x0 DUP1 RETURNDATACOPY RETURNDATASIZE PUSH1 0x0 REVERT JUMPDEST POP POP POP POP PUSH1 0x40 MLOAD RETURNDATASIZE PUSH1 0x1F NOT PUSH1 0x1F DUP3 ADD AND DUP3 ADD DUP1 PUSH1 0x40 MSTORE POP DUP2 ADD SWAP1 PUSH2 0xC2A SWAP2 SWAP1 PUSH2 0x1B2E JUMP JUMPDEST SWAP1 POP PUSH1 0x0 DUP2 GT PUSH2 0xC6F JUMPI PUSH1 0x40 MLOAD PUSH32 0x8C379A000000000000000000000000000000000000000000000000000000000 DUP2 MSTORE PUSH1 0x4 ADD PUSH2 0xC66 SWAP1 PUSH2 0x21AB JUMP JUMPDEST PUSH1 0x40 MLOAD DUP1 SWAP2 SUB SWAP1 REVERT JUMPDEST DUP2 PUSH20 0xFFFFFFFFFFFFFFFFFFFFFFFFFFFFFFFFFFFFFFFF AND PUSH4 0xA9059CBB PUSH1 0x1 PUSH1 0x0 SWAP1 SLOAD SWAP1 PUSH2 0x100 EXP SWAP1 DIV PUSH20 0xFFFFFFFFFFFFFFFFFFFFFFFFFFFFFFFFFFFFFFFF AND DUP4 PUSH1 0x40 MLOAD DUP4 PUSH4 0xFFFFFFFF AND PUSH1 0xE0 SHL DUP2 MSTORE PUSH1 0x4 ADD PUSH2 0xCCC SWAP3 SWAP2 SWAP1 PUSH2 0x1B5B JUMP JUMPDEST PUSH1 0x20 PUSH1 0x40 MLOAD DUP1 DUP4 SUB DUP2 PUSH1 0x0 DUP8 GAS CALL ISZERO DUP1 ISZERO PUSH2 0xCEB JUMPI RETURNDATASIZE PUSH1 0x0 DUP1 RETURNDATACOPY RETURNDATASIZE PUSH1 0x0 REVERT JUMPDEST POP POP POP POP PUSH1 0x40 MLOAD RETURNDATASIZE PUSH1 0x1F NOT PUSH1 0x1F DUP3 ADD AND DUP3 ADD DUP1 PUSH1 0x40 MSTORE POP DUP2 ADD SWAP1 PUSH2 0xD0F SWAP2 SWAP1 PUSH2 0x1BB0 JUMP JUMPDEST POP POP POP JUMP JUMPDEST PUSH1 0x1 PUSH1 0x0 SWAP1 SLOAD SWAP1 PUSH2 0x100 EXP SWAP1 DIV PUSH20 0xFFFFFFFFFFFFFFFFFFFFFFFFFFFFFFFFFFFFFFFF AND DUP2 JUMP JUMPDEST PUSH1 0x0 PUSH20 0xFFFFFFFFFFFFFFFFFFFFFFFFFFFFFFFFFFFFFFFF AND DUP5 PUSH20 0xFFFFFFFFFFFFFFFFFFFFFFFFFFFFFFFFFFFFFFFF AND EQ ISZERO DUP1 ISZERO PUSH2 0xDA4 JUMPI POP PUSH1 0x0 PUSH20 0xFFFFFFFFFFFFFFFFFFFFFFFFFFFFFFFFFFFFFFFF AND DUP4 PUSH20 0xFFFFFFFFFFFFFFFFFFFFFFFFFFFFFFFFFFFFFFFF AND EQ ISZERO JUMPDEST PUSH2 0xDE3 JUMPI PUSH1 0x40 MLOAD PUSH32 0x8C379A000000000000000000000000000000000000000000000000000000000 DUP2 MSTORE PUSH1 0x4 ADD PUSH2 0xDDA SWAP1 PUSH2 0x2217 JUMP JUMPDEST PUSH1 0x40 MLOAD DUP1 SWAP2 SUB SWAP1 REVERT JUMPDEST PUSH1 0x0 PUSH20 0xFFFFFFFFFFFFFFFFFFFFFFFFFFFFFFFFFFFFFFFF AND DUP3 PUSH20 0xFFFFFFFFFFFFFFFFFFFFFFFFFFFFFFFFFFFFFFFF AND EQ ISZERO DUP1 ISZERO PUSH2 0xE4D JUMPI POP PUSH1 0x0 PUSH20 0xFFFFFFFFFFFFFFFFFFFFFFFFFFFFFFFFFFFFFFFF AND DUP2 PUSH20 0xFFFFFFFFFFFFFFFFFFFFFFFFFFFFFFFFFFFFFFFF AND EQ ISZERO JUMPDEST PUSH2 0xE8C JUMPI PUSH1 0x40 MLOAD PUSH32 0x8C379A000000000000000000000000000000000000000000000000000000000 DUP2 MSTORE PUSH1 0x4 ADD PUSH2 0xE83 SWAP1 PUSH2 0x2283 JUMP JUMPDEST PUSH1 0x40 MLOAD DUP1 SWAP2 SUB SWAP1 REVERT JUMPDEST PUSH1 0x0 PUSH1 0x40 MLOAD DUP1 PUSH1 0x80 ADD PUSH1 0x40 MSTORE DUP1 DUP7 PUSH20 0xFFFFFFFFFFFFFFFFFFFFFFFFFFFFFFFFFFFFFFFF AND DUP2 MSTORE PUSH1 0x20 ADD DUP6 PUSH20 0xFFFFFFFFFFFFFFFFFFFFFFFFFFFFFFFFFFFFFFFF AND DUP2 MSTORE PUSH1 0x20 ADD DUP5 PUSH20 0xFFFFFFFFFFFFFFFFFFFFFFFFFFFFFFFFFFFFFFFF AND DUP2 MSTORE PUSH1 0x20 ADD DUP4 PUSH20 0xFFFFFFFFFFFFFFFFFFFFFFFFFFFFFFFFFFFFFFFF AND DUP2 MSTORE POP SWAP1 POP PUSH1 0x0 DUP2 PUSH1 0x40 MLOAD PUSH1 0x20 ADD PUSH2 0xF1C SWAP2 SWAP1 PUSH2 0x2307 JUMP JUMPDEST PUSH1 0x40 MLOAD PUSH1 0x20 DUP2 DUP4 SUB SUB DUP2 MSTORE SWAP1 PUSH1 0x40 MSTORE SWAP1 POP PUSH1 0x0 DUP7 PUSH20 0xFFFFFFFFFFFFFFFFFFFFFFFFFFFFFFFFFFFFFFFF AND PUSH4 0x313CE567 PUSH1 0x40 MLOAD DUP2 PUSH4 0xFFFFFFFF AND PUSH1 0xE0 SHL DUP2 MSTORE PUSH1 0x4 ADD PUSH1 0x20 PUSH1 0x40 MLOAD DUP1 DUP4 SUB DUP2 DUP7 GAS STATICCALL ISZERO DUP1 ISZERO PUSH2 0xF7A JUMPI RETURNDATASIZE PUSH1 0x0 DUP1 RETURNDATACOPY RETURNDATASIZE PUSH1 0x0 REVERT JUMPDEST POP POP POP POP PUSH1 0x40 MLOAD RETURNDATASIZE PUSH1 0x1F NOT PUSH1 0x1F DUP3 ADD AND DUP3 ADD DUP1 PUSH1 0x40 MSTORE POP DUP2 ADD SWAP1 PUSH2 0xF9E SWAP2 SWAP1 PUSH2 0x1D51 JUMP JUMPDEST PUSH1 0xA PUSH2 0xFAA SWAP2 SWAP1 PUSH2 0x1EE6 JUMP JUMPDEST PUSH2 0x3E8 PUSH2 0xFB7 SWAP2 SWAP1 PUSH2 0x2322 JUMP JUMPDEST SWAP1 POP PUSH2 0xFC4 DUP8 DUP3 DUP5 PUSH2 0x1437 JUMP JUMPDEST POP POP POP POP POP POP POP JUMP JUMPDEST PUSH1 0x1 PUSH1 0x0 SWAP1 SLOAD SWAP1 PUSH2 0x100 EXP SWAP1 DIV PUSH20 0xFFFFFFFFFFFFFFFFFFFFFFFFFFFFFFFFFFFFFFFF AND PUSH20 0xFFFFFFFFFFFFFFFFFFFFFFFFFFFFFFFFFFFFFFFF AND CALLER PUSH20 0xFFFFFFFFFFFFFFFFFFFFFFFFFFFFFFFFFFFFFFFF AND EQ PUSH2 0x105D JUMPI PUSH1 0x40 MLOAD PUSH32 0x8C379A000000000000000000000000000000000000000000000000000000000 DUP2 MSTORE PUSH1 0x4 ADD PUSH2 0x1054 SWAP1 PUSH2 0x213F JUMP JUMPDEST PUSH1 0x40 MLOAD DUP1 SWAP2 SUB SWAP1 REVERT JUMPDEST PUSH1 0x0 DUP7 PUSH20 0xFFFFFFFFFFFFFFFFFFFFFFFFFFFFFFFFFFFFFFFF AND PUSH4 0x70A08231 ADDRESS PUSH1 0x40 MLOAD DUP3 PUSH4 0xFFFFFFFF AND PUSH1 0xE0 SHL DUP2 MSTORE PUSH1 0x4 ADD PUSH2 0x1098 SWAP2 SWAP1 PUSH2 0x16E9 JUMP JUMPDEST PUSH1 0x20 PUSH1 0x40 MLOAD DUP1 DUP4 SUB DUP2 DUP7 GAS STATICCALL ISZERO DUP1 ISZERO PUSH2 0x10B5 JUMPI RETURNDATASIZE PUSH1 0x0 DUP1 RETURNDATACOPY RETURNDATASIZE PUSH1 0x0 REVERT JUMPDEST POP POP POP POP PUSH1 0x40 MLOAD RETURNDATASIZE PUSH1 0x1F NOT PUSH1 0x1F DUP3 ADD AND DUP3 ADD DUP1 PUSH1 0x40 MSTORE POP DUP2 ADD SWAP1 PUSH2 0x10D9 SWAP2 SWAP1 PUSH2 0x1B2E JUMP JUMPDEST SWAP1 POP PUSH2 0x10E7 DUP5 DUP3 DUP10 DUP10 PUSH2 0x1200 JUMP JUMPDEST DUP6 PUSH20 0xFFFFFFFFFFFFFFFFFFFFFFFFFFFFFFFFFFFFFFFF AND PUSH4 0x70A08231 ADDRESS PUSH1 0x40 MLOAD DUP3 PUSH4 0xFFFFFFFF AND PUSH1 0xE0 SHL DUP2 MSTORE PUSH1 0x4 ADD PUSH2 0x1120 SWAP2 SWAP1 PUSH2 0x16E9 JUMP JUMPDEST PUSH1 0x20 PUSH1 0x40 MLOAD DUP1 DUP4 SUB DUP2 DUP7 GAS STATICCALL ISZERO DUP1 ISZERO PUSH2 0x113D JUMPI RETURNDATASIZE PUSH1 0x0 DUP1 RETURNDATACOPY RETURNDATASIZE PUSH1 0x0 REVERT JUMPDEST POP POP POP POP PUSH1 0x40 MLOAD RETURNDATASIZE PUSH1 0x1F NOT PUSH1 0x1F DUP3 ADD AND DUP3 ADD DUP1 PUSH1 0x40 MSTORE POP DUP2 ADD SWAP1 PUSH2 0x1161 SWAP2 SWAP1 PUSH2 0x1B2E JUMP JUMPDEST SWAP1 POP PUSH2 0x116F DUP4 DUP3 DUP9 DUP9 PUSH2 0x1200 JUMP JUMPDEST DUP5 PUSH20 0xFFFFFFFFFFFFFFFFFFFFFFFFFFFFFFFFFFFFFFFF AND PUSH4 0x70A08231 ADDRESS PUSH1 0x40 MLOAD DUP3 PUSH4 0xFFFFFFFF AND PUSH1 0xE0 SHL DUP2 MSTORE PUSH1 0x4 ADD PUSH2 0x11A8 SWAP2 SWAP1 PUSH2 0x16E9 JUMP JUMPDEST PUSH1 0x20 PUSH1 0x40 MLOAD DUP1 DUP4 SUB DUP2 DUP7 GAS STATICCALL ISZERO DUP1 ISZERO PUSH2 0x11C5 JUMPI RETURNDATASIZE PUSH1 0x0 DUP1 RETURNDATACOPY RETURNDATASIZE PUSH1 0x0 REVERT JUMPDEST POP POP POP POP PUSH1 0x40 MLOAD RETURNDATASIZE PUSH1 0x1F NOT PUSH1 0x1F DUP3 ADD AND DUP3 ADD DUP1 PUSH1 0x40 MSTORE POP DUP2 ADD SWAP1 PUSH2 0x11E9 SWAP2 SWAP1 PUSH2 0x1B2E JUMP JUMPDEST SWAP1 POP PUSH2 0x11F7 DUP3 DUP3 DUP8 DUP11 PUSH2 0x1200 JUMP JUMPDEST POP POP POP POP POP POP POP JUMP JUMPDEST PUSH1 0x0 PUSH1 0x2 PUSH8 0xFFFFFFFFFFFFFFFF DUP2 GT ISZERO PUSH2 0x121D JUMPI PUSH2 0x121C PUSH2 0x1921 JUMP JUMPDEST JUMPDEST PUSH1 0x40 MLOAD SWAP1 DUP1 DUP3 MSTORE DUP1 PUSH1 0x20 MUL PUSH1 0x20 ADD DUP3 ADD PUSH1 0x40 MSTORE DUP1 ISZERO PUSH2 0x124B JUMPI DUP2 PUSH1 0x20 ADD PUSH1 0x20 DUP3 MUL DUP1 CALLDATASIZE DUP4 CALLDATACOPY DUP1 DUP3 ADD SWAP2 POP POP SWAP1 POP JUMPDEST POP SWAP1 POP DUP3 DUP2 PUSH1 0x0 DUP2 MLOAD DUP2 LT PUSH2 0x1263 JUMPI PUSH2 0x1262 PUSH2 0x2364 JUMP JUMPDEST JUMPDEST PUSH1 0x20 MUL PUSH1 0x20 ADD ADD SWAP1 PUSH20 0xFFFFFFFFFFFFFFFFFFFFFFFFFFFFFFFFFFFFFFFF AND SWAP1 DUP2 PUSH20 0xFFFFFFFFFFFFFFFFFFFFFFFFFFFFFFFFFFFFFFFF AND DUP2 MSTORE POP POP DUP2 DUP2 PUSH1 0x1 DUP2 MLOAD DUP2 LT PUSH2 0x12B2 JUMPI PUSH2 0x12B1 PUSH2 0x2364 JUMP JUMPDEST JUMPDEST PUSH1 0x20 MUL PUSH1 0x20 ADD ADD SWAP1 PUSH20 0xFFFFFFFFFFFFFFFFFFFFFFFFFFFFFFFFFFFFFFFF AND SWAP1 DUP2 PUSH20 0xFFFFFFFFFFFFFFFFFFFFFFFFFFFFFFFFFFFFFFFF AND DUP2 MSTORE POP POP PUSH1 0x0 DUP6 PUSH20 0xFFFFFFFFFFFFFFFFFFFFFFFFFFFFFFFFFFFFFFFF AND DUP6 PUSH1 0x0 DUP5 ADDRESS TIMESTAMP PUSH1 0x40 MLOAD PUSH1 0x24 ADD PUSH2 0x131F SWAP6 SWAP5 SWAP4 SWAP3 SWAP2 SWAP1 PUSH2 0x2487 JUMP JUMPDEST PUSH1 0x40 MLOAD PUSH1 0x20 DUP2 DUP4 SUB SUB DUP2 MSTORE SWAP1 PUSH1 0x40 MSTORE PUSH32 0x38ED173900000000000000000000000000000000000000000000000000000000 PUSH28 0xFFFFFFFFFFFFFFFFFFFFFFFFFFFFFFFFFFFFFFFFFFFFFFFFFFFFFFFF NOT AND PUSH1 0x20 DUP3 ADD DUP1 MLOAD PUSH28 0xFFFFFFFFFFFFFFFFFFFFFFFFFFFFFFFFFFFFFFFFFFFFFFFFFFFFFFFF DUP4 DUP2 DUP4 AND OR DUP4 MSTORE POP POP POP POP PUSH1 0x40 MLOAD PUSH2 0x13A9 SWAP2 SWAP1 PUSH2 0x2552 JUMP JUMPDEST PUSH1 0x0 PUSH1 0x40 MLOAD DUP1 DUP4 SUB DUP2 PUSH1 0x0 DUP7 GAS CALL SWAP2 POP POP RETURNDATASIZE DUP1 PUSH1 0x0 DUP2 EQ PUSH2 0x13E6 JUMPI PUSH1 0x40 MLOAD SWAP2 POP PUSH1 0x1F NOT PUSH1 0x3F RETURNDATASIZE ADD AND DUP3 ADD PUSH1 0x40 MSTORE RETURNDATASIZE DUP3 MSTORE RETURNDATASIZE PUSH1 0x0 PUSH1 0x20 DUP5 ADD RETURNDATACOPY PUSH2 0x13EB JUMP JUMPDEST PUSH1 0x60 SWAP2 POP JUMPDEST POP POP SWAP1 POP DUP1 PUSH2 0x142F JUMPI PUSH1 0x40 MLOAD PUSH32 0x8C379A000000000000000000000000000000000000000000000000000000000 DUP2 MSTORE PUSH1 0x4 ADD PUSH2 0x1426 SWAP1 PUSH2 0x25B5 JUMP JUMPDEST PUSH1 0x40 MLOAD DUP1 SWAP2 SUB SWAP1 REVERT JUMPDEST POP POP POP POP POP POP JUMP JUMPDEST PUSH32 0x0 PUSH20 0xFFFFFFFFFFFFFFFFFFFFFFFFFFFFFFFFFFFFFFFF AND PUSH4 0x42B0B77C ADDRESS DUP6 DUP6 DUP6 PUSH1 0x0 PUSH1 0x40 MLOAD DUP7 PUSH4 0xFFFFFFFF AND PUSH1 0xE0 SHL DUP2 MSTORE PUSH1 0x4 ADD PUSH2 0x1499 SWAP6 SWAP5 SWAP4 SWAP3 SWAP2 SWAP1 PUSH2 0x265E JUMP JUMPDEST PUSH1 0x0 PUSH1 0x40 MLOAD DUP1 DUP4 SUB DUP2 PUSH1 0x0 DUP8 DUP1 EXTCODESIZE ISZERO DUP1 ISZERO PUSH2 0x14B3 JUMPI PUSH1 0x0 DUP1 REVERT JUMPDEST POP GAS CALL ISZERO DUP1 ISZERO PUSH2 0x14C7 JUMPI RETURNDATASIZE PUSH1 0x0 DUP1 RETURNDATACOPY RETURNDATASIZE PUSH1 0x0 REVERT JUMPDEST POP POP POP POP POP POP POP JUMP JUMPDEST PUSH1 0x0 PUSH1 0x40 MLOAD SWAP1 POP SWAP1 JUMP JUMPDEST PUSH1 0x0 DUP1 REVERT JUMPDEST PUSH1 0x0 DUP1 REVERT JUMPDEST PUSH1 0x0 PUSH20 0xFFFFFFFFFFFFFFFFFFFFFFFFFFFFFFFFFFFFFFFF DUP3 AND SWAP1 POP SWAP2 SWAP1 POP JUMP JUMPDEST PUSH1 0x0 PUSH2 0x150F DUP3 PUSH2 0x14E4 JUMP JUMPDEST SWAP1 POP SWAP2 SWAP1 POP JUMP JUMPDEST PUSH2 0x151F DUP2 PUSH2 0x1504 JUMP JUMPDEST DUP2 EQ PUSH2 0x152A JUMPI PUSH1 0x0 DUP1 REVERT JUMPDEST POP JUMP JUMPDEST PUSH1 0x0 DUP2 CALLDATALOAD SWAP1 POP PUSH2 0x153C DUP2 PUSH2 0x1516 JUMP JUMPDEST SWAP3 SWAP2 POP POP JUMP JUMPDEST PUSH1 0x0 PUSH1 0x20 DUP3 DUP5 SUB SLT ISZERO PUSH2 0x1558 JUMPI PUSH2 0x1557 PUSH2 0x14DA JUMP JUMPDEST JUMPDEST PUSH1 0x0 PUSH2 0x1566 DUP5 DUP3 DUP6 ADD PUSH2 0x152D JUMP JUMPDEST SWAP2 POP POP SWAP3 SWAP2 POP POP JUMP JUMPDEST PUSH1 0x0 DUP2 ISZERO ISZERO SWAP1 POP SWAP2 SWAP1 POP JUMP JUMPDEST PUSH2 0x1584 DUP2 PUSH2 0x156F JUMP JUMPDEST DUP3 MSTORE POP POP JUMP JUMPDEST PUSH1 0x0 PUSH1 0x20 DUP3 ADD SWAP1 POP PUSH2 0x159F PUSH1 0x0 DUP4 ADD DUP5 PUSH2 0x157B JUMP JUMPDEST SWAP3 SWAP2 POP POP JUMP JUMPDEST PUSH1 0x0 DUP2 SWAP1 POP SWAP2 SWAP1 POP JUMP JUMPDEST PUSH2 0x15B8 DUP2 PUSH2 0x15A5 JUMP JUMPDEST DUP2 EQ PUSH2 0x15C3 JUMPI PUSH1 0x0 DUP1 REVERT JUMPDEST POP JUMP JUMPDEST PUSH1 0x0 DUP2 CALLDATALOAD SWAP1 POP PUSH2 0x15D5 DUP2 PUSH2 0x15AF JUMP JUMPDEST SWAP3 SWAP2 POP POP JUMP JUMPDEST PUSH1 0x0 DUP1 REVERT JUMPDEST PUSH1 0x0 DUP1 REVERT JUMPDEST PUSH1 0x0 DUP1 REVERT JUMPDEST PUSH1 0x0 DUP1 DUP4 PUSH1 0x1F DUP5 ADD SLT PUSH2 0x1600 JUMPI PUSH2 0x15FF PUSH2 0x15DB JUMP JUMPDEST JUMPDEST DUP3 CALLDATALOAD SWAP1 POP PUSH8 0xFFFFFFFFFFFFFFFF DUP2 GT ISZERO PUSH2 0x161D JUMPI PUSH2 0x161C PUSH2 0x15E0 JUMP JUMPDEST JUMPDEST PUSH1 0x20 DUP4 ADD SWAP2 POP DUP4 PUSH1 0x1 DUP3 MUL DUP4 ADD GT ISZERO PUSH2 0x1639 JUMPI PUSH2 0x1638 PUSH2 0x15E5 JUMP JUMPDEST JUMPDEST SWAP3 POP SWAP3 SWAP1 POP JUMP JUMPDEST PUSH1 0x0 DUP1 PUSH1 0x0 DUP1 PUSH1 0x0 DUP1 PUSH1 0xA0 DUP8 DUP10 SUB SLT ISZERO PUSH2 0x165D JUMPI PUSH2 0x165C PUSH2 0x14DA JUMP JUMPDEST JUMPDEST PUSH1 0x0 PUSH2 0x166B DUP10 DUP3 DUP11 ADD PUSH2 0x152D JUMP JUMPDEST SWAP7 POP POP PUSH1 0x20 PUSH2 0x167C DUP10 DUP3 DUP11 ADD PUSH2 0x15C6 JUMP JUMPDEST SWAP6 POP POP PUSH1 0x40 PUSH2 0x168D DUP10 DUP3 DUP11 ADD PUSH2 0x15C6 JUMP JUMPDEST SWAP5 POP POP PUSH1 0x60 PUSH2 0x169E DUP10 DUP3 DUP11 ADD PUSH2 0x152D JUMP JUMPDEST SWAP4 POP POP PUSH1 0x80 DUP8 ADD CALLDATALOAD PUSH8 0xFFFFFFFFFFFFFFFF DUP2 GT ISZERO PUSH2 0x16BF JUMPI PUSH2 0x16BE PUSH2 0x14DF JUMP JUMPDEST JUMPDEST PUSH2 0x16CB DUP10 DUP3 DUP11 ADD PUSH2 0x15EA JUMP JUMPDEST SWAP3 POP SWAP3 POP POP SWAP3 SWAP6 POP SWAP3 SWAP6 POP SWAP3 SWAP6 JUMP JUMPDEST PUSH2 0x16E3 DUP2 PUSH2 0x1504 JUMP JUMPDEST DUP3 MSTORE POP POP JUMP JUMPDEST PUSH1 0x0 PUSH1 0x20 DUP3 ADD SWAP1 POP PUSH2 0x16FE PUSH1 0x0 DUP4 ADD DUP5 PUSH2 0x16DA JUMP JUMPDEST SWAP3 SWAP2 POP POP JUMP JUMPDEST PUSH2 0x170D DUP2 PUSH2 0x15A5 JUMP JUMPDEST DUP3 MSTORE POP POP JUMP JUMPDEST PUSH1 0x0 PUSH1 0x20 DUP3 ADD SWAP1 POP PUSH2 0x1728 PUSH1 0x0 DUP4 ADD DUP5 PUSH2 0x1704 JUMP JUMPDEST SWAP3 SWAP2 POP POP JUMP JUMPDEST PUSH1 0x0 DUP1 PUSH1 0x0 DUP1 PUSH1 0x80 DUP6 DUP8 SUB SLT ISZERO PUSH2 0x1748 JUMPI PUSH2 0x1747 PUSH2 0x14DA JUMP JUMPDEST JUMPDEST PUSH1 0x0 PUSH2 0x1756 DUP8 DUP3 DUP9 ADD PUSH2 0x152D JUMP JUMPDEST SWAP5 POP POP PUSH1 0x20 PUSH2 0x1767 DUP8 DUP3 DUP9 ADD PUSH2 0x152D JUMP JUMPDEST SWAP4 POP POP PUSH1 0x40 PUSH2 0x1778 DUP8 DUP3 DUP9 ADD PUSH2 0x152D JUMP JUMPDEST SWAP3 POP POP PUSH1 0x60 PUSH2 0x1789 DUP8 DUP3 DUP9 ADD PUSH2 0x152D JUMP JUMPDEST SWAP2 POP POP SWAP3 SWAP6 SWAP2 SWAP5 POP SWAP3 POP JUMP JUMPDEST PUSH1 0x0 DUP1 PUSH1 0x0 DUP1 PUSH1 0x0 DUP1 PUSH1 0xC0 DUP8 DUP10 SUB SLT ISZERO PUSH2 0x17B2 JUMPI PUSH2 0x17B1 PUSH2 0x14DA JUMP JUMPDEST JUMPDEST PUSH1 0x0 PUSH2 0x17C0 DUP10 DUP3 DUP11 ADD PUSH2 0x152D JUMP JUMPDEST SWAP7 POP POP PUSH1 0x20 PUSH2 0x17D1 DUP10 DUP3 DUP11 ADD PUSH2 0x152D JUMP JUMPDEST SWAP6 POP POP PUSH1 0x40 PUSH2 0x17E2 DUP10 DUP3 DUP11 ADD PUSH2 0x152D JUMP JUMPDEST SWAP5 POP POP PUSH1 0x60 PUSH2 0x17F3 DUP10 DUP3 DUP11 ADD PUSH2 0x152D JUMP JUMPDEST SWAP4 POP POP PUSH1 0x80 PUSH2 0x1804 DUP10 DUP3 DUP11 ADD PUSH2 0x152D JUMP JUMPDEST SWAP3 POP POP PUSH1 0xA0 PUSH2 0x1815 DUP10 DUP3 DUP11 ADD PUSH2 0x152D JUMP JUMPDEST SWAP2 POP POP SWAP3 SWAP6 POP SWAP3 SWAP6 POP SWAP3 SWAP6 JUMP JUMPDEST PUSH1 0x0 DUP3 DUP3 MSTORE PUSH1 0x20 DUP3 ADD SWAP1 POP SWAP3 SWAP2 POP POP JUMP JUMPDEST PUSH32 0x4F6E6C7920706F6F6C2063616E2063616C6C0000000000000000000000000000 PUSH1 0x0 DUP3 ADD MSTORE POP JUMP JUMPDEST PUSH1 0x0 PUSH2 0x1869 PUSH1 0x12 DUP4 PUSH2 0x1822 JUMP JUMPDEST SWAP2 POP PUSH2 0x1874 DUP3 PUSH2 0x1833 JUMP JUMPDEST PUSH1 0x20 DUP3 ADD SWAP1 POP SWAP2 SWAP1 POP JUMP JUMPDEST PUSH1 0x0 PUSH1 0x20 DUP3 ADD SWAP1 POP DUP2 DUP2 SUB PUSH1 0x0 DUP4 ADD MSTORE PUSH2 0x1898 DUP2 PUSH2 0x185C JUMP JUMPDEST SWAP1 POP SWAP2 SWAP1 POP JUMP JUMPDEST PUSH32 0x4F6E6C792073656C6620696E6974696174656400000000000000000000000000 PUSH1 0x0 DUP3 ADD MSTORE POP JUMP JUMPDEST PUSH1 0x0 PUSH2 0x18D5 PUSH1 0x13 DUP4 PUSH2 0x1822 JUMP JUMPDEST SWAP2 POP PUSH2 0x18E0 DUP3 PUSH2 0x189F JUMP JUMPDEST PUSH1 0x20 DUP3 ADD SWAP1 POP SWAP2 SWAP1 POP JUMP JUMPDEST PUSH1 0x0 PUSH1 0x20 DUP3 ADD SWAP1 POP DUP2 DUP2 SUB PUSH1 0x0 DUP4 ADD MSTORE PUSH2 0x1904 DUP2 PUSH2 0x18C8 JUMP JUMPDEST SWAP1 POP SWAP2 SWAP1 POP JUMP JUMPDEST PUSH1 0x0 DUP1 REVERT JUMPDEST PUSH1 0x0 PUSH1 0x1F NOT PUSH1 0x1F DUP4 ADD AND SWAP1 POP SWAP2 SWAP1 POP JUMP JUMPDEST PUSH32 0x4E487B7100000000000000000000000000000000000000000000000000000000 PUSH1 0x0 MSTORE PUSH1 0x41 PUSH1 0x4 MSTORE PUSH1 0x24 PUSH1 0x0 REVERT JUMPDEST PUSH2 0x1959 DUP3 PUSH2 0x1910 JUMP JUMPDEST DUP2 ADD DUP2 DUP2 LT PUSH8 0xFFFFFFFFFFFFFFFF DUP3 GT OR ISZERO PUSH2 0x1978 JUMPI PUSH2 0x1977 PUSH2 0x1921 JUMP JUMPDEST JUMPDEST DUP1 PUSH1 0x40 MSTORE POP POP POP JUMP JUMPDEST PUSH1 0x0 PUSH2 0x198B PUSH2 0x14D0 JUMP JUMPDEST SWAP1 POP PUSH2 0x1997 DUP3 DUP3 PUSH2 0x1950 JUMP JUMPDEST SWAP2 SWAP1 POP JUMP JUMPDEST PUSH1 0x0 PUSH1 0x80 DUP3 DUP5 SUB SLT ISZERO PUSH2 0x19B2 JUMPI PUSH2 0x19B1 PUSH2 0x190B JUMP JUMPDEST JUMPDEST PUSH2 0x19BC PUSH1 0x80 PUSH2 0x1981 JUMP JUMPDEST SWAP1 POP PUSH1 0x0 PUSH2 0x19CC DUP5 DUP3 DUP6 ADD PUSH2 0x152D JUMP JUMPDEST PUSH1 0x0 DUP4 ADD MSTORE POP PUSH1 0x20 PUSH2 0x19E0 DUP5 DUP3 DUP6 ADD PUSH2 0x152D JUMP JUMPDEST PUSH1 0x20 DUP4 ADD MSTORE POP PUSH1 0x40 PUSH2 0x19F4 DUP5 DUP3 DUP6 ADD PUSH2 0x152D JUMP JUMPDEST PUSH1 0x40 DUP4 ADD MSTORE POP PUSH1 0x60 PUSH2 0x1A08 DUP5 DUP3 DUP6 ADD PUSH2 0x152D JUMP JUMPDEST PUSH1 0x60 DUP4 ADD MSTORE POP SWAP3 SWAP2 POP POP JUMP JUMPDEST PUSH1 0x0 PUSH1 0x80 DUP3 DUP5 SUB SLT ISZERO PUSH2 0x1A2A JUMPI PUSH2 0x1A29 PUSH2 0x14DA JUMP JUMPDEST JUMPDEST PUSH1 0x0 PUSH2 0x1A38 DUP5 DUP3 DUP6 ADD PUSH2 0x199C JUMP JUMPDEST SWAP2 POP POP SWAP3 SWAP2 POP POP JUMP JUMPDEST PUSH32 0x526F7574657230206E6F742077686974656C6973746564000000000000000000 PUSH1 0x0 DUP3 ADD MSTORE POP JUMP JUMPDEST PUSH1 0x0 PUSH2 0x1A77 PUSH1 0x17 DUP4 PUSH2 0x1822 JUMP JUMPDEST SWAP2 POP PUSH2 0x1A82 DUP3 PUSH2 0x1A41 JUMP JUMPDEST PUSH1 0x20 DUP3 ADD SWAP1 POP SWAP2 SWAP1 POP JUMP JUMPDEST PUSH1 0x0 PUSH1 0x20 DUP3 ADD SWAP1 POP DUP2 DUP2 SUB PUSH1 0x0 DUP4 ADD MSTORE PUSH2 0x1AA6 DUP2 PUSH2 0x1A6A JUMP JUMPDEST SWAP1 POP SWAP2 SWAP1 POP JUMP JUMPDEST PUSH32 0x526F7574657231206E6F742077686974656C6973746564000000000000000000 PUSH1 0x0 DUP3 ADD MSTORE POP JUMP JUMPDEST PUSH1 0x0 PUSH2 0x1AE3 PUSH1 0x17 DUP4 PUSH2 0x1822 JUMP JUMPDEST SWAP2 POP PUSH2 0x1AEE DUP3 PUSH2 0x1AAD JUMP JUMPDEST PUSH1 0x20 DUP3 ADD SWAP1 POP SWAP2 SWAP1 POP JUMP JUMPDEST PUSH1 0x0 PUSH1 0x20 DUP3 ADD SWAP1 POP DUP2 DUP2 SUB PUSH1 0x0 DUP4 ADD MSTORE PUSH2 0x1B12 DUP2 PUSH2 0x1AD6 JUMP JUMPDEST SWAP1 POP SWAP2 SWAP1 POP JUMP JUMPDEST PUSH1 0x0 DUP2 MLOAD SWAP1 POP PUSH2 0x1B28 DUP2 PUSH2 0x15AF JUMP JUMPDEST SWAP3 SWAP2 POP POP JUMP JUMPDEST PUSH1 0x0 PUSH1 0x20 DUP3 DUP5 SUB SLT ISZERO PUSH2 0x1B44 JUMPI PUSH2 0x1B43 PUSH2 0x14DA JUMP JUMPDEST JUMPDEST PUSH1 0x0 PUSH2 0x1B52 DUP5 DUP3 DUP6 ADD PUSH2 0x1B19 JUMP JUMPDEST SWAP2 POP POP SWAP3 SWAP2 POP POP JUMP JUMPDEST PUSH1 0x0 PUSH1 0x40 DUP3 ADD SWAP1 POP PUSH2 0x1B70 PUSH1 0x0 DUP4 ADD DUP6 PUSH2 0x16DA JUMP JUMPDEST PUSH2 0x1B7D PUSH1 0x20 DUP4 ADD DUP5 PUSH2 0x1704 JUMP JUMPDEST SWAP4 SWAP3 POP POP POP JUMP JUMPDEST PUSH2 0x1B8D DUP2 PUSH2 0x156F JUMP JUMPDEST DUP2 EQ PUSH2 0x1B98 JUMPI PUSH1 0x0 DUP1 REVERT JUMPDEST POP JUMP JUMPDEST PUSH1 0x0 DUP2 MLOAD SWAP1 POP PUSH2 0x1BAA DUP2 PUSH2 0x1B84 JUMP JUMPDEST SWAP3 SWAP2 POP POP JUMP JUMPDEST PUSH1 0x0 PUSH1 0x20 DUP3 DUP5 SUB SLT ISZERO PUSH2 0x1BC6 JUMPI PUSH2 0x1BC5 PUSH2 0x14DA JUMP JUMPDEST JUMPDEST PUSH1 0x0 PUSH2 0x1BD4 DUP5 DUP3 DUP6 ADD PUSH2 0x1B9B JUMP JUMPDEST SWAP2 POP POP SWAP3 SWAP2 POP POP JUMP JUMPDEST PUSH32 0x53776170312072657475726E6564203000000000000000000000000000000000 PUSH1 0x0 DUP3 ADD MSTORE POP JUMP JUMPDEST PUSH1 0x0 PUSH2 0x1C13 PUSH1 0x10 DUP4 PUSH2 0x1822 JUMP JUMPDEST SWAP2 POP PUSH2 0x1C1E DUP3 PUSH2 0x1BDD JUMP JUMPDEST PUSH1 0x20 DUP3 ADD SWAP1 POP SWAP2 SWAP1 POP JUMP JUMPDEST PUSH1 0x0 PUSH1 0x20 DUP3 ADD SWAP1 POP DUP2 DUP2 SUB PUSH1 0x0 DUP4 ADD MSTORE PUSH2 0x1C42 DUP2 PUSH2 0x1C06 JUMP JUMPDEST SWAP1 POP SWAP2 SWAP1 POP JUMP JUMPDEST PUSH32 0x53776170322072657475726E6564203000000000000000000000000000000000 PUSH1 0x0 DUP3 ADD MSTORE POP JUMP JUMPDEST PUSH1 0x0 PUSH2 0x1C7F PUSH1 0x10 DUP4 PUSH2 0x1822 JUMP JUMPDEST SWAP2 POP PUSH2 0x1C8A DUP3 PUSH2 0x1C49 JUMP JUMPDEST PUSH1 0x20 DUP3 ADD SWAP1 POP SWAP2 SWAP1 POP JUMP JUMPDEST PUSH1 0x0 PUSH1 0x20 DUP3 ADD SWAP1 POP DUP2 DUP2 SUB PUSH1 0x0 DUP4 ADD MSTORE PUSH2 0x1CAE DUP2 PUSH2 0x1C72 JUMP JUMPDEST SWAP1 POP SWAP2 SWAP1 POP JUMP JUMPDEST PUSH32 0x4E487B7100000000000000000000000000000000000000000000000000000000 PUSH1 0x0 MSTORE PUSH1 0x11 PUSH1 0x4 MSTORE PUSH1 0x24 PUSH1 0x0 REVERT JUMPDEST PUSH1 0x0 PUSH2 0x1CEF DUP3 PUSH2 0x15A5 JUMP JUMPDEST SWAP2 POP PUSH2 0x1CFA DUP4 PUSH2 0x15A5 JUMP JUMPDEST SWAP3 POP DUP3 DUP3 ADD SWAP1 POP DUP1 DUP3 GT ISZERO PUSH2 0x1D12 JUMPI PUSH2 0x1D11 PUSH2 0x1CB5 JUMP JUMPDEST JUMPDEST SWAP3 SWAP2 POP POP JUMP JUMPDEST PUSH1 0x0 PUSH1 0xFF DUP3 AND SWAP1 POP SWAP2 SWAP1 POP JUMP JUMPDEST PUSH2 0x1D2E DUP2 PUSH2 0x1D18 JUMP JUMPDEST DUP2 EQ PUSH2 0x1D39 JUMPI PUSH1 0x0 DUP1 REVERT JUMPDEST POP JUMP JUMPDEST PUSH1 0x0 DUP2 MLOAD SWAP1 POP PUSH2 0x1D4B DUP2 PUSH2 0x1D25 JUMP JUMPDEST SWAP3 SWAP2 POP POP JUMP JUMPDEST PUSH1 0x0 PUSH1 0x20 DUP3 DUP5 SUB SLT ISZERO PUSH2 0x1D67 JUMPI PUSH2 0x1D66 PUSH2 0x14DA JUMP JUMPDEST JUMPDEST PUSH1 0x0 PUSH2 0x1D75 DUP5 DUP3 DUP6 ADD PUSH2 0x1D3C JUMP JUMPDEST SWAP2 POP POP SWAP3 SWAP2 POP POP JUMP JUMPDEST PUSH1 0x0 PUSH2 0x1D89 DUP3 PUSH2 0x1D18 JUMP JUMPDEST SWAP2 POP PUSH2 0x1D94 DUP4 PUSH2 0x1D18 JUMP JUMPDEST SWAP3 POP DUP3 DUP3 SUB SWAP1 POP PUSH1 0xFF DUP2 GT ISZERO PUSH2 0x1DAD JUMPI PUSH2 0x1DAC PUSH2 0x1CB5 JUMP JUMPDEST JUMPDEST SWAP3 SWAP2 POP POP JUMP JUMPDEST PUSH1 0x0 DUP2 PUSH1 0x1 SHR SWAP1 POP SWAP2 SWAP1 POP JUMP JUMPDEST PUSH1 0x0 DUP1 DUP3 SWAP2 POP DUP4 SWAP1 POP JUMPDEST PUSH1 0x1 DUP6 GT ISZERO PUSH2 0x1E0A JUMPI DUP1 DUP7 DIV DUP2 GT ISZERO PUSH2 0x1DE6 JUMPI PUSH2 0x1DE5 PUSH2 0x1CB5 JUMP JUMPDEST JUMPDEST PUSH1 0x1 DUP6 AND ISZERO PUSH2 0x1DF5 JUMPI DUP1 DUP3 MUL SWAP2 POP JUMPDEST DUP1 DUP2 MUL SWAP1 POP PUSH2 0x1E03 DUP6 PUSH2 0x1DB3 JUMP JUMPDEST SWAP5 POP PUSH2 0x1DCA JUMP JUMPDEST SWAP5 POP SWAP5 SWAP3 POP POP POP JUMP JUMPDEST PUSH1 0x0 DUP3 PUSH2 0x1E23 JUMPI PUSH1 0x1 SWAP1 POP PUSH2 0x1EDF JUMP JUMPDEST DUP2 PUSH2 0x1E31 JUMPI PUSH1 0x0 SWAP1 POP PUSH2 0x1EDF JUMP JUMPDEST DUP2 PUSH1 0x1 DUP2 EQ PUSH2 0x1E47 JUMPI PUSH1 0x2 DUP2 EQ PUSH2 0x1E51 JUMPI PUSH2 0x1E80 JUMP JUMPDEST PUSH1 0x1 SWAP2 POP POP PUSH2 0x1EDF JUMP JUMPDEST PUSH1 0xFF DUP5 GT ISZERO PUSH2 0x1E63 JUMPI PUSH2 0x1E62 PUSH2 0x1CB5 JUMP JUMPDEST JUMPDEST DUP4 PUSH1 0x2 EXP SWAP2 POP DUP5 DUP3 GT ISZERO PUSH2 0x1E7A JUMPI PUSH2 0x1E79 PUSH2 0x1CB5 JUMP JUMPDEST JUMPDEST POP PUSH2 0x1EDF JUMP JUMPDEST POP PUSH1 0x20 DUP4 LT PUSH2 0x133 DUP4 LT AND PUSH1 0x4E DUP5 LT PUSH1 0xB DUP5 LT AND OR ISZERO PUSH2 0x1EB5 JUMPI DUP3 DUP3 EXP SWAP1 POP DUP4 DUP2 GT ISZERO PUSH2 0x1EB0 JUMPI PUSH2 0x1EAF PUSH2 0x1CB5 JUMP JUMPDEST JUMPDEST PUSH2 0x1EDF JUMP JUMPDEST PUSH2 0x1EC2 DUP5 DUP5 DUP5 PUSH1 0x1 PUSH2 0x1DC0 JUMP JUMPDEST SWAP3 POP SWAP1 POP DUP2 DUP5 DIV DUP2 GT ISZERO PUSH2 0x1ED9 JUMPI PUSH2 0x1ED8 PUSH2 0x1CB5 JUMP JUMPDEST JUMPDEST DUP2 DUP2 MUL SWAP1 POP JUMPDEST SWAP4 SWAP3 POP POP POP JUMP JUMPDEST PUSH1 0x0 PUSH2 0x1EF1 DUP3 PUSH2 0x15A5 JUMP JUMPDEST SWAP2 POP PUSH2 0x1EFC DUP4 PUSH2 0x1D18 JUMP JUMPDEST SWAP3 POP PUSH2 0x1F29 PUSH32 0xFFFFFFFFFFFFFFFFFFFFFFFFFFFFFFFFFFFFFFFFFFFFFFFFFFFFFFFFFFFFFFFF DUP5 DUP5 PUSH2 0x1E13 JUMP JUMPDEST SWAP1 POP SWAP3 SWAP2 POP POP JUMP JUMPDEST PUSH32 0x4E487B7100000000000000000000000000000000000000000000000000000000 PUSH1 0x0 MSTORE PUSH1 0x12 PUSH1 0x4 MSTORE PUSH1 0x24 PUSH1 0x0 REVERT JUMPDEST PUSH1 0x0 PUSH2 0x1F6B DUP3 PUSH2 0x15A5 JUMP JUMPDEST SWAP2 POP PUSH2 0x1F76 DUP4 PUSH2 0x15A5 JUMP JUMPDEST SWAP3 POP DUP3 PUSH2 0x1F86 JUMPI PUSH2 0x1F85 PUSH2 0x1F31 JUMP JUMPDEST JUMPDEST DUP3 DUP3 DIV SWAP1 POP SWAP3 SWAP2 POP POP JUMP JUMPDEST PUSH1 0x0 PUSH1 0xA0 DUP3 ADD SWAP1 POP PUSH2 0x1FA6 PUSH1 0x0 DUP4 ADD DUP9 PUSH2 0x1704 JUMP JUMPDEST PUSH2 0x1FB3 PUSH1 0x20 DUP4 ADD DUP8 PUSH2 0x1704 JUMP JUMPDEST PUSH2 0x1FC0 PUSH1 0x40 DUP4 ADD DUP7 PUSH2 0x1704 JUMP JUMPDEST PUSH2 0x1FCD PUSH1 0x60 DUP4 ADD DUP6 PUSH2 0x1704 JUMP JUMPDEST PUSH2 0x1FDA PUSH1 0x80 DUP4 ADD DUP5 PUSH2 0x1704 JUMP JUMPDEST SWAP7 SWAP6 POP POP POP POP POP POP JUMP JUMPDEST PUSH1 0x0 PUSH1 0x60 DUP3 ADD SWAP1 POP PUSH2 0x1FF9 PUSH1 0x0 DUP4 ADD DUP7 PUSH2 0x1704 JUMP JUMPDEST PUSH2 0x2006 PUSH1 0x20 DUP4 ADD DUP6 PUSH2 0x1704 JUMP JUMPDEST PUSH2 0x2013 PUSH1 0x40 DUP4 ADD DUP5 PUSH2 0x1704 JUMP JUMPDEST SWAP5 SWAP4 POP POP POP POP JUMP JUMPDEST PUSH32 0x43616E6E6F74207265706179206C6F616E000000000000000000000000000000 PUSH1 0x0 DUP3 ADD MSTORE POP JUMP JUMPDEST PUSH1 0x0 PUSH2 0x2051 PUSH1 0x11 DUP4 PUSH2 0x1822 JUMP JUMPDEST SWAP2 POP PUSH2 0x205C DUP3 PUSH2 0x201B JUMP JUMPDEST PUSH1 0x20 DUP3 ADD SWAP1 POP SWAP2 SWAP1 POP JUMP JUMPDEST PUSH1 0x0 PUSH1 0x20 DUP3 ADD SWAP1 POP DUP2 DUP2 SUB PUSH1 0x0 DUP4 ADD MSTORE PUSH2 0x2080 DUP2 PUSH2 0x2044 JUMP JUMPDEST SWAP1 POP SWAP2 SWAP1 POP JUMP JUMPDEST PUSH32 0x4E6F742070726F66697461626C65000000000000000000000000000000000000 PUSH1 0x0 DUP3 ADD MSTORE POP JUMP JUMPDEST PUSH1 0x0 PUSH2 0x20BD PUSH1 0xE DUP4 PUSH2 0x1822 JUMP JUMPDEST SWAP2 POP PUSH2 0x20C8 DUP3 PUSH2 0x2087 JUMP JUMPDEST PUSH1 0x20 DUP3 ADD SWAP1 POP SWAP2 SWAP1 POP JUMP JUMPDEST PUSH1 0x0 PUSH1 0x20 DUP3 ADD SWAP1 POP DUP2 DUP2 SUB PUSH1 0x0 DUP4 ADD MSTORE PUSH2 0x20EC DUP2 PUSH2 0x20B0 JUMP JUMPDEST SWAP1 POP SWAP2 SWAP1 POP JUMP JUMPDEST PUSH32 0x4E6F7420746865206F776E657200000000000000000000000000000000000000 PUSH1 0x0 DUP3 ADD MSTORE POP JUMP JUMPDEST PUSH1 0x0 PUSH2 0x2129 PUSH1 0xD DUP4 PUSH2 0x1822 JUMP JUMPDEST SWAP2 POP PUSH2 0x2134 DUP3 PUSH2 0x20F3 JUMP JUMPDEST PUSH1 0x20 DUP3 ADD SWAP1 POP SWAP2 SWAP1 POP JUMP JUMPDEST PUSH1 0x0 PUSH1 0x20 DUP3 ADD SWAP1 POP DUP2 DUP2 SUB PUSH1 0x0 DUP4 ADD MSTORE PUSH2 0x2158 DUP2 PUSH2 0x211C JUMP JUMPDEST SWAP1 POP SWAP2 SWAP1 POP JUMP JUMPDEST PUSH32 0x4E6F20746F6B656E2062616C616E636500000000000000000000000000000000 PUSH1 0x0 DUP3 ADD MSTORE POP JUMP JUMPDEST PUSH1 0x0 PUSH2 0x2195 PUSH1 0x10 DUP4 PUSH2 0x1822 JUMP JUMPDEST SWAP2 POP PUSH2 0x21A0 DUP3 PUSH2 0x215F JUMP JUMPDEST PUSH1 0x20 DUP3 ADD SWAP1 POP SWAP2 SWAP1 POP JUMP JUMPDEST PUSH1 0x0 PUSH1 0x20 DUP3 ADD SWAP1 POP DUP2 DUP2 SUB PUSH1 0x0 DUP4 ADD MSTORE PUSH2 0x21C4 DUP2 PUSH2 0x2188 JUMP JUMPDEST SWAP1 POP SWAP2 SWAP1 POP JUMP JUMPDEST PUSH32 0x496E76616C696420746F6B656E20616464726573736573000000000000000000 PUSH1 0x0 DUP3 ADD MSTORE POP JUMP JUMPDEST PUSH1 0x0 PUSH2 0x2201 PUSH1 0x17 DUP4 PUSH2 0x1822 JUMP JUMPDEST SWAP2 POP PUSH2 0x220C DUP3 PUSH2 0x21CB JUMP JUMPDEST PUSH1 0x20 DUP3 ADD SWAP1 POP SWAP2 SWAP1 POP JUMP JUMPDEST PUSH1 0x0 PUSH1 0x20 DUP3 ADD SWAP1 POP DUP2 DUP2 SUB PUSH1 0x0 DUP4 ADD MSTORE PUSH2 0x2230 DUP2 PUSH2 0x21F4 JUMP JUMPDEST SWAP1 POP SWAP2 SWAP1 POP JUMP JUMPDEST PUSH32 0x496E76616C696420726F75746572206164647265737365730000000000000000 PUSH1 0x0 DUP3 ADD MSTORE POP JUMP JUMPDEST PUSH1 0x0 PUSH2 0x226D PUSH1 0x18 DUP4 PUSH2 0x1822 JUMP JUMPDEST SWAP2 POP PUSH2 0x2278 DUP3 PUSH2 0x2237 JUMP JUMPDEST PUSH1 0x20 DUP3 ADD SWAP1 POP SWAP2 SWAP1 POP JUMP JUMPDEST PUSH1 0x0 PUSH1 0x20 DUP3 ADD SWAP1 POP DUP2 DUP2 SUB PUSH1 0x0 DUP4 ADD MSTORE PUSH2 0x229C DUP2 PUSH2 0x2260 JUMP JUMPDEST SWAP1 POP SWAP2 SWAP1 POP JUMP JUMPDEST PUSH2 0x22AC DUP2 PUSH2 0x1504 JUMP JUMPDEST DUP3 MSTORE POP POP JUMP JUMPDEST PUSH1 0x80 DUP3 ADD PUSH1 0x0 DUP3 ADD MLOAD PUSH2 0x22C8 PUSH1 0x0 DUP6 ADD DUP3 PUSH2 0x22A3 JUMP JUMPDEST POP PUSH1 0x20 DUP3 ADD MLOAD PUSH2 0x22DB PUSH1 0x20 DUP6 ADD DUP3 PUSH2 0x22A3 JUMP JUMPDEST POP PUSH1 0x40 DUP3 ADD MLOAD PUSH2 0x22EE PUSH1 0x40 DUP6 ADD DUP3 PUSH2 0x22A3 JUMP JUMPDEST POP PUSH1 0x60 DUP3 ADD MLOAD PUSH2 0x2301 PUSH1 0x60 DUP6 ADD DUP3 PUSH2 0x22A3 JUMP JUMPDEST POP POP POP POP JUMP JUMPDEST PUSH1 0x0 PUSH1 0x80 DUP3 ADD SWAP1 POP PUSH2 0x231C PUSH1 0x0 DUP4 ADD DUP5 PUSH2 0x22B2 JUMP JUMPDEST SWAP3 SWAP2 POP POP JUMP JUMPDEST PUSH1 0x0 PUSH2 0x232D DUP3 PUSH2 0x15A5 JUMP JUMPDEST SWAP2 POP PUSH2 0x2338 DUP4 PUSH2 0x15A5 JUMP JUMPDEST SWAP3 POP DUP3 DUP3 MUL PUSH2 0x2346 DUP2 PUSH2 0x15A5 JUMP JUMPDEST SWAP2 POP DUP3 DUP3 DIV DUP5 EQ DUP4 ISZERO OR PUSH2 0x235D JUMPI PUSH2 0x235C PUSH2 0x1CB5 JUMP JUMPDEST JUMPDEST POP SWAP3 SWAP2 POP POP JUMP JUMPDEST PUSH32 0x4E487B7100000000000000000000000000000000000000000000000000000000 PUSH1 0x0 MSTORE PUSH1 0x32 PUSH1 0x4 MSTORE PUSH1 0x24 PUSH1 0x0 REVERT JUMPDEST PUSH1 0x0 DUP2 SWAP1 POP SWAP2 SWAP1 POP JUMP JUMPDEST PUSH1 0x0 DUP2 SWAP1 POP SWAP2 SWAP1 POP JUMP JUMPDEST PUSH1 0x0 PUSH2 0x23C2 PUSH2 0x23BD PUSH2 0x23B8 DUP5 PUSH2 0x2393 JUMP JUMPDEST PUSH2 0x239D JUMP JUMPDEST PUSH2 0x1D18 JUMP JUMPDEST SWAP1 POP SWAP2 SWAP1 POP JUMP JUMPDEST PUSH2 0x23D2 DUP2 PUSH2 0x23A7 JUMP JUMPDEST DUP3 MSTORE POP POP JUMP JUMPDEST PUSH1 0x0 DUP2 MLOAD SWAP1 POP SWAP2 SWAP1 POP JUMP JUMPDEST PUSH1 0x0 DUP3 DUP3 MSTORE PUSH1 0x20 DUP3 ADD SWAP1 POP SWAP3 SWAP2 POP POP JUMP JUMPDEST PUSH1 0x0 DUP2 SWAP1 POP PUSH1 0x20 DUP3 ADD SWAP1 POP SWAP2 SWAP1 POP JUMP JUMPDEST PUSH1 0x0 PUSH2 0x2410 DUP4 DUP4 PUSH2 0x22A3 JUMP JUMPDEST PUSH1 0x20 DUP4 ADD SWAP1 POP SWAP3 SWAP2 POP POP JUMP JUMPDEST PUSH1 0x0 PUSH1 0x20 DUP3 ADD SWAP1 POP SWAP2 SWAP1 POP JUMP JUMPDEST PUSH1 0x0 PUSH2 0x2434 DUP3 PUSH2 0x23D8 JUMP JUMPDEST PUSH2 0x243E DUP2 DUP6 PUSH2 0x23E3 JUMP JUMPDEST SWAP4 POP PUSH2 0x2449 DUP4 PUSH2 0x23F4 JUMP JUMPDEST DUP1 PUSH1 0x0 JUMPDEST DUP4 DUP2 LT ISZERO PUSH2 0x247A JUMPI DUP2 MLOAD PUSH2 0x2461 DUP9 DUP3 PUSH2 0x2404 JUMP JUMPDEST SWAP8 POP PUSH2 0x246C DUP4 PUSH2 0x241C JUMP JUMPDEST SWAP3 POP POP PUSH1 0x1 DUP2 ADD SWAP1 POP PUSH2 0x244D JUMP JUMPDEST POP DUP6 SWAP4 POP POP POP POP SWAP3 SWAP2 POP POP JUMP JUMPDEST PUSH1 0x0 PUSH1 0xA0 DUP3 ADD SWAP1 POP PUSH2 0x249C PUSH1 0x0 DUP4 ADD DUP9 PUSH2 0x1704 JUMP JUMPDEST PUSH2 0x24A9 PUSH1 0x20 DUP4 ADD DUP8 PUSH2 0x23C9 JUMP JUMPDEST DUP2 DUP2 SUB PUSH1 0x40 DUP4 ADD MSTORE PUSH2 0x24BB DUP2 DUP7 PUSH2 0x2429 JUMP JUMPDEST SWAP1 POP PUSH2 0x24CA PUSH1 0x60 DUP4 ADD DUP6 PUSH2 0x16DA JUMP JUMPDEST PUSH2 0x24D7 PUSH1 0x80 DUP4 ADD DUP5 PUSH2 0x1704 JUMP JUMPDEST SWAP7 SWAP6 POP POP POP POP POP POP JUMP JUMPDEST PUSH1 0x0 DUP2 MLOAD SWAP1 POP SWAP2 SWAP1 POP JUMP JUMPDEST PUSH1 0x0 DUP2 SWAP1 POP SWAP3 SWAP2 POP POP JUMP JUMPDEST PUSH1 0x0 JUMPDEST DUP4 DUP2 LT ISZERO PUSH2 0x2515 JUMPI DUP1 DUP3 ADD MLOAD DUP2 DUP5 ADD MSTORE PUSH1 0x20 DUP2 ADD SWAP1 POP PUSH2 0x24FA JUMP JUMPDEST PUSH1 0x0 DUP5 DUP5 ADD MSTORE POP POP POP POP JUMP JUMPDEST PUSH1 0x0 PUSH2 0x252C DUP3 PUSH2 0x24E1 JUMP JUMPDEST PUSH2 0x2536 DUP2 DUP6 PUSH2 0x24EC JUMP JUMPDEST SWAP4 POP PUSH2 0x2546 DUP2 DUP6 PUSH1 0x20 DUP7 ADD PUSH2 0x24F7 JUMP JUMPDEST DUP1 DUP5 ADD SWAP2 POP POP SWAP3 SWAP2 POP POP JUMP JUMPDEST PUSH1 0x0 PUSH2 0x255E DUP3 DUP5 PUSH2 0x2521 JUMP JUMPDEST SWAP2 POP DUP2 SWAP1 POP SWAP3 SWAP2 POP POP JUMP JUMPDEST PUSH32 0x53776170206661696C6564000000000000000000000000000000000000000000 PUSH1 0x0 DUP3 ADD MSTORE POP JUMP JUMPDEST PUSH1 0x0 PUSH2 0x259F PUSH1 0xB DUP4 PUSH2 0x1822 JUMP JUMPDEST SWAP2 POP PUSH2 0x25AA DUP3 PUSH2 0x2569 JUMP JUMPDEST PUSH1 0x20 DUP3 ADD SWAP1 POP SWAP2 SWAP1 POP JUMP JUMPDEST PUSH1 0x0 PUSH1 0x20 DUP3 ADD SWAP1 POP DUP2 DUP2 SUB PUSH1 0x0 DUP4 ADD MSTORE PUSH2 0x25CE DUP2 PUSH2 0x2592 JUMP JUMPDEST SWAP1 POP SWAP2 SWAP1 POP JUMP JUMPDEST PUSH1 0x0 DUP3 DUP3 MSTORE PUSH1 0x20 DUP3 ADD SWAP1 POP SWAP3 SWAP2 POP POP JUMP JUMPDEST PUSH1 0x0 PUSH2 0x25F1 DUP3 PUSH2 0x24E1 JUMP JUMPDEST PUSH2 0x25FB DUP2 DUP6 PUSH2 0x25D5 JUMP JUMPDEST SWAP4 POP PUSH2 0x260B DUP2 DUP6 PUSH1 0x20 DUP7 ADD PUSH2 0x24F7 JUMP JUMPDEST PUSH2 0x2614 DUP2 PUSH2 0x1910 JUMP JUMPDEST DUP5 ADD SWAP2 POP POP SWAP3 SWAP2 POP POP JUMP JUMPDEST PUSH1 0x0 PUSH2 0xFFFF DUP3 AND SWAP1 POP SWAP2 SWAP1 POP JUMP JUMPDEST PUSH1 0x0 PUSH2 0x2648 PUSH2 0x2643 PUSH2 0x263E DUP5 PUSH2 0x2393 JUMP JUMPDEST PUSH2 0x239D JUMP JUMPDEST PUSH2 0x261F JUMP JUMPDEST SWAP1 POP SWAP2 SWAP1 POP JUMP JUMPDEST PUSH2 0x2658 DUP2 PUSH2 0x262D JUMP JUMPDEST DUP3 MSTORE POP POP JUMP JUMPDEST PUSH1 0x0 PUSH1 0xA0 DUP3 ADD SWAP1 POP PUSH2 0x2673 PUSH1 0x0 DUP4 ADD DUP9 PUSH2 0x16DA JUMP JUMPDEST PUSH2 0x2680 PUSH1 0x20 DUP4 ADD DUP8 PUSH2 0x16DA JUMP JUMPDEST PUSH2 0x268D PUSH1 0x40 DUP4 ADD DUP7 PUSH2 0x1704 JUMP JUMPDEST DUP2 DUP2 SUB PUSH1 0x60 DUP4 ADD MSTORE PUSH2 0x269F DUP2 DUP6 PUSH2 0x25E6 JUMP JUMPDEST SWAP1 POP PUSH2 0x26AE PUSH1 0x80 DUP4 ADD DUP5 PUSH2 0x264F JUMP JUMPDEST SWAP7 SWAP6 POP POP POP POP POP POP JUMP INVALID LOG2 PUSH5 0x6970667358 0x22 SLT KECCAK256 PUSH20 0xED0C59B60A6A6FA97C5072C068D9D5C63E319289 LOG0 SWAP2 0xA8 EXP 0x4F 0x4B 0xD7 0xBF DUP14 POP 0xD0 PUSH5 0x736F6C6343 STOP ADDMOD EQ STOP CALLER "},"methodIdentifiers":{"POOL()":"7535d246","executeFlashArbitrage(address,address,address,address)":"9ecb6910","executeOperation(address,uint256,uint256,address,bytes)":"1b11d0ff","executeTriangleArbitrage(address,address,address,address,address,address)":"cf2f8477","minProfit()":"75c81ad0","owner()":"8da5cb5b","whitelistedRouters(address)":"0f874a13","withdrawNative()":"50431ce4","withdrawToken(address)":"89476069"}}}}}