{
  "_format": "hh-sol-artifact-1",
  "contractName": "MultiPairFlashArbitrage",
  "sourceName": "contracts/MultiPairFlashArbitrage.sol",
  "abi": [
    {
      "inputs": [
        {
          "internalType": "address",
          "name": "_addressProvider",
          "type": "address"
        },
        {
          "internalType": "address[]",
          "name": "routerAddresses",
          "type": "address[]"
        },
        {
          "internalType": "uint256",
          "name": "_minProfit",
          "type": "uint256"
        }
      ],
      "stateMutability": "nonpayable",
      "type": "constructor"
    },
    {
      "anonymous": false,
      "inputs": [
        {
          "indexed": false,
          "internalType": "uint256",
          "name": "totalOwed",
          "type": "uint256"
        },
        {
          "indexed": false,
          "internalType": "uint256",
          "name": "scaledMinProfit",
          "type": "uint256"
        },
        {
          "indexed": false,
          "internalType": "uint256",
          "name": "finalBalance",
          "type": "uint256"
        }
      ],
      "name": "DebugCheck",
      "type": "event"
    },
    {
      "anonymous": false,
      "inputs": [
        {
          "indexed": false,
          "internalType": "uint256",
          "name": "flashAmount",
          "type": "uint256"
        },
        {
          "indexed": false,
          "internalType": "uint256",
          "name": "premium",
          "type": "uint256"
        },
        {
          "indexed": false,
          "internalType": "uint256",
          "name": "token0Before",
          "type": "uint256"
        },
        {
          "indexed": false,
          "internalType": "uint256",
          "name": "token1AfterSwap1",
          "type": "uint256"
        },
        {
          "indexed": false,
          "internalType": "uint256",
          "name": "token0AfterSwap2",
          "type": "uint256"
        }
      ],
      "name": "DebugLog",
      "type": "event"
    },
    {
      "inputs": [],
      "name": "POOL",
      "outputs": [
        {
          "internalType": "address",
          "name": "",
          "type": "address"
        }
      ],
      "stateMutability": "view",
      "type": "function"
    },
    {
      "inputs": [
        {
          "internalType": "address",
          "name": "token0",
          "type": "address"
        },
        {
          "internalType": "address",
          "name": "token1",
          "type": "address"
        },
        {
          "internalType": "address",
          "name": "router0",
          "type": "address"
        },
        {
          "internalType": "address",
          "name": "router1",
          "type": "address"
        }
      ],
      "name": "executeFlashArbitrage",
      "outputs": [],
      "stateMutability": "nonpayable",
      "type": "function"
    },
    {
      "inputs": [
        {
          "internalType": "address",
          "name": "asset",
          "type": "address"
        },
        {
          "internalType": "uint256",
          "name": "amount",
          "type": "uint256"
        },
        {
          "internalType": "uint256",
          "name": "premium",
          "type": "uint256"
        },
        {
          "internalType": "address",
          "name": "initiator",
          "type": "address"
        },
        {
          "internalType": "bytes",
          "name": "params",
          "type": "bytes"
        }
      ],
      "name": "executeOperation",
      "outputs": [
        {
          "internalType": "bool",
          "name": "",
          "type": "bool"
        }
      ],
      "stateMutability": "nonpayable",
      "type": "function"
    },
    {
      "inputs": [
        {
          "internalType": "address",
          "name": "token0",
          "type": "address"
        },
        {
          "internalType": "address",
          "name": "token1",
          "type": "address"
        },
        {
          "internalType": "address",
          "name": "token2",
          "type": "address"
        },
        {
          "internalType": "address",
          "name": "router0",
          "type": "address"
        },
        {
          "internalType": "address",
          "name": "router1",
          "type": "address"
        },
        {
          "internalType": "address",
          "name": "router2",
          "type": "address"
        }
      ],
      "name": "executeTriangleArbitrage",
      "outputs": [],
      "stateMutability": "nonpayable",
      "type": "function"
    },
    {
      "inputs": [],
      "name": "minProfit",
      "outputs": [
        {
          "internalType": "uint256",
          "name": "",
          "type": "uint256"
        }
      ],
      "stateMutability": "view",
      "type": "function"
    },
    {
      "inputs": [],
      "name": "owner",
      "outputs": [
        {
          "internalType": "address",
          "name": "",
          "type": "address"
        }
      ],
      "stateMutability": "view",
      "type": "function"
    },
    {
      "inputs": [
        {
          "internalType": "address",
          "name": "",
          "type": "address"
        }
      ],
      "name": "whitelistedRouters",
      "outputs": [
        {
          "internalType": "bool",
          "name": "",
          "type": "bool"
        }
      ],
      "stateMutability": "view",
      "type": "function"
    },
    {
      "inputs": [],
      "name": "withdrawNative",
      "outputs": [],
      "stateMutability": "nonpayable",
      "type": "function"
    },
    {
      "inputs": [
        {
          "internalType": "address",
          "name": "token",
          "type": "address"
        }
      ],
      "name": "withdrawToken",
      "outputs": [],
      "stateMutability": "nonpayable",
      "type": "function"
    }
  ],
  "bytecode": "0x60c06040523480156200001157600080fd5b5060405162002c7738038062002c778339818101604052810190620000379190620003ef565b8273ffffffffffffffffffffffffffffffffffffffff1663026b1d5f6040518163ffffffff1660e01b8152600401602060405180830381865afa15801562000083573d6000803e3d6000fd5b505050506040513d601f19601f82011682018060405250810190620000a991906200046a565b73ffffffffffffffffffffffffffffffffffffffff1660808173ffffffffffffffffffffffffffffffffffffffff168152505060005b8251811015620001735760016000808584815181106200010457620001036200049c565b5b602002602001015173ffffffffffffffffffffffffffffffffffffffff1673ffffffffffffffffffffffffffffffffffffffff16815260200190815260200160002060006101000a81548160ff02191690831515021790555080806200016a90620004fa565b915050620000df565b508060a0818152505033600160006101000a81548173ffffffffffffffffffffffffffffffffffffffff021916908373ffffffffffffffffffffffffffffffffffffffff16021790555050505062000547565b6000604051905090565b600080fd5b600080fd5b600073ffffffffffffffffffffffffffffffffffffffff82169050919050565b60006200020782620001da565b9050919050565b6200021981620001fa565b81146200022557600080fd5b50565b60008151905062000239816200020e565b92915050565b600080fd5b6000601f19601f8301169050919050565b7f4e487b7100000000000000000000000000000000000000000000000000000000600052604160045260246000fd5b6200028f8262000244565b810181811067ffffffffffffffff82111715620002b157620002b062000255565b5b80604052505050565b6000620002c6620001c6565b9050620002d4828262000284565b919050565b600067ffffffffffffffff821115620002f757620002f662000255565b5b602082029050602081019050919050565b600080fd5b6000620003246200031e84620002d9565b620002ba565b905080838252602082019050602084028301858111156200034a576200034962000308565b5b835b8181101562000377578062000362888262000228565b8452602084019350506020810190506200034c565b5050509392505050565b600082601f8301126200039957620003986200023f565b5b8151620003ab8482602086016200030d565b91505092915050565b6000819050919050565b620003c981620003b4565b8114620003d557600080fd5b50565b600081519050620003e981620003be565b92915050565b6000806000606084860312156200040b576200040a620001d0565b5b60006200041b8682870162000228565b935050602084015167ffffffffffffffff8111156200043f576200043e620001d5565b5b6200044d8682870162000381565b92505060406200046086828701620003d8565b9150509250925092565b600060208284031215620004835762000482620001d0565b5b6000620004938482850162000228565b91505092915050565b7f4e487b7100000000000000000000000000000000000000000000000000000000600052603260045260246000fd5b7f4e487b7100000000000000000000000000000000000000000000000000000000600052601160045260246000fd5b60006200050782620003b4565b91507fffffffffffffffffffffffffffffffffffffffffffffffffffffffffffffffff82036200053c576200053b620004cb565b5b600182019050919050565b60805160a0516126ee62000589600039600081816107ed0152610afc0152600081816101d40152818161094501528181610ad8015261143901526126ee6000f3fe608060405234801561001057600080fd5b50600436106100935760003560e01c806375c81ad01161006657806375c81ad014610120578063894760691461013e5780638da5cb5b1461015a5780639ecb691014610178578063cf2f84771461019457610093565b80630f874a13146100985780631b11d0ff146100c857806350431ce4146100f85780637535d24614610102575b600080fd5b6100b260048036038101906100ad9190611542565b6101b0565b6040516100bf919061158a565b60405180910390f35b6100e260048036038101906100dd9190611640565b6101d0565b6040516100ef919061158a565b60405180910390f35b6101006109db565b005b61010a610ad6565b60405161011791906116e9565b60405180910390f35b610128610afa565b6040516101359190611713565b60405180910390f35b61015860048036038101906101539190611542565b610b1e565b005b610162610d14565b60405161016f91906116e9565b60405180910390f35b610192600480360381019061018d919061172e565b610d3a565b005b6101ae60048036038101906101a99190611795565b610fcd565b005b60006020528060005260406000206000915054906101000a900460ff1681565b60007f000000000000000000000000000000000000000000000000000000000000000073ffffffffffffffffffffffffffffffffffffffff163373ffffffffffffffffffffffffffffffffffffffff1614610260576040517f08c379a00000000000000000000000000000000000000000000000000000000081526004016102579061187f565b60405180910390fd5b3073ffffffffffffffffffffffffffffffffffffffff168473ffffffffffffffffffffffffffffffffffffffff16146102ce576040517f08c379a00000000000000000000000000000000000000000000000000000000081526004016102c5906118eb565b60405180910390fd5b600083838101906102df9190611a14565b9050600080826040015173ffffffffffffffffffffffffffffffffffffffff1673ffffffffffffffffffffffffffffffffffffffff16815260200190815260200160002060009054906101000a900460ff16610370576040517f08c379a000000000000000000000000000000000000000000000000000000000815260040161036790611a8d565b60405180910390fd5b600080826060015173ffffffffffffffffffffffffffffffffffffffff1673ffffffffffffffffffffffffffffffffffffffff16815260200190815260200160002060009054906101000a900460ff166103ff576040517f08c379a00000000000000000000000000000000000000000000000000000000081526004016103f690611af9565b60405180910390fd5b6000816000015173ffffffffffffffffffffffffffffffffffffffff166370a08231306040518263ffffffff1660e01b815260040161043e91906116e9565b602060405180830381865afa15801561045b573d6000803e3d6000fd5b505050506040513d601f19601f8201168201806040525081019061047f9190611b2e565b9050816000015173ffffffffffffffffffffffffffffffffffffffff1663095ea7b383604001518a6040518363ffffffff1660e01b81526004016104c4929190611b5b565b6020604051808303816000875af11580156104e3573d6000803e3d6000fd5b505050506040513d601f19601f820116820180604052508101906105079190611bb0565b5061052082604001518984600001518560200151611200565b6000826020015173ffffffffffffffffffffffffffffffffffffffff166370a08231306040518263ffffffff1660e01b815260040161055f91906116e9565b602060405180830381865afa15801561057c573d6000803e3d6000fd5b505050506040513d601f19601f820116820180604052508101906105a09190611b2e565b9050600081116105e5576040517f08c379a00000000000000000000000000000000000000000000000000000000081526004016105dc90611c29565b60405180910390fd5b826020015173ffffffffffffffffffffffffffffffffffffffff1663095ea7b38460600151836040518363ffffffff1660e01b8152600401610628929190611b5b565b6020604051808303816000875af1158015610647573d6000803e3d6000fd5b505050506040513d601f19601f8201168201806040525081019061066b9190611bb0565b5061068483606001518285602001518660000151611200565b6000836000015173ffffffffffffffffffffffffffffffffffffffff166370a08231306040518263ffffffff1660e01b81526004016106c391906116e9565b602060405180830381865afa1580156106e0573d6000803e3d6000fd5b505050506040513d601f19601f820116820180604052508101906107049190611b2e565b905060008111610749576040517f08c379a000000000000000000000000000000000000000000000000000000000815260040161074090611c95565b60405180910390fd5b6000898b6107579190611ce4565b90506000856000015173ffffffffffffffffffffffffffffffffffffffff1663313ce5676040518163ffffffff1660e01b8152600401602060405180830381865afa1580156107aa573d6000803e3d6000fd5b505050506040513d601f19601f820116820180604052508101906107ce9190611d51565b905060008160126107df9190611d7e565b600a6107eb9190611ee6565b7f00000000000000000000000000000000000000000000000000000000000000006108169190611f60565b90507fd8dfa1df854fcceb7d93b8d19ac99c35a6d6f85ddb3176be33bb5a312f9e363d8d8d88888860405161084f959493929190611f91565b60405180910390a17ff4dbd397aa2b592b3852cd94a99201dbc3622cfc8626dc0b547151722064a11783828660405161088a93929190611fe4565b60405180910390a1828410156108d5576040517f08c379a00000000000000000000000000000000000000000000000000000000081526004016108cc90612067565b60405180910390fd5b80836108e19190611ce4565b841015610923576040517f08c379a000000000000000000000000000000000000000000000000000000000815260040161091a906120d3565b60405180910390fd5b866000015173ffffffffffffffffffffffffffffffffffffffff1663095ea7b37f0000000000000000000000000000000000000000000000000000000000000000856040518363ffffffff1660e01b8152600401610982929190611b5b565b6020604051808303816000875af11580156109a1573d6000803e3d6000fd5b505050506040513d601f19601f820116820180604052508101906109c59190611bb0565b5060019750505050505050509695505050505050565b600160009054906101000a900473ffffffffffffffffffffffffffffffffffffffff1673ffffffffffffffffffffffffffffffffffffffff163373ffffffffffffffffffffffffffffffffffffffff1614610a6b576040517f08c379a0000000000000000000000000000000000000000000000000000000008152600401610a629061213f565b60405180910390fd5b600160009054906101000a900473ffffffffffffffffffffffffffffffffffffffff1673ffffffffffffffffffffffffffffffffffffffff166108fc479081150290604051600060405180830381858888f19350505050158015610ad3573d6000803e3d6000fd5b50565b7f000000000000000000000000000000000000000000000000000000000000000081565b7f000000000000000000000000000000000000000000000000000000000000000081565b600160009054906101000a900473ffffffffffffffffffffffffffffffffffffffff1673ffffffffffffffffffffffffffffffffffffffff163373ffffffffffffffffffffffffffffffffffffffff1614610bae576040517f08c379a0000000000000000000000000000000000000000000000000000000008152600401610ba59061213f565b60405180910390fd5b60008173ffffffffffffffffffffffffffffffffffffffff166370a08231306040518263ffffffff1660e01b8152600401610be991906116e9565b602060405180830381865afa158015610c06573d6000803e3d6000fd5b505050506040513d601f19601f82011682018060405250810190610c2a9190611b2e565b905060008111610c6f576040517f08c379a0000000000000000000000000000000000000000000000000000000008152600401610c66906121ab565b60405180910390fd5b8173ffffffffffffffffffffffffffffffffffffffff1663a9059cbb600160009054906101000a900473ffffffffffffffffffffffffffffffffffffffff16836040518363ffffffff1660e01b8152600401610ccc929190611b5b565b6020604051808303816000875af1158015610ceb573d6000803e3d6000fd5b505050506040513d601f19601f82011682018060405250810190610d0f9190611bb0565b505050565b600160009054906101000a900473ffffffffffffffffffffffffffffffffffffffff1681565b600073ffffffffffffffffffffffffffffffffffffffff168473ffffffffffffffffffffffffffffffffffffffff1614158015610da45750600073ffffffffffffffffffffffffffffffffffffffff168373ffffffffffffffffffffffffffffffffffffffff1614155b610de3576040517f08c379a0000000000000000000000000000000000000000000000000000000008152600401610dda90612217565b60405180910390fd5b600073ffffffffffffffffffffffffffffffffffffffff168273ffffffffffffffffffffffffffffffffffffffff1614158015610e4d5750600073ffffffffffffffffffffffffffffffffffffffff168173ffffffffffffffffffffffffffffffffffffffff1614155b610e8c576040517f08c379a0000000000000000000000000000000000000000000000000000000008152600401610e8390612283565b60405180910390fd5b600060405180608001604052808673ffffffffffffffffffffffffffffffffffffffff1681526020018573ffffffffffffffffffffffffffffffffffffffff1681526020018473ffffffffffffffffffffffffffffffffffffffff1681526020018373ffffffffffffffffffffffffffffffffffffffff168152509050600081604051602001610f1c9190612307565b604051602081830303815290604052905060008673ffffffffffffffffffffffffffffffffffffffff1663313ce5676040518163ffffffff1660e01b8152600401602060405180830381865afa158015610f7a573d6000803e3d6000fd5b505050506040513d601f19601f82011682018060405250810190610f9e9190611d51565b600a610faa9190611ee6565b6103e8610fb79190612322565b9050610fc4878284611437565b50505050505050565b600160009054906101000a900473ffffffffffffffffffffffffffffffffffffffff1673ffffffffffffffffffffffffffffffffffffffff163373ffffffffffffffffffffffffffffffffffffffff161461105d576040517f08c379a00000000000000000000000000000000000000000000000000000000081526004016110549061213f565b60405180910390fd5b60008673ffffffffffffffffffffffffffffffffffffffff166370a08231306040518263ffffffff1660e01b815260040161109891906116e9565b602060405180830381865afa1580156110b5573d6000803e3d6000fd5b505050506040513d601f19601f820116820180604052508101906110d99190611b2e565b90506110e784828989611200565b8573ffffffffffffffffffffffffffffffffffffffff166370a08231306040518263ffffffff1660e01b815260040161112091906116e9565b602060405180830381865afa15801561113d573d6000803e3d6000fd5b505050506040513d601f19601f820116820180604052508101906111619190611b2e565b905061116f83828888611200565b8473ffffffffffffffffffffffffffffffffffffffff166370a08231306040518263ffffffff1660e01b81526004016111a891906116e9565b602060405180830381865afa1580156111c5573d6000803e3d6000fd5b505050506040513d601f19601f820116820180604052508101906111e99190611b2e565b90506111f78282878a611200565b50505050505050565b6000600267ffffffffffffffff81111561121d5761121c611921565b5b60405190808252806020026020018201604052801561124b5781602001602082028036833780820191505090505b509050828160008151811061126357611262612364565b5b602002602001019073ffffffffffffffffffffffffffffffffffffffff16908173ffffffffffffffffffffffffffffffffffffffff168152505081816001815181106112b2576112b1612364565b5b602002602001019073ffffffffffffffffffffffffffffffffffffffff16908173ffffffffffffffffffffffffffffffffffffffff168152505060008573ffffffffffffffffffffffffffffffffffffffff1685600084304260405160240161131f959493929190612487565b6040516020818303038152906040527f38ed1739000000000000000000000000000000000000000000000000000000007bffffffffffffffffffffffffffffffffffffffffffffffffffffffff19166020820180517bffffffffffffffffffffffffffffffffffffffffffffffffffffffff83818316178352505050506040516113a99190612552565b6000604051808303816000865af19150503d80600081146113e6576040519150601f19603f3d011682016040523d82523d6000602084013e6113eb565b606091505b505090508061142f576040517f08c379a0000000000000000000000000000000000000000000000000000000008152600401611426906125b5565b60405180910390fd5b505050505050565b7f000000000000000000000000000000000000000000000000000000000000000073ffffffffffffffffffffffffffffffffffffffff166342b0b77c3085858560006040518663ffffffff1660e01b815260040161149995949392919061265e565b600060405180830381600087803b1580156114b357600080fd5b505af11580156114c7573d6000803e3d6000fd5b50505050505050565b6000604051905090565b600080fd5b600080fd5b600073ffffffffffffffffffffffffffffffffffffffff82169050919050565b600061150f826114e4565b9050919050565b61151f81611504565b811461152a57600080fd5b50565b60008135905061153c81611516565b92915050565b600060208284031215611558576115576114da565b5b60006115668482850161152d565b91505092915050565b60008115159050919050565b6115848161156f565b82525050565b600060208201905061159f600083018461157b565b92915050565b6000819050919050565b6115b8816115a5565b81146115c357600080fd5b50565b6000813590506115d5816115af565b92915050565b600080fd5b600080fd5b600080fd5b60008083601f840112611600576115ff6115db565b5b8235905067ffffffffffffffff81111561161d5761161c6115e0565b5b602083019150836001820283011115611639576116386115e5565b5b9250929050565b60008060008060008060a0878903121561165d5761165c6114da565b5b600061166b89828a0161152d565b965050602061167c89828a016115c6565b955050604061168d89828a016115c6565b945050606061169e89828a0161152d565b935050608087013567ffffffffffffffff8111156116bf576116be6114df565b5b6116cb89828a016115ea565b92509250509295509295509295565b6116e381611504565b82525050565b60006020820190506116fe60008301846116da565b92915050565b61170d816115a5565b82525050565b60006020820190506117286000830184611704565b92915050565b60008060008060808587031215611748576117476114da565b5b60006117568782880161152d565b94505060206117678782880161152d565b93505060406117788782880161152d565b92505060606117898782880161152d565b91505092959194509250565b60008060008060008060c087890312156117b2576117b16114da565b5b60006117c089828a0161152d565b96505060206117d189828a0161152d565b95505060406117e289828a0161152d565b94505060606117f389828a0161152d565b935050608061180489828a0161152d565b92505060a061181589828a0161152d565b9150509295509295509295565b600082825260208201905092915050565b7f4f6e6c7920706f6f6c2063616e2063616c6c0000000000000000000000000000600082015250565b6000611869601283611822565b915061187482611833565b602082019050919050565b600060208201905081810360008301526118988161185c565b9050919050565b7f4f6e6c792073656c6620696e6974696174656400000000000000000000000000600082015250565b60006118d5601383611822565b91506118e08261189f565b602082019050919050565b60006020820190508181036000830152611904816118c8565b9050919050565b600080fd5b6000601f19601f8301169050919050565b7f4e487b7100000000000000000000000000000000000000000000000000000000600052604160045260246000fd5b61195982611910565b810181811067ffffffffffffffff8211171561197857611977611921565b5b80604052505050565b600061198b6114d0565b90506119978282611950565b919050565b6000608082840312156119b2576119b161190b565b5b6119bc6080611981565b905060006119cc8482850161152d565b60008301525060206119e08482850161152d565b60208301525060406119f48482850161152d565b6040830152506060611a088482850161152d565b60608301525092915050565b600060808284031215611a2a57611a296114da565b5b6000611a388482850161199c565b91505092915050565b7f526f7574657230206e6f742077686974656c6973746564000000000000000000600082015250565b6000611a77601783611822565b9150611a8282611a41565b602082019050919050565b60006020820190508181036000830152611aa681611a6a565b9050919050565b7f526f7574657231206e6f742077686974656c6973746564000000000000000000600082015250565b6000611ae3601783611822565b9150611aee82611aad565b602082019050919050565b60006020820190508181036000830152611b1281611ad6565b9050919050565b600081519050611b28816115af565b92915050565b600060208284031215611b4457611b436114da565b5b6000611b5284828501611b19565b91505092915050565b6000604082019050611b7060008301856116da565b611b7d6020830184611704565b9392505050565b611b8d8161156f565b8114611b9857600080fd5b50565b600081519050611baa81611b84565b92915050565b600060208284031215611bc657611bc56114da565b5b6000611bd484828501611b9b565b91505092915050565b7f53776170312072657475726e6564203000000000000000000000000000000000600082015250565b6000611c13601083611822565b9150611c1e82611bdd565b602082019050919050565b60006020820190508181036000830152611c4281611c06565b9050919050565b7f53776170322072657475726e6564203000000000000000000000000000000000600082015250565b6000611c7f601083611822565b9150611c8a82611c49565b602082019050919050565b60006020820190508181036000830152611cae81611c72565b9050919050565b7f4e487b7100000000000000000000000000000000000000000000000000000000600052601160045260246000fd5b6000611cef826115a5565b9150611cfa836115a5565b9250828201905080821115611d1257611d11611cb5565b5b92915050565b600060ff82169050919050565b611d2e81611d18565b8114611d3957600080fd5b50565b600081519050611d4b81611d25565b92915050565b600060208284031215611d6757611d666114da565b5b6000611d7584828501611d3c565b91505092915050565b6000611d8982611d18565b9150611d9483611d18565b9250828203905060ff811115611dad57611dac611cb5565b5b92915050565b60008160011c9050919050565b6000808291508390505b6001851115611e0a57808604811115611de657611de5611cb5565b5b6001851615611df55780820291505b8081029050611e0385611db3565b9450611dca565b94509492505050565b600082611e235760019050611edf565b81611e315760009050611edf565b8160018114611e475760028114611e5157611e80565b6001915050611edf565b60ff841115611e6357611e62611cb5565b5b8360020a915084821115611e7a57611e79611cb5565b5b50611edf565b5060208310610133831016604e8410600b8410161715611eb55782820a905083811115611eb057611eaf611cb5565b5b611edf565b611ec28484846001611dc0565b92509050818404811115611ed957611ed8611cb5565b5b81810290505b9392505050565b6000611ef1826115a5565b9150611efc83611d18565b9250611f297fffffffffffffffffffffffffffffffffffffffffffffffffffffffffffffffff8484611e13565b905092915050565b7f4e487b7100000000000000000000000000000000000000000000000000000000600052601260045260246000fd5b6000611f6b826115a5565b9150611f76836115a5565b925082611f8657611f85611f31565b5b828204905092915050565b600060a082019050611fa66000830188611704565b611fb36020830187611704565b611fc06040830186611704565b611fcd6060830185611704565b611fda6080830184611704565b9695505050505050565b6000606082019050611ff96000830186611704565b6120066020830185611704565b6120136040830184611704565b949350505050565b7f43616e6e6f74207265706179206c6f616e000000000000000000000000000000600082015250565b6000612051601183611822565b915061205c8261201b565b602082019050919050565b6000602082019050818103600083015261208081612044565b9050919050565b7f4e6f742070726f66697461626c65000000000000000000000000000000000000600082015250565b60006120bd600e83611822565b91506120c882612087565b602082019050919050565b600060208201905081810360008301526120ec816120b0565b9050919050565b7f4e6f7420746865206f776e657200000000000000000000000000000000000000600082015250565b6000612129600d83611822565b9150612134826120f3565b602082019050919050565b600060208201905081810360008301526121588161211c565b9050919050565b7f4e6f20746f6b656e2062616c616e636500000000000000000000000000000000600082015250565b6000612195601083611822565b91506121a08261215f565b602082019050919050565b600060208201905081810360008301526121c481612188565b9050919050565b7f496e76616c696420746f6b656e20616464726573736573000000000000000000600082015250565b6000612201601783611822565b915061220c826121cb565b602082019050919050565b60006020820190508181036000830152612230816121f4565b9050919050565b7f496e76616c696420726f75746572206164647265737365730000000000000000600082015250565b600061226d601883611822565b915061227882612237565b602082019050919050565b6000602082019050818103600083015261229c81612260565b9050919050565b6122ac81611504565b82525050565b6080820160008201516122c860008501826122a3565b5060208201516122db60208501826122a3565b5060408201516122ee60408501826122a3565b50606082015161230160608501826122a3565b50505050565b600060808201905061231c60008301846122b2565b92915050565b600061232d826115a5565b9150612338836115a5565b9250828202612346816115a5565b9150828204841483151761235d5761235c611cb5565b5b5092915050565b7f4e487b7100000000000000000000000000000000000000000000000000000000600052603260045260246000fd5b6000819050919050565b6000819050919050565b60006123c26123bd6123b884612393565b61239d565b611d18565b9050919050565b6123d2816123a7565b82525050565b600081519050919050565b600082825260208201905092915050565b6000819050602082019050919050565b600061241083836122a3565b60208301905092915050565b6000602082019050919050565b6000612434826123d8565b61243e81856123e3565b9350612449836123f4565b8060005b8381101561247a5781516124618882612404565b975061246c8361241c565b92505060018101905061244d565b5085935050505092915050565b600060a08201905061249c6000830188611704565b6124a960208301876123c9565b81810360408301526124bb8186612429565b90506124ca60608301856116da565b6124d76080830184611704565b9695505050505050565b600081519050919050565b600081905092915050565b60005b838110156125155780820151818401526020810190506124fa565b60008484015250505050565b600061252c826124e1565b61253681856124ec565b93506125468185602086016124f7565b80840191505092915050565b600061255e8284612521565b915081905092915050565b7f53776170206661696c6564000000000000000000000000000000000000000000600082015250565b600061259f600b83611822565b91506125aa82612569565b602082019050919050565b600060208201905081810360008301526125ce81612592565b9050919050565b600082825260208201905092915050565b60006125f1826124e1565b6125fb81856125d5565b935061260b8185602086016124f7565b61261481611910565b840191505092915050565b600061ffff82169050919050565b600061264861264361263e84612393565b61239d565b61261f565b9050919050565b6126588161262d565b82525050565b600060a08201905061267360008301886116da565b61268060208301876116da565b61268d6040830186611704565b818103606083015261269f81856125e6565b90506126ae608083018461264f565b969550505050505056fea264697066735822122073ed0c59b60a6a6fa97c5072c068d9d5c63e319289a091a80a4f4bd7bf8d50d064736f6c63430008140033",
  "linkReferences": {},
  "deployedLinkReferences": {}
}